:020000021000EC
:1080000000400020AD0B0200E90B0200EB0B020068
:108010000000000000000000000000000000000060
:10802000000000000000000000000000ED0B020056
:108030000000000000000000EF0B0200F10B020046
:10804000F30B020001B70100B9080200F30B0200B4
:10805000F30B020000000000AD090200F30B020068
:10806000F30B0200210402001D090200F30B0200C1
:10807000F30B0200F30B0200F30B0200F30B020000
:10808000F30B0200F30B0200F30B0200F30B0200F0
:10809000F30B02008DFE0100B9000200F30B020099
:1080A000F30B0200F30B02000000000000000000D0
:1080B00000000000000000000000000000000000C0
:1080C00010B5064C2378002B07D1054B002B02D0AE
:1080D000044800E000BF0123237010BD20220020CF
:1080E00000000000A0B70200044B10B5002B03D025
:1080F0000349044800E000BF10BDC0460000000076
:1081000024220020A0B70200164B002B00D1144BF4
:108110009D46402292029A1A924600218B460F46B3
:108120001348144A121A11F0DCFF0F4B002B00D039
:1081300098470E4B002B00D09847002000210400E8
:108140000D000D48002802D00C4800E000BF0DF0E3
:108150009FF82000290011F016FC0DF083F8C046AE
:1081600000000800004000200000000000000000A7
:1081700018220020C02A002000000000000000009B
:1081800010B50400034B036040300EF0CAF9200024
:1081900010BDC046E0A302007FB50122084B09498B
:1081A00005A81A7001F0AEFBC82205A952000648C6
:1081B00002F010FF05A80EF0B4F907B000BDC046EC
:1081C000EF29002068B002006023002010B586B0BF
:1081D000104905A803F0DEFB05A904A801F0A2FBE5
:1081E00005A80EF019FB0C4905A801F08BFB05A9A9
:1081F00004A80EF004FA040005A80EF092F9002C71
:1082000002D00122054B1A7004A80EF08AF906B0BC
:1082100010BDC046582600206BB00200EE29002099
:1082200070B5194D86B0290005A803F0B3FB05A968
:1082300004A801F077FB05A80EF0EEFA049B134E9C
:108240001C1D310020000DF0B9F911F00EFF104B8C
:108250003100186020000DF0B1F911F006FF0D4B50
:108260000D49186005A801F04DFB05A928000FF085
:108270005DF905A80EF055F90122084B04A81A7003
:108280000EF04FF906B070BD5826002066B002000F
:10829000702200206C2200206BB00200EE2900202A
:1082A000F0B585B01F000AAB1B88060002911500CF
:1082B0000393002F1CD0282001F018FA6B4604000D
:1082C0001989039BAAB200933B000EF0C9F83368EA
:1082D00021005B683000984700280AD0002C05D0A8
:1082E00020000EF0D4F8200001F020FA024800E04F
:1082F000024805B0F0BDC04616FCFFFF17FCFFFFAB
:10830000F0B5E54895B000F007FDE44803F03EFA0B
:108310001C2001F0EBF9099000F0A2FA012001F015
:10832000E5F905000DF0F0FD01210EA80EF016F99B
:10833000C8220EA95200DA4802F04CFE0EA80EF038
:10834000F0F80023D74A1370D74A1370D54B1B7827
:108350000893002B00D0A2E01027D44ED44B032268
:10836000022130000097FFF79BFFD24B01221D2115
:1083700030000097FFF794FF642001F075F8CA4EB3
:108380003378002B6BD0CC490EA801F0BBFA7822D1
:108390000EA9C34802F084FE0EA80EF0C2F80DF03C
:1083A000FBFD089BFF2219000193009028000DF0AF
:1083B000ACFDC24F38600DF0EFFD089B0090190036
:1083C0000193642228000DF0A0FDBD4A0300106057
:1083D000BC4A290000923A680DA80DF0A3FD0DA932
:1083E0000EA80EF0F5F80EA9B7480FF09FF80EA8EA
:1083F0000EF097F820226B469B181B7833700DF017
:10840000CBFD089B029003931023012200931D21B2
:10841000AE4BA648FFF744FFA24B1E78002E1BD19F
:108420000DF0BAFD07960690069A079B02980399ED
:10843000121A8B411100002B02D1A54B9942E3D9AE
:10844000A4490EA801F05EFA78220EA9944802F021
:1084500051FE0EA80EF065F80DA80EF062F8914BD3
:108460001B78002B17D0954B8C4E19683000C9B281
:1084700003F078F9924B3000196803F0E5F896495B
:108480000EA801F03FFA78220EA9854802F032FECC
:108490000EA80EF046F8642000F0E6FF56E7002232
:1084A0000023029203930DF077FD00231E00049039
:1084B00005938A480EF042FB051E00D0AFE00DF098
:1084C0006BFD002E38D00A900B950A9A0B9B0498EE
:1084D000059965267642F717121A8B41B6185F4147
:1084E00006920793002F00D09BE0952149008E4211
:1084F00000D996E07A490EA80EF0EEF8684D3B00E0
:108500003A000EA901970097280002F039FD0EA845
:108510000EF0D5F82E34AF20800000F0A5FF280023
:108520000EF029FD0DF038FD0023029003930DF0AD
:1085300033FD039B0490059302980399049A059BCD
:10854000121A8B411100002B03D1FA23DB00994250
:10855000A9D9029B039A1343A5D010AB0E93002C0C
:1085600000D195E0200011F004FE25180D900F2891
:1085700007D900220DA90EA808F092FB0D9B0E90C2
:1085800010932A00002521000E9811F01FFD0D9B6D
:108590000E9A0F930EA9D55409980DF05BFD0600B5
:1085A0000EA811F0FCFC3F2E00D1A5E03100099887
:1085B0000DF01FFD099902000EA800F031F90E9987
:1085C000200011F0CEFD21000CA801F09BF90CA9B0
:1085D0000DA80DF0FDFF0DA93B480EF0A7FF0DA85B
:1085E0000DF09FFF3F490DA801F08CF9C8222C4CDB
:1085F00052000DA9200002F08DFC0DA80DF091FF96
:10860000AF20800000F030FF20000EF0B4FC0CA87A
:108610000DF087FF0EA811F0C2FC2C003FE7089E6A
:1086200047E70127069A079B2F4E7F42B6185F4106
:10863000002F15D1C72149008E4211D82B490EA811
:108640000EF04AF8164D3B003A000EA9019700972C
:10865000280002F095FC0EA80EF031F82D345AE7F0
:10866000079B002B05D1C823069A9B009A4200D88D
:1086700058E71F490EA801F045F9C822084D5200DD
:108680000EA9280002F046FC0EA80DF04AFF42E7B2
:10869000184811F06FFCC0467422002040260020CC
:1086A00060230020EE290020EF2900204423002031
:1086B000998101002182010073B002007022002024
:1086C0006C22002066B0020058260020CD810100F7
:1086D000102700007BB0020081B00200442200207D
:1086E00040220020B2B002006FFEFFFF3C220020BB
:1086F0003CB4020088B002000A490EA801F002F959
:10870000C822094C52000EA9200002F003FC0EA85A
:108710000DF007FFAF20800000F0A6FE20000EF055
:108720002AFC7AE7B4B002006023002073B5174D2D
:10873000280000F031FA164C16492200280011F0EA
:108740003CFB154D1549280001F0E8F9144E2200B4
:108750003100280011F031FB124D1349280001F0BF
:10876000DDF931002200280011F027FB00230F4D16
:10877000009301331A002800112101F077FD280031
:1087800022000B4911F019FB73BDC0467422002072
:1087900000200020B587010040220020F8AF020031
:1087A000BF6602003C2200202DB0020044220020BF
:1087B00055A20100EB23194A9B0010B5C2501C338F
:1087C0000400C0180DF0ADFEF1239B00E0180DF081
:1087D000A8FE84239B00E01801F076FD2000C53040
:1087E000FF3001F095FA20008D30FF3001F032FDAE
:1087F00020006530FF3001F02DFD2000EC3002F04C
:1088000005FA2000D03002F0DBFD2000643007F0D4
:1088100065FC201DFFF7B4FC200010BDE4A502009C
:1088200070B50C000D49050016000DF0B9FBE368AA
:10883000A361A169231D994208D00B0028331B783E
:10884000B34205D11031280011F0C5FB280070BDDE
:10885000200018300DF0C5FBEBE7C046B4B00200B5
:1088600070B5A84CA849A544040068460DF098FBD3
:1088700041236A46A549137607A80DF091FB4222D1
:108880000DAB1A70A2490EA80DF08AFB432214AB5F
:108890001A70A04915A80DF083FB44221BAB1A7077
:1088A0009D491CA80DF07CFB452222AB1A709B4908
:1088B00023A80DF075FB462229AB1A7098492AA807
:1088C0000DF06EFB472230AB1A70964931A80DF0BF
:1088D00067FB482237AB1A70934938A80DF060FB4C
:1088E00049223EAB1A7091493FA80DF059FBFF2376
:1088F0004A226B445A758E4946A80DF051FB9823C5
:108900004B2269465B00CA544DA88A490DF048FBCA
:10891000A6234C2269465B00CA5454A886490DF030
:108920003FFBB4234D2269465B00CA545BA88349D0
:108930000DF036FBC2234E2269465B00CA5462A882
:108940007F490DF02DFBD0234F2269465B00CA54AE
:1089500069A87C490DF024FBDE23502269465B00A8
:10896000CA5470A878490DF01BFBEC2351226946CC
:108970005B00CA5477A875490DF012FBFA23522206
:1089800069465B00CA547EA871490DF009FB842337
:10899000532269469B00CA5485A86E490DF000FB1E
:1089A0008B23542269469B00CA548CA86A490DF057
:1089B000F7FA9223552269469B00CA5493A8674947
:1089C0000DF0EEFA9923562269469B00CA549AA8E4
:1089D00063490DF0E5FAA023572269469B00CA546B
:1089E000A1A860490DF0DCFAA723582269469B0034
:1089F000CA54A8A85C490DF0D3FAAE23592269469F
:108A00009B00CA54AFA859490DF0CAFAB5235A229F
:108A100069469B00CA54B6A855490DF0C1FABC235B
:108A2000312269469B00CA54BDA852490DF0B8FADC
:108A3000C323322269469B00CA54C4A84E490DF094
:108A4000AFFACA23332269469B00CA54CBA84B49CC
:108A50000DF0A6FAD123342269469B00CA54D2A84D
:108A600047490DF09DFAD823362269469B00CA5427
:108A7000D9A844490DF094FADF23352269469B00BA
:108A8000CA54E0A840490DF08BFAE6233722694624
:108A90009B00CA54E7A83D490DF082FAED23382225
:108AA00069469B00CA54EEA839490DF079FAF423BF
:108AB000392269469B00CA54F5A836490DF070FA70
:108AC000FB23302269469B00CA540023221D1C262A
:108AD000E26022612371A3606361FCAA20000DF0B3
:108AE00010FB7642F5AD6E4428001C3D11F057FA9C
:108AF000B542F9D100232000A361FC239B009D44D3
:108B000070BDC04610FCFFFFCCB00200FEB00200FA
:108B1000B6B0020005B102000DB10200BBB0020008
:108B20000BB10200F2B0020006B10200E0B0020098
:108B3000CBB00200C0B0020012B102000CB10200C2
:108B400011B10200C5B00200CAB00200B7B0020005
:108B5000FFB0020013B10200D0B00200ECB002007E
:108B6000D5B00200CFB00200D4B0020004B10200C0
:108B7000D9B00200DFB00200E5B00200EBB00200A5
:108B8000F1B00200F7B00200FDB0020003B1020034
:108B900009B102000FB102001423F0B5040095B032
:108BA000009319221821043002F03AFF2200270016
:108BB0006432B43713211000119207F09BFA380089
:108BC0000EF02FFD2200B83210921E2100221098C4
:108BD0000EF0D6F92000D03002F012FC2200EC3268
:108BE00012920621494A129802F034F82000002619
:108BF000012365301A0000961121FF3001F036FB89
:108C000020008D300096012302221A21FF3001F04E
:108C10002DFB25002000C535B530FF351A23022273
:108C20000121FF3002F0AAFC109904233A22280007
:108C300001F01EF984229200A218139205231D222E
:108C4000019300923B002A001099139801F032FD25
:108C500096229200129BA01813992A0001F004FF9B
:108C600099229200A01839001C2203F005F819235C
:108C70009F220F93013B0E93013B0D93013B0C93FD
:108C8000013B0B93013B0A93013B0993013B089382
:108C9000013B0793013B0693013B0593013B049382
:108CA000013B0393013B0293013B01939200013B83
:108CB000A01800930822013B07210EF069F9EB236D
:108CC0009B00E018390003F077FBF3239B00E018CA
:108CD0001D2102F099FCFD239B00E650119826709F
:108CE000032110F080FD23002200200008499C335E
:108CF000A0321C6011605660064A80305A61022121
:108D0000012207F005FF200015B0F0BDE8A3020026
:108D1000AB610200956102000123F0B506788DB0C9
:108D200004001E4000D0A4E0FD20800500F0A6FC59
:108D30002300D0331800029300F07AFA00F0A0F973
:108D4000282000F0D3FC050010300DF08BFC4A4BBE
:108D500018202B6000F0CAFC0700484B0460082272
:108D600031000C300A930B9611F0BBF90AA9381D9B
:108D7000082211F09AF9424B29007B611223AF605F
:108D8000EE60AB802E626E62029802F0B1FA0028AB
:108D900005D028000DF07BFB280000F0C7FC012364
:108DA000227864201343237000F05EFB0025270027
:108DB0006537FF3738000DF0C1FE002855D0200080
:108DC0008D30FF300DF0BAFE00284ED00A2D4CD069
:108DD0006420013500F048FB0A2DE8D129492A48D2
:108DE00000F022FCEB23FD269B00E318B600039362
:108DF000A359002B32D100F057F8010006A800F06B
:108E000081FD0DF056FA04900DF053FA6B46059073
:108E1000198A08A80DF0A2FB059B09A8190C0DF0F2
:108E20009DFB09AA08A907A80DF0F9FB09A80DF0F8
:108E300078FB08A80DF075FB012307AA06A900938B
:108E40000398029B03F00CFB07A80DF06AFB06A831
:108E50000DF067FBED239B00E358A35121003A007E
:108E6000EC31039803F0A2FCA1E70649074800F0A3
:108E7000DBFB0DB0F0BDC046FD0300001D6202002B
:108E8000DD61020000200020001C002008000020FE
:108E9000BFF34F8F024B034ADA60BFF34F8FFEE7F9
:108EA00000ED00E00400FA05F0B58DB005AF192221
:108EB0001549380011F0F9F80022144B05245A71B5
:108EC00080225205566E01222500019402920393DE
:108ED0000199300007F0BAFF0800029907F030FF4F
:108EE000019B03996B430193029B361A6B430293D8
:108EF000631E2C1B6C433C19225C1C1ECA54E7D118
:108F000008000DB0F0BDC0464BB10200F0290020B2
:108F1000F0B597B018220021060010A811F0E1F872
:108F2000132110A810F09EFD032110A810F069FE77
:108F30004C4B1B68002B00D10133DBB202934A4A31
:108F4000012300210BA807F01DFD484B9E4200D9CC
:108F5000002672B6464B64211D68464B30000793CD
:108F6000052407F077FF60435030281808900A2145
:108F7000300007F06FFF0A2108F052F861435031CA
:108F80006918099130000A2108F04AF880236143EA
:108F90000024503169189B010A910193029B002B18
:108FA0005DD0002500272E1F07AB9B190593032CCE
:108FB00003D1802300249B01019307AB5B592E4A08
:108FC00003936300D3180493002319000620584329
:108FD000049A16187678B4466246039EB25C102650
:108FE0009446049A105C62460641164202D0012063
:108FF000984001430133092BE8D1C9431F4B059A1F
:10900000090119401268039B934225D1312F23DCBB
:1090100000210BA810F0C7FEFA23159A1199DB0066
:10902000106801421BD0013B002BF9D1019B013498
:109030005B000193FA230137E4B25B009F42B6D193
:109040000435102DAED1074B1B68002BA6D0029F14
:10905000013FFBB20293A1E7019B1943D9E7FFF758
:1090600017FFC04670260020F0FF0000E703000055
:10907000042000209AB1020064B10200F01F000039
:10908000F8B50023124C23600DF005F9002808D034
:10909000042120000DF0FBF8002801D00D4B2360C7
:1090A000F8BD0122A12704250B4B0C491A60226848
:1090B000FF0048604E68002EFCD0DE591202013DD0
:1090C0003243002DF5D1226001225A60E8E7C04604
:1090D0006C260020ED5EBC0B00D00040FCD00040B0
:1090E0000B4B70B51C68002C10D0656D00F0C6FBF2
:1090F000A36C002901D1834206D820000DF0FEF8B0
:10910000044920000DF0E8F82C00ECE770BDC046E3
:109110007826002098260020F0B593B007932A4BBC
:1091200004AC1E68049005910692002E4AD0274B8D
:10913000258867881C6800230293002C2ED0636D5D
:1091400023480393A36C9AB2A36C1B0C99B285427B
:1091500014D12048824211D1002B01D0B9420BD149
:10916000029B002B08D120000DF0C8F81A492000FE
:109170000DF0B2F801230293039CDEE7002A01D030
:109180009542F9D1002B01D0B942F5D120000DF064
:10919000B5F8114920000DF09FF8EDE70F4BEB18E3
:1091A000012B0FD910233A00009329000C4B08A87B
:1091B0000DF056F9336808A99B683000984708A855
:1091C0000DF065F913B0F0BD74260020A426002030
:1091D000FE030000FF0300009826002002FCFFFFB2
:1091E0001991010010B572B60B4B1C68002C08D009
:1091F00020000DF083F80023E364084B2000E363B4
:1092000010BD62B65C2000F071FA5C2200210400FF
:1092100010F067FFEFE7C0469C26002000400020CA
:10922000024B1878012318407047C046F6290020E9
:10923000F7B50600FFF7F4FF051E33D11A4C266080
:10924000FFF7D0FF194B1A4918600DF045F8FFF7EA
:10925000C9FF184B1860184B4363184B8363206891
:1092600000280ED0C027164E2A003300154900975B
:10927000FFF716F8009733002A0013492068FFF71C
:109280000FF80C2000F032FA0023838083710F4B1B
:1092900003600F4B836000F009FB01230D4A117836
:1092A0000B431370F7BDC04674260020A82600208B
:1092B00098260020A0260020FC3F0020C363020067
:1092C00019910100FF030000FE03000008A4020042
:1092D000E1900100F6290020F7B506000D00170007
:1092E0000193002802D100242000FEBD0029FAD0FD
:1092F000FFF778FF041EF6D0074B019A4363066020
:1093000045608760054B002A00D0054BA3630549E3
:1093100020000CF0E1FFE7E7FC3F00208D63020036
:10932000AB63020098260020024B18684342584164
:109330007047C04698260020002310B504499C00C1
:109340006258002A01D00133F9E76050100010BDC7
:1093500080260020002310B5044A99008C588442CE
:1093600001D00133F9E70020885010BD802600208D
:1093700010B50024084BA200D058002802D0036882
:109380005B6898470134062CF4D1044B1B68002B12
:1093900000D120BF10BDC0468026002098260020A6
:1093A000F8B5FFF73DFF00281BD0294D2C68E36C72
:1093B000DA0717D502263343E3640423254F3868C0
:1093C000C26C1343C364636BC3630CF0BDFF3868A6
:1093D000416C03F0E8FD2868C36C334201D003F010
:1093E0001CFEF8BD1C4F1D4E3A683168002A1ED184
:1093F00029602A688A4208D11B0706D52C60FFF72E
:10940000B7FF3B68002BFAD02B6029688C42E8D06C
:109410003368994214D1124B4B63124B8B6320007B
:109420000CF092FF2968626C4B6C20000DE0206DFF
:10943000B84203D1606D002800D002002A60D8E74E
:109440009C42ECD1002210004B6C03F06BFDC8E78E
:10945000A82600207C26002098260020A026002098
:10946000FC3F0020C363020070B50500FFF7D8FE83
:10947000002803D1280010F0B8FB70BD0C4B1C680D
:10948000E36CDB0706D5FFF7ADFE0A4B186000283A
:1094900000D0040000F0F2F92D18A56420000CF0B3
:1094A0002DFF054920000CF017FFFFF779FFE4E7D7
:1094B000A82600207C26002078260020F0B51E4B30
:1094C0001E4F1C683B6885B006000391002B30D00E
:1094D000FFF7A6FE00282CD0E36CDB070ED5FFF7C4
:1094E00081FE174B051E186008D00CF007FF1549C8
:1094F00028000CF0F1FE2C00FFF752FF039B200028
:109500001B043343A3640CF0F9FE20000E490CF059
:10951000E3FE0E4B0024F318012B07D9C023009360
:10952000039A0B4B31003868FEF7BAFE200005B0F5
:10953000F0BD084CFAE7C046A8260020742600209B
:109540007C26002098260020A426002002FCFFFF95
:109550001991010016FCFFFF10B5FFF761FE00280E
:1095600009D0054C20680CF0C9FE044920680CF0B5
:10957000B3FEFFF715FF10BDA82600209C26002093
:10958000F7B507000D0000282ED0FFF749FE002890
:109590002CD00724164E3068C36C1C4007D0154AE7
:1095A000290038000CF0C1FE00242000FEBD03F0AD
:1095B0001CFD02213268D36C1940019103D00321B4
:1095C0008B43D364F1E701242343D3642800B847D5
:1095D0003268D36C1900A143D164019C5B07E4D5C8
:1095E00028000CF0DAFEE0E7034CDEE7034CDCE792
:1095F000A82600209B63020017FCFFFF16FCFFFF5C
:10960000020010B5014B12CB12C210BDAC260020D7
:10961000034B1A68034B1A607E225A607047C0469B
:1096200004200020AC26002070B5104D2B78022BB2
:1096300018D0814218D90B1A072B15D90C00032317
:1096400004431C4010D172B62A78094BD200D05086
:10965000981841600CF0BBFE2B7801332B7062B67A
:10966000200070BD0348FCE70348FAE7F729002013
:10967000B426002013FCFFFF17FCFFFF70B500218C
:10968000041C07F0EFFC002828D1FE21201C8905CE
:1096900007F0F2FC002821D104300BF01DFE05007C
:1096A0000F48401B08F0C8FC211C08F065F907F0C2
:1096B00017FD03239843040028000BF017FE200039
:1096C0000BF00AFE002804D1203C002CF7D10548FD
:1096D00003E00119FFF7A8FF002070BD0248FCE776
:1096E0000038002013FCFFFF17FCFFFF70B50600D9
:1096F00000250C4B1B78AB4209DD0B49EB00C91868
:1097000030000CF06CFE041E09D10135F1E7300089
:109710000BF0E2FD041E02D11420FFF7F9FB20003C
:1097200070BDC046F7290020B426002070B500287F
:1097300013D00D4B0D491C7800239C4210DDDA003C
:10974000555885420AD28A185268824206D9802327
:10975000043802681B061343036070BD0133ECE755
:109760000BF0C4FDF9E7C046F7290020B42600201D
:1097700070B5051E14DD0B4E0B4C3368002B02D068
:10978000206810F0ADF8FA2120680024074B89000A
:109790008361C4626943356010F0AAF8200070BD8F
:1097A0000348FCE7C4260020F42600205998010055
:1097B00017FCFFFFF8B5114F06003D68002D0AD1D8
:1097C0003020FFF793FF040006F0B8FC0C4BA561B6
:1097D0002360E5623C600B4D2B68002B09D1102003
:1097E000FFF784FF040010F044F820002C6010F014
:1097F0001AF83000FFF7BCFFF8BDC046F426002081
:1098000080A90200F0260020014B18687047C0466E
:10981000C426002070B50D4C2368002B03D00C4BE0
:109820001B68002B02D10620FFF7C4FF206810F050
:1098300011F802000749C3170D684E6852197341A9
:1098400020680A604B6010F00BF870BDF026002015
:10985000F42600201822002010B5FFF7DBFF0024BB
:10986000054BA200D058002802D003681B68984717
:1098700001340A2CF4D110BDC826002010B5FFF722
:10988000C9FFFA22034B920018685968002307F0B9
:1098900007FC10BD1822002010B5FFF7BBFF024BDC
:1098A0001868596810BDC046182200200B4B10B52F
:1098B0001B680400002B03D0094B1B68002B02D14E
:1098C0000620FFF777FF0023064A990088580028F2
:1098D00001D00133F9E78C5010BDC046F0260020BE
:1098E000F4260020C8260020002310B5044A990061
:1098F0008C58844201D00133F9E70020885010BD14
:10990000C826002010B50400002902D00B78002BD7
:1099100003D1034B2360200010BD0CF009FEFAE7D1
:1099200018A40200F8B5040008000D000CF0B0FF08
:10993000002803D1134B23602000F8BD28000CF051
:10994000A7FF0530FFF7D2FE20600CF0A4FF28002F
:109950000CF09EFF23685880236828001E1D0CF021
:1099600094FF070028000CF093FF3900020030003C
:1099700010F09BFB280026680CF08AFF00233618A5
:109980003371D9E718A40200F8B504000E001500E1
:1099900000290AD00B78002B07D0002A05D0080038
:1099A00097B210F0E6FB874203D90B4B23602000EF
:1099B000F8BD681DFFF79AFE20600CF06CFF23686D
:1099C0002A005F8023683100181D10F06EFB2368A9
:1099D0005D1900232B71EAE718A40200014B036014
:1099E0007047C04618A4020010B50548054C206019
:1099F0000CF054FF044A0549200010F0DEF910BDB8
:109A000018A40200F8260020002000202365020090
:109A1000084B73B51C680500002C0AD001002668AD
:109A200008310822684610F040FB0CCD3168200058
:109A3000884773BDFC260020014B03607047C04679
:109A400020A4020030B500684488A1420CDA858861
:109A5000AA4209DA002907DB002A05DB5443401833
:109A600000198371002030BD0048FCE717FCFFFFA0
:109A7000F0B5070085B00E001D0000291FDD002B8A
:109A80001DD00468638803938B4200DD0391A38893
:109A90000293934200DD0292002306340193019B5E
:109AA000029A93420EDA29002000039A10F0FDFA80
:109AB0003B68AD195B88E418019B0133EEE702486F
:109AC00005B0F0BD0020FBE717FCFFFFF8B5040070
:109AD0000D0016001F00002901DB002A02DA0E4BE0
:109AE0002360F8BD100048430630FFF7FFFD2060FB
:109AF0000CF0D1FE23685D8023689E80002F06D085
:109B00003B00320029002000FFF7B2FFE9E7200008
:109B10000CF0EAFDE5E7C04620A40200F0B506001F
:109B200087B00D1E04D1244B0360300007B0F0BD98
:109B300000200F000400010001903B78002B1AD098
:109B40003022524294469C446246092A11D90A2B7B
:109B50000AD1019B241801330193A14200DA2100AC
:109B6000002004000137E8E70028FBD00134002082
:109B7000F8E70120F6E76A46928809B212B230008F
:109B8000FFF7A4FF33689C1D03AB1F002A78002A4F
:109B9000CBD011003039092903D81A7001330135AF
:109BA000F4E700221A70BB42F9D9380010F05DFAD0
:109BB0003B0020700134F2E720A40200F0B504005D
:109BC00089B006A80E0002921D00FFF719FD236858
:109BD00002995A88914235DA9B889D4232DA1F2ECB
:109BE00030D9079B01939E422CDC0523002273434E
:109BF0000393069B0493039B04999B18A03BCB5CA7
:109C000000210593AE18029BCF1823685888019055
:109C100087420EDA9888B0420BDDDB1910270F411E
:109C2000019870431B1805980740781E87417F42B2
:109C30009F7101310529E6D10132052ADBD10020CF
:109C400009B0F0BD0048FBE717FCFFFFF7B504685B
:109C5000070063880E1E01931EDD994218DA002367
:109C6000063400933B68009A9B889A4212DA019B63
:109C7000A1199D1B2A00200010F017FA601931006D
:109C80000CF024FD3B685B88E418009B0133E8E797
:109C90000CF02AFD002000E00048FEBD17FCFFFF8D
:109CA00010B50548054C20600CF0F8FD044A054944
:109CB000200010F082F810BD20A402000027002030
:109CC00000200020BF66020010B5054C01212000D5
:109CD0000CF0CCFD034A0449200010F06EF810BDD2
:109CE0000427002000200020196802000388074A8A
:109CF00010B50120934208D0834202D00020DB0738
:109D000003D41E20FFF704F9002010BDFFFF000060
:109D100010B50400034B08330360FFF71BFB200062
:109D200010BDC04668A40200FA2270B543899200B3
:109D30005343314A31491400050038348B421BDC4F
:109D40002F498B4218D82F49083C8B4214D82E49F2
:109D5000083C8B4210D82D49083C8B420CD82C492A
:109D6000083C8B4208D82B49083C8B4204D82A492E
:109D700014008B4200D90834284B2A7B1E1D042A6C
:109D800003D89E1C022A00D81E00FA2120688900F0
:109D900006F0D6FF337868812B7300222A21280031
:109DA0000CF0A0FD002801D01D4870BD10222B2111
:109DB00028000CF097FD0028F6D101222D21280063
:109DC0000CF090FD0028EFD101222E2128000CF08C
:109DD00089FD0028E8D172780E2128000CF082FD60
:109DE0000028E1D1012223792A211A4328000CF00E
:109DF00079FD0028D9D0D7E728A4020000C40900C3
:109E00000071020080380100204E00001027000081
:109E100088130000C4090000E20400007AB30200C5
:109E20000EFCFFFF7FB515000F226A4404001E00E0
:109E30001170002D16D0002B14DD01230189009331
:109E4000006B01F0D1F9002802D0074804B070BDC2
:109E50000090218933002A00206B01F07BF9002853
:109E6000F4D0F2E70148F1E70EFCFFFF17FCFFFF1B
:109E7000F7B50600002501931E4B14360833040085
:109E8000036085808571C581058245820F0000923F
:109E900029001822300010F024F91C2130000FF0A6
:109EA000E1FD6B469B880221A3806B461B88220044
:109EB00023811423A5712173A563A58763813E3295
:109EC000137827638B43F1310B4013702300957295
:109ED00095810135221DD5870833A21DD587200025
:109EE000DD87FFF721FF002802D1A3791D43A5716B
:109EF0002000FEBD68A4020030B50425837987B038
:109F000004002B4204D1FFF717FAA3791D43A57172
:109F1000A36AA2691B6800251A4208D106236A4673
:109F200001212000FFF77EFF051E03D0114D280000
:109F300007B030BD6B460222042069469A56185677
:109F4000237BD2005A43228202220978C00049B200
:109F5000C900594343436382A379E1819343A371C9
:109F600020000CF0CDFC0123A1881A0002A80CF0FF
:109F700083FBDCE70EFCFFFFF8B50400FFF7BCFF36
:109F80000E22A35E794F5B42BB4251DA23003E337F
:109F90001B789B074CD50125210028003E310B780A
:109FA0005A08904302000220AA40834313430B70D7
:109FB0002000FFF7A1FF1022A35E5B42BB4248DAFC
:109FC00023003E331B785B0743D501252100280081
:109FD0003E310B789A089043820004208343134358
:109FE0000B7026002000FFF787FF1222A35E483681
:109FF000BB423EDA23003E331B781B0739D52100D4
:10A0000001223E310B78D80882430820D2008343D6
:10A0100013430B703378032B3BD80133DBB233701F
:10A02000012B00D08DE0230000224A331A8030E05B
:10A030002000FFF761FF0E22A35EC8225B425200A0
:10A0400000259342B4DD23003E331B789B07A2D545
:10A05000AEE72000FFF750FF1022A35EC8225B424C
:10A0600052009342BDDD23003E331B785B07ACD525
:10A07000B7E72000FFF740FFC8231221625E5B00B4
:10A080009A4204DD23003E331B781B07B7D5002D11
:10A09000C0D13278002A14D02100270001254A318E
:10A0A0000B883E3701339BB20B803878AC460540B5
:10A0B00055D01D2B05D963469843002338700B807B
:10A0C000337020000CF088FC294A0723904244DDBD
:10A0D0002000FFF711FF0E23E25E264E52420323BB
:10A0E000B2423ADBC8252000FFF706FF0E23E25EEE
:10A0F000AD0052420423AA422FDC2000FFF7FCFEF1
:10A100001023E25E02235242B24226DB2000FFF718
:10A11000F3FE1023E25E01235242AA421DDC20001E
:10A12000FFF7EAFE1223E25E0523B24215DB2000B0
:10A13000FFF7E2FE1223E25E0623AA420DDC0023B3
:10A140000BE0042BA5D122003E321178033B0B43D8
:10A15000137000234A3423800B331800F8BD092BF9
:10A16000AFD9013A0D803270ABE7C04670FEFFFFF9
:10A17000FF700200E0FCFFFF70B5C369C1681A6898
:10A18000451D8AB00400EB7F114255D0002B58D1F9
:10A19000EB7F082B0DD90122A379134209D1134378
:10A1A000A371A188130006A80CF066FAFFF766FBFE
:10A1B0002062EB7F012B23D80123A2791A421FD002
:10A1C0000025A188A571022202A80CF055FAA31D52
:10A1D000DE7F012E14D1FFF751FB2B00226A801A7B
:10A1E000994100900191019BA188AB4203D1174B8B
:10A1F000009A9A4227D90123042206A80CF03CFABF
:10A200000322A3791340012B14D1FFF737FB00235E
:10A21000226A801A9941994202D10D4B984209D97C
:10A220000223A279A1881343A3710522012306A862
:10A230000CF022FA0AB070BD0B2BA9D80133EB77D2
:10A24000A6E7013BFBE733000322D6E7E703000064
:10A25000DB05000010B50400034B08330360FFF773
:10A2600043FB200010BDC04680A40200F0B50700EB
:10A2700000250E0085B002930AAB1B7808370393C4
:10A28000104B04000833036001928580857129001A
:10A29000182238000FF025FF039A310038000FF024
:10A2A000E6FB6B466A469B88127AA380A31DE67183
:10A2B000DA77631D25622000DD77FFF7F7FA2000CB
:10A2C00005B0F0BD80A4020010B50400034B0833B4
:10A2D0000360FFF73FF8200010BDC046F0A4020065
:10A2E0007FB515000F226A4404001E001170002D76
:10A2F00016D0002B14DD012301890093C06B00F000
:10A3000073FF002802D0074804B070BD0090218977
:10A3100033002A00E06B00F01DFF0028F4D0F2E7C4
:10A320000148F1E70EFCFFFF17FCFFFF002330B5EB
:10A3300085B003AC21700189009305000133220030
:10A34000C06B00F051FF002802D0094805B030BDB5
:10A3500020802989009002232200E86B00F0FAFE99
:10A360000028F2D1237860781B02184300B2EDE791
:10A370000EFCFFFF13B56B46DC1D0023220023708B
:10A380000133FFF7ADFF002801D1207816BD014849
:10A39000FCE7C0460EFCFFFFD0B504000CF0F6FB56
:10A3A000E268A369981A09F095FA06000F0023697C
:10A3B000E069C01A09F08EFA32003B0009F0D8FDBE
:10A3C0000022104B08F096FC0F4A104B08F090F951
:10A3D00009F00CFB0021041C06F03AFE002804D012
:10A3E000201C0B4906F056FF041C201C09F0ACFA97
:10A3F00002000B000020074908F0EEFE09F034FAD5
:10A40000D0BDC04600806640EA2E4454FB2109407E
:10A410000000B44300807640F0B5050085B0006CC4
:10A420000CF077FB061C286C0CF06AFB0221071C61
:10A4300028000CF0DCFB0221039028000CF0E9FB63
:10A4400007F0B0FD0221041C28000CF0F4FB07F01B
:10A45000A9FD051C301C09F04DFD0290301C09F0CF
:10A460000BFD0190381C09F045FD061C381C09F055
:10A4700003FD071C039807F095FD391C07F07CFAD3
:10A48000311C071C201C07F077FA029907F074FAB8
:10A49000011C381C06F0FEFE311C071C281C07F0AE
:10A4A0006BFA019907F068FA011C381C06F0F2FEFD
:10A4B0000299061C281C07F05FFA0199051C201C54
:10A4C00007F05AFA011C281C07F088FB311C09F020
:10A4D00053FD0D4907F050FA09F036FA0B4A0C4BC0
:10A4E00008F006F909F082FA0021041C06F0B0FD1C
:10A4F000002804D0201C044906F0CCFE041C201CBB
:10A5000007F030FD05B0F0BD0000B443EA2E44541E
:10A51000FB21194070B50022102104000CF028FB2B
:10A520001B4D00282DD1032608212000FFF722FF14
:10A53000A84226D0304226D1FA21638989005943A6
:10A540005023144AD518D058884204D3D518083B54
:10A5500018000830F7D1FA212868890006F0F0FBCE
:10A56000A0226081112120000CF002FB002808D1FC
:10A5700001222B7910211A4320000CF0F9FA00284F
:10A5800000D0034870BD6420FEF76EFFCCE7C046E4
:10A590000EFCFFFF98A402007FB504258379040018
:10A5A0002B4218D102260CF0F1FAA379A188B3430B
:10A5B0002B43A3710622012368460CF05DF8A079B5
:10A5C00003003040AB43A37143425841034B404228
:10A5D000184004B070BD0248FBE7C04614FCFFFF02
:10A5E00015FCFFFF10B5837904005A070DD49B07B3
:10A5F00001D4FFF7D1FF236C2000002B02D0FFF71E
:10A600000BFF10BDFFF7C8FEFBE70148F9E7C046A6
:10A6100015FCFFFF70B5466C86B001AC05000191DA
:10A620006260A360002E0CD00B4905A8FFF76AF901
:10A630000C23220005A930000DF032F805A80BF01C
:10A6400070FF2B000C3307CC07C30223AA791343F6
:10A65000AB7106B070BDC04680B30200642330B554
:10A6600004000281438185B08180FFF753FF0222FD
:10A67000A379606C9343A371002813D00C490CF0AC
:10A68000D6FF051E0ED001000C22103101A80FF0DC
:10A690000CFD20000199029A039BFFF7BBFF2800E5
:10A6A000FFF744F80123A2791343A37105B030BD2D
:10A6B00080B30200F7B5009308AB1B880400019338
:10A6C00009AB1D8800230F0016000D4A8380083255
:10A6D00083710260C360036143618361C36103628C
:10A6E0001D2124300CF037FA009BE7632664290013
:10A6F00020006364019AFFF7B1FF2000FEBDC04651
:10A70000F0A4020082B0F0B50400A5B064202B9341
:10A710002A920FF06AFA04220C2109A802F0DEFC4A
:10A720002422CC491BA80FF0C0FC052206A811006A
:10A730000BF0E3FFC84907A8FFF7F0F9A06800F0A5
:10A7400081FBA568C54918A8FFF7DCF8782218A98D
:10A75000280000F0A5FC18A80BF0E3FE6E2564208D
:10A76000013D0FF042FA002DF9D1A06800F06AFB1C
:10A77000A0680CF000FC012160680CF041F9012197
:10A78000070060680CF04FF906000A200FF02DFA60
:10A790000022B34B03929F4210DB013203923A0036
:10A7A000C8320BDBC822042192000391974205DCDA
:10A7B00003220392C82F01DC013A039200279E4234
:10A7C0000CDB33000137C83308DBC82303379B0099
:10A7D0009E4203DC013FC82E00DC013F06A80BF0BF
:10A7E00083FF0026032373431BA9CA18907800280F
:10A7F00005D0C95C5278FF2306A8FFF723F901367C
:10A800000C2EEFD16B463AB20C21595E06A8FF23FD
:10A81000FFF718F90023A06800931A00743006A906
:10A820000BF072FF002304930323049A039853430D
:10A830001BAA995C814237D1D31805935B78BB4240
:10A8400032D1059B9E78002E2ED1310020680CF06D
:10A85000CEF907F0A7FB3200031C290009A80DF070
:10A86000A8F9310020680CF0D4F907F09BFB012215
:10A87000031C290009A80DF09CF9310020680CF098
:10A88000DAF907F08FFB2900031C022209A80DF05A
:10A8900090F9FE2303229B05290009A80DF089F9F0
:10A8A0000123059AED189370049B013304930C2B3C
:10A8B000BAD164200FF099F90B2D00DC5BE709A8F1
:10A8C0000DF063F9012201000CA802F007FC00253D
:10A8D00009A80DF05AF9A8423CDD2900002209A878
:10A8E0000DF055F90022061C290009A80DF04FF9BA
:10A8F000011C301C07F040F82900061C012209A8A1
:10A900000DF045F90122071C290009A80DF03FF9B7
:10A91000011C381C07F030F8311C06F0BBFC290084
:10A92000061C022209A80DF032F902222900071C98
:10A9300009A80DF02CF9011C381C07F01DF8311C7A
:10A9400006F0A8FC2900031C00220CA80DF031F928
:10A950000135BDE709AA1100012318A80DF043F93C
:10A9600018A90FA80DF09CF918A80DF033F90CAA3E
:10A9700009A912A801230DF036F9002312AA0FA984
:10A9800015A80DF030F9002215A811000DF0FFF800
:10A990000022061C012115A80DF0F9F80022051C63
:10A9A000022115A80DF0F3F8FC21071C8905301CC5
:10A9B00006F0E2FF07F0D6FAFC21060018908905A0
:10A9C000281C06F0D9FF07F0CDFAFC2105001990EC
:10A9D0008905381C06F0D0FF07F0C4FA2A000300EE
:10A9E00031001A902068FFF715FEA0680CF0C3FA3A
:10A9F00007A908A8A5680BF06FFE0022194B00926A
:10AA000008A901932800130000F0BAFA08A80BF077
:10AA100056FEFA2080000FF0E8F8A0680CF0ABFAC0
:10AA200015A80DF0D7F812A80DF0D4F80FA80DF066
:10AA3000D1F80CA80DF0CEF807A80BF040FE06A840
:10AA40000BF03DFE09A80DF0C5F825B0F0BC08BC20
:10AA500002B018478BB30200AFB30200F4B3020098
:10AA6000E0FCFFFFDC050000F7B583601D4B05002F
:10AA70001F6801604260002F31D02820FEF736FEAB
:10AA8000040010300BF0EEFD174B18202360FEF78A
:10AA90002DFE00220600154B0192056008320021B0
:10AAA0000C3000930FF01DFB08226946301D0FF09B
:10AAB000FCFA0F4B00227361C223A3803B68E26063
:10AAC000A660226262625B68210038009847002815
:10AAD00005D020000BF0DBFC2000FEF727FE28004D
:10AAE000FEBDC046FC2600200500060005A70100AB
:10AAF0004F6C0200F0B5040085B0637A9C46002BD1
:10AB000004D120000CF0CEF805B0F0BDA37A266F7A
:10AB100001931023019AF35600259B1801229A40B5
:10AB20002900F36803920293029BAB4231DDB368C4
:10AB3000019A6B439B1872695B00E77AD3181A7805
:10AB40005878E379012F14D15F1E3F1A10003A00A4
:10AB50005B004343606F8218D3189B79634500DD27
:10AB60006346627B1A4202D00123AB401943013590
:10AB7000DAE7022F05D15F1EBA1A277A013F381A89
:10AB8000E6E7032FE4D1277A013FBF1A020038001D
:10AB9000DEE71123C943F356606C994023691940DD
:10ABA000039B19430FF0FFF8A27B072AACD8637B05
:10ABB0000C495B006373531CDBB290004158A373D4
:10ABC000022A03D808000FF005F896E7064B20008C
:10ABD000236300236363054BE462236414300EF0A7
:10ABE00087FE91E708A50200F5AA01008F6C02001C
:10ABF00010B50400044B03600EF072FE200005F057
:10AC0000B3FA200010BDC04680A9020010B50400B0
:10AC10000E4B08330360FEF767FE200074300BF024
:10AC20004EFD200060300BF04AFD200058300BF044
:10AC300078FC200050300BF074FC2000044B1430E2
:10AC40006361FFF7D5FF200010BDC04628A50200B4
:10AC5000B4A90200F8B500250400324B8580083302
:10AC600003608571143016000F0005F067FA2000AC
:10AC70002D4BE562636125645030FEF7AFFE200086
:10AC80005830FEF7ABFE20006030FEF7D5FE200006
:10AC90000423F25E33682667590009B274300BF062
:10ACA0002CFD3368226FE371736801262372102331
:10ACB0006581A7802561D35691685918994204DDB2
:10ACC0003000984001330543F8E711230120D356A3
:10ACD000D1685918994206DD02009A40266901336D
:10ACE00032432261F6E71420FEF700FD22690021BD
:10ACF0002A430123060005F045FEFF23220063726C
:10AD00000133A381002348326664A37320001370CB
:10AD1000A366FEF7CBFD0123A27920001343A371A4
:10AD2000F8BDC04628A50200B4A90200F0B5437AD8
:10AD300085B00400002B04D120000BF0B3FF05B058
:10AD4000F0BD0122837A11009C461023066F002576
:10AD5000F35603926344994002912900F3680193EA
:10AD6000019BAB422CDDB36872696B4363445B00AB
:10AD7000E77AD3181A785878E379012F10D15F1E3B
:10AD80003F1A10003A005B004343606F8218D318EB
:10AD90009B79002B02D0039BAB4019430135DFE7C1
:10ADA000022F05D15F1EBA1A277A013F381AEAE747
:10ADB000032FE8D1277A013FBF1A02003800E2E7EB
:10ADC0001123C943F356606C994023691940029BD3
:10ADD00019430EF0E8FF667AB31EDBB2FC2B14D8E1
:10ADE000FEF712FD0B4B0500236300230A48636343
:10ADF0000A4BFF21E4622364704306F02BF829001C
:10AE00004143200014300EF073FD637A012B00D90A
:10AE100095E791E7A56C0200B60300008F6C020075
:10AE20001FB5012381881A0068460BF025FC012319
:10AE300003491A0068460BF01FFC05B000BDC04670
:10AE4000FE0300001FB5030048331A780400002AEF
:10AE50000DD000221A70012381881A0068460BF079
:10AE60000BFC012304491A0068460BF005FC200086
:10AE700074300BF039FC1FBDFF03000010B54830E3
:10AE80000378002B06D00378012B03D00121024860
:10AE90000BF073FA10BDC046FF03000010B501218E
:10AEA000040006200BF069FA064B984208D148349A
:10AEB0002378002B04D02378012B01D020BFF7E7A3
:10AEC00010BDC04616FCFFFF70B50600141E19DB4E
:10AED000050048352B78002B02D02B78012B13D19D
:10AEE000002330001A007430FEF768FE002C07D0F3
:10AEF00033004A331C80002407234C3634802B70E7
:10AF0000200070BD014CFBE7014CF9E717FCFFFF87
:10AF100012FCFFFFF8B517000A68050052880B0005
:10AF2000012A09D1002118000BF08FFB002201003B
:10AF30002800FFF7C9FFF8BD002F19DD06004836CD
:10AF40003278002A02D03278012A13D12A00002454
:10AF500028005C321900148058300BF041FB2B00A4
:10AF60004A331F8003234C352C8020003370E2E7E6
:10AF70000148E0E70148DEE717FCFFFF12FCFFFF96
:10AF800073B5079C0500002C1CDB060048363078A2
:10AF9000002802D03078012816D106981BB2C0B222
:10AFA0000090280012B274300BF0AEFB002C07D0DA
:10AFB0002B004A331C80002407234C352C8033702F
:10AFC000200076BD014CFBE7014CF9E717FCFFFFC1
:10AFD00012FCFFFFF7B505000E00171E26DDFFF778
:10AFE0004DFF2B0048331C78E4B2002C20D133688D
:10AFF0005B88012B09D1210030000BF026FB2200D9
:10B0000001002800FFF760FFFEBD310001A80BF032
:10B01000DFFA3A0001A92800FFF77CFF01A80BF036
:10B0200080FA2800FFF73AFF2000EDE70148EBE740
:10B030000148E9E717FCFFFF11FCFFFFF0B587B0FF
:10B040000D9C06000F0002920393002C20DBFFF7FB
:10B0500015FF330048331D78EDB2002D1AD13900A9
:10B0600005A80BF039FB0C9B01940093029A039BFB
:10B0700005A93000FFF784FF05A80BF020FB002C8A
:10B0800003D03000FFF70AFF2C00200007B0F0BD0E
:10B09000014CFAE7014CF8E717FCFFFF11FCFFFF3A
:10B0A000F8B50400171E1DDD060048363378002B66
:10B0B00002D03378012B17D12200E3795632013BBD
:10B0C000137023000025200054331D8050300BF0F6
:10B0D00087FA23004A331F80022328004C3425803E
:10B0E0003370F8BD0148FCE70148FAE717FCFFFFA1
:10B0F00012FCFFFFF7B505000F00161E18DDFFF765
:10B10000BDFE2B0048331C78E4B2002C12D139006C
:10B1100001A80BF05DFA320001A92800FFF7C0FF7B
:10B1200001A80BF0FEF92800FFF7B8FE2000FEBDD5
:10B130000148FCE70148FAE717FCFFFF11FCFFFF9D
:10B14000FF2902D84172002070470148FCE7C04641
:10B1500017FCFFFFF0B51F0085B00AAB1B78040099
:10B16000039300933B000D0016000EF0E7FB002850
:10B1700033D0237D082B2DD8236800221900FC3101
:10B180008A62A021C9005A50154905205A50013839
:10B19000C046C046C046C046C046C046C046C0467F
:10B1A000C046C046C046C046F1D1236801325A505D
:10B1B000A0210432C9005A5005F0D0F8039B320098
:10B1C000009329003B0020000EF0B8FB237D0133E3
:10B1D0002375CCE7034805B0F0BD2075FBE7C046FA
:10B1E000FC0F00000EFCFFFFF0B51F0085B00AAB9E
:10B1F0001B780400039300933B000D0016000EF033
:10B2000085FB002833D0237D082B2DD8236800220E
:10B210001900FC318A62A021C9005A501549052045
:10B220005A500138C046C046C046C046C046C04617
:10B23000C046C046C046C046C046C046F1D123689D
:10B2400001325A50A0210432C9005A5005F086F844
:10B25000039B3200009329003B0020000EF056FBB8
:10B26000237D01332375CCE7034805B0F0BD20757D
:10B27000FBE7C046FC0F00000EFCFFFFF8B50D1EFB
:10B2800030D000260227C468002C28D0AA88A388C2
:10B2900053403B4204D13A4204D1AB883B4219D0DF
:10B2A000646AF1E7A968A0680CF05EFC0028F4D09D
:10B2B0002B88002B02D022889A42F1D16B88002B78
:10B2C00002D062889A42EBD1A288074B0136134321
:10B2D000A380E5E7A368AA689342E1D1E8E72000EC
:10B2E000002E00DC0148F8BD0080FFFF17FCFFFFC7
:10B2F000F0B5060085B00D1E59D00127C468002C9A
:10B3000022D00221AA8800230A4202D0A3885B0827
:10B310003B40226829688A4210D1A068A968002BA6
:10B320000AD00CF021FC002808D0A3881AB2002A09
:10B3300006DB204805B0F0BD8842F6D0646ADEE73F
:10B340005B045B0CA380F4E7F0682A88002807D12F
:10B35000F5600123184968460BF08EF90020E9E7F3
:10B36000010003001C88944206D25C6A1900002C7C
:10B370000DD02300F6E723001C88944207D15F8894
:10B380006C88A74203D25C6A1900002CF3D1814279
:10B3900009D10B889A4204D305D148886B8898421A
:10B3A00001D96962D4E74B6A6B624D62D1E7034809
:10B3B000C0E7C04616FCFFFFFD03000017FCFFFFBF
:10B3C000064B10B51A00040008322C3302604360AB
:10B3D0000430FDF7BFFF200010BDC04640A50200AD
:10B3E00008B4024B9C46043808BC6047C1B3010056
:10B3F00008B4024B9C46043808BC6047B770020092
:10B400000C4A002311002C32083110B503818372DD
:10B410004260C36003614361438301600400043000
:10B42000FDF78AFF044B1A68002A00D11C60200037
:10B4300010BDC04640A50200FC260020F7B50E0056
:10B440000125C4680192002C36D0238832889A42A4
:10B4500001D0002B23D1638872889A4201D0002B3F
:10B460001DD1FDF7DDFE0123002806D0C022A388F0
:10B470001340C03B5A425341DBB2019A934219D167
:10B48000A7883BB2002B15DB10223100A0180EF06C
:10B490000CFE40231F4204D020000BF015FE646A0E
:10B4A000D1E7FDF7BDFE0028F6D021000348FEF7E6
:10B4B00067F8F4E70025F2E72800FEBDC970020036
:10B4C00008B4024B9C46043808BC60475172020025
:10B4D000F0B587B001930EAB1B88060003930D9B5C
:10B4E0000D000093019B02920C9F002B3DD0002F7A
:10B4F00002D1009BDB0738D52820FEF7F7F80400BF
:10B5000010300BF0AFF86B461B8925806380182044
:10B51000FEF7ECF80500009B08220593019B002133
:10B5200003600C3004970EF0DCFD082204A9281DEE
:10B530000EF0BBFD0E4B02226B6100230399E3600A
:10B540002362636233680A43A560A2805B682100BE
:10B5500030009847002806D020000AF098FF20000D
:10B56000FEF7E4F8034807B0F0BD0348FBE7C04628
:10B570008B72020016FCFFFF17FCFFFFF0B5040002
:10B58000160000258380164A164B857102602181C2
:10B5900046810573186889B08C46A8421DD0124AAE
:10B5A00005950492C02202926A4604AB82CB82C205
:10B5B00023002A006146FFF78BFFC022094B0A498E
:10B5C000186802926A46069106AB079582CB82C242
:10B5D00023002A003100FFF77BFF200009B0F0BDF7
:10B5E00084A50200FC260020B573020030B50024BB
:10B5F00003730123034D847105608180827343735B
:10B60000846030BD9CA5020070B5040000250C4B81
:10B610000E000833858085710360210018300BF01F
:10B6200081FF2000210020300BF0A7FF054BA680F2
:10B63000E5802572E5602561656120001C6070BDB4
:10B64000ACA502000827002010B50C000AF023FE6C
:10B65000002806D1642C06D8A123044ADB00D4506C
:10B6600010BD0348FCE70348FAE7C046001000405D
:10B6700016FCFFFF17FCFFFF8379DB0702D5C160D3
:10B68000002070470048FCE716FCFFFF8379DB07CA
:10B6900001D5C06870470148FCE7C04616FCFFFFB3
:10B6A00070B545690400002D22D0037A032B21D800
:10B6B000FFF7ECFFA8622C20FEF718F82C220021DF
:10B6C00005000EF00EFD002263695A622369934261
:10B6D00008D1636923610020237A656101332372F5
:10B6E00070BD13005A6A002AFBD162695A62F2E700
:10B6F0000148F5E70148F3E717FCFFFF13FCFFFFE4
:10B70000144B70B55A68144C002A03D000225A60BA
:10B710000132A2601A69002A17D000211961802322
:10B72000DB000E4DE3582868012B0FD1A923DB0065
:10B73000E1584942FFF7A0FF2868FFF7B1FF2B68E7
:10B740005A69074BE2500123A36070BDFFF794FFD5
:10B75000F9E7C046FC100040001000400827002018
:10B760000405000070B505000C000AF094FD0028E7
:10B7700004D1034A034BEC71D45070BD0248FCE77E
:10B78000001000402405000016FCFFFFF8B5837987
:10B7900005000020DB076AD40AF07DFD002867D190
:10B7A0006E69002E08D12C30FDF7A0FF04002C227A
:10B7B00031000EF096FC6C616B69002B5AD00022B0
:10B7C0002D4B01215A608022D20511605A68002A4F
:10B7D000FCD00622294B2A4C9A562A4B0721E250CC
:10B7E0002800FFF731FFA2230026DB00E650264A9F
:10B7F000264B2800E250E979FFF7B4FF0122082127
:10B80000234B2448E6500433E250234B234FE150AE
:10B810000433E05002232248235022482750224F6D
:10B82000043827501827214827506F69204827508F
:10B83000C120800021501F498538FF380B500B6014
:10B840008021890060580E33034363501A4B5E60B9
:10B8500062605A68002AFCD0002601271E61280079
:10B86000A760FDF769FD3000AB791F43AF71F8BDEC
:10B870001248FCE71248FAE7FC0000400AB4020054
:10B88000001000400C050000746962751C05000082
:10B890002C0500002000040214050000FFFF00003A
:10B8A000340500003C050000211001005405000093
:10B8B0000405000000E100E0FC10004016FCFFFF62
:10B8C00013FCFFFF03000069002809D00221054A8C
:10B8D000D167426A1A611A7A013A1A72024B1960E8
:10B8E0007047C04604E100E000E100E070B50400EC
:10B8F0000D000AF0D0FC00283AD1002D3AD02B7868
:10B90000232B37D802221C4B1C49DA671C4B013A07
:10B9100058610A615A69002AFCD00020194A8D50EA
:10B9200058600130086058680028FCD00120886009
:10B930000020186118690028FCD060698850002236
:10B940005A6101320A615A69002AFCD000225A6009
:10B9500001324A605A68002AFCD000201861012395
:10B960008B60C0210222084B49005A501A6070BDFA
:10B970000648FCE70648FAE704E100E00010004052
:10B98000FC1000400405000000E100E016FCFFFF91
:10B9900017FCFFFF37B54C680500002C04D10C499B
:10B9A0000AF041FF28003EBD636A01A84B6022787F
:10B9B000211D033AA36A0AF062FF2000FDF7B6FEDC
:10B9C00001A928000AF02FFF01A80AF025FFE9E7E6
:10B9D0000427002030B505008DB0002912D0232A9D
:10B9E00010D801ACD31C002023700123A07002A842
:10B9F0006370E3700EF059FB21002868FFF776FFB3
:10BA00000DB030BD0048FBE717FCFFFF10B5002963
:10BA100003DB024B19600DF0E1FF10BD0C27002085
:10BA200070B504001E0004AB1D7804F0CFFB2000AD
:10BA30000E4B40302360FDF7D1FF230001364C331D
:10BA4000013522001E701D730023E1214E32A364D4
:10BA50006365138053809381D381013B200063642D
:10BA60004902FFF7D3FF200070BDC046E0A30200EB
:10BA7000F7B580277F053D697C690822113C6C433E
:10BA80000600210068460EF010FB104B009A9A4207
:10BA900019D0009300230193796930001339694369
:10BAA0000BF080FD019A009930000BF093FD21000E
:10BAB00030000BF077FD7969AB0813396943220038
:10BAC00030000BF079FD0198FEBDC046FECA0000B3
:10BAD000F0B50D00A9B00D9200213022060010A88B
:10BAE0000B930EF0FEFA28000EF043FB431C0C9360
:10BAF000102B00D9B5E00B9B202B00D9B1E0290019
:10BB000030000BF094FD071E50D129000C9A10A8AC
:10BB10000EF0CBFA0D990B9A14A80EF0C6FA8023FA
:10BB20005B051A695F690C92113F7A4330005D69C9
:10BB30000B92FFF79DFF3022002104001CA80EF09D
:10BB4000D0FA290000270C9B1339594330000BF021
:10BB500029FD0D9730257D430B9B0833ED18A74237
:10BB600042DA290030221CA80EF09FFA10A91CA866
:10BB70000EF0EDFA002827D13C49300022000E914A
:10BB80000F940BF027FD6A46099513AB23CB23C214
:10BB900023CB23C223CB23C23000129B1099119ACE
:10BBA0000BF026FD01230D930137D3E710300B9ADC
:10BBB0000D990EF06BFA04003800FDF7B7FD002C6C
:10BBC000A3D1200029B0F0BD6A4609951FAB23CB55
:10BBD00023C223CB23C223CB23C230001C991D9A3E
:10BBE0001E9B0BF005FDDFE7E5433023ED172540F5
:10BBF0005D430B9B08355D190D9B002B1DD10C9BE4
:10BC00003021981E05F09CF8A0422CD01749013431
:10BC1000300022000E910F940BF0DCFC6A4609956F
:10BC200013AB23CB23C223CB23C223CB23C23000AD
:10BC30001099119A129B0BF0DBFC0B9930000BF062
:10BC4000B1FC80235B0559690C230C9A13396343BB
:10BC50004A430233110030000B9A0BF0ADFC002474
:10BC6000AFE7034CADE7034CABE7C046FECA0000AC
:10BC700017FCFFFF13FCFFFF70B50400A280FA223F
:10BC8000002308000C49920008312160A371606113
:10BC9000E260A360638209490BF0C9FC051E09D06C
:10BCA000010020001031022212300EF0FEF92800AF
:10BCB000FDF73CFD200070BDC4A5020002B40200E7
:10BCC00030B50225837987B004002B4204D1FDF7FB
:10BCD00033FBA3791D43A57120000BF0F2FC002873
:10BCE0001CD06B46DD1C28000BF0E2FC2B78002BEF
:10BCF00017D001A80BF0DAFC0321019AD3170B40EF
:10BD00009B189B102382FDF7B9FDE368A1881818E2
:10BD10000123A0601A0002A80AF0AEFC002007B0C0
:10BD200030BD0122064B1A60064A51680029FCD03A
:10BD300000215160044A1268019201225A60DBE737
:10BD400000C00040FCC0004008C50040022802D1ED
:10BD50000122014B1A707047F829002070B5064C7B
:10BD600005002378002B04D1044801F03BFB01239C
:10BD70002370280070BDC046F92900204DBD010088
:10BD800070B50C000AF087FA002810D00023144D7B
:10BD9000A40A2B7020000BF0A8FC002803D00A2076
:10BDA0000DF023FFF6E72B78002BFCD070BD0221AD
:10BDB0000C4B0D4A99508021C90008005D58002D98
:10BDC000FCD0A121C9005C5019580029FCD00021E9
:10BDD00099508021C9005A58002AFCD0E6E7C04695
:10BDE000F829002000E0014004050000F8B50C002F
:10BDF00015001E000AF04FFA002811D00023174F3B
:10BE00003B703200290020000BF06DFC002803D0AD
:10BE10000A200DF0EAFEF4E73B78002BFCD0F8BDD9
:10BE200001210F480F4B844619508021C9005A58F0
:10BE3000002AFCD080270022FF00964207DD9100F7
:10BE400068586050D9590029FCD00132F5E700222A
:10BE500061465A50DA59002AFCD0E0E7F829002060
:10BE60000405000000E0014010B50400054B083354
:10BE700003601C300AF055FB200018300AF051FB1B
:10BE8000200010BDDCA50200FF23F0B52C4D8DB0C5
:10BE90002B700023040069460088009303F026FA03
:10BEA000002802D16B469B782B70264E3368DB68E6
:10BEB000002B07D1002320881A0019000BF019FC71
:10BEC0000DB0F0BD2B78032BF4D81F4901A8FDF766
:10BED00019FD336801A9DE6804A80AF079FB04A9FA
:10BEE00030000BF0D7FB0027060004A80AF019FB6E
:10BEF000BE421ED031002022103104A80EF0D5F829
:10BF00003000FDF713FC297804ABC900591808224A
:10BF100002A80EF0CAF820880123082202A90BF01B
:10BF2000E8FB0137002804D12088084A0C210BF0D7
:10BF3000DEFB01A80AF0F5FA002FBBD0C0E7C0462F
:10BF4000F02100201C27002012B40200FFFF000097
:10BF5000F0B5837991B004005B071BD5FDF78EFC2B
:10BF600000232269801A9941994203D1F423FF33B7
:10BF700098420FD9A068002808D0364B1D880CF0D5
:10BF800056FC036815221B6A290098470422A379EE
:10BF90009343A371A3799B0759D52F4D2B68DB6879
:10BFA000002B50D02D4B1B78032B4CD8294B2C4900
:10BFB0001B8804A80193FDF7A5FC2B6804A9DE6883
:10BFC00008A80AF005FB08A930000BF063FB070086
:10BFD00008A80AF0A6FA02AB9E1D0823320033809F
:10BFE00006A9073B01980BF086FB002F08D039000B
:10BFF0002022103108A80EF058F83800FDF796FB03
:10C00000164B32881B7806A9DE0008AB9E1930005B
:10C010000EF03CF8002813D0082206A930000EF0DC
:10C0200044F82B6804A9DD6805A80AF0D1FA20239A
:10C0300008AA05A928000BF033FB05A80AF071FA3D
:10C0400004A80AF06EFA0222A3799343A37111B0F7
:10C05000F0BDC046A02900201C270020F0210020B0
:10C0600012B40200F7B5089E0500152922D8012058
:10C0700007008F40244C27421CD0E97FCC181F2C8E
:10C0800041DC69183418A14210D80021C8B283429B
:10C0900004D9545C701884700131F7E732789A182B
:10C0A0003270EA7F9B18EB7700202CE00878C854A8
:10C0B0000139E8E73478013CE4B2A34208D1002317
:10C0C000D9B28C42F0D9D05CF11888700133F7E70F
:10C0D000EF7F0120FF183F1B1F2F14DC0227A01C3D
:10C0E0007F423618381B0190E87F2F18BE4204D2D9
:10C0F0003078019FF0550136F6E7041B023CEC77DF
:10C1000028000BF042FBFEBDFC002000F0B585B01E
:10C1100001930AAB1E880BAB1B78451C02930EAB38
:10C120001B78040003930B78170003704B8A1022CE
:10C130004382013128000DF0B8FF6B469B882683AF
:10C1400063836B461B7B002623776B4601221B7A99
:10C150006761E683EB77A31CDA770C9B0C2563629F
:10C16000230020000D9A28331A705E709E702A00FA
:10C1700031002C300DF0B5FF2000074BE663A363C0
:10C180002A00310040300DF0ACFF2000034B266543
:10C19000E36405B0F0BDC0460D770200FF760200F3
:10C1A00070B50D000CF043FB04000368002D09D1AD
:10C1B0005B699847FA2080006843074904F0C0FD96
:10C1C000E08070BD9B6898478542F3D223682000C9
:10C1D0009B6898470500EDE771020000F0B5070085
:10C1E0001600A1B002C704006B4918A81D000BF08F
:10C1F00013FB331E03D030000DF0BBFF83B20122CE
:10C2000004920022039202920232019200933200C1
:10C2100018A93800FFF77AFF23006049583318A89F
:10C2200007930BF0F9FA2B1E03D028000DF0A1FFA5
:10C2300083B20122049200220392029202320192FE
:10C2400000932A0018A90798FFF760FF23005449BC
:10C25000AC3318A808930BF0DFFA269B002B03D011
:10C2600018000DF086FF83B201220492002203928F
:10C270000292023201920093269A18A90898FFF7B9
:10C2800045FF631CFF33474918A809930BF0C4FA14
:10C29000279B002B03D018000DF06BFF83B2012207
:10C2A00004920022601C03920292023201920093D7
:10C2B000279A18A9FF30FFF729FF23005533FF33D2
:10C2C000394918A809930BF0A7FA289B002B03D033
:10C2D00018000DF04EFF83B2012204920022039257
:10C2E0000292023201920093289A18A90998FFF746
:10C2F0000DFF2300A933FF332C4918A80A930BF034
:10C300008BFA299B002B03D018000DF032FF83B26B
:10C3100001220492002218AD03920292023201928D
:10C320000093299A29000A98FFF7F0FE204B1B780A
:10C330000B93002B2DD1079B12971393089B0DAFE6
:10C340001493631CFF331593099B1A4916930A9B98
:10C35000380017930BF060FA1D2149203B7810221A
:10C360002B707B8A12AE6B8206ABC918C0180DF019
:10C370009CFE06232B756B469B8D2068AB83AE61BC
:10C380000CF059FA036829001B6898470122084BF2
:10C390001A70200021B0F0BD292A0000242A0000D4
:10C3A000252A0000272A0000262A0000282A00004B
:10C3B000FA2900200A18000070B5002504000A4B75
:10C3C0008580083385710360C1601830FDF706FB76
:10C3D00020001C30FDF702FB044BA5601C6001230C
:10C3E00065612000A37170BDDCA502001C27002040
:10C3F000FA2130B585B00500012302228900684684
:10C400000AF03AF9074C2068002809D00BF03DFAF1
:10C410002988054B22681980022391790B43937177
:10C4200005B030BD1C270020A029002010B50C004D
:10C4300007290DD880680CF0FAF9064B19570368E4
:10C440005B6C9847431E9841034B4042184010BD17
:10C450000248FCE70AB4020016FCFFFF17FCFFFFCE
:10C46000F0B5A44C0D00A544040007939AAB1B78CB
:10C47000A14909A804930692FDF744FA2000290077
:10C480001C300AF0ADF8C020800000F0A1FF0820A9
:10C49000FDF72CF90600002100F088FE15ADA6601E
:10C4A00000210C220EA80DF01CFE2B000EAA83CA40
:10C4B00083C3924B2900EB60002330002B610CF00A
:10C4C0009FF9A0680CF0B3F908220021059016A886
:10C4D0000DF007FE1420FDF709F929000200884B32
:10C4E0001593C8C9C8C2874B059EC3600023A436F4
:10C4F00003613368002B00D0F5E03060A0680CF0D9
:10C500009AF908220021060016A80DF0EAFD142071
:10C51000FDF7ECF87C4B1593030086CD86C37B4B6F
:10C52000C36000230361336B002B00D0DDE0306378
:10C53000A0680CF07CF908220021050016A80DF077
:10C54000D0FD1420FDF7D2F8714B15AE1593030002
:10C5500086CE86C36F4B9835C360002303612B687A
:10C56000002B00D0C3E02860012504AB1B7C04AA8B
:10C570002B4308A9280013740BF0BFF8A0680CF037
:10C580005EF9036864495B6A9847A0680CF057F944
:10C59000036862499B699847A0680CF050F9002332
:10C5A00002680093166804992A00B047049B002B88
:10C5B0000AD020000BF072F9032805DDA0680CF00A
:10C5C0003EF90368DB6898470EA80BF0D5F82F20DA
:10C5D00004ABC0180BF0D0F8362004ABC0180BF039
:10C5E000CBF83D20042504ABC0180BF0C5F80EAB0A
:10C5F0000A93A06804AB5D770CF021F903680AA9DF
:10C600001B699847A0680CF012F903680AA95B6DD2
:10C610009847A0680CF00BF903680021DB6D984780
:10C62000A0680CF004F9036802219B6D9847002173
:10C630002000FFF7FBFE1820FDF758F8A16800F076
:10C6400005FA374B374A1B68A1680393364B15A888
:10C650001B6800260293354B0CAF1B680193069BA9
:10C660001B685B190093324B12681B68FFF7B6FD1D
:10C670003020FDF73BF8079AA16800F0A7FAA06800
:10C680000CF0D5F8036839009B6A9847294BBE80A7
:10C69000A0680C930CF0CBF803683900DB6A98476C
:10C6A0002900A0680BF0C4F8099A09219378A068C2
:10C6B00052190BF0D0F8A0680CF0B9F8C821067137
:10C6C000A068FFF76DFD04AB1B7FB34204D0A068E8
:10C6D0000CF0ADF80BF096F809A809F022FF9523AD
:10C6E0009B009D44F0BD036107E703611FE7036101
:10C6F00039E7C046ACFDFFFF05B502001B7702001D
:10C70000F1C301002977020089BE010037770200DA
:10C71000657702004577020039C701006DC7010047
:10C7200018270020142700200820002010270020B0
:10C730000C2000200800100013B506226846FDF703
:10C7400023F9094B1C68002C0AD0694601A809F09E
:10C750003FFF200001A90BF0C2F801A809F0E1FE9B
:10C76000684609F0DEFE13BD1C270020002373B5C8
:10C7700001AE0C0031000500019302F0B7FD002866
:10C7800002D1B278064B1A70064B1868002806D002
:10C7900061426141044BC9B21D800BF0A8F873BD22
:10C7A000F02100201C270020A0290020F0B5040063
:10C7B00097B0039107A89C490592FDF7A3F89B4900
:10C7C00008A8FDF79FF822000FAD28001C3207A92A
:10C7D00009F025FF08AA290009A809F020FF280070
:10C7E00009F09FFE92490AA8FDF78CF8A0680CF0AA
:10C7F0001EF803680DAE5B69984728000AF0BCFF7D
:10C80000332004ABC0180AF0B7FF3A2004ABC018BD
:10C810000AF0B2FF412004ABC0180AF0ADFF80233C
:10C82000DB00B380A0680D950CF001F803683100BF
:10C830005B6D9847A0680BF0FAFF036800219B6DC1
:10C840009847A0680BF0F3FF0700002506000A37A1
:10C850001F22002138000DF044FCFD7730000AF063
:10C86000C8FF0621A0680AF0E3FF099A092193781E
:10C87000A06804320AF0EFFFA0680BF0D8FFC821CF
:10C880000571A068FFF78CFCA0680BF0D0FFFF27B4
:10C890002E000581A0680BF0CAFF0AF0B3FF0398D1
:10C8A000FEF7D0FA0AA90CA809F092FE78220CA98A
:10C8B0000398FEF71FFC0CA809F033FE0399200033
:10C8C0000BF028F82000FCF737FD0495012563697B
:10C8D0001D402DD057490BA8FDF720F90BA90CA836
:10C8E00009F0FAFE00220CA91300019200920398AD
:10C8F000FEF7A4FB0CA809F0E2FE049B002B42D13A
:10C90000043F282F41DD0025FE2F00DC049D059803
:10C910000AF014F9002806D0012362699A43130033
:10C9200004221343636100260BA809F0C8FE049596
:10C9300004226369134233D0FF210398C826FEF70F
:10C94000FFFB0025B600A36902229B5EAB4222DDFD
:10C95000200029B2183009F078FE00230100039866
:10C960001A007430FDF72AF93000FCF77DFD0398BA
:10C970000AF001FBC820FCF777FD0222636913422D
:10C9800009D10135DFE70437BBE703980AF0F3FA72
:10C99000002FBCDDBAE7FA208000FCF765FD002619
:10C9A000022365691D421CD006331D4024D0224954
:10C9B0000BA8FDF7B3F80BA90CA809F08DFE002217
:10C9C0000CA90192009213000398FEF737FB0CA804
:10C9D00009F075FE1948FCF747FD0BA809F06FFE3A
:10C9E000174E6420FCF740FD164B01369E4200DCDA
:10C9F0006CE709F062FC69E713490BA8FDF78EF8B4
:10CA00000BA90CA809F068FE2B002A000CA90195BF
:10CA100000950398FEF712FB0CA809F050FE0BA836
:10CA200009F04DFEDDE7C0461EB402002EB4020040
:10CA300030B402003EB4020083B40200983A000011
:10CA40008C0A00008B0A0000C0B402000022594B7F
:10CA5000F0B50833060003600F001000A9B0B16004
:10CA60000BAB991801324870102AFAD10F3A524C88
:10CA70001A700E32105D991A0874013AFAD2997B35
:10CA80005A7B09020A4331000C31039125211B789E
:10CA900013AD2B7002ABC918452302A81B186A827C
:10CAA000180010220DF001FB039B64216B61012330
:10CAB000002402AA2B7752181993093313701DAB67
:10CAC0001C706D2302AA9B181C706E2321009B18FA
:10CAD0001EA80C22EC836C621C700DF002FB374B1D
:10CAE0000C22210023A8AB63EC630DF0FAFA344B5F
:10CAF00002AAEB6446239B180322DA7722002C65F6
:10CB00000595347306AD2B1901345A70102CFAD1E7
:10CB100001232C482B700E33195CEA1A1174013B67
:10CB2000FAD211212520AA7B6B7B12020BAC134396
:10CB30002A78638202ABC9182270C01810220DF047
:10CB4000B4FA0123237505ABA36100233800A38346
:10CB50000BF071FE036821001B68984713ABDB8B59
:10CB6000B068B3820BF067FE002203680092B18ABE
:10CB7000039ADC680123A047B0680BF05CFE070055
:10CB80001420FCF7B3FD0022012304000261069289
:10CB900040C00832290007930DF087FA0A4BE36082
:10CBA000BB69002B03D13000BC6129B0F0BD23610B
:10CBB000F9E7C046F4A5020032B502000D77020085
:10CBC000FF76020042B5020075790200F0B500263A
:10CBD0000400734BDDB0083303608160C26086805F
:10CBE000867132006F4947A80AF064FF23001433AE
:10CBF0000125042708931223009704950193089AAE
:10CC0000330047A9039602961DA8FFF77FFA32006A
:10CC1000654947A80AF04EFF08202200009733001C
:10CC200015AF10320495019047A90396029632A8D9
:10CC3000FFF76CFA32005D4938000AF03BFF230031
:10CC4000082004221C330993390033000495019015
:10CC500000920396099A029647A8FFF757FA320006
:10CC6000534938000AF026FF5420FCF73FFD050029
:10CC7000200001231221042218300790049301910F
:10CC80000092390002003300280003960296FFF755
:10CC90003DFA2800474BA5620822EC620AA9303011
:10CCA0000A930B960DF001FA434B0422AB63012368
:10CCB00029352B7009992661E66107980DF0F5F981
:10CCC0000422079908980DF0F0F96621032304AABD
:10CCD0008918CB77BA2104AA8918CB77872104AAAF
:10CCE00049008918A26ACB77911CA685CB771DAB2A
:10CCF0000C9332AB0D930F9247AB32002F4910A823
:10CD00000E930AF0D7FE3021452004AB5B181B7848
:10CD100012313B7004AB5B181B8811397B8204AB6A
:10CD2000C918C01810220DF0C0F904220CADA0687B
:10CD30003A75BD61BE830BF07EFD036839001B6848
:10CD40009847822204AB9B181B885432238404AB7F
:10CD50009B181B885432A38404AB9B181B88A068C3
:10CD600063840BF068FD07001420FCF7BFFC05008E
:10CD7000134B066108221093119610A910C00DF0F4
:10CD800094F9104BEB60BB69B34206D1BD61200042
:10CD9000FCF7D2FA20005DB0F0BD2B61F6E7C0468B
:10CDA00000A6020072B5020052B5020062B5020090
:10CDB00082B50200877A0200F379020092B5020080
:10CDC00031CE01001D7A0200F0B504000E001500FE
:10CDD00085B01F000CAB1B881030019309F042FC9A
:10CDE000268065801820FCF781FC02AE0500330028
:10CDF0000AAA03CA03C32F602800082700213A00AB
:10CE00000C300DF06EF93A003100281D0DF04DF98F
:10CE1000064B02226B61200000230199A5600A43A2
:10CE2000E360A2802362636205B0F0BD477A02002E
:10CE3000F0B50B898DB00593CB68060004934B8841
:10CE4000828C9A420ED1049C049B059A9B181B1B52
:10CE5000032B3BDD62882188012308A809F00CFC24
:10CE60000434F1E7428C9A4230D1049C049B059A29
:10CE70009B181B1B032B29DD23882820069363881E
:10CE8000F7680793124B089300230993FCF72EFCD5
:10CE9000C0236A460500029308AB03CB03C23300EC
:10CEA0000699079A2800FFF78FFF3B6829005B6807
:10CEB00038009847002807D0002D05D0280009F039
:10CEC000E6FA2800FCF732FC0434CFE70DB0F0BDE1
:10CED000057B020070B5040090B080680AF00DFE7A
:10CEE000022101401AD1A38D002B17D00C4B6A46AA
:10CEF00004931023E568A1850591029304AB41CB0F
:10CF000041C20A00230006A8FFF75EFF2B6806A9AE
:10CF10009B682800984706A809F0B9FA10B070BDC0
:10CF2000057B0200002815D0006041608260C3606C
:10CF3000046145618661C761444604624C464462AF
:10CF4000544684625C46C462644604636E4646632B
:10CF500074468463002A06D0C46B043C043A2568F6
:10CF60001560B442F9D18C6BA6464E6BB546002BCA
:10CF700006D0CC6B043C043B1D682560B442F9D15B
:10CF80000C6BA446CC6AA3468C6AA2464C6AA146A6
:10CF90000C6AA046CF698E694D690C69CB688A68B6
:10CFA000086849687047006041608260C36004613E
:10CFB00045618661C761444604624C4644625446FA
:10CFC00084625C46C462644604636E46466374468B
:10CFD0008463C46B043C043925680D60B442F9D104
:10CFE000C76986694569046970470060416082606D
:10CFF000C360046145618661C761444604624C4672
:10D000004462544684625C46C462644604636C466F
:10D0100044637446846304697047846BA646446B1A
:10D02000A546046BA446C46AA346846AA246446A21
:10D03000A146046AA046C769866945690469C36850
:10D04000826800684168704710B5041E0CD00DF06E
:10D0500090F8431EE3189C4208D222781978013BCD
:10D0600021705A700134F6E7014810BD0020FCE73A
:10D0700017FCFFFFF0B585B002900C1E2AD00023EC
:10D08000C217161A56400193019B30005D1C6319AC
:10D090000A215F1E039303F0C3FF49423031397008
:10D0A00030000A2103F0D6FE47420600002F0FD1C0
:10D0B000029B002B04DA2D23019D039A0235137085
:10D0C000002320006355FFF7BFFF380005B0F0BD17
:10D0D0000195D9E7004FF8E717FCFFFF10B5826014
:10D0E0004A4304004160002A0ADD074B90009A423F
:10D0F00001DD01204042FCF7F9FA2060200010BD5C
:10D1000000230360FAE7C046FEFFFF1F4A688B68F2
:10D1100070B58360534304000D004260002B12DDA4
:10D120000A4A9E003000934201DD01204042FCF794
:10D13000DDFA002320602A68D158C15004339E4292
:10D14000FAD1200070BD00230360FAE7FEFFFF1F45
:10D1500070B5002817D1114D2E68002E11D108305E
:10D160000CF036FE066046600D4E04003368002B5E
:10D1700002D10BF04BFF306023682C609B00F3580A
:10D180006360286870BD0122064907480B68134098
:10D19000F8D1026043600A60F4E7C046242700200B
:10D1A000302700202027002028270020002370B5EA
:10D1B00004000160436099420AD1064D2B68002BA0
:10D1C00002D10BF023FF286023689B00EB586360BB
:10D1D000200070BD30270020436810B50400002BEC
:10D1E00002D104480CF008FD606803681B69984789
:10D1F00010BDC046A2B50200436810B50400002B64
:10D2000002D104480CF0F8FC606803689B699847F9
:10D2100010BDC046A2B50200436810B50400002B43
:10D2200002D104480CF0E8FC606803685B6A984728
:10D2300010BDC046A2B5020010B5040002F028FCE3
:10D24000034B1B68002B01D02000984710BDC0463F
:10D2500038270020F0B58BB0050001F087FE0020D4
:10D2600000F0ACFE036807001B6998473B680400A8
:10D270009B69380098473B6806005B6A380098470E
:10D280000300288810380B2862D803F04FFD063EB3
:10D290006161615B616161676179AF88200039001C
:10D2A0000BF07BFC22006B7B583201931378A8793A
:10D2B0009C46022361460B43137004AB1F8001237D
:10D2C00004AA9370D07013006A461279E91D9A720D
:10D2D0002B000622163305A809930CF0E6FE290060
:10D2E0000B2004AB06220E31C0180CF0DEFE943485
:10D2F0006368A360A06800282AD0C36804A998477F
:10D30000A368002BF4D01B69F3E720002F49AF88F6
:10D310000BF043FC2200022058321378A979834392
:10D32000137004AB1F809970A0346368A360A06879
:10D3300000280DD0C36804A99847A368002BF4D037
:10D340001B69F3E75B69A888A91D002B00D09847EB
:10D35000290030000BF0B0FF0BB0F0BD636E002B66
:10D36000F6D0AF79A366A06E0028F1D0C36839006B
:10D370009847A36E002B01D1636EF3E71B69F1E7B9
:10D38000012269460D27AB7BEF571A4001925A07DD
:10D39000920FDB080A720B730622E91D04A80CF039
:10D3A00084FE6A46127904ABDA716A46127A9F717A
:10D3B0001A726A46127B20005A722B000F330793B1
:10D3C0008C348030236804A99847C1E7FFFF000030
:10D3D0000723D72802D9024B186000231800704792
:10D3E00034270020014B18607047C04638270020C2
:10D3F0001FB58022A323D205DB00D3580820DB070A
:10D4000000D405301C4B48221C4902F011FE0028B4
:10D410000AD080B2002807D1BFF34F8F184B194AAA
:10D42000DA60BFF34F8FFEE7002302A802930133B7
:10D430000370154B1B6843600BF009FA002802D0FB
:10D44000072005B000BD68460BF0FFF90028F7D1B2
:10D4500069460BF0F8F90028F2D10C4802F018FEEA
:10D4600080B20028EDD10A4802F01CFE80B20028EC
:10D47000E7D100F01FF8E4E7538802003C270020C2
:10D4800000ED00E00400FA053427002055D2010029
:10D4900039D2010080B2002807D1BFF34F8F034B70
:10D4A000034ADA60BFF34F8FFEE7704700ED00E0FC
:10D4B0000400FA051FB5002302ACA380104B01A89D
:10D4C0000293C8235B00E380803BFF3B037005228F
:10D4D0000C490BF0CAF980B200280FD180208000DF
:10D4E0000BF0BFF980B2002808D120000BF0BBF987
:10D4F00080B2002802D10BF0B2F980B204B010BDA6
:10D5000028009001C5B50200024B0B60092313608F
:10D510007047C046CBB5020010B50400002000F0F3
:10D520004DFD03681B6998470300F3331C70862385
:10D530005B00C05003000021044AFC335A61044AD6
:10D5400099615A62F4300CF0D3F910BD578A020089
:10D55000698A0200012110B5044A080002F0A6FC05
:10D560000023984200D00B33180010BD19D50100DC
:10D57000F8B505000400AC356B68AB60A8680028FE
:10D5800007D0C36821009847AB68002BF4D01B6913
:10D59000F3E72600B0363568002D05D02F69280046
:10D5A0000CF012FC3D00F7E72200FC2135605832F8
:10D5B000137826000B40137023000A365C331D706D
:10D5C0001F22290030000CF08CFDF5772A361F222F
:10D5D000290030000CF085FDF577606E002804D03E
:10D5E00005690CF0F1FB2800F8E725009835606626
:10D5F0002868002804D006690CF0E6FB3000F8E744
:10D600002600A43628603568002D05D02F69280033
:10D610000CF0DAFB3D00F7E72000356029000C2212
:10D620006C300CF05EFD2000074BE567A367290016
:10D630000C2280300CF055FD2300044A8C339034CA
:10D6400028001A602560F8BD498A02003B8A020062
:10D65000F0B593B0019000200C0000F0AFFC03681F
:10D660005B6A984700F082F906AB00280ED00022D2
:10D670001A7105AA0692082218001A730AAA9A605B
:10D6800000F042FA002803D013B0F0BD18711873EF
:10D69000002727732771019BBA331B78BB4242D9FD
:10D6A00007237B431A000199BB32CB18BB331B788D
:10D6B0008A180292022B2ED1002506AE337BAB4294
:10D6C00023D9AB000393089BAA00995802980BF04A
:10D6D0006EFA00281CD0B3689C46AB001900237B6F
:10D6E000614402939A000868A368D050029B0133FA
:10D6F0002373337B5A1E954205D00C481B18604695
:10D700009B001B580B6006AB1A730137FFB2C2E7D0
:10D710000135EDB2D1E72379216802989A000133EF
:10D7200050502371F1E70020AEE7C046FFFFFF3FF6
:10D73000F0B50A7804009BB00D000220012A08D041
:10D740004B88032A07D1A03B21499BB210008B4292
:10D7500007D91BB0F0BD203B1E4A9BB20320934269
:10D76000F7D81D4BAA8803209A42F2D80AAB00933F
:10D7700012AB02936A460023260013711373B83666
:10D780003378002B1DD104AF1822002138000CF093
:10D79000A8FC2B7838003B7033783B726B46FB60FB
:10D7A0006B883B82AB887B820BF06BF80200032016
:10D7B000002ACED101235834217810000B43237066
:10D7C000C7E769462000FFF743FF0028DBD0C0E72A
:10D7D000603F0000E03F0000FF3F0000F0B59DB05B
:10D7E0001E006B4604001A70581C0622229D0CF085
:10D7F0005CFC002E2ED0328802AB1A8072885A80D0
:10D80000B2889A80F288DA800CAB04AE049314AB31
:10D81000B36027000023B937337133733B78002B93
:10D820001ED101223B78022708A9134058000B782B
:10D830004E60BB430343002D1AD1200032300078E4
:10D840009343104003430B70A38D0B81E38D4B81F9
:10D85000238E17E01A4B029396239B040393D3E77E
:10D8600031002000FFF7F4FE0028DAD01DB0F0BD33
:10D87000A8799343104003430B702B880B816B886E
:10D880004B81AB8802AA68468B810BF010F803002D
:10D8900000208342EAD00630082BE7D006D80130BA
:10D8A000042BE3D0834209D10420DFE70520112BAC
:10D8B000DCD0044A9342F7D0102BF5D00B20D5E7EB
:10D8C000320064000232000070B500200D0000F04C
:10D8D00075FB03685B6A98472B780400142B1ED0F5
:10D8E00003D8132B0CD0002070BD152B1FD0222B7A
:10D8F000F9D16B6818882369002BF4D09847F2E7B8
:10D900006B68012518889B78646819005A08DB0643
:10D9100029402A405B0F002CE5D0A047E3E76B6865
:10D9200018889978A368002BDDD09847DBE76868F2
:10D93000827813091207120F012A03D0022A0BD092
:10D94000002106E0013BDBB20021022B01D8064A90
:10D95000D15C0088E368E6E70421012BF9D00131AE
:10D96000022BF6D0ECE7C046D4B50200014B187884
:10D970007047C046FB290020F0B51D000023304F42
:10D9800087B000923A7806000C009A4204D102F067
:10D99000B3F8002803D00B23180007B0F0BD002D0A
:10D9A0000ED003A9222003950BF0FFF8002807D022
:10D9B00006230828F0D01138434243410433EBE7F3
:10D9C000002302AA1000137001F08AF80028E2D1A7
:10D9D00001251C4902220B782E40AB433343072616
:10D9E00093430193009B2C4033409340AC409C46B2
:10D9F000019B02AA1C431C239C4363461C430E2329
:10DA00009B181880104B0C700393022303AC2371F6
:10DA1000093002AB0522C0180CF047FB21000B486F
:10DA200001F0C8F8002807D033000428B4D0013B27
:10DA30000828B1D00533AFE73D700300ACE7C0461E
:10DA4000FB290020F1210020C9D80100FC29002079
:10DA500010B5074801F086F90023984206D0073335
:10DA6000042803D0013B082800D00533180010BD5E
:10DA7000FC290020002373B501930F4B01AD1B78E7
:10DA80000E0029002B7001F031FC041E05D0042388
:10DA9000052800D00733180076BD3100280001F0BA
:10DAA000C3F823000028F6D007230428F3D0013B55
:10DAB0000828F0D00533EEE7FC29002073B5114C9F
:10DAC0000E0005000522210068460CF0EEFA012E3A
:10DAD00003D0022E10D002230CE002222378B3439D
