:020000021000EC
:1080000000400020690E0200A50E0200A70E02002B
:108010000000000000000000000000000000000060
:10802000000000000000000000000000A90E020097
:108030000000000000000000AB0E0200AD0E0200C8
:10804000AF0E02006DB90100150B0200AF0E020069
:10805000AF0E020000000000690C0200AF0E02002B
:10806000AF0E02007D060200D90B0200AF0E020027
:10807000AF0E0200AF0E0200AF0E0200AF0E020004
:10808000AF0E0200AF0E0200AF0E0200AF0E0200F4
:10809000AF0E0200D5000200B1000200AF0E0200D8
:1080A000AF0E0200AF0E0200000000000000000052
:1080B00000000000000000000000000000000000C0
:1080C00010B5064C2378002B07D1054B002B02D0AE
:1080D000044800E000BF0123237010BD20220020CF
:1080E0000000000080BB0200044B10B5002B03D041
:1080F0000349044800E000BF10BDC0460000000076
:108100002422002080BB0200164B002B00D1144B10
:108110009D46402292029A1A924600218B460F46B3
:108120001348144A121A12F0CBF90F4B002B00D04F
:1081300098470E4B002B00D09847002000210400E8
:108140000D000D48002802D00C4800E000BF0DF0E3
:10815000FDF92000290011F07EFD0DF0E1F9C04687
:1081600000000800004000200000000000000000A7
:1081700018220020D02A002000000000000000008B
:1081800010B50400034B036040300EF027FB2000C5
:1081900010BDC046C0A702007FB50122084B0949A7
:1081A00005A81A7001F070FCC82205A95200064803
:1081B00002F0D2FF05A80EF011FB07B000BDC046CB
:1081C000FF29002050B402007023002070B5194D23
:1081D00086B0290005A803F013FD05A904A801F045
:1081E00063FC05A80EF070FC049B134E1C1D3100AF
:1081F00020000DF041FB12F027F9104B3100186000
:1082000020000DF039FB12F01FF90D4B0D491860DD
:1082100005A801F039FC05A928000FF0D8FA05A837
:108220000EF0DCFA0122084B04A81A700EF0D6FA00
:1082300006B070BD6826002046B4020080220020EF
:108240007C22002048B40200FE290020F0B585B051
:108250001F000AAB1B880600029115000393002F34
:108260001CD0282001F004FB6B4604001989039BF5
:10827000AAB200933B000EF050FA336821005B680D
:108280003000984700280AD0002C05D020000EF0BE
:108290005BFA200001F00CFB024800E0024805B048
:1082A000F0BDC04616FCFFFF17FCFFFF30B5150000
:1082B000040087B001A80EF0AEFA290002A80EF063
:1082C000AAFA124903A801F0DFFB03AA01A904A836
:1082D0000EF0FDFA02AA04A905A80EF0F8FA03AA06
:1082E00005A920000EF0F3FA05A80EF077FA04A80D
:1082F0000EF074FA03A80EF071FA02A80EF06EFAEE
:1083000001A80EF06BFA200007B030BD46B40200A1
:10831000F0B56F48A1B000F0C1FD01211AA80EF020
:108320007AFAC8226B4D52001AA9280002F014FFF5
:108330001AA80EF053FA1C2001F09AFA0B9000F0E4
:1083400051FB02211AA80EF066FAC8221AA952009F
:10835000280002F001FF1AA80EF040FA642001F094
:1083600045F9642001F042F903211AA80EF053FAEE
:10837000C8221AA95200280002F0EEFE1AA80EF038
:108380002DFA16AB14930023102514AA1372524A27
:1083900015931370514A13704F4B1C78002C00D06A
:1083A000B4E04F4E4F4B0322022130000095FFF7FF
:1083B0004DFF4D4B01221D2130000095FFF746FF78
:1083C0004A4803F019FB04211AA80EF024FAC82227
:1083D000404F52001AA9380002F0BEFE1AA80EF053
:1083E000FDF9642001F002F93C4E3378002B4FD0A8
:1083F0003F491AA801F048FB78221AA9380002F078
:1084000011FF1AA80EF0EAF9FF2120000DF0E8FE96
:10841000384F6421386020000DF0E2FE364B020038
:108420001860396813A8FFF741FF13A91AA80EF0C6
:1084300037FA1AA931480FF0CAF91AA80EF0CEF986
:1084400034700DF0C9FE03940290234B1E78002E69
:108450001BD10DF0C1FE05960490049A059B02986D
:108460000399121A8B411100002B02D1244B99421F
:10847000EBD924491AA801F007FB78221AA915485C
:1084800002F0FAFE1AA80EF0A9F913A80EF0A6F948
:10849000114B1B78002B17D0164B144E1968300067
:1084A000C9B203F095FA144B3000196803F002FAD0
:1084B00015491AA801F0E8FA78221AA9054802F02D
:1084C000DBFE1AA80EF08AF9642001F08FF863E74A
:1084D0008422002070230020FE290020FF29002094
:1084E0005423002099810100CD81010050260020F5
:1084F00053B40200802200207C2200206826002045
:10850000102700005BB4020061B4020000220023C7
:1085100004920593029203930DF05EFE00231E0069
:1085200006900793D0480EF061FC051E00D01EE1B6
:108530000DF052FE002E3BD00E900F950E9A0F9B21
:108540000698079965267642F717121A8B41B618D6
:108550005F410C920D93002F00D00AE19521490054
:108560008E4200D905E1C1491AA80EF00DFAC04D9E
:108570001AA93B003A0001970097280002F0C2FDBB
:108580001AA80EF0F4F92E2114A811F017FFAF204D
:10859000800001F02BF828000EF045FE0DF01CFEC7
:1085A0000023029003930DF017FE039B06900793A0
:1085B00002980399069A079B121A8B411100002B0F
:1085C00003D1FA23DB00994256D9029B039A134345
:1085D00052D014A91AA811F01DFF1AA90B980DF07A
:1085E00096FE05001AA811F042FE3F2D00D1F7E0DB
:1085F00029000B980DF05AFE002502000B991AA8CD
:1086000000F0D0F91AA914A811F0B3FE1AA811F0BD
:108610002EFE1499280011F093FF290013A801F0F1
:1086200033FA29001AA801F02FFA1AA991480FF07D
:10863000CEF81AA80EF0D2F88F491AA801F024FA41
:10864000C8228B4D52001AA9280002F025FD1AA855
:108650000EF0C4F8AF20800000F0C8FF28000EF034
:10866000E2FD13A80EF0BAF80023149A15931370C4
:1086700000220023029203930DF0AEFD00231D00A3
:10868000089009937D4803F0BFF8012800D1BDE0B0
:108690000DF0A2FD002D26D0002310901193089814
:1086A0000999109A119B121A8B4165204042C117FB
:1086B00015001E00401971410200002900D0A7E0FA
:1086C000952149008A4200D9A2E0FC3914A811F092
:1086D00075FE0DF081FD0023049005930DF07CFDE7
:1086E000059B0890099304980599089A099B121A0A
:1086F0008B411100002B04D1FA23DB00994200D8F2
:108700000AE7049B059A134300D105E714A91AA8A8
:1087100011F080FE1AA90B980DF0F9FD05001AA8BA
:1087200011F0A5FD3F2D04D029000B980DF095FD0B
:10873000050029001AA80EF07BF8C8224C4D520003
:108740001AA9280002F0A8FC1AA80EF047F8AF20DA
:10875000800000F04BFF28000EF065FD0023149A06
:10876000159313700022002304920593D4E626008B
:10877000D8E601270C9A0D9B414E7F42B6185F4107
:10878000002F15D1C72149008E4211D83D491AA8A2
:108790000EF0FAF8364D1AA93B003A0001970097FF
:1087A000280002F0AFFC1AA80EF0E1F82D21EBE64C
:1087B0000D9B002B05D1C8230C9A9B009A4200D830
:1087C000ECE631491AA801F05FF9C822284D5200A1
:1087D0001AA9280002F060FC1AA80DF0FFFFD6E6E7
:1087E0002A491AA801F050F9C822214D52001AA9AD
:1087F000280002F051FC1AA80DF0F0FFAF20800015
:1088000000F0F4FE28000EF00EFD2DE7250039E7FC
:1088100001211B484942401971410200002906D13B
:10882000C72149008A4202D86239FF394EE7002E3B
:1088300004D1C8239B009D4200D84AE712491AA8D8
:1088400001F022F9C8220A4D52001AA9280002F0AC
:1088500023FC1AA80DF0C2FFAF20800000F0C6FE76
:1088600028000EF0E0FC34E75422002040220020D3
:10887000702300206826002068B4020044220020F3
:108880006FFEFFFF3C220020F2B702006AB4020034
:1088900073B51D4D280000F041FA1C4C1C49220004
:1088A000280011F0F8FB1B4D1B49280001F0F8F9D6
:1088B0001A4E22003100280011F0EDFB184D194925
:1088C000280001F0EDF931002200280011F0E3FB4F
:1088D0000023154D009301331A001121280001F0E7
:1088E00087FD22001149280011F0D5FB104D0F2300
:1088F00028000222082102F03BFF280022000D4937
:1089000011F0C9FB73BDC046842200200020002066
:108910003989010040220020D8B302006F690200AB
:108920003C2200200DB4020054220020D9A30100F3
:1089300044220020C5610200EB23194A9B0010B5B8
:10894000C2501C330400C0180DF048FFF1239B00F7
:10895000E0180DF043FF84239B00E01801F076FD42
:108960002000C530FF3001F095FA20008D30FF3037
:1089700001F032FD20006530FF3001F02DFD2000B8
:10898000EC3002F005FA2000D03002F0DBFD2000D0
:10899000643007F0D1FC201DFFF7F2FB200010BD72
:1089A000C4A9020070B50C000D49050016000DF0B9
:1089B0002BFCE368A361A169231D994208D00B0039
:1089C00028331B78B34205D11031280011F06BFC1D
:1089D000280070BD200018300DF037FCEBE7C046D2
:1089E0006AB4020070B5A84CA849A54404006846C2
:1089F0000DF00AFC41236A46A549137607A80DF03D
:108A000003FC42220DAB1A70A2490EA80DF0FCFB2C
:108A1000432214AB1A70A04915A80DF0F5FB4422AF
:108A20001BAB1A709D491CA80DF0EEFB452222AB32
:108A30001A709B4923A80DF0E7FB462229AB1A7058
:108A400098492AA80DF0E0FB472230AB1A709649EE
:108A500031A80DF0D9FB482237AB1A70934938A8DA
:108A60000DF0D2FB49223EAB1A7091493FA80DF0A0
:108A7000CBFBFF234A226B445A758E4946A80DF062
:108A8000C3FB98234B2269465B00CA544DA88A4910
:108A90000DF0BAFBA6234C2269465B00CA5454A8C9
:108AA00086490DF0B1FBB4234D2269465B00CA54E0
:108AB0005BA883490DF0A8FBC2234E2269465B00E8
:108AC000CA5462A87F490DF09FFBD0234F2269460C
:108AD0005B00CA5469A87C490DF096FBDE23502246
:108AE00069465B00CA5470A878490DF08DFBEC23F1
:108AF000512269465B00CA5477A875490DF084FB82
:108B0000FA23522269465B00CA547EA871490DF0CF
:108B10007BFB8423532269469B00CA5485A86E4977
:108B20000DF072FB8B23542269469B00CA548CA81B
:108B30006A490DF069FB9223552269469B00CA548D
:108B400093A867490DF060FB9923562269469B0064
:108B5000CA549AA863490DF057FBA02357226946CF
:108B60009B00CA54A1A860490DF04EFBA7235822D0
:108B700069469B00CA54A8A85C490DF045FBAE238A
:108B8000592269469B00CA54AFA859490DF03CFBD5
:108B9000B5235A2269469B00CA54B6A855490DF020
:108BA00033FBBC23312269469B00CA54BDA85249FD
:108BB0000DF02AFBC323322269469B00CA54C4A885
:108BC0004E490DF021FBCA23332269469B00CA544B
:108BD000CBA84B490DF018FBD123342269469B00EA
:108BE000CA54D2A847490DF00FFBD8233622694654
:108BF0009B00CA54D9A844490DF006FBDF23352257
:108C000069469B00CA54E0A840490DF0FDFAE623EE
:108C1000372269469B00CA54E7A83D490DF0F4FA93
:108C2000ED23382269469B00CA54EEA839490DF05D
:108C3000EBFAF423392269469B00CA54F5A8364959
:108C40000DF0E2FAFB23302269469B00CA54002350
:108C5000221D1C26E26022612371A3606361FCAACD
:108C600020000DF0ABFB7642F5AD6E4428001C3DB4
:108C700011F0FDFAB542F9D100232000A361FC23D5
:108C80009B009D4470BDC04610FCFFFF82B40200F3
:108C9000B4B402006CB40200BBB40200C3B402005E
:108CA00071B40200C1B40200A8B40200BCB4020056
:108CB00096B4020081B4020076B40200C8B4020087
:108CC000C2B40200C7B402007BB4020080B4020048
:108CD0006DB40200B5B40200C9B4020086B402004B
:108CE000A2B402008BB4020085B402008AB4020070
:108CF000BAB402008FB4020095B402009BB4020023
:108D0000A1B40200A7B40200ADB40200B3B40200E3
:108D1000B9B40200BFB40200C5B402001423F0B518
:108D2000040095B0009319221821043002F0AEFF20
:108D3000220027006432B43713211000119207F08B
:108D400007FB38000EF0BEFD2200B83210921E2143
:108D5000002210980EF06CFA2000D03002F012FCC5
:108D60002200EC3212920621494A129802F034F89D
:108D700020000026012365301A0000961121FF30E3
:108D800001F036FB20008D300096012302221A21CB
:108D9000FF3001F02DFB25002000C535B530FF3533
:108DA0001A2302220121FF3002F0AAFC10990423A9
:108DB0003A22280001F01EF984229200A218139290
:108DC00005231D22019300923B002A00109913985D
:108DD00001F032FD96229200129BA01813992A00EE
:108DE00001F004FF99229200A01839001C2203F020
:108DF00079F819239F220F93013B0E93013B0D93AA
:108E0000013B0C93013B0B93013B0A93013B0993FC
:108E1000013B0893013B0793013B0693013B0593FC
:108E2000013B0493013B0393013B0293013B0193FC
:108E30009200013BA01800930822013B07210EF08D
:108E4000FFF9EB239B00E018390003F0EBFBF32361
:108E50009B00E0181D2102F00DFDFD239B00E65054
:108E600011982670032110F026FE23002200200016
:108E700008499C33A0321C6011605660064A80305D
:108E80005A610221012207F0A1FF200015B0F0BDB8
:108E9000C8A70200656402004F6402000123F0B518
:108EA00006788DB004001E4000D0A4E0FD208005AF
:108EB00000F0A6FC2300D0331800029300F07AFAE9
:108EC00000F0A0F9282000F0D3FC050010300DF0D0
:108ED00021FD4A4B18202B6000F0CAFC0700484BCC
:108EE0000460082231000C300A930B9611F0E8FA66
:108EF0000AA9381D082211F0C7FA424B29007B61EC
:108F00001223AF60EE60AB802E626E62029802F0B8
:108F1000B1FA002805D028000DF016FC280000F05A
:108F2000C7FC0123227864201343237000F05EFB0A
:108F3000002527006537FF3738000DF057FF002860
:108F400055D020008D30FF300DF050FF00284ED05E
:108F50000A2D4CD06420013500F048FB0A2DE8D1E1
:108F600029492A4800F022FCEB23FD269B00E31848
:108F7000B6000393A359002B32D100F057F801003B
:108F800006A800F081FD0DF0F1FA04900DF0EEFA64
:108F90006B460590198A08A80DF03DFC059B09A8B1
:108FA000190C0DF038FC09AA08A907A80DF08FFCD0
:108FB00009A80DF013FC08A80DF010FC012307AA66
:108FC00006A900930398029B03F080FB07A80DF00D
:108FD00005FC06A80DF002FCED239B00E358A3510D
:108FE00021003A00EC31039803F016FDA1E7064991
:108FF000074800F0DBFB0DB0F0BDC046FD030000EC
:10900000D76402009764020000200020001C0020AA
:1090100008000020BFF34F8F024B034ADA60BFF312
:109020004F8FFEE700ED00E00400FA05F0B58DB0CB
:1090300005AF19221549380011F026FA0022144B09
:1090400005245A7180225205566E01222500019492
:10905000029203930199300008F056F80800029933
:1090600007F0CCFF019B03996B430193029B361AD7
:109070006B430293631E2C1B6C433C19225C1C1E29
:10908000CA54E7D108000DB0F0BDC04601B50200DA
:10909000002A0020F0B597B018220021060010A881
:1090A00011F00EFA132110A810F044FE032110A8AD
:1090B00010F00FFF4C4B1B68002B00D10133DBB2CB
:1090C00002934A4A012300210BA807F0B9FD484B3F
:1090D0009E4200D9002672B6464B64211D68464B5D
:1090E00030000793052408F013F860435030281827
:1090F00008900A21300008F00BF80A2108F0EEF879
:10910000614350316918099130000A2108F0E6F8EE
:10911000802361430024503169189B010A91019317
:10912000029B002B5DD0002500272E1F07AB9B194B
:109130000593032C03D1802300249B01019307ABEB
:109140005B592E4A03936300D3180493002319003C
:1091500006205843049A16187678B4466246039E51
:10916000B25C10269446049A105C62460641164290
:1091700002D00120984001430133092BE8D1C943B3
:109180001F4B059A090119401268039B934225D190
:10919000312F23DC00210BA810F073FFFA23159A5E
:1091A0001199DB00106801421BD0013B002BF9D163
:1091B000019B01345B000193FA230137E4B25B00A9
:1091C0009F42B6D10435102DAED1074B1B68002B42
:1091D000A6D0029F013FFBB20293A1E7019B194376
:1091E000D9E7FFF717FFC04680260020F0FF0000F8
:1091F000E70300000420002050B502001AB5020069
:10920000F01F0000F8B50023124C23600DF0A0F908
:10921000002808D0042120000DF096F9002801D084
:109220000D4B2360F8BD0122A12704250B4B0C49EF
:109230001A602268FF0048604E68002EFCD0DE599C
:109240001202013D3243002DF5D1226001225A6005
:10925000E8E7C0467C260020ED5EBC0B00D0004055
:10926000FCD000400B4B70B51C68002C10D0656D15
:1092700000F0C6FBA36C002901D1834206D8200070
:109280000DF099F9044920000DF083F92C00ECE76A
:1092900070BDC04688260020A8260020F0B593B0F7
:1092A00007932A4B04AC1E68049005910692002E89
:1092B0004AD0274B258867881C6800230293002C1E
:1092C0002ED0636D23480393A36C9AB2A36C1B0C3E
:1092D00099B2854214D12048824211D1002B01D08D
:1092E000B9420BD1029B002B08D120000DF063F98D
:1092F0001A4920000DF04DF901230293039CDEE78B
:10930000002A01D09542F9D1002B01D0B942F5D104
:1093100020000DF050F9114920000DF03AF9EDE769
:109320000F4BEB18012B0FD910233A0000932900A3
:109330000C4B08A80DF0F1F9336808A99B683000C0
:10934000984708A80DF000FA13B0F0BD842600205D
:10935000B4260020FE030000FF030000A826002022
:1093600002FCFFFF9D92010010B572B60B4B1C680A
:10937000002C08D020000DF01EF90023E364084BF8
:109380002000E36310BD62B65C2000F071FA5C223D
:109390000021040011F094F8EFE7C046AC2600204D
:1093A00000400020024B1878012318407047C04647
:1093B000062A0020F7B50600FFF7F4FF051E33D19B
:1093C0001A4C2660FFF7D0FF194B1A4918600DF0B0
:1093D000E0F8FFF7C9FF184B1860184B4363184BB0
:1093E0008363206800280ED0C027164E2A00330061
:1093F00015490097FEF72AFF009733002A0013490A
:109400002068FEF723FF0C2000F032FA002383804F
:1094100083710F4B03600F4B836000F009FB012346
:109420000D4A11780B431370F7BDC0468426002007
:10943000B8260020A8260020B0260020FC3F0020EF
:109440007D6602009D920100FF030000FE03000004
:10945000E8A7020065920100062A0020F7B5060081
:109460000D0017000193002802D100242000FEBD4A
:109470000029FAD0FFF778FF041EF6D0074B019AB7
:109480004363066045608760054B002A00D0054BAA
:10949000A363054920000DF07CF8E7E7FC3F0020BE
:1094A0004766020065660200A8260020024B186885
:1094B000434258417047C046A8260020002310B5FB
:1094C00004499C006258002A01D00133F9E760503A
:1094D000100010BD90260020002310B5044A99000A
:1094E0008C58844201D00133F9E70020885010BD28
:1094F0009026002010B50024084BA200D058002868
:1095000002D003685B6898470134062CF4D1044B01
:109510001B68002B00D120BF10BDC0469026002044
:10952000A8260020F8B5FFF73DFF00281BD0294DE5
:109530002C68E36CDA0717D502263343E36404236F
:10954000254F3868C26C1343C364636BC3630DF06B
:1095500058F83868416C03F05CFE2868C36C3342ED
:1095600001D003F090FEF8BD1C4F1D4E3A683168E3
:10957000002A1ED129602A688A4208D11B0706D515
:109580002C60FFF7B7FF3B68002BFAD02B602968EF
:109590008C42E8D03368994214D1124B4B63124B82
:1095A0008B6320000DF02DF82968626C4B6C200055
:1095B0000DE0206DB84203D1606D002800D002009C
:1095C0002A60D8E79C42ECD1002210004B6C03F0DB
:1095D000DFFDC8E7B82600208C260020A826002042
:1095E000B0260020FC3F00207D66020070B505001B
:1095F000FFF7D8FE002803D1280010F05EFC70BDF4
:109600000C4B1C68E36CDB0706D5FFF7ADFE0A4B7D
:109610001860002800D0040000F0F2F92D18A564AD
:1096200020000CF0C8FF054920000CF0B2FFFFF746
:1096300079FFE4E7B82600208C2600208826002049
:10964000F0B51E4B1E4F1C683B6885B006000391A9
:10965000002B30D0FFF7A6FE00282CD0E36CDB07F0
:109660000ED5FFF781FE174B051E186008D00CF0D1
:10967000A2FF154928000CF08CFF2C00FFF752FFC9
:10968000039B20001B043343A3640CF094FF2000D1
:109690000E490CF07EFF0E4B0024F318012B07D966
:1096A000C0230093039A0B4B31003868FEF7CEFDC0
:1096B000200005B0F0BD084CFAE7C046B8260020EF
:1096C000842600208C260020A8260020B426002016
:1096D00002FCFFFF9D92010016FCFFFF10B5FFF793
:1096E00061FE002809D0054C20680CF064FF044995
:1096F00020680CF04EFFFFF715FF10BDB8260020C4
:10970000AC260020F7B507000D0000282ED0FFF78B
:1097100049FE00282CD00724164E3068C36C1C402C
:1097200007D0154A290038000CF05CFF0024200007
:10973000FEBD03F090FD02213268D36C1940019107
:1097400003D003218B43D364F1E701242343D36483
:109750002800B8473268D36C1900A143D164019C3A
:109760005B07E4D528000CF075FFE0E7034CDEE76B
:10977000034CDCE7B82600205566020017FCFFFF0B
:1097800016FCFFFF020010B5014B12CB12C210BD38
:10979000BC260020034B1A68034B1A607E225A60D5
:1097A0007047C04604200020BC26002070B5104D34
:1097B0002B78022B18D0814218D90B1A072B15D9F8
:1097C0000C00032304431C4010D172B62A78094BC5
:1097D000D200D050981841600CF056FF2B7801331E
:1097E0002B7062B6200070BD0348FCE70348FAE71F
:1097F000072A0020C426002013FCFFFF17FCFFFFF0
:1098000070B50021041C07F08BFD002828D1FE2133
:10981000201C890507F08EFD002821D104300BF0B3
:10982000B9FE05000F48401B08F064FD211C08F03C
:1098300001FA07F0B3FD03239843040028000BF05E
:10984000B3FE20000BF0A6FE002804D1203C002C23
:10985000F7D1054803E00119FFF7A8FF002070BD0C
:109860000248FCE70038002013FCFFFF17FCFFFF55
:1098700070B5060000250C4B1B78AB4209DD0B4987
:10988000EB00C91830000CF007FF041E09D10135A8
:10989000F1E730000BF07EFE041E02D11420FFF72A
:1098A000F9FB200070BDC046072A0020C426002016
:1098B00070B5002813D00D4B0D491C7800239C4235
:1098C00010DDDA00555885420AD28A185268824261
:1098D00006D98023043802681B061343036070BD59
:1098E0000133ECE70BF060FEF9E7C046072A0020E1
:1098F000C426002070B5051E14DD0B4E0B4C3368DA
:10990000002B02D0206810F053F9FA2120680024BF
:10991000074B89008361C4626943356010F050F9D8
:10992000200070BD0348FCE7D42600200427002057
:10993000DD99010017FCFFFFF8B5114F06003D68E7
:10994000002D0AD13020FFF793FF040006F024FD1C
:109950000C4BA5612360E5623C600B4D2B68002B2E
:1099600009D11020FFF784FF040010F0EAF820006E
:109970002C6010F0C0F83000FFF7BCFFF8BDC04607
:109980000427002060AD020000270020014B18686A
:109990007047C046D426002070B50D4C2368002BBC
:1099A00003D00C4B1B68002B02D10620FFF7C4FF2D
:1099B000206810F0B7F802000749C3170D684E6819
:1099C0005219734120680A604B6010F0B1F870BD05
:1099D00000270020042700201822002010B5FFF7E0
:1099E000DBFF0024054BA200D058002802D00368FA
:1099F0001B68984701340A2CF4D110BDD8260020EA
:109A000010B5FFF7C9FFFA22034B92001868596896
:109A1000002307F0A3FC10BD1822002010B5FFF7AB
:109A2000BBFF024B1868596810BDC04618220020C1
:109A30000B4B10B51B680400002B03D0094B1B68AF
:109A4000002B02D10620FFF777FF0023064A99007A
:109A50008858002801D00133F9E78C5010BDC0466A
:109A60000027002004270020D8260020002310B55E
:109A7000044A99008C58844201D00133F9E7002050
:109A8000885010BDD826002010B50400002902D04F
:109A90000B78002B03D1034B2360200010BD0CF08A
:109AA000A4FEFAE7F8A70200F8B5040008000D00CC
:109AB0000DF046F8002803D1134B23602000F8BDB9
:109AC00028000DF03DF80530FFF7D2FE20600DF0C4
:109AD0003AF828000DF034F82368588023682800ED
:109AE0001E1D0DF02AF8070028000DF029F8390096
:109AF0000200300010F0C8FC280026680DF020F8A5
:109B0000002336183371D9E7F8A70200F8B504002E
:109B10000E00150000290AD00B78002B07D0002A70
:109B200005D0080097B210F013FD874203D90B4B04
:109B300023602000F8BD681DFFF79AFE20600DF03D
:109B400002F823682A005F8023683100181D10F096
:109B50009BFC23685D1900232B71EAE7F8A702003C
:109B6000014B03607047C046F8A7020010B50548D6
:109B7000054C20600CF0EAFF044A0549200010F073
:109B80008AFA10BDF8A70200082700200020002054
:109B9000DD670200084B73B51C680500002C0AD075
:109BA0000100266808310822684610F06DFC0CCDD3
:109BB00031682000884773BD0C270020014B0360EB
:109BC0007047C04600A8020030B500684488A14232
:109BD0000CDA8588AA4209DA002907DB002A05DBAE
:109BE0005443401800198371002030BD0048FCE741
:109BF00017FCFFFFF0B5070085B00E001D0000291F
:109C00001FDD002B1DD00468638803938B4200DDA9
:109C10000391A3880293934200DD0292002306344D
:109C20000193019B029A93420EDA29002000039AC5
:109C300010F02AFC3B68AD195B88E418019B0133E6
:109C4000EEE7024805B0F0BD0020FBE717FCFFFF80
:109C5000F8B504000D0016001F00002901DB002AE2
:109C600002DA0E4B2360F8BD100048430630FFF7C0
:109C7000FFFD20600CF067FF23685D8023689E80F5
:109C8000002F06D03B00320029002000FFF7B2FF72
:109C9000E9E720000CF080FEE5E7C04600A80200DE
:109CA000F0B5060087B00D1E04D1244B03603000D0
:109CB00007B0F0BD00200F000400010001903B78C8
:109CC000002B1AD03022524294469C446246092A04
:109CD00011D90A2B0AD1019B241801330193A14207
:109CE00000DA2100002004000137E8E70028FBD05B
:109CF00001340020F8E70120F6E76A46928809B2AD
:109D000012B23000FFF7A4FF33689C1D03AB1F00A5
:109D10002A78002ACBD011003039092903D81A70CB
:109D200001330135F4E700221A70BB42F9D938003B
:109D300010F08AFB3B0020700134F2E700A802001B
:109D4000F0B5040089B006A80E0002921D00FFF7CE
:109D500019FD236802995A88914235DA9B889D4201
:109D600032DA1F2E30D9079B01939E422CDC05234B
:109D7000002273430393069B0493039B04999B184F
:109D8000A03BCB5C00210593AE18029BCF18236843
:109D90005888019087420EDA9888B0420BDDDB19B3
:109DA00010270F41019870431B1805980740781E33
:109DB00087417F429F7101310529E6D10132052A91
:109DC000DBD1002009B0F0BD0048FBE717FCFFFF26
:109DD000F7B50468070063880E1E01931EDD9942E3
:109DE00018DA0023063400933B68009A9B889A4255
:109DF00012DA019BA1199D1B2A00200010F044FBE0
:109E0000601931000CF0BAFD3B685B88E418009BD8
:109E10000133E8E70CF0C0FD002000E00048FEBD83
:109E200017FCFFFF10B50548054C20600CF08EFEB6
:109E3000044A0549200010F02EF910BD00A80200C8
:109E400010270020002000206F69020010B5054C8B
:109E5000012120000CF062FE034A0449200010F0AA
:109E60001AF910BD1427002000200020C96A020042
:109E70000388074A10B50120934208D0834202D0DC
:109E80000020DB0703D41E20FFF704F9002010BDDB
:109E9000FFFF000010B50400034B08330360FFF719
:109EA0001BFB200010BDC04648A80200FA2270B576
:109EB000438992005343314A314914000500383434
:109EC0008B421BDC2F498B4218D82F49083C8B4210
:109ED00014D82E49083C8B4210D82D49083C8B429F
:109EE0000CD82C49083C8B4208D82B49083C8B42A3
:109EF00004D82A4914008B4200D90834284B2A7B05
:109F00001E1D042A03D89E1C022A00D81E00FA2116
:109F10002068890007F072F8337868812B7300227B
:109F20002A2128000CF036FE002801D01D4870BD03
:109F300010222B2128000CF02DFE0028F6D1012242
:109F40002D2128000CF026FE0028EFD101222E2121
:109F500028000CF01FFE0028E8D172780E2128009E
:109F60000CF018FE0028E1D1012223792A211A439E
:109F700028000CF00FFE0028D9D0D7E708A802006F
:109F800000C409000071020080380100204E00006A
:109F90001027000088130000C4090000E20400003C
:109FA00030B702000EFCFFFF7FB515000F226A4498
:109FB00004001E001170002D16D0002B14DD0123AB
:109FC00001890093006B01F0D1F9002802D0074805
:109FD00004B070BD0090218933002A00206B01F08D
:109FE0007BF90028F4D0F2E70148F1E70EFCFFFF0F
:109FF00017FCFFFFF7B50600002501931E4B143632
:10A0000008330400036085808571C581058245821F
:10A010000F00009229001822300010F051FA1C2184
:10A0200030000FF087FE6B469B880221A3806B46B1
:10A030001B88220023811423A5712173A563A587A2
:10A0400063813E32137827638B43F1310B401370E9
:10A050002300957295810135221DD5870833A21DF5
:10A06000D5872000DD87FFF721FF002802D1A379E3
:10A070001D43A5712000FEBD48A8020030B504258F
:10A08000837987B004002B4204D1FFF717FAA37934
:10A090001D43A571A36AA2691B6800251A4208D155
:10A0A00006236A4601212000FFF77EFF051E03D02C
:10A0B000114D280007B030BD6B46022204206946CE
:10A0C0009A561856237BD2005A43228202220978DC
:10A0D000C00049B2C900594343436382A379E18177
:10A0E0009343A37120000CF063FD0123A1881A00A3
:10A0F00002A80CF019FCDCE70EFCFFFFF8B5040029
:10A10000FFF7BCFF0E22A35E794F5B42BB4251DAE0
:10A1100023003E331B789B074CD5012521002800E6
:10A120003E310B785A08904302000220AA40834334
:10A1300013430B702000FFF7A1FF1022A35E5B42C8
:10A14000BB4248DA23003E331B785B0743D5012529
:10A15000210028003E310B789A08904382000420A9
:10A16000834313430B7026002000FFF787FF122262
:10A17000A35E4836BB423EDA23003E331B781B0702
:10A1800039D5210001223E310B78D80882430820BE
:10A19000D200834313430B703378032B3BD8013336
:10A1A000DBB23370012B00D08DE0230000224A3354
:10A1B0001A8030E02000FFF761FF0E22A35EC82264
:10A1C0005B42520000259342B4DD23003E331B78EE
:10A1D0009B07A2D5AEE72000FFF750FF1022A35E39
:10A1E000C8225B4252009342BDDD23003E331B7800
:10A1F0005B07ACD5B7E72000FFF740FFC82312216B
:10A20000625E5B009A4204DD23003E331B781B072D
:10A21000B7D5002DC0D13278002A14D021002700F4
:10A2200001254A310B883E3701339BB20B803878C9
:10A23000AC46054055D01D2B05D9634698430023F5
:10A2400038700B80337020000CF01EFD294A072364
:10A25000904244DD2000FFF711FF0E23E25E264E00
:10A2600052420323B2423ADBC8252000FFF706FF23
:10A270000E23E25EAD0052420423AA422FDC2000EE
:10A28000FFF7FCFE1023E25E02235242B24226DBBD
:10A290002000FFF7F3FE1023E25E01235242AA42A0
:10A2A0001DDC2000FFF7EAFE1223E25E0523B24226
:10A2B00015DB2000FFF7E2FE1223E25E0623AA422E
:10A2C0000DDC00230BE0042BA5D122003E321178D7
:10A2D000033B0B43137000234A3423800B331800D5
:10A2E000F8BD092BAFD9013A0D803270ABE7C046FB
:10A2F00070FEFFFFFF700200E0FCFFFF70B5C36956
:10A30000C1681A68451D8AB00400EB7F114255D020
:10A31000002B58D1EB7F082B0DD90122A3791342D2
:10A3200009D11343A371A188130006A80CF0FCFA0D
:10A33000FFF766FB2062EB7F012B23D80123A27974
:10A340001A421FD00025A188A571022202A80CF094
:10A35000EBFAA31DDE7F012E14D1FFF751FB2B007A
:10A36000226A801A994100900191019BA188AB4219
:10A3700003D1174B009A9A4227D90123042206A839
:10A380000CF0D2FA0322A3791340012B14D1FFF76A
:10A3900037FB0023226A801A9941994202D10D4B62
:10A3A000984209D90223A279A1881343A3710522F7
:10A3B000012306A80CF0B8FA0AB070BD0B2BA9D87F
:10A3C0000133EB77A6E7013BFBE733000322D6E737
:10A3D000E7030000DB05000010B50400034B083361
:10A3E0000360FFF743FB200010BDC04660A80200D9
:10A3F000F0B5070000250E0085B002930AAB1B786C
:10A4000008370393104B04000833036001928580E2
:10A41000857129001822380010F052F8039A310093
:10A4200038000FF08CFC6B466A469B88127AA3803A
:10A43000A31DE671DA77631D25622000DD77FFF743
:10A44000F7FA200005B0F0BD60A8020010B50400C6
:10A45000034B08330360FFF73FF8200010BDC046F0
:10A46000D0A802007FB515000F226A4404001E0028
:10A470001170002D16D0002B14DD012301890093EB
:10A48000C06B00F073FF002802D0074804B070BD15
:10A490000090218933002A00E06B00F01DFF0028A6
:10A4A000F4D0F2E70148F1E70EFCFFFF17FCFFFFD5
:10A4B000002330B585B003AC2170018900930500FD
:10A4C00001332200C06B00F051FF002802D0094880
:10A4D00005B030BD20802989009002232200E86B5E
:10A4E00000F0FAFE0028F2D1237860781B021843AE
:10A4F00000B2EDE70EFCFFFF13B56B46DC1D002339
:10A50000220023700133FFF7ADFF002801D120782E
:10A5100016BD0148FCE7C0460EFCFFFFD0B50400A5
:10A520000CF08CFCE268A369981A09F031FB060074
:10A530000F002369E069C01A09F02AFB32003B00D2
:10A5400009F074FE0022104B08F032FD0F4A104B48
:10A5500008F02CFA09F0A8FB0021041C06F0D6FE36
:10A56000002804D0201C0B4906F0F2FF041C201C1C
:10A5700009F048FB02000B000020074908F08AFFA1
:10A5800009F0D0FAD0BDC04600806640EA2E44549F
:10A59000FB2109400000B44300807640F0B505007F
:10A5A00085B0006C0CF00DFC061C286C0CF000FC57
:10A5B0000221071C28000CF072FC022103902800E5
:10A5C0000CF07FFC07F04CFE0221041C28000CF06C
:10A5D0008AFC07F045FE051C301C09F0E9FD0290DD
:10A5E000301C09F0A7FD0190381C09F0E1FD061CA4
:10A5F000381C09F09FFD071C039807F031FE391C39
:10A6000007F018FB311C071C201C07F013FB0299F4
:10A6100007F010FB011C381C06F09AFF311C071CC8
:10A62000281C07F007FB019907F004FB011C381CEC
:10A6300006F08EFF0299061C281C07F0FBFA019910
:10A64000051C201C07F0F6FA011C281C07F024FC4E
:10A65000311C09F0EFFD0D4907F0ECFA09F0D2FAD0
:10A660000B4A0C4B08F0A2F909F01EFB0021041C58
:10A6700006F04CFE002804D0201C044906F068FFB8
:10A68000041C201C07F0CCFD05B0F0BD0000B44355
:10A69000EA2E4454FB21194070B500221021040019
:10A6A0000CF0BEFB1B4D00282DD1032608212000F5
:10A6B000FFF722FFA84226D0304226D1FA21638933
:10A6C000890059435023144AD518D058884204D3DE
:10A6D000D518083B18000830F7D1FA2128688900FE
:10A6E00006F08CFCA0226081112120000CF098FB68
:10A6F000002808D101222B7910211A4320000CF0E8
:10A700008FFB002800D0034870BD6420FEF76EFF69
:10A71000CCE7C0460EFCFFFF78A802007FB50425F9
:10A72000837904002B4218D102260CF087FBA37911
:10A73000A188B3432B43A3710622012368460CF082
:10A74000F3F8A07903003040AB43A3714342584172
:10A75000034B4042184004B070BD0248FBE7C046BE
:10A7600014FCFFFF15FCFFFF10B5837904005A07A6
:10A770000DD49B0701D4FFF7D1FF236C2000002BE1
:10A7800002D0FFF70BFF10BDFFF7C8FEFBE7014843
:10A79000F9E7C04615FCFFFF70B5466C86B001AC0A
:10A7A000050001916260A360002E0CD00B4905A842
:10A7B000FFF76AF90C23220005A930000DF0C1F85B
:10A7C00005A80CF00BF82B000C3307CC07C30223B1
:10A7D000AA791343AB7106B070BDC04636B702000C
:10A7E000642330B504000281438185B08180FFF786
:10A7F00053FF0222A379606C9343A371002813D006
:10A800000C490DF065F8051E0ED001000C22103128
:10A8100001A80FF039FE20000199029A039BFFF76F
:10A82000BBFF2800FFF744F80123A2791343A3716B
:10A8300005B030BD36B70200F7B5009308AB1B88F2
:10A840000400019309AB1D8800230F0016000D4A78
:10A850008380083283710260C36003614361836156
:10A86000C36103621D2124300CF0CDFA009BE76325
:10A870002664290020006364019AFFF7B1FF2000DD
:10A88000FEBDC046D0A8020082B0F0B50400A5B05D
:10A8900064202B932A920FF010FB04220C2109A8AC
:10A8A00002F052FD2422CC491BA80FF0EDFD052239
:10A8B00006A811000CF079F8C84907A8FFF7F0F9CD
:10A8C000A06800F081FBA568C54918A8FFF7DCF86F
:10A8D000782218A9280000F0A5FC18A80BF07EFF2C
:10A8E0006E256420013D0FF0E8FA002DF9D1A06833
:10A8F00000F06AFBA0680CF096FC012160680CF087
:10A90000D7F90121070060680CF0E5F906000A207C
:10A910000FF0D3FA0022B34B03929F4210DB0132B7
:10A9200003923A00C8320BDBC82204219200039143
:10A93000974205DC03220392C82F01DC013A0392FF
:10A9400000279E420CDB33000137C83308DBC823E5
:10A9500003379B009E4203DC013FC82E00DC013F11
:10A9600006A80CF019F80026032373431BA9CA1884
:10A970009078002805D0C95C5278FF2306A8FFF71D
:10A9800023F901360C2EEFD16B463AB20C21595EF9
:10A9900006A8FF23FFF718F90023A06800931A0008
:10A9A000743006A90CF008F8002304930323049ADA
:10A9B000039853431BAA995C814237D1D31805935E
:10A9C0005B78BB4232D1059B9E78002E2ED13100A0
:10A9D00020680CF064FA07F043FC3200031C2900E5
:10A9E00009A80DF037FA310020680CF06AFA07F078
:10A9F00037FC0122031C290009A80DF02BFA3100B5
:10AA000020680CF070FA07F02BFC2900031C0222CE
:10AA100009A80DF01FFAFE2303229B05290009A8AF
:10AA20000DF018FA0123059AED189370049B013379
:10AA300004930C2BBAD164200FF03FFA0B2D00DCED
:10AA40005BE709A80DF0F2F9012201000CA802F061
:10AA50007BFC002509A80DF0E9F9A8423CDD29009E
:10AA6000002209A80DF0E4F90022061C290009A81B
:10AA70000DF0DEF9011C301C07F0DCF82900061C83
:10AA8000012209A80DF0D4F90122071C290009A808
:10AA90000DF0CEF9011C381C07F0CCF8311C06F083
:10AAA00057FD2900061C022209A80DF0C1F9022257
:10AAB0002900071C09A80DF0BBF9011C381C07F080
:10AAC000B9F8311C06F044FD2900031C00220CA833
:10AAD0000DF0C0F90135BDE709AA1100012318A83E
:10AAE0000DF0D2F918A90FA80DF02BFA18A80DF047
:10AAF000C2F90CAA09A912A801230DF0C5F9002377
:10AB000012AA0FA915A80DF0BFF9002215A811006F
:10AB10000DF08EF90022061C012115A80DF088F910
:10AB20000022051C022115A80DF082F9FC21071C4A
:10AB30008905301C07F07EF807F072FBFC21060047
:10AB400018908905281C07F075F807F069FBFC21AF
:10AB5000050019908905381C07F06CF807F060FBB8
:10AB60002A00030031001A902068FFF715FEA06844
:10AB70000CF059FB07A908A8A5680BF005FF0022F7
:10AB8000194B009208A901932800130000F0BAFAAB
:10AB900008A80BF0ECFEFA2080000FF08EF9A068F8
:10ABA0000CF041FB15A80DF066F912A80DF063F941
:10ABB0000FA80DF060F90CA80DF05DF907A80BF0D7
:10ABC000D6FE06A80BF0D3FE09A80DF054F925B067
:10ABD000F0BC08BC02B0184741B7020065B70200DC
:10ABE000AAB70200E0FCFFFFDC050000F7B58360B8
:10ABF0001D4B05001F6801604260002F31D02820E6
:10AC0000FEF736FE040010300BF084FE174B1820C0
:10AC10002360FEF72DFE00220600154B0192056011
:10AC2000083200210C3000930FF04AFC08226946DC
:10AC3000301D0FF029FC0F4B00227361C223A3804B
:10AC40003B68E260A660226262625B6821003800B5
:10AC50009847002805D020000BF076FD2000FEF775
:10AC600027FE2800FEBDC0460C2700200500060078
:10AC700089A80100FF6E0200F0B5040085B0637A78
:10AC80009C46002B04D120000CF064F905B0F0BD07
:10AC9000A37A266F01931023019AF35600259B187F
:10ACA00001229A402900F36803920293029BAB426F
:10ACB00031DDB368019A6B439B1872695B00E77AD8
:10ACC000D3181A785878E379012F14D15F1E3F1AF0
:10ACD00010003A005B004343606F8218D3189B79E1
:10ACE000634500DD6346627B1A4202D00123AB401C
:10ACF00019430135DAE7022F05D15F1EBA1A277A08
:10AD0000013F381AE6E7032FE4D1277A013FBF1A43
:10AD100002003800DEE71123C943F356606C994006
:10AD200023691940039B19430FF0ABF9A27B072A53
:10AD3000ACD8637B0C495B006373531CDBB290009F
:10AD40004158A373022A03D808000FF0ABF896E726
:10AD5000064B2000236300236363054BE4622364F6
:10AD600014300EF02DFF91E7E8A8020079AC010045
:10AD70003F6F020010B50400044B03600EF018FF93
:10AD8000200005F01FFB200010BDC04660AD020092
:10AD900010B504000E4B08330360FEF767FE200079
:10ADA00074300BF0E4FD200060300BF0E0FD20007B
:10ADB00058300BF013FD200050300BF00FFD200039
:10ADC000044B14306361FFF7D5FF200010BDC0466F
:10ADD00008A9020094AD0200F8B500250400324B2A
:10ADE0008580083303608571143016000F0005F06C
:10ADF000D3FA20002D4BE562636125645030FEF7E5
:10AE0000AFFE20005830FEF7ABFE20006030FEF7AA
:10AE1000D5FE20000423F25E33682667590009B28C
:10AE200074300BF0C2FD3368226FE3717368012642
:10AE3000237210236581A7802561D3569168591824
:10AE4000994204DD3000984001330543F8E71123AF
:10AE50000120D356D1685918994206DD02009A4064
:10AE60002669013332432261F6E71420FEF700FD24
:10AE7000226900212A430123060005F0E1FEFF2399
:10AE8000220063720133A381002348326664A373F6
:10AE900020001370A366FEF7CBFD0123A2792000EA
:10AEA0001343A371F8BDC04608A9020094AD020087
:10AEB000F0B5437A85B00400002B04D120000CF0DB
:10AEC00049F805B0F0BD0122837A11009C46102399
:10AED000066F0025F35603926344994002912900BE
:10AEE000F3680193019BAB422CDDB36872696B433D
:10AEF00063445B00E77AD3181A785878E379012F16
:10AF000010D15F1E3F1A10003A005B004343606F90
:10AF10008218D3189B79002B02D0039BAB401943B6
:10AF20000135DFE7022F05D15F1EBA1A277A013FEC
:10AF3000381AEAE7032FE8D1277A013FBF1A020047
:10AF40003800E2E71123C943F356606C9940236946
:10AF50001940029B19430FF094F8667AB31EDBB2D6
:10AF6000FC2B14D8FEF712FD0B4B050023630023C6
:10AF70000A4863630A4BFF21E4622364704306F0CE
:10AF8000C7F829004143200014300EF019FE637AFF
:10AF9000012B00D995E791E7556F0200B603000039
:10AFA0003F6F02001FB5012381881A0068460BF02D
:10AFB000BBFC012303491A0068460BF0B5FC05B041
:10AFC00000BDC046FE0300001FB5030048331A78D9
:10AFD0000400002A0DD000221A70012381881A0073
:10AFE00068460BF0A1FC012304491A0068460BF0E7
:10AFF0009BFC200074300BF0CFFC1FBDFF03000052
:10B0000010B548300378002B06D00378012B03D00D
:10B01000012102480BF00EFB10BDC046FF030000EB
:10B0200010B50121040006200BF004FB064B9842EA
:10B0300008D148342378002B04D02378012B01D089
:10B0400020BFF7E710BDC04616FCFFFF70B5060035
:10B05000141E19DB050048352B78002B02D02B7805
:10B06000012B13D1002330001A007430FEF768FE64
:10B07000002C07D033004A331C80002407234C36B1
:10B0800034802B70200070BD014CFBE7014CF9E7C8
:10B0900017FCFFFF12FCFFFFF8B517000A68050058
:10B0A00052880B00012A09D1002118000BF025FC61
:10B0B000002201002800FFF7C9FFF8BD002F19DDAD
:10B0C000060048363278002A02D03278012A13D19D
:10B0D0002A00002428005C321900148058300BF03C
:10B0E000E7FB2B004A331F8003234C352C802000C4
:10B0F0003370E2E70148E0E70148DEE717FCFFFFB5
:10B1000012FCFFFF73B5079C0500002C1CDB06003A
:10B1100048363078002802D03078012816D10698B9
:10B120001BB2C0B20090280012B274300BF044FC85
:10B13000002C07D02B004A331C80002407234C35F9
:10B140002C803370200076BD014CFBE7014CF9E701
:10B1500017FCFFFF12FCFFFFF7B505000E00171EDE
:10B1600026DDFFF74DFF2B0048331C78E4B2002C9E
:10B1700020D133685B88012B09D1210030000BF00E
:10B18000BCFB220001002800FFF760FFFEBD31007C
:10B1900001A80BF085FB3A0001A92800FFF77CFF0E
:10B1A00001A80BF01BFB2800FFF73AFF2000EDE79A
:10B1B0000148EBE70148E9E717FCFFFF11FCFFFF3F
:10B1C000F0B587B00D9C06000F0002920393002C8F
:10B1D00020DBFFF715FF330048331D78EDB2002D5B
:10B1E0001AD1390005A80BF0CFFB0C9B01940093FA
:10B1F000029A039B05A93000FFF784FF05A80BF016
:10B20000B6FB002C03D03000FFF70AFF2C00200013
:10B2100007B0F0BD014CFAE7014CF8E717FCFFFF5F
:10B2200011FCFFFFF8B50400171E1DDD06004836AF
:10B230003378002B02D03378012B17D12200E37929
:10B240005632013B137023000025200054331D802B
:10B2500050300BF02DFB23004A331F8002232800BF
:10B260004C3425803370F8BD0148FCE70148FAE70B
:10B2700017FCFFFF12FCFFFFF7B505000F00161EBD
:10B2800018DDFFF7BDFE2B0048331C78E4B2002C1C
:10B2900012D1390001A80BF003FB320001A92800EC
:10B2A000FFF7C0FF01A80BF099FA2800FFF7B8FEDE
:10B2B0002000FEBD0148FCE70148FAE717FCFFFF4C
:10B2C00011FCFFFFFF2902D841720020704701489E
:10B2D000FCE7C04617FCFFFFF0B51F0085B00AABC6
:10B2E0001B780400039300933B000D0016000EF042
:10B2F0008DFC002833D0237D082B2DD82368002215
:10B300001900FC318A62A021C9005A501549052054
:10B310005A500138C046C046C046C046C046C04626
:10B32000C046C046C046C046C046C046F1D12368AC
:10B3300001325A50A0210432C9005A5005F03CF99C
:10B34000039B3200009329003B0020000EF05EFCBE
:10B35000237D01332375CCE7034805B0F0BD20758C
:10B36000FBE7C046FC0F00000EFCFFFFF0B51F001E
:10B3700085B00AAB1B780400039300933B000D00DB
:10B3800016000EF02BFC002833D0237D082B2DD87F
:10B39000236800221900FC318A62A021C9005A509A
:10B3A000154905205A500138C046C046C046C0461F
:10B3B000C046C046C046C046C046C046C046C0465D
:10B3C000F1D1236801325A50A0210432C9005A50E9
:10B3D00005F0F2F8039B3200009329003B002000A7
:10B3E0000EF0FCFB237D01332375CCE7034805B049
:10B3F000F0BD2075FBE7C046FC0F00000EFCFFFF10
:10B40000F8B50D1E30D000260227C468002C28D0C5
:10B41000AA88A38853403B4204D13A4204D1AB8866
:10B420003B4219D0646AF1E7A968A0680CF0EDFC12
:10B430000028F4D02B88002B02D022889A42F1D128
:10B440006B88002B02D062889A42EBD1A288074B0E
:10B4500001361343A380E5E7A368AA689342E1D1CC
:10B46000E8E72000002E00DC0148F8BD0080FFFF67
:10B4700017FCFFFFF0B5060085B00D1E59D001275F
:10B48000C468002C22D00221AA8800230A4202D0DC
:10B49000A3885B083B40226829688A4210D1A068D3
:10B4A000A968002B0AD00CF0B0FC002808D0A388B3
:10B4B0001AB2002A06DB204805B0F0BD8842F6D05B
:10B4C000646ADEE75B045B0CA380F4E7F0682A881B
:10B4D000002807D1F5600123184968460BF024FACB
:10B4E0000020E9E7010003001C88944206D25C6A50
:10B4F0001900002C0DD02300F6E723001C8894428D
:10B5000007D15F886C88A74203D25C6A1900002CBF
:10B51000F3D1814209D10B889A4204D305D14888DE
:10B520006B88984201D96962D4E74B6A6B624D62BD
:10B53000D1E70348C0E7C04616FCFFFFFD0300004B
:10B5400017FCFFFF064B10B51A00040008322C331D
:10B55000026043600430FDF7BFFF200010BDC0460D
:10B5600020A9020008B4024B9C46043808BC60477E
:10B5700045B5010008B4024B9C46043808BC60473E
:10B58000677302000C4A002311002C32083110B5F9
:10B59000038183724260C36003614361438301603E
:10B5A00004000430FDF78AFF044B1A68002A00D11A
:10B5B0001C60200010BDC04620A902000C270020FE
:10B5C000F7B50E000125C4680192002C36D02388FF
:10B5D00032889A4201D0002B23D1638872889A4224
:10B5E00001D0002B1DD1FDF7DDFE0123002806D080
:10B5F000C022A3881340C03B5A425341DBB2019A98
:10B60000934219D1A7883BB2002B15DB10223100E1
:10B61000A0180EF039FF40231F4204D020000BF089
:10B62000ABFE646AD1E7FDF7BDFE0028F6D021002D
:10B630000348FEF767F8F4E70025F2E72800FEBDAF
:10B640007973020008B4024B9C46043808BC60477A
:10B6500001750200F0B587B001930EAB1B880600A0
:10B6600003930D9B0D000093019B02920C9F002BF6
:10B670003DD0002F02D1009BDB0738D52820FEF7F4
:10B68000F7F8040010300BF045F96B461B89258054
:10B6900063801820FEF7ECF80500009B0822059354
:10B6A000019B002103600C3004970EF009FF082273
:10B6B00004A9281D0EF0E8FE0E4B02226B61002348
:10B6C0000399E3602362636233680A43A560A28042
:10B6D0005B68210030009847002806D020000BF05E
:10B6E00033F82000FEF7E4F8034807B0F0BD034844
:10B6F000FBE7C0463B75020016FCFFFF17FCFFFF8F
:10B70000F0B50400160000258380164A164B85719B
:10B710000260218146810573186889B08C46A84271
:10B720001DD0124A05950492C02202926A4604ABCB
:10B7300082CB82C223002A006146FFF78BFFC02222
:10B74000094B0A49186802926A46069106AB0795AA
:10B7500082CB82C223002A003100FFF77BFF20004A
:10B7600009B0F0BD64A902000C2700206576020034
:10B7700030B5002403730123034D8471056081807B
:10B7800082734373846030BD7CA9020070B58379F5
:10B790000400DB0702D58068FEF78AF8A3799B07CF
:10B7A00002D5A068FEF784F8A3795B0707D5A0232C
:10B7B0000021144ADB00D150A068FEF779F8A37984
:10B7C0001B0708D5A568002D05D028000DF069F9E4
:10B7D0002800FEF76DF8A379DB0605D5A0680028E0
:10B7E00002D00368DB6898476023A2791A4205D02B
:10B7F000A068002802D003685B6898470023A36014
:10B80000A37170BD00700040F7B50126037B0400F2
:10B8100033422AD0612385791D4017D1FFF7B6FF47
:10B820001820FEF725F80E230700E3561822009390
:10B83000637B290001930EF043FE019A00993800C2
:10B840000EF07DFAA379A7603343A3716023A27938
:10B85000A0681A4202D00EF027F9FEBD4369406885
:10B860001B681840431E9841F7E70148F5E7C046BA
:10B8700016FCFFFF70B5040000250C4B0E000833CA
:10B88000858085710360210018300BF09CFF20003B
:10B89000210020300BF0C2FF054BA680E580257209
:10B8A000E5602561656120001C6070BD8CA9020007
:10B8B0001827002010B50C000AF04AFE002806D117
:10B8C000642C06D8A123044ADB00D45010BD0348E1
:10B8D000FCE70348FAE7C0460010004016FCFFFFF3
:10B8E00017FCFFFF8379DB0702D5C160002070479A
:10B8F0000048FCE716FCFFFF8379DB0701D5C06831
:10B9000070470148FCE7C04616FCFFFF70B545696B
:10B910000400002D22D0037A032B21D8FFF7ECFF7F
:10B92000A8622C20FDF7A4FF2C22002105000EF0B8
:10B93000C7FD002263695A622369934208D1636993
:10B9400023610020237A65610133237270BD1300E7
:10B950005A6A002AFBD162695A62F2E70148F5E7A8
:10B960000148F3E717FCFFFF13FCFFFF144B70B512
:10B970005A68144C002A03D000225A600132A26097
:10B980001A69002A17D0002119618023DB000E4DAF
:10B99000E3582868012B0FD1A923DB00E158494265
:10B9A000FFF7A0FF2868FFF7B1FF2B685A69074B24
:10B9B000E2500123A36070BDFFF794FFF9E7C04692
:10B9C000FC10004000100040182700200405000073
:10B9D00070B505000C000AF0BBFD002804D1034A35
:10B9E000034BEC71D45070BD0248FCE700100040DE
:10B9F0002405000016FCFFFFF8B583790500002040
:10BA0000DB076AD40AF0A4FD002867D16E69002E16
:10BA100008D12C30FDF72CFF04002C2231000EF051
:10BA20004FFD6C616B69002B5AD000222D4B012118
:10BA30005A608022D20511605A68002AFCD0062282
:10BA4000294B2A4C9A562A4B0721E2502800FFF72F
:10BA500031FFA2230026DB00E650264A264B2800B1
:10BA6000E250E979FFF7B4FF01220821234B244873
:10BA7000E6500433E250234B234FE1500433E050AF
:10BA800002232248235022482750224F04382750AF
:10BA90001827214827506F6920482750C12080006F
:10BAA00021501F498538FF380B500B6080218900D9
:10BAB00060580E33034363501A4B5E6062605A68ED
:10BAC000002AFCD0002601271E612800A760FDF790
:10BAD000F5FC3000AB791F43AF71F8BD1248FCE7AD
:10BAE0001248FAE7FC000040C0B702000010004016
:10BAF0000C050000746962751C0500002C0500002F
:10BB00002000040214050000FFFF000034050000BF
:10BB10003C05000021100100540500000405000050
:10BB200000E100E0FC10004016FCFFFF13FCFFFFEB
:10BB300003000069002809D00221054AD167426A42
:10BB40001A611A7A013A1A72024B19607047C0469C
:10BB500004E100E000E100E070B504000D000AF02F
:10BB6000F7FC00283AD1002D3AD02B78232B37D878
:10BB700002221C4B1C49DA671C4B013A58610A61CE
:10BB80005A69002AFCD00020194A8D5058600130B3
:10BB9000086058680028FCD00120886000201861E7
:10BBA00018690028FCD06069885000225A6101326F
:10BBB0000A615A69002AFCD000225A6001324A60A8
:10BBC0005A68002AFCD00020186101238B60C02134
:10BBD0000222084B49005A501A6070BD0648FCE723
:10BBE0000648FAE704E100E000100040FC100040C5
:10BBF0000405000000E100E016FCFFFF17FCFFFF5A
:10BC000037B54C680500002C04D10C490AF063FFDD
:10BC100028003EBD636A01A84B602278211D033ACB
:10BC2000A36A0AF084FF2000FDF742FE01A9280064
:10BC30000AF051FF01A80AF047FFE9E714270020A6
:10BC400030B505008DB0002912D0232A10D801ACE0
:10BC5000D31C002023700123A07002A86370E3703E
:10BC60000EF012FC21002868FFF776FF0DB030BD02
:10BC70000048FBE717FCFFFF10B5002903DB024B70
:10BC800019600EF013F810BD1C27002070B50400D9
:10BC90001E0004AB1D7804F0C7FB20000E4B4030A3
:10BCA0002360FDF75DFF230001364C330135220090
:10BCB0001E701D730023E1214E32A364636513805F
:10BCC00053809381D381013B200063644902FFF7D5
:10BCD000D3FF200070BDC046C0A70200F7B5802783
:10BCE0007F053D697C690822113C6C4306002100F8
:10BCF00068460EF0C9FB104B009A9A4219D0009387
:10BD00000023019379693000133969430BF09BFDDF
:10BD1000019A009930000BF0AEFD210030000BF0CD
:10BD200092FD7969AB0813396943220030000BF0AA
:10BD300094FD0198FEBDC046FECA0000F0B50D009E
:10BD4000A9B00D9200213022060010A80B930EF02E
:10BD5000B7FB28000EF0FCFB431C0C93102B00D902
:10BD6000B5E00B9B202B00D9B1E0290030000BF08F
:10BD7000AFFD071E50D129000C9A10A80EF084FBCD
:10BD80000D990B9A14A80EF07FFB80235B051A69AE
:10BD90005F690C92113F7A4330005D690B92FFF7A7
:10BDA0009DFF3022002104001CA80EF089FB290011
:10BDB00000270C9B1339594330000BF044FD0D97BD
:10BDC00030257D430B9B0833ED18A74242DA29004A
:10BDD00030221CA80EF058FB10A91CA80EF0A6FBE0
:10BDE000002827D13C49300022000E910F940BF01F
:10BDF00042FD6A46099513AB23CB23C223CB23C252
:10BE000023CB23C23000129B1099119A0BF041FDF5
:10BE100001230D930137D3E710300B9A0D990EF0E3
:10BE200024FB04003800FDF743FD002CA3D12000C3
:10BE300029B0F0BD6A4609951FAB23CB23C223CBA3
:10BE400023C223CB23C230001C991D9A1E9B0BF0EA
:10BE500020FDDFE7E5433023ED1725405D430B9BD5
:10BE600008355D190D9B002B1DD10C9B3021981EB0
:10BE700005F0C4F8A0422CD017490134300022004C
:10BE80000E910F940BF0F7FC6A46099513AB23CB88
:10BE900023C223CB23C223CB23C230001099119A93
:10BEA000129B0BF0F6FC0B9930000BF0CCFC8023BE
:10BEB0005B0559690C230C9A133963434A430233D7
:10BEC000110030000B9A0BF0C8FC0024AFE7034CC4
:10BED000ADE7034CABE7C046FECA000017FCFFFF0E
:10BEE00013FCFFFF70B50400A280FA2200230800B3
:10BEF0000C49920008312160A3716061E260A36087
:10BF0000638209490BF0E4FC051E09D00100200002
:10BF10001031022212300EF0B7FA2800FDF7C8FCEB
:10BF2000200070BDA4A90200B8B7020030B50225F8
:10BF3000837987B004002B4204D1FDF7BFFAA379BF
:10BF40001D43A57120000BF00DFD00281CD06B4691
:10BF5000DD1C28000BF0FDFC2B78002B17D001A86E
:10BF60000BF0F5FC0321019AD3170B409B189B1093
:10BF70002382FDF745FDE368A18818180123A0601E
:10BF80001A0002A80AF0D0FC002007B030BD012240
:10BF9000064B1A60064A51680029FCD00021516006
:10BFA000044A1268019201225A60DBE700C0004097
:10BFB000FCC0004008C50040022802D10122014B0C
:10BFC0001A707047082A002070B5064C05002378C7
:10BFD000002B04D1044801F03BFB0123237028000F
:10BFE00070BDC046092A0020B9BF010070B50C0021
:10BFF0000AF0AEFA002810D00023144DA40A2B70CA
:10C0000020000BF0C3FC002803D00A200DF055FFE0
:10C01000F6E72B78002BFCD070BD02210C4B0D4AAB
:10C0200099508021C90008005D58002DFCD0A12145
:10C03000C9005C5019580029FCD00021995080217A
:10C04000C9005A58002AFCD0E6E7C046082A00205A
:10C0500000E0014004050000F8B50C0015001E00CA
:10C060000AF076FA002811D00023174F3B703200F7
:10C07000290020000BF088FC002803D00A200DF0D6
:10C080001CFFF4E73B78002BFCD0F8BD01210F48E2
:10C090000F4B844619508021C9005A58002AFCD001
:10C0A00080270022FF00964207DD9100685860500B
:10C0B000D9590029FCD00132F5E7002261465A50D7
:10C0C000DA59002AFCD0E0E7082A00200405000025
:10C0D00000E0014010B50400054B083303601C303C
:10C0E0000AF07CFB200018300AF078FB200010BD1D
:10C0F000BCA90200FF23F0B52C4D8DB02B7000239E
:10C10000040069460088009303F068F9002802D112
:10C110006B469B782B70264E3368DB68002B07D16B
:10C12000002320881A0019000BF034FC0DB0F0BD7C
:10C130002B78032BF4D81F4901A8FDF7A5FC336821
:10C1400001A9DE6804A80AF0ABFB04A930000BF0DB
:10C15000F2FB0027060004A80AF040FBBE421ED0F6
:10C1600031002022103104A80EF08EF93000FDF7C6
:10C170009FFB297804ABC9005918082202A80EF0C9
:10C1800083F920880123082202A90BF003FC013760
:10C19000002804D12088084A0C210BF0F9FB01A8E3
:10C1A0000AF01CFB002FBBD0C0E7C046F0210020E6
:10C1B0002C270020C8B70200FFFF0000F0B58379EC
:10C1C00091B004005B071BD5FDF71AFC0023226920
:10C1D000801A9941994203D1F423FF3398420FD931
:10C1E000A068002808D0364B1D880CF077FC036847
:10C1F00015221B6A290098470422A3799343A3714F
:10C20000A3799B0759D52F4D2B68DB68002B50D0A5
:10C210002D4B1B78032B4CD8294B2C491B8804A889
:10C220000193FDF731FC2B6804A9DE6808A80AF029
:10C2300037FB08A930000BF07EFB070008A80AF0C6
:10C24000CDFA02AB9E1D08233200338006A9073BBE
:10C2500001980BF0A1FB002F08D0390020221031EB
:10C2600008A80EF011F93800FDF722FB164B3288B2
:10C270001B7806A9DE0008AB9E1930000EF0F5F819
:10C28000002813D0082206A930000EF0FDF82B6814
:10C2900004A9DD6805A80AF003FB202308AA05A964
:10C2A00028000BF04EFB05A80AF098FA04A80AF043
:10C2B00095FA0222A3799343A37111B0F0BDC04651
:10C2C000B02900202C270020F0210020C8B7020050
:10C2D000F7B5089E0500152922D8012007008F40D8
:10C2E000244C27421CD0E97FCC181F2C41DC691854
:10C2F0003418A14210D80021C8B2834204D9545C3A
:10C30000701884700131F7E732789A183270EA7F3A
:10C310009B18EB7700202CE00878C8540139E8E737
:10C320003478013CE4B2A34208D10023D9B28C4254
:10C33000F0D9D05CF11888700133F7E7EF7F012066
:10C34000FF183F1B1F2F14DC0227A01C7F4236184A
:10C35000381B0190E87F2F18BE4204D23078019F2D
:10C36000F0550136F6E7041B023CEC7728000BF091
:10C370005DFBFEBDFC002000F0B585B001930AAB6B
:10C380001E880BAB1B78451C02930EAB1B78040078
:10C3900003930B78170003704B8A102243820131FC
:10C3A00028000EF071F86B469B88268363836B46EA
:10C3B0001B7B002623776B4601221B7A6761E6838D
:10C3C000EB77A31CDA770C9B0C256362230020001B
:10C3D0000D9A28331A705E709E702A0031002C303E
:10C3E0000EF06EF82000074BE663A3632A003100CD
:10C3F00040300EF065F82000034B2665E36405B07D
:10C40000F0BDC046AF790200A179020070B50D0001
:10C410000CF064FB04000368002D09D15B699847A8
:10C42000FA2080006843074904F0E8FDE08070BD11
:10C430009B6898478542F3D2236820009B68984701
:10C440000500EDE771020000F0B507001600A1B08D
:10C4500002C704006B4918A81D000BF02EFB331E09
:10C4600003D030000EF074F883B20122049200224F
:10C4700003920292023201920093320018A938000E
:10C48000FFF77AFF23006049583318A807930BF091
:10C4900014FB2B1E03D028000EF05AF883B20122A1
:10C4A00004920022039202920232019200932A0027
:10C4B00018A90798FFF760FF23005449AC3318A868
:10C4C00008930BF0FAFA269B002B03D018000EF00D
:10C4D0003FF883B2012204920022039202920232B8
:10C4E00001920093269A18A90898FFF745FF631C4C
:10C4F000FF33474918A809930BF0DFFA279B002B5D
:10C5000003D018000EF024F883B201220492002216
:10C51000601C03920292023201920093279A18A99A
:10C52000FF30FFF729FF23005533FF33394918A89F
:10C5300009930BF0C2FA289B002B03D018000EF0D1
:10C5400007F883B20122049200220392029202327F
:10C5500001920093289A18A90998FFF70DFF23006C
:10C56000A933FF332C4918A80A930BF0A6FA299B8C
:10C57000002B03D018000DF0EBFF83B201220492D0
:10C58000002218AD03920292023201920093299A7E
:10C5900029000A98FFF7F0FE204B1B780B93002B25
:10C5A0002DD1079B12971393089B0DAF1493631C17
:10C5B000FF331593099B1A4916930A9B380017936A
:10C5C0000BF07BFA1D2149203B7810222B707B8ACF
:10C5D00012AE6B8206ABC918C0180DF055FF0623CA
:10C5E0002B756B469B8D2068AB83AE610CF07AFA9D
:10C5F000036829001B6898470122084B1A70200025
:10C6000021B0F0BD292A0000242A0000252A0000BC
:10C61000272A0000262A0000282A00000A2A0020D3
:10C620000A18000070B5002504000A4B8580083305
:10C6300085710360C1601830FDF792FA20001C304C
:10C64000FDF78EFA044BA5601C6001236561200094
:10C65000A37170BDBCA902002C270020FA2130B5BF
:10C6600085B0050001230222890068460AF05CF9C2
:10C67000074C2068002809D00BF058FA2988054B90
:10C6800022681980022391790B43937105B030BD64
:10C690002C270020B029002010B50C0007290DD848
:10C6A00080680CF01BFA064B195703685B6C9847BF
:10C6B000431E9841034B4042184010BD0248FCE71E
:10C6C000C0B7020016FCFFFF17FCFFFFF0B5A44C3B
:10C6D0000D00A544040007939AAB1B78A14909A853
:10C6E00004930692FDF7D0F9200029001C300AF0CF
:10C6F000DFF8C020800000F0A1FF0820FDF7B8F8A7
:10C700000600002100F088FE15ADA66000210C2275
:10C710000EA80DF0D5FE2B000EAA83CA83C3924B40
:10C720002900EB60002330002B610CF0C0F9A068F9
:10C730000CF0D4F908220021059016A80DF0C0FED7
:10C740001420FDF795F829000200884B1593C8C9FD
:10C75000C8C2874B059EC3600023A43603613368BB
:10C76000002B00D0F5E03060A0680CF0BBF9082287
:10C770000021060016A80DF0A3FE1420FDF778F89E
:10C780007C4B1593030086CD86C37B4BC36000238F
:10C790000361336B002B00D0DDE03063A0680CF048
:10C7A0009DF908220021050016A80DF089FE14202D
:10C7B000FDF75EF8714B15AE1593030086CE86C368
:10C7C0006F4B9835C360002303612B68002B00D0AA
:10C7D000C3E02860012504AB1B7C04AA2B4308A9F5
:10C7E000280013740BF0DAF8A0680CF07FF90368E6
:10C7F00064495B6A9847A0680CF078F9036862495D
:10C800009B699847A0680CF071F9002302680093B7
:10C81000166804992A00B047049B002B0AD0200018
:10C820000BF08DF9032805DDA0680CF05FF90368B3
:10C83000DB6898470EA80BF0F0F82F2004ABC01867
:10C840000BF0EBF8362004ABC0180BF0E6F83D20F7
:10C85000042504ABC0180BF0E0F80EAB0A93A068F7
:10C8600004AB5D770CF042F903680AA91B6998478D
:10C87000A0680CF033F903680AA95B6D9847A068BB
:10C880000CF02CF903680021DB6D9847A0680CF0D0
:10C8900025F9036802219B6D984700212000FFF7CE
:10C8A000FBFE1820FCF7E4FFA16800F005FA374B07
:10C8B000374A1B68A1680393364B15A81B680026EE
:10C8C0000293354B0CAF1B680193069B1B685B19E9
:10C8D0000093324B12681B68FFF7B6FD3020FCF75F
:10C8E000C7FF079AA16800F0A7FAA0680CF0F6F855
:10C8F000036839009B6A9847294BBE80A0680C9357
:10C900000CF0ECF803683900DB6A98472900A0684E
:10C910000BF0DFF8099A09219378A06852190BF0FF
:10C92000EBF8A0680CF0DAF8C8210671A068FFF7F0
:10C930006DFD04AB1B7FB34204D0A0680CF0CEF8B1
:10C940000BF0B1F809A809F049FF95239B009D441D
:10C95000F0BD036107E703611FE7036139E7C046E4
:10C96000ACFDFFFFBBB80200BD7902005DC601004F
:10C97000CB790200F5C00100D9790200077A0200E4
:10C98000E7790200A5C90100D9C9010028270020C4
:10C990002427002008200020202700200C20002031
:10C9A0000800100013B506226846FDF7AFF8094BE2
:10C9B0001C68002C0AD0694601A809F071FF20000C
:10C9C00001A90BF0DDF801A809F008FF684609F09D
:10C9D00005FF13BD2C270020002373B501AE0C000A
:10C9E00031000500019302F0F9FC002802D1B27871
:10C9F000064B1A70064B1868002806D06142614148
:10CA0000044BC9B21D800BF0C3F873BDF0210020A8
:10CA10002C270020B0290020F0B5040097B0039126
:10CA200007A89C490592FDF72FF89B4908A8FDF738
:10CA30002BF822000FAD28001C3207A909F047FF90
:10CA400008AA290009A809F042FF280009F0C6FE3B
:10CA500092490AA8FDF718F8A0680CF03FF803689F
:10CA60000DAE5B69984728000AF0D7FF332004AB6E
:10CA7000C0180AF0D2FF3A2004ABC0180AF0CDFF6C
:10CA8000412004ABC0180AF0C8FF8023DB00B3804C
:10CA9000A0680D950CF022F8036831005B6D984793
:10CAA000A0680CF01BF8036800219B6D9847A068F4
:10CAB0000CF014F80700002506000A371F22002199
:10CAC00038000DF0FDFCFD7730000AF0E3FF062191
:10CAD000A0680AF0FEFF099A09219378A068043241
:10CAE0000BF00AF8A0680BF0F9FFC8210571A068E7
:10CAF000FFF78CFCA0680BF0F1FFFF272E000581EB
:10CB0000A0680BF0EBFF0AF0CEFF0398FEF75CFA8B
:10CB10000AA90CA809F0C4FE78220CA90398FEF714
:10CB2000ABFB0CA809F05AFE039920000BF043F868
:10CB30002000FCF7C3FC0495012563691D402DD03E
:10CB400057490BA8FDF7ACF80BA90CA809F01CFF7E
:10CB500000220CA91300019200920398FEF730FB0B
:10CB60000CA809F004FF049B002B42D1043F282F9E
:10CB700041DD0025FE2F00DC049D05980AF036F902
:10CB8000002806D0012362699A431300042213434C
:10CB9000636100260BA809F0EAFE0495042263698C
:10CBA000134233D0FF210398C826FEF78BFB0025E4
:10CBB000B600A36902229B5EAB4222DD200029B2AF
:10CBC000183009F09AFE0023010003981A0074300F
:10CBD000FDF7B6F83000FCF709FD03980AF023FBD7
:10CBE000C820FCF703FD02226369134209D1013515
:10CBF000DFE70437BBE703980AF015FB002FBCDD25
:10CC0000BAE7FA208000FCF7F1FC002602236569F0
:10CC10001D421CD006331D4024D022490BA8FDF72D
:10CC20003FF80BA90CA809F0AFFE00220CA9019255
:10CC3000009213000398FEF7C3FA0CA809F097FEC0
:10CC40001948FCF7D3FC0BA809F091FE174E64209D
:10CC5000FCF7CCFC164B01369E4200DC6CE709F079
:10CC600089FC69E713490BA8FDF71AF80BA90CA872
:10CC700009F08AFE2B002A000CA901950095039863
:10CC8000FEF79EFA0CA809F072FE0BA809F06FFEE1
:10CC9000DDE7C046D4B70200E4B70200E6B7020001
:10CCA000F4B7020039B80200983A00008C0A00007C
:10CCB0008B0A000076B802000022594BF0B5083309
:10CCC000060003600F001000A9B0B1600BAB99180B
:10CCD00001324870102AFAD10F3A524C1A700E32B3
:10CCE000105D991A0874013AFAD2997B5A7B0902AD
:10CCF0000A4331000C31039125211B7813AD2B70B1
:10CD000002ABC918452302A81B186A82180010221A
:10CD10000DF0BAFB039B64216B610123002402AA7E
:10CD20002B7752181993093313701DAB1C706D23A8
:10CD300002AA9B181C706E2321009B181EA80C22AF
:10CD4000EC836C621C700DF0BBFB374B0C22210096
:10CD500023A8AB63EC630DF0B3FB344B02AAEB6486
:10CD600046239B180322DA7722002C65059534733D
:10CD700006AD2B1901345A70102CFAD101232C481E
:10CD80002B700E33195CEA1A1174013BFAD211218F
:10CD90002520AA7B6B7B12020BAC13432A7863829B
:10CDA00002ABC9182270C01810220DF06DFB0123D0
:10CDB000237505ABA36100233800A3830BF092FE1B
:10CDC000036821001B68984713ABDB8BB068B38204
:10CDD0000BF088FE002203680092B18A039ADC6897
:10CDE0000123A047B0680BF07DFE07001420FCF77C
:10CDF0003FFD0022012304000261069240C0083278
:10CE0000290007930DF040FB0A4BE360BB69002B40
:10CE100003D13000BC6129B0F0BD2361F9E7C04601
:10CE2000D4A90200E8B80200AF790200A17902009B
:10CE3000F8B80200177C0200F0B500260400734B1E
:10CE4000DDB0083303608160C26086808671320085
:10CE50006F4947A80AF07FFF2300143301250427F8
:10CE600008931223009704950193089A330047A969
:10CE7000039602961DA8FFF77FFA3200654947A87E
:10CE80000AF069FF082022000097330015AF103226
:10CE90000495019047A90396029632A8FFF76CFA11
:10CEA00032005D4938000AF056FF230008200422B2
:10CEB0001C330993390033000495019000920396C6
:10CEC000099A029647A8FFF757FA320053493800EB
:10CED0000AF041FF5420FCF7CBFC050020000123A1
:10CEE0001221042218300790049301910092390016
:10CEF00002003300280003960296FFF73DFA28004F
:10CF0000474BA5620822EC620AA930300A930B96BF
:10CF10000DF0BAFA434B0422AB63012329352B7081
:10CF200009992661E66107980DF0AEFA0422079987
:10CF300008980DF0A9FA6621032304AA8918CB7773
:10CF4000BA2104AA8918CB77872104AA4900891835
:10CF5000A26ACB77911CA685CB771DAB0C9332AB25
:10CF60000D930F9247AB32002F4910A80E930AF091
:10CF7000F2FE3021452004AB5B181B7812313B7068
:10CF800004AB5B181B8811397B8204ABC918C0182D
:10CF900010220DF079FA04220CADA0683A75BD613B
:10CFA000BE830BF09FFD036839001B6898478222FF
:10CFB00004AB9B181B885432238404AB9B181B883A
:10CFC0005432A38404AB9B181B88A06863840BF0C5
:10CFD00089FD07001420FCF74BFC0500134B06618C
:10CFE00008221093119610A910C00DF04DFA104BA5
:10CFF000EB60BB69B34206D1BD612000FCF75EFA6D
:10D0000020005DB0F0BD2B61F6E7C046E0A902004C
:10D0100028B9020008B9020018B9020038B90200A4
:10D02000297D0200957C020048B902009DD00100D4
:10D03000BF7C0200F0B504000E00150085B01F0093
:10D040000CAB1B881030019309F064FC26806580CE
:10D050001820FCF70DFC02AE050033000AAA03CA33
:10D0600003C32F602800082700213A000C300DF080
:10D0700027FA3A003100281D0DF006FA064B02226D
:10D080006B61200000230199A5600A43E360A28040
:10D090002362636205B0F0BDE97C0200F0B50B8944
:10D0A0008DB00593CB68060004934B88828C9A421E
:10D0B0000ED1049C049B059A9B181B1B032B3BDD84
:10D0C00062882188012308A809F02EFC0434F1E7C6
:10D0D000428C9A4230D1049C049B059A9B181B1BDE
:10D0E000032B29DD2388282006936388F76807939C
:10D0F000124B089300230993FCF7BAFBC0236A463E
:10D100000500029308AB03CB03C233000699079ACC
:10D110002800FFF78FFF3B6829005B6838009847BD
:10D12000002807D0002D05D0280009F00DFB2800AD
:10D13000FCF7BEFB0434CFE70DB0F0BDA77D0200C5
:10D1400070B5040090B080680AF028FE022101400A
:10D150001AD1A38D002B17D00C4B6A4604931023D1
:10D16000E568A1850591029304AB41CB41C20A0059
:10D17000230006A8FFF75EFF2B6806A99B6828001E
:10D18000984706A809F0E0FA10B070BDA77D02002C
:10D19000002815D0006041608260C3600461456171
:10D1A0008661C761444604624C46446254468462C8
:10D1B0005C46C462644604636E4646637446846398
:10D1C000002A06D0C46B043C043A25681560B442BA
:10D1D000F9D18C6BA6464E6BB546002B06D0CC6BB6
:10D1E000043C043B1D682560B442F9D10C6BA44695
:10D1F000CC6AA3468C6AA2464C6AA1460C6AA04639
:10D20000CF698E694D690C69CB688A68086849687E
:10D210007047006041608260C3600461456186615F
:10D22000C761444604624C464462544684625C468C
:10D23000C462644604636E46466374468463C46B8A
:10D24000043C043925680D60B442F9D1C769866988
:10D25000456904697047006041608260C360046191
:10D2600045618661C761444604624C464462544647
:10D2700084625C46C462644604636C4644637446DC
:10D28000846304697047846BA646446BA546046BAF
:10D29000A446C46AA346846AA246446AA146046AB4
:10D2A000A046C769866945690469C36882680068E1
:10D2B0004168704710B5041E0CD00DF049F9431EAB
:10D2C000E3189C4208D222781978013B21705A70E9
:10D2D0000134F6E7014810BD0020FCE717FCFFFF12
:10D2E000F0B585B002900C1E2AD00023C217161A82
:10D2F00056400193019B30005D1C63190A215F1E9B
:10D30000039303F0EBFF49423031397030000A21BA
:10D3100003F0FEFE47420600002F0FD1029B002BB8
:10D3200004DA2D23019D039A023513700023200097
:10D330006355FFF7BFFF380005B0F0BD0195D9E791
:10D34000004FF8E717FCFFFF10B582604A43040066
:10D350004160002A0ADD074B90009A4201DD01205E
:10D360004042FCF785FA2060200010BD00230360D6
:10D37000FAE7C046FEFFFF1F4A688B6870B58360FE
:10D38000534304000D004260002B12DD0A4A9E0048
:10D390003000934201DD01204042FCF769FA00238E
:10D3A00020602A68D158C15004339E42FAD120002F
:10D3B00070BD00230360FAE7FEFFFF1F70B5002871
:10D3C00017D1114D2E68002E11D108300CF06EFED1
:10D3D000066046600D4E04003368002B02D10CF04D
:10D3E00015F8306023682C609B00F3586360286850
:10D3F00070BD0122064907480B681340F8D102604E
:10D4000043600A60F4E7C04634270020402700202C
:10D410003027002038270020002370B50400016069
:10D42000436099420AD1064D2B68002B02D10BF0C4
:10D43000EDFF286023689B00EB586360200070BDFF
:10D4400040270020436810B50400002B02D1044897
:10D450000CF03AFD606803681B69984710BDC04630
:10D4600058B90200436810B50400002B02D10448EB
:10D470000CF02AFD606803689B69984710BDC046A0
:10D4800058B90200436810B50400002B02D10448CB
:10D490000CF01AFD606803685B6A984710BDC046CF
:10D4A00058B9020010B5040002F06AFB034B1B6878
:10D4B000002B01D02000984710BDC046482700200F
:10D4C000F0B58BB0050001F0C9FD002000F08AFD29
:10D4D000036807001B6998473B6804009B69380094
:10D4E00098473B6806005B6A380098470300288825
:10D4F00010380B2862D803F077FD063E6161615B4E
:10D50000616161676179AF88200039000CF004FA2D
:10D5100022006B7B583201931378A8799C46022332
:10D5200061460B43137004AB1F80012304AA937060
:10D53000D07013006A461279E91D9A722B000622F8
:10D54000163305A809930CF09FFF29000B2004ABAC
:10D5500006220E31C0180CF097FF94346368A36064
:10D56000A06800282AD0C36804A99847A368002BA4
:10D57000F4D01B69F3E720002F49AF880CF0CCF9F9
:10D580002200022058321378A9798343137004AB28
:10D590001F809970A0346368A360A06800280DD034
:10D5A000C36804A99847A368002BF4D01B69F3E76C
:10D5B0005B69A888A91D002B00D09847290030007E
:10D5C0000BF0E8FB0BB0F0BD636E002BF6D0AF792B
:10D5D000A366A06E0028F1D0C36839009847A36EF7
:10D5E000002B01D1636EF3E71B69F1E70122694665
:10D5F0000D27AB7BEF571A4001925A07920FDB08B9
:10D600000A720B730622E91D04A80CF03DFF6A465E
:10D61000127904ABDA716A46127A9F711A726A46FD
:10D62000127B20005A722B000F3307938C3480300A
:10D63000236804A99847C1E7FFFF00000723D72804
:10D6400002D9024B186000231800704744270020BD
:10D65000014B18607047C046482700201FB5802244
:10D66000A323D205DB00D3580820DB0700D4053004
:10D670001C4B48221C4902F0D7FC00280AD080B27B
:10D68000002807D1BFF34F8F184B194ADA60BFF358
:10D690004F8FFEE7002302A8029301330370154B5E
:10D6A0001B6843600BF02AFA002802D0072005B05F
:10D6B00000BD68460BF020FA0028F7D169460BF050
:10D6C00019FA0028F2D10C4802F0DEFC80B20028E2
:10D6D000EDD10A4802F0E2FC80B20028E7D101F067
:10D6E00021F8E4E7018B02004C27002000ED00E068
:10D6F0000400FA0544270020C1D40100A5D401008C
:10D7000080B2002807D1BFF34F8F034B034ADA6082
:10D71000BFF34F8FFEE7704700ED00E00400FA050D
:10D7200013B504680093A46813000A000149A047D8
:10D7300016BDC046FFFF000037B506AC257804686B
:10D7400001950093246913000A000149A0473EBDDA
:10D75000FFFF0000F0B587B00D00002469466F465A
:10D7600016004C800DAA0CA9098812783980019303
:10D77000A2421BD101004479F83194420DD90831FD
:10D780000F00083F3F88B7421BD130212032920062
:10D7900012580132D27F0A4215D16A463100280060
:10D7A0000BF0B6F9002808D1062407E06A463100DC
:10D7B00028000BF0ADF9002800D00324200007B0AA
:10D7C000F0BD0132D9E710210A4051424A41002000
:10D7D00002ACE3600CABA360174B01322680A27051
:10D7E000A0809D4207D100F0FDFB03681B699847AC
:10D7F0000CF095F80500210028000BF08DF90024AD
:10D8000082B2A242DAD0112A13D00BD8082ACBD088
:10D810006A46310028000BF07BF905240028CDD0A2
:10D82000023CCBE7054B9A4203D0054B9A42EFD11D
:10D83000BAE70524C2E7C046FFFF0000033000003E
:10D8400001340000F0B5050099B008002E240C91B9
:10D8500000F072FD06ABE4181290220012A901201C
:10D860000BF054F9002802D0032019B0F0BD238832
:10D870000C9A0B9093830C9B0B9A1B7D934200D8C0
:10D88000C6E06B791D2B01D90720EEE70C9B9B6945
:10D890000D930B9B0D9A9B009C586369002B07D13D
:10D8A000638B002B04D1631CDB7F022B00D1AAE029
:10D8B000200000F041FD23000026283312900E9630
:10D8C0000D960F930F9B1B78B34221D9626AB30068
:10D8D0009F58342206AB9B1800221A7000230021A7
:10D8E00013AAD21801335170102BF8D1462206AB7F
:10D8F0009B184A4A13A938001A800BF095F90028A2
:10D9000003D07B690D937B8B0E930136F6B2D9E77A
:10D910006979A31C1F31C9006918621CDB7FD27FA3
:10D92000089121002A31097800200791210029312E
:10D93000097806910E9905910D990491217F039123
:10D94000218B0291618B01916169009112A90BF009
:10D95000B5FD002800D087E76B7907001A00203258
:10D9600092001F335451DB005B5BE3836B7901331F
:10D970006B71230028331B78BB4244D98E239B0054
:10D98000EB5C132B00D97FE7626ABB009E58002333
:10D99000180013A90B70CA1801335070102BFAD15C
:10D9A0001E4B30004B820BF03FF90D90002827D121
:10D9B000300000F0C1FC8E2189006A5C738B1E323E
:10D9C000FF325200AA180292327F12900192328BDB
:10D9D00012A9009272690D9800F0FEFC002800D098
:10D9E00042E78E2189006A5C531CDBB26B541D3305
:10D9F0007A32FF3392005B005651EB185B88F38359
:10DA00000137FFB2B5E70B980130C3B20B9332E791
:10DA10002B79002001332B7127E7C0460129000034
:10DA200070B50C220D00002104000CF049FD00230C
:10DA30002361024B25602000E36070BD518B020022
:10DA400070B505000BF00EF904000620002C1CD167
:10DA500028007822210080300CF032FD2800E930C7
:10DA600050222100FF300CF02BFD2800082221005D
:10DA7000F8300CF025FD054B2822E81821000CF0A9
:10DA80001FFD8E2320009B00EC5470BD3A02000065
:10DA900000487047FFFF0000F0B597B0059303689A
:10DAA00007AD1B680491039311002B00060091C978
:10DAB00091C30024D36821000C220CA8EB602C61D8
:10DAC0000CF0FEFC22000B4B10940F9311AB1C705A
:10DAD000191901344A70102CFAD15A820193059B0E
