:020000021000EC
:1080000000400020010B02003D0B02003F0B02006C
:108010000000000000000000000000000000000060
:10802000000000000000000000000000410B020002
:108030000000000000000000430B0200450B02009E
:10804000470B020055B601000D080200470B020065
:10805000470B02000000000001090200470B02006C
:10806000470B02007503020071080200470B020073
:10807000470B0200470B0200470B0200470B0200B0
:10808000470B0200470B0200470B0200470B0200A0
:10809000470B0200E1FD01000D000200470B02004A
:1080A000470B0200470B0200000000000000000028
:1080B00000000000000000000000000000000000C0
:1080C00010B5064C2378002B07D1054B002B02D0AE
:1080D000044800E000BF0123237010BD20220020CF
:1080E0000000000004B70200044B10B5002B03D0C1
:1080F0000349044800E000BF10BDC0460000000076
:108100002422002004B70200164B002B00D1144B90
:108110009D46402292029A1A924600218B460F46B3
:108120001348144A121A11F091FF0F4B002B00D084
:1081300098470E4B002B00D09847002000210400E8
:108140000D000D48002802D00C4800E000BF0DF0E3
:1081500049F82000290011F0CBFB0DF02DF8C046A6
:1081600000000800004000200000000000000000A7
:1081700018220020C02A002000000000000000009B
:108180000122024B84B01A7004B07047EF2900201E
:1081900010B50400034B036040300EF06CF9200072
:1081A00010BDC04648A3020010B586B0104905A80E
:1081B00003F09AFB05A904A801F092FB05A80EF0B4
:1081C000E0FA0C4905A801F07BFB05A904A80EF014
:1081D000CBF9040005A80EF04EF9002C02D00122C4
:1081E000054B1A7004A80EF046F906B010BDC04643
:1081F00058260020D0AF0200EE29002070B5194D9E
:1082000086B0290005A803F06FFB05A904A801F0BA
:1082100067FB05A80EF0B5FA049B134E1C1D310038
:1082200020000DF075F911F0D5FE104B31001860EB
:1082300020000DF06DF911F0CDFE0D4B0D491860C9
:1082400005A801F03DFB05A928000FF024F905A8B9
:108250000EF011F90122084B04A81A700EF00BF968
:1082600006B070BD58260020CEAF0200702200205C
:108270006C220020D0AF0200EE290020F0B585B0BE
:108280001F000AAB1B880600029115000393002F04
:108290001CD0282001F008FA6B4604001989039BC2
:1082A000AAB200933B000EF085F8336821005B68AA
:1082B0003000984700280AD0002C05D020000EF08E
:1082C00090F8200001F010FA024800E0024805B0E2
:1082D000F0BDC04616FCFFFF17FCFFFFF0B5DD4800
:1082E00095B000F0F7FCDC4803F0FAF91C2001F02F
:1082F000DBF9099000F092FA012001F0D5F90500B0
:108300000DF0ACFD0023D54A1370D54A1370D34B42
:108310001B780893002B00D09FE01027D14ED24B42
:108320000322022130000097FFF7A8FFCF4B300057
:10833000009701221D21FFF7A1FFC94E3378002BC2
:108340006BD0CB490EA801F0BBFA78220EA9C94820
:1083500002F050FE0EA80EF08EF80DF0C7FD089B3F
:10836000FF2219000193009028000DF078FDC24F04
:1083700038600DF0BBFD089B00901900019364224A
:1083800028000DF06CFDBD4A03001060BC4A2900B6
:1083900000923A680DA80DF06FFD0DA90EA80EF021
:1083A000CCF80EA9B7480FF076F80EA80EF063F8D7
:1083B00020226B469B181B7833700DF097FD089BAD
:1083C000029003931023012200931D21AE4BA54878
:1083D000FFF754FFA14B1E78002E1BD10DF086FD38
:1083E00007960690069A079B02980399121A8B41EA
:1083F0001100002B02D1A54B9942E3D9A4490EA844
:1084000001F05EFA78220EA99A4802F01DFE0EA82D
:108410000EF031F80DA80EF02EF8904B1B78002BC3
:1084200017D0954B8C4E19683000C9B203F044F94F
:10843000924B3000196803F0B1F896490EA801F08C
:108440003FFA78220EA98B4802F0FEFD0EA80EF02E
:1084500012F80A2000F0E6FF59E7002200230292FA
:1084600003930DF043FD00231E00049005938A48FA
:108470000EF019FB051E00D0AFE00DF037FD002E09
:1084800038D00A900B950A9A0B9B0498059965269B
:108490007642F717121A8B41B6185F41069207937E
:1084A000002F00D09BE0952149008E4200D996E034
:1084B0007A490EA80EF0C5F86E4D3B003A000EA9A1
:1084C00001970097280002F039FD0EA80EF0ACF8D5
:1084D0002E34AF20800000F0A5FF28000EF000FD34
:1084E0000DF004FD0023029003930DF0FFFC039BAD
:1084F0000490059302980399049A059B121A8B41E4
:108500001100002B03D1FA23DB009942A9D9029B69
:10851000039A1343A5D010AB0E93002C00D195E025
:10852000200011F0DBFD25180D900F2807D900223F
:108530000DA90EA808F05EFB0D9B0E9010932A006B
:10854000002521000E9811F0F6FC0D9B0E9A0F935A
:108550000EA9D55409980DF027FD06000EA811F0BC
:10856000D3FC3F2E00D1A5E0310009980DF0EBFCC3
:10857000099902000EA800F031F90E99200011F0BF
:10858000A5FD21000CA801F09BF90CA90DA80DF088
:10859000D4FF0DA93B480EF07EFF0DA80DF06BFF38
:1085A0003F490DA801F08CF9C822324C52000DA9A8
:1085B000200002F08DFC0DA80DF05DFFAF208000C3
:1085C00000F030FF20000EF08BFC0CA80DF053FFE4
:1085D0000EA811F099FC2C003FE7089E47E7012701
:1085E000069A079B2F4E7F42B6185F41002F15D188
:1085F000C72149008E4211D82B490EA80EF021F850
:108600001C4D3B003A000EA901970097280002F08C
:1086100095FC0EA80EF008F82D345AE7079B002BA6
:1086200005D1C823069A9B009A4200D858E71F49F3
:108630000EA801F045F9C8220E4D52000EA92800DF
:1086400002F046FC0EA80DF016FF42E7184811F0A4
:1086500046FCC0467422002040260020EE2900205F
:10866000EF2900204423002081810100FD810100C9
:10867000D8AF020060230020702200206C2200206E
:10868000CEAF020058260020A9810100102700006B
:10869000E0AF0200E6AF02004422002040220020AA
:1086A00017B002006FFEFFFF3C220020A1B30200C2
:1086B000EDAF02000A490EA801F002F9C822094CE8
:1086C00052000EA9200002F003FC0EA80DF0D3FE0C
:1086D000AF20800000F0A6FE20000EF001FC7AE73B
:1086E00019B002006023002073B5174D280000F078
:1086F00031FA164C16492200280011F013FB154DD3
:108700001549280001F0E8F9144E22003100280034
:1087100011F008FB124D1349280001F0DDF931007A
:108720002200280011F0FEFA00230F4D00930133C0
:108730001A002800112101F077FD280022000B49C2
:1087400011F0F0FA73BDC046742200200020002012
:10875000718701004022002060AF020029660200FC
:108760003C22002095AF02004422002011A201000B
:10877000EB23194A9B0010B5C2501C330400C018EB
:108780000DF079FEF1239B00E0180DF074FE8423B8
:108790009B00E01801F076FD2000C530FF3001F0AD
:1087A00095FA20008D30FF3001F032FD2000653059
:1087B000FF3001F02DFD2000EC3002F005FA200022
:1087C000D03002F0A7FD2000643007F031FC201DFE
:1087D000FFF7DEFC200010BD4CA5020070B50C00B8
:1087E0000D49050016000DF085FBE368A361A16942
:1087F000231D994208D00B0028331B78B34205D1C2
:108800001031280011F09CFB280070BD20001830AA
:108810000DF091FBEBE7C04619B0020070B5A84C13
:10882000A849A544040068460DF064FB41236A464C
:10883000A549137607A80DF05DFB42220DAB1A7017
:10884000A2490EA80DF056FB432214AB1A70A049A2
:1088500015A80DF04FFB44221BAB1A709D491CA8B4
:108860000DF048FB452222AB1A709B4923A80DF05E
:1088700041FB462229AB1A7098492AA80DF03AFB11
:10888000472230AB1A70964931A80DF033FB4822CD
:1088900037AB1A70934938A80DF02CFB49223EAB38
:1088A0001A7091493FA80DF025FBFF234A226B4423
:1088B0005A758E4946A80DF01DFB98234B22694638
:1088C0005B00CA544DA88A490DF014FBA6234C2224
:1088D00069465B00CA5454A886490DF00BFBB423CB
:1088E0004D2269465B00CA545BA883490DF002FB28
:1088F000C2234E2269465B00CA5462A87F490DF02C
:10890000F9FAD0234F2269465B00CA5469A87C4912
:108910000DF0F0FADE23502269465B00CA5470A8BD
:1089200078490DF0E7FAEC23512269465B00CA54FE
:1089300077A875490DF0DEFAFA23522269465B00EA
:10894000CA547EA871490DF0D5FA84235322694692
:108950009B00CA5485A86E490DF0CCFA8B23542293
:1089600069469B00CA548CA86A490DF0C3FA922349
:10897000552269469B00CA5493A867490DF0BAFA7C
:108980009923562269469B00CA549AA863490DF060
:10899000B1FAA023572269469B00CA54A1A8604996
:1089A0000DF0A8FAA723582269469B00CA54A8A82C
:1089B0005C490DF09FFAAE23592269469B00CA54C8
:1089C000AFA859490DF096FAB5235A2269469B0083
:1089D000CA54B6A855490DF08DFABC233122694618
:1089E0009B00CA54BDA852490DF084FAC323322219
:1089F00069469B00CA54C4A84E490DF07BFACA23AD
:108A0000332269469B00CA54CBA84B490DF072FA39
:108A1000D123342269469B00CA54D2A847490DF09D
:108A200069FAD823362269469B00CA54D9A844491A
:108A30000DF060FADF23352269469B00CA54E0A896
:108A400040490DF057FAE623372269469B00CA5485
:108A5000E7A83D490DF04EFAED23382269469B0008
:108A6000CA54EEA839490DF045FAF4233922694673
:108A70009B00CA54F5A836490DF03CFAFB2330227E
:108A800069469B00CA540023221D1C26E260226115
:108A90002371A3606361FCAA20000DF0DCFA76422A
:108AA000F5AD6E4428001C3D11F02EFAB542F9D107
:108AB00000232000A361FC239B009D4470BDC046A1
:108AC00010FCFFFF31B0020063B002001BB00200D7
:108AD0006AB0020072B0020020B0020070B0020062
:108AE00057B002006BB0020045B0020030B0020087
:108AF00025B0020077B0020071B0020076B002002B
:108B00002AB002002FB002001CB0020064B00200C4
:108B100078B0020035B0020051B002003AB0020055
:108B200034B0020039B0020069B002003EB0020069
:108B300044B002004AB0020050B0020056B0020039
:108B40005CB0020062B0020068B002006EB00200C9
:108B500074B002001423F0B5040095B000931922FC
:108B60001821043002F006FF220027006432B437D7
:108B700013211000119207F067FA38000EF006FD7D
:108B80002200B83210921E21002210980EF0ADF98A
:108B90002000D03002F0DEFB2200EC3212920621DF
:108BA000494A129802F034F820000026012365306B
:108BB0001A0000961121FF3001F036FB20008D30A5
:108BC0000096012302221A21FF3001F02DFB25001F
:108BD0002000C535B530FF351A2302220121FF30B0
:108BE00002F076FC109904233A22280001F01EF9C5
:108BF00084229200A218139205231D220193009251
:108C00003B002A001099139801F032FD9622920041
:108C1000129BA01813992A0001F004FF99229200D8
:108C2000A01839001C2202F0D1FF19239F220F93B4
:108C3000013B0E93013B0D93013B0C93013B0B93C6
:108C4000013B0A93013B0993013B0893013B0793C6
:108C5000013B0693013B0593013B0493013B0393C6
:108C6000013B0293013B01939200013BA01800934A
:108C70000822013B07210EF040F9EB239B00E0188E
:108C8000390003F043FBF3239B00E0181D2102F0A1
:108C900065FCFD239B00E65011982670032110F01F
:108CA00057FD23002200200008499C33A0321C609D
:108CB00011605660064A80305A610221012207F095
:108CC000D1FE200015B0F0BD50A30200FF600200ED
:108CD000E96002000123F0B506788DB004001E4063
:108CE00000D0A4E0FD20800500F0A6FC2300D033D6
:108CF0001800029300F07AFA00F0A0F9282000F0A2
:108D0000D3FC050010300DF062FC4A4B18202B609C
:108D100000F0CAFC0700484B0460082231000C3008
:108D20000A930B9611F092F90AA9381D082211F046
:108D300071F9424B29007B611223AF60EE60AB807A
:108D40002E626E62029802F07DFA002805D028009B
:108D50000DF047FB280000F0C7FC012322786420B7
:108D60001343237000F05EFB002527006537FF37B3
:108D700038000DF098FE002855D020008D30FF30CF
:108D80000DF091FE00284ED00A2D4CD06420013504
:108D900000F048FB0A2DE8D129492A4800F022FCBE
:108DA000EB23FD269B00E318B6000393A359002B89
:108DB00032D100F057F8010006A800F081FD0DF057
:108DC00022FA04900DF01FFA6B460590198A08A844
:108DD0000DF06EFB059B09A8190C0DF069FB09AAA3
:108DE00008A907A80DF0D0FB09A80DF044FB08A8BE
:108DF0000DF041FB012307AA06A900930398029BEB
:108E000003F0D8FA07A80DF036FB06A80DF033FBE7
:108E1000ED239B00E358A35121003A00EC31039865
:108E200003F06EFCA1E70649074800F0DBFB0DB03C
:108E3000F0BDC046FD030000716102003161020017
:108E400000200020001C002008000020BFF34F8FEE
:108E5000024B034ADA60BFF34F8FFEE700ED00E0FC
:108E60000400FA05F0B58DB005AF19221549380098
:108E700011F0D0F80022144B05245A7180225205BB
:108E8000566E01222500019402920393019930004D
:108E900007F086FF0800029907F0FCFE019B03998A
:108EA0006B430193029B361A6B430293631E2C1B88
:108EB0006C433C19225C1C1ECA54E7D108000DB05B
:108EC000F0BDC046B0B00200F0290020F0B597B068
:108ED00018220021060010A811F0B8F8132110A8DC
:108EE00010F075FD032110A810F040FE4C4B1B68DC
:108EF000002B00D10133DBB202934A4A0123002147
:108F00000BA807F0E9FC484B9E4200D9002672B638
:108F1000464B64211D68464B30000793052407F03B
:108F200043FF60435030281808900A21300007F0B2
:108F30003BFF0A2108F01EF861435031691809917E
:108F400030000A2108F016F88023614300245031D4
:108F500069189B010A910193029B002B5DD00025AB
:108F600000272E1F07AB9B190593032C03D18023E9
:108F700000249B01019307AB5B592E4A03936300C6
:108F8000D31804930023190006205843049A161896
:108F90007678B4466246039EB25C10269446049AE4
:108FA000105C62460641164202D0012098400143FF
:108FB0000133092BE8D1C9431F4B059A0901194018
:108FC0001268039B934225D1312F23DC00210BA88B
:108FD00010F09EFEFA23159A1199DB0010680142E9
:108FE0001BD0013B002BF9D1019B01345B000193A5
:108FF000FA230137E4B25B009F42B6D10435102D4D
:10900000AED1074B1B68002BA6D0029F013FFBB2DD
:109010000293A1E7019B1943D9E7FFF717FFC04669
:1090200070260020F0FF0000E7030000042000206D
:10903000FFB00200C9B00200F01F0000F8B5002325
:10904000124C23600DF0D1F8002808D00421200034
:109050000DF0C7F8002801D00D4B2360F8BD0122A8
:10906000A12704250B4B0C491A602268FF004860B9
:109070004E68002EFCD0DE591202013D3243002D15
:10908000F5D1226001225A60E8E7C0466C26002034
:10909000ED5EBC0B00D00040FCD000400B4B70B527
:1090A0001C68002C10D0656D00F0C6FBA36C002975
:1090B00001D1834206D820000DF0CAF804492000EF
:1090C0000DF0B4F82C00ECE770BDC0467826002007
:1090D00098260020F0B593B007932A4B04AC1E6885
:1090E000049005910692002E4AD0274B2588678868
:1090F0001C6800230293002C2ED0636D2348039339
:10910000A36C9AB2A36C1B0C99B2854214D120486F
:10911000824211D1002B01D0B9420BD1029B002B0E
:1091200008D120000DF094F81A4920000DF07EF8C7
:1091300001230293039CDEE7002A01D09542F9D176
:10914000002B01D0B942F5D120000DF081F8114972
:1091500020000DF06BF8EDE70F4BEB18012B0FD94A
:1091600010233A00009329000C4B08A80DF022F9B7
:10917000336808A99B683000984708A80DF031F9BA
:1091800013B0F0BD74260020A4260020FE030000CA
:10919000FF0300009826002002FCFFFFD59001008D
:1091A00010B572B60B4B1C68002C08D020000DF0D7
:1091B0004FF80023E364084B2000E36310BD62B660
:1091C0005C2000F071FA5C220021040010F03EFFE8
:1091D000EFE7C0469C26002000400020024B187894
:1091E000012318407047C046F6290020F7B5060055
:1091F000FFF7F4FF051E33D11A4C2660FFF7D0FFAE
:10920000194B1A4918600DF011F8FFF7C9FF184BF8
:109210001860184B4363184B8363206800280ED0F6
:10922000C027164E2A00330015490097FFF726F88D
:10923000009733002A0013492068FFF71FF80C201D
:1092400000F032FA0023838083710F4B03600F4BD1
:10925000836000F009FB01230D4A11780B43137062
:10926000F7BDC04674260020A826002098260020BE
:10927000A0260020FC3F002017630200D5900100CB
:10928000FF030000FE03000070A302009D90010098
:10929000F6290020F7B506000D00170001930028FD
:1092A00002D100242000FEBD0029FAD0FFF778FF8C
:1092B000041EF6D0074B019A436306604560876041
:1092C000054B002A00D0054BA363054920000CF094
:1092D000ADFFE7E7FC3F0020E1620200FF62020011
:1092E00098260020024B1868434258417047C046F8
:1092F00098260020002310B504499C006258002ADB
:1093000001D00133F9E76050100010BD8026002025
:10931000002310B5044A99008C58844201D00133CF
:10932000F9E70020885010BD8026002010B50024E9
:10933000084BA200D058002802D003685B68984709
:109340000134062CF4D1044B1B68002B00D120BF44
:1093500010BDC0468026002098260020F8B5FFF7F3
:109360003DFF00281BD0294D2C68E36CDA0717D588
:1093700002263343E3640423254F3868C26C134349
:10938000C364636BC3630CF089FF3868416C03F0FE
:10939000B4FD2868C36C334201D003F0E8FDF8BD8A
:1093A0001C4F1D4E3A683168002A1ED129602A6878
:1093B0008A4208D11B0706D52C60FFF7B7FF3B6830
:1093C000002BFAD02B6029688C42E8D03368994290
:1093D00014D1124B4B63124B8B6320000CF05EFFD9
:1093E0002968626C4B6C20000DE0206DB84203D1FF
:1093F000606D002800D002002A60D8E79C42ECD1C2
:10940000002210004B6C03F037FDC8E7A8260020AF
:109410007C26002098260020A0260020FC3F00206B
:109420001763020070B50500FFF7D8FE002803D1CE
:10943000280010F08FFB70BD0C4B1C68E36CDB0741
:1094400006D5FFF7ADFE0A4B1860002800D00400D7
:1094500000F0F2F92D18A56420000CF0F9FE054982
:1094600020000CF0E3FEFFF779FFE4E7A8260020D8
:109470007C26002078260020F0B51E4B1E4F1C686D
:109480003B6885B006000391002B30D0FFF7A6FEA5
:1094900000282CD0E36CDB070ED5FFF781FE174BBD
:1094A000051E186008D00CF0D3FE154928000CF0FA
:1094B000BDFE2C00FFF752FF039B20001B0433432B
:1094C000A3640CF0C5FE20000E490CF0AFFE0E4B5D
:1094D0000024F318012B07D9C0230093039A0B4BE8
:1094E00031003868FEF7CAFE200005B0F0BD084C18
:1094F000FAE7C046A8260020742600207C2600201B
:1095000098260020A426002002FCFFFFD590010031
:1095100016FCFFFF10B5FFF761FE002809D0054CCF
:1095200020680CF095FE044920680CF07FFEFFF7E0
:1095300015FF10BDA82600209C260020F7B50700C7
:109540000D0000282ED0FFF749FE00282CD007245C
:10955000164E3068C36C1C4007D0154A29003800ED
:109560000CF08DFE00242000FEBD03F0E8FC02217B
:109570003268D36C1940019103D003218B43D3642B
:10958000F1E701242343D3642800B8473268D36C41
:109590001900A143D164019C5B07E4D528000CF0BD
:1095A000A6FEE0E7034CDEE7034CDCE7A82600203C
:1095B000EF62020017FCFFFF16FCFFFF020010B570
:1095C000014B12CB12C210BDAC260020034B1A680F
:1095D000034B1A607E225A607047C0460420002068
:1095E000AC26002070B5104D2B78022B18D081428C
:1095F00018D90B1A072B15D90C00032304431C4060
:1096000010D172B62A78094BD200D0509818416018
:109610000CF087FE2B7801332B7062B6200070BDF2
:109620000348FCE70348FAE7F7290020B4260020A6
:1096300013FCFFFF17FCFFFF70B50021041C07F0AF
:10964000BBFC002828D1FE21201C890507F0BEFCA8
:10965000002821D104300BF0E9FD05000F48401B24
:1096600008F094FC211C08F031F907F0E3FC032317
:109670009843040028000BF0E3FD20000BF0D6FD1A
:10968000002804D1203C002CF7D1054803E0011943
:10969000FFF7A8FF002070BD0248FCE7003800205B
:1096A00013FCFFFF17FCFFFF70B5060000250C4BF5
:1096B0001B78AB4209DD0B49EB00C91830000CF0F8
:1096C00038FE041E09D10135F1E730000BF0AEFD84
:1096D000041E02D11420FFF7F9FB200070BDC04624
:1096E000F7290020B426002070B5002813D00D4BB8
:1096F0000D491C7800239C4210DDDA005558854244
:109700000AD28A185268824206D980230438026835
:109710001B061343036070BD0133ECE70BF090FDB3
:10972000F9E7C046F7290020B426002070B5051ED1
:1097300014DD0B4E0B4C3368002B02D0206810F068
:1097400084F8FA2120680024074B89008361C462F1
:109750006943356010F081F8200070BD0348FCE7D4
:10976000C4260020F42600201598010017FCFFFFF6
:10977000F8B5114F06003D68002D0AD13020FFF7E3
:1097800093FF040006F084FC0C4BA5612360E562A6
:109790003C600B4D2B68002B09D11020FFF784FF94
:1097A000040010F01BF820002C600FF0F1FF3000D7
:1097B000FFF7BCFFF8BDC046F4260020E8A8020071
:1097C000F0260020014B18687047C046C4260020D0
:1097D00070B50D4C2368002B03D00C4B1B68002B7D
:1097E00002D10620FFF7C4FF20680FF0E8FF020057
:1097F0000749C3170D684E685219734120680A6003
:109800004B600FF0E2FF70BDF0260020F426002030
:109810001822002010B5FFF7DBFF0024054BA20043
:10982000D058002802D003681B68984701340A2CDE
:10983000F4D110BDC826002010B5FFF7C9FFFA22E9
:10984000034B920018685968002307F0D3FB10BD42
:109850001822002010B5FFF7BBFF024B18685968AB
:1098600010BDC046182200200B4B10B51B68040029
:10987000002B03D0094B1B68002B02D10620FFF7F9
:1098800077FF0023064A99008858002801D0013349
:10989000F9E78C5010BDC046F0260020F4260020C9
:1098A000C8260020002310B5044A99008C58844231
:1098B00001D00133F9E70020885010BDC8260020F0
:1098C00010B50400002902D00B78002B03D1034B04
:1098D0002360200010BD0CF0D5FDFAE780A3020044
:1098E000F8B5040008000D000CF087FF002803D134
:1098F000134B23602000F8BD28000CF07EFF0530DC
:10990000FFF7D2FE20600CF07BFF28000CF075FF03
:1099100023685880236828001E1D0CF06BFF070089
:1099200028000CF06AFF39000200300010F072FBD2
:10993000280026680CF061FF002336183371D9E740
:1099400080A30200F8B504000E00150000290AD01B
:109950000B78002B07D0002A05D0080097B210F032
:10996000BDFB874203D90B4B23602000F8BD681D67
:10997000FFF79AFE20600CF043FF23682A005F8007
:1099800023683100181D10F045FB23685D19002382
:109990002B71EAE780A30200014B03607047C046C9
:1099A00080A3020010B50548054C20600CF02BFF89
:1099B000044A0549200010F0B5F910BD80A302004B
:1099C000F82600200020002077640200084B73B5C1
:1099D0001C680500002C0AD0010026680831082206
:1099E000684610F017FB0CCD31682000884773BD26
:1099F000FC260020014B03607047C04688A302008C
:109A000030B500684488A1420CDA8588AA4209DA98
:109A1000002907DB002A05DB544340180019837135
:109A2000002030BD0048FCE717FCFFFFF0B5070041
:109A300085B00E001D0000291FDD002B1DD004681D
:109A4000638803938B4200DD0391A38802939342C2
:109A500000DD0292002306340193019B029A934297
:109A60000EDA29002000039A10F0D4FA3B68AD19F1
:109A70005B88E418019B0133EEE7024805B0F0BDB6
:109A80000020FBE717FCFFFFF8B504000D001600EF
:109A90001F00002901DB002A02DA0E4B2360F8BD0B
:109AA000100048430630FFF7FFFD20600CF0A8FED1
:109AB00023685D8023689E80002F06D03B00320023
:109AC00029002000FFF7B2FFE9E720000CF0C1FDFC
:109AD000E5E7C04688A30200F0B5060087B00D1E7A
:109AE00004D1244B0360300007B0F0BD00200F000C
:109AF0000400010001903B78002B1AD03022524222
:109B000094469C446246092A11D90A2B0AD1019B2A
:109B1000241801330193A14200DA2100002004003F
:109B20000137E8E70028FBD001340020F8E70120E6
:109B3000F6E76A46928809B212B23000FFF7A4FF36
:109B400033689C1D03AB1F002A78002ACBD011007C
:109B50003039092903D81A7001330135F4E700229E
:109B60001A70BB42F9D9380010F034FA3B0020706B
:109B70000134F2E788A30200F0B5040089B006A81A
:109B80000E0002921D00FFF719FD236802995A8802
:109B9000914235DA9B889D4232DA1F2E30D9079BDD
:109BA00001939E422CDC0523002273430393069B02
:109BB0000493039B04999B18A03BCB5C0021059365
:109BC000AE18029BCF1823685888019087420EDA9E
:109BD0009888B0420BDDDB1910270F4101987043C4
:109BE0001B1805980740781E87417F429F710131FD
:109BF0000529E6D10132052ADBD1002009B0F0BDEC
:109C00000048FBE717FCFFFFF7B50468070063880F
:109C10000E1E01931EDD994218DA002306340093CC
:109C20003B68009A9B889A4212DA019BA1199D1BFE
:109C30002A00200010F0EEF9601931000CF0FBFC56
:109C40003B685B88E418009B0133E8E70CF001FDFA
:109C5000002000E00048FEBD17FCFFFF10B50548DE
:109C6000054C20600CF0CFFD044A0549200010F09F
:109C700059F810BD88A30200002700200020002012
:109C80002966020010B5054C012120000CF0A3FD4F
:109C9000034A0449200010F045F810BD04270020B5
:109CA00000200020836702000388074A10B50120C6
:109CB000934208D0834202D00020DB0703D41E2049
:109CC000FFF704F9002010BDFFFF000010B50400ED
:109CD000034B08330360FFF71BFB200010BDC04699
:109CE000D0A30200FA2270B5438992005343314A4F
:109CF00031491400050038348B421BDC2F498B425C
:109D000018D82F49083C8B4214D82E49083C8B4266
:109D100010D82D49083C8B420CD82C49083C8B426A
:109D200008D82B49083C8B4204D82A4914008B429E
:109D300000D90834284B2A7B1E1D042A03D89E1CF8
:109D4000022A00D81E00FA212068890006F0A2FF2E
:109D5000337868812B7300222A2128000CF077FDCC
:109D6000002801D01D4870BD10222B2128000CF0C6
:109D70006EFD0028F6D101222D2128000CF067FD90
:109D80000028EFD101222E2128000CF060FD0028D0
:109D9000E8D172780E2128000CF059FD0028E1D19D
:109DA000012223792A211A4328000CF050FD0028B3
:109DB000D9D0D7E790A3020000C4090000710200C7
:109DC00080380100204E000010270000881300009A
:109DD000C4090000E2040000DFB202000EFCFFFF35
:109DE0007FB515000F226A4404001E001170002D7B
:109DF00016D0002B14DD012301890093006B01F0C4
:109E00009DF9002802D0074804B070BD0090218958
:109E100033002A00206B01F047F90028F4D0F2E764
:109E20000148F1E70EFCFFFF17FCFFFFF7B5060046
:109E3000002501931E4B143608330400036085800F
:109E40008571C581058245820F0000922900182284
:109E5000300010F0FBF81C2130000FF0B8FD6B460D
:109E60009B880221A3806B461B8822002381142338
:109E7000A5712173A563A58763813E32137827639B
:109E80008B43F1310B40137023009572958101359E
:109E9000221DD5870833A21DD5872000DD87FFF757
:109EA00021FF002802D1A3791D43A5712000FEBD2A
:109EB000D0A3020030B50425837987B004002B427B
:109EC00004D1FFF717FAA3791D43A571A36AA2690C
:109ED0001B6800251A4208D106236A46012120008A
:109EE000FFF77EFF051E03D0114D280007B030BDDF
:109EF0006B460222042069469A561856237BD200EC
:109F00005A43228202220978C00049B2C90059434B
:109F100043436382A379E1819343A37120000CF052
:109F2000A4FC0123A1881A0002A80CF05AFBDCE76C
:109F30000EFCFFFFF8B50400FFF7BCFF0E22A35E86
:109F4000794F5B42BB4251DA23003E331B789B07BB
:109F50004CD50125210028003E310B785A0890434A
:109F600002000220AA40834313430B702000FFF736
:109F7000A1FF1022A35E5B42BB4248DA23003E33BE
:109F80001B785B0743D50125210028003E310B7863
:109F90009A08904382000420834313430B702600E9
:109FA0002000FFF787FF1222A35E4836BB423EDA4D
:109FB00023003E331B781B0739D5210001223E3197
:109FC0000B78D80882430820D200834313430B70D8
:109FD0003378032B3BD80133DBB23370012B00D035
:109FE0008DE0230000224A331A8030E02000FFF782
:109FF00061FF0E22A35EC8225B42520000259342FD
:10A00000B4DD23003E331B789B07A2D5AEE72000CA
:10A01000FFF750FF1022A35EC8225B42520093421A
:10A02000BDDD23003E331B785B07ACD5B7E72000CE
:10A03000FFF740FFC8231221625E5B009A4204DDF5
:10A0400023003E331B781B07B7D5002DC0D13278D3
:10A05000002A14D02100270001254A310B883E3701
:10A0600001339BB20B803878AC46054055D01D2B90
:10A0700005D963469843002338700B803370200065
:10A080000CF05FFC294A0723904244DD2000FFF7D3
:10A0900011FF0E23E25E264E52420323B2423ADB08
:10A0A000C8252000FFF706FF0E23E25EAD005242F6
:10A0B0000423AA422FDC2000FFF7FCFE1023E25EFF
:10A0C00002235242B24226DB2000FFF7F3FE1023A8
:10A0D000E25E01235242AA421DDC2000FFF7EAFEA5
:10A0E0001223E25E0523B24215DB2000FFF7E2FEF9
:10A0F0001223E25E0623AA420DDC00230BE0042BB0
:10A10000A5D122003E321178033B0B43137000238C
:10A110004A3423800B331800F8BD092BAFD9013A1C
:10A120000D803270ABE7C04670FEFFFFFF7002008B
:10A13000E0FCFFFF70B5C369C1681A68451D8AB0AD
:10A140000400EB7F114255D0002B58D1EB7F082B38
:10A150000DD90122A379134209D11343A371A18818
:10A16000130006A80CF03DFAFFF766FB2062EB7FB8
:10A17000012B23D80123A2791A421FD00025A188E0
:10A18000A571022202A80CF02CFAA31DDE7F012E7D
:10A1900014D1FFF751FB2B00226A801A99410090DD
:10A1A0000191019BA188AB4203D1174B009A9A42BF
:10A1B00027D90123042206A80CF013FA0322A3795D
:10A1C0001340012B14D1FFF737FB0023226A801ABA
:10A1D0009941994202D10D4B984209D90223A279A3
:10A1E000A1881343A3710522012306A80CF0F9F9F5
:10A1F0000AB070BD0B2BA9D80133EB77A6E7013B62
:10A20000FBE733000322D6E7E7030000DB0500008D
:10A2100010B50400034B08330360FFF743FB200035
:10A2200010BDC046E8A30200F0B5070000250E00EF
:10A2300085B002930AAB1B7808370393104B0400D8
:10A240000833036001928580857129001822380047
:10A250000FF0FCFE039A310038000FF0BDFB6B4697
:10A260006A469B88127AA380A31DE671DA77631D84
:10A2700025622000DD77FFF7F7FA200005B0F0BD7A
:10A28000E8A3020010B50400034B08330360FFF796
:10A290003FF8200010BDC04658A402007FB515004D
:10A2A0000F226A4404001E001170002D16D0002BEE
:10A2B00014DD012301890093C06B00F03FFF0028EB
:10A2C00002D0074804B070BD0090218933002A00F5
:10A2D000E06B00F0E9FE0028F4D0F2E70148F1E776
:10A2E0000EFCFFFF17FCFFFF002330B585B003AC69
:10A2F000217001890093050001332200C06B00F03A
:10A300001DFF002802D0094805B030BD20802989F2
:10A31000009002232200E86B00F0C6FE0028F2D174
:10A32000237860781B02184300B2EDE70EFCFFFFB4
:10A3300013B56B46DC1D0023220023700133FFF7A9
:10A34000ADFF002801D1207816BD0148FCE7C046CA
:10A350000EFCFFFFD0B504000CF0CDFBE268A36952
:10A36000981A09F061FA06000F002369E069C01A23
:10A3700009F05AFA32003B0009F0A4FD0022104B0C
:10A3800008F062FC0F4A104B08F05CF909F0D8FAAB
:10A390000021041C06F006FE002804D0201C0B49F6
:10A3A00006F022FF041C201C09F078FA02000B00C2
:10A3B0000020074908F0BAFE09F000FAD0BDC046F7
:10A3C00000806640EA2E4454FB2109400000B4435B
:10A3D00000807640F0B5050085B0006C0CF04EFBB7
:10A3E000061C286C0CF041FB0221071C28000CF015
:10A3F000B3FB0221039028000CF0C0FB07F07CFDAA
:10A400000221041C28000CF0CBFB07F075FD051C95
:10A41000301C09F019FD0290301C09F0D7FC0190A6
:10A42000381C09F011FD061C381C09F0CFFC071C74
:10A43000039807F061FD391C07F048FA311C071C2E
:10A44000201C07F043FA029907F040FA011C381C5F
:10A4500006F0CAFE311C071C281C07F037FA0199C8
:10A4600007F034FA011C381C06F0BEFE0299061CE7
:10A47000281C07F02BFA0199051C201C07F026FA6E
:10A48000011C281C07F054FB311C09F01FFD0D496D
:10A4900007F01CFA09F002FA0B4A0C4B08F0D2F84C
:10A4A00009F04EFA0021041C06F07CFD002804D0BF
:10A4B000201C044906F098FE041C201C07F0FCFC3C
:10A4C00005B0F0BD0000B443EA2E4454FB2119400E
:10A4D00070B50022102104000CF0FFFA1B4D00287B
:10A4E0002DD1032608212000FFF722FFA84226D005
:10A4F000304226D1FA216389890059435023144AF6
:10A50000D518D058884204D3D518083B1800083015
:10A51000F7D1FA212868890006F0BCFBA0226081EF
:10A52000112120000CF0D9FA002808D101222B7942
:10A5300010211A4320000CF0D0FA002800D0034864
:10A5400070BD6420FEF76EFFCCE7C0460EFCFFFF37
:10A5500000A402007FB50425837904002B4218D1A2
:10A5600002260CF0C8FAA379A188B3432B43A37148
:10A570000622012368460CF034F8A079030030402D
:10A58000AB43A37143425841034B4042184004B0CF
:10A5900070BD0248FBE7C04614FCFFFF15FCFFFF3F
:10A5A00010B5837904005A070DD49B0701D4FFF737
:10A5B000D1FF236C2000002B02D0FFF70BFF10BD52
:10A5C000FFF7C8FEFBE70148F9E7C04615FCFFFFAF
:10A5D00070B5466C86B001AC050001916260A36065
:10A5E000002E0CD00B4905A8FFF76AF90C232200B6
:10A5F00005A930000DF009F805A80BF03CFF2B0071
:10A600000C3307CC07C30223AA791343AB7106B0FE
:10A6100070BDC046E5B20200642330B5040002817B
:10A62000438185B08180FFF753FF0222A379606CDC
:10A630009343A371002813D00C490CF0ADFF051E05
:10A640000ED001000C22103101A80FF0E3FC200015
:10A650000199029A039BFFF7BBFF2800FFF744F81C
:10A660000123A2791343A37105B030BDE5B2020006
:10A67000F7B5009308AB1B880400019309AB1D8854
:10A6800000230F0016000D4A838008328371026098
:10A69000C360036143618361C36103621D21243090
:10A6A0000CF00EFA009BE763266429002000636427
:10A6B000019AFFF7B1FF2000FEBDC04658A402007A
:10A6C00082B0F0B50400A5B064202B932A920FF05D
:10A6D00041FA04220C2109A802F0AAFC2422CC4948
:10A6E0001BA80FF097FC052206A811000BF0BAFF7B
:10A6F000C84907A8FFF7F0F9A06800F081FBA5683A
:10A70000C54918A8FFF7DCF8782218A9280000F03E
:10A7100071FC18A80BF0AFFE6E256420013D0FF010
:10A7200019FA002DF9D1A06800F06AFBA0680CF0BE
:10A73000D7FB012160680CF018F90121070060685F
:10A740000CF026F906000A200FF004FA0022B34BA1
:10A7500003929F4210DB013203923A00C8320BDBB6
:10A76000C822042192000391974205DC0322039240
:10A77000C82F01DC013A039200279E420CDB330014
:10A780000137C83308DBC82303379B009E4203DC34
:10A79000013FC82E00DC013F06A80BF05AFF00263F
:10A7A000032373431BA9CA189078002805D0C95CFD
:10A7B0005278FF2306A8FFF723F901360C2EEFD1BC
:10A7C0006B463AB20C21595E06A8FF23FFF718F931
:10A7D0000023A06800931A00743006A90BF049FF0B
:10A7E000002304930323049A039853431BAA995C00
:10A7F000814237D1D31805935B78BB4232D1059B98
:10A800009E78002E2ED1310020680CF0A5F907F0BB
:10A8100073FB3200031C290009A80DF07FF93100F9
:10A8200020680CF0ABF907F067FB0122031C29003C
:10A8300009A80DF073F9310020680CF0B1F907F0A8
:10A840005BFB2900031C022209A80DF067F9FE2317
:10A8500003229B05290009A80DF060F90123059A40
:10A86000ED189370049B013304930C2BBAD1642030
:10A870000FF070F90B2D00DC5BE709A80DF03AF939
:10A88000012201000CA802F0D3FB002509A80DF05D
:10A8900031F9A8423CDD2900002209A80DF02CF96D
:10A8A0000022061C290009A80DF026F9011C301C05
:10A8B00007F00CF82900061C012209A80DF01CF96C
:10A8C0000122071C290009A80DF016F9011C381CEB
:10A8D00006F0FCFF311C06F087FC2900061C022252
:10A8E00009A80DF009F902222900071C09A80DF09A
:10A8F00003F9011C381C06F0E9FF311C06F074FC5A
:10A900002900031C00220CA80DF008F90135BDE751
:10A9100009AA1100012318A80DF01AF918A90FA807
:10A920000DF073F918A80DF00AF90CAA09A912A8DC
:10A9300001230DF00DF9002312AA0FA915A80DF09F
:10A9400007F9002215A811000DF0D6F80022061C08
:10A95000012115A80DF0D0F80022051C022115A830
:10A960000DF0CAF8FC21071C8905301C06F0AEFF6B
:10A9700007F0A2FAFC21060018908905281C06F0B1
:10A98000A5FF07F099FAFC21050019908905381CEC
:10A9900006F09CFF07F090FA2A00030031001A909D
:10A9A0002068FFF715FEA0680CF09AFA07A908A81E
:10A9B000A5680BF046FE0022194B009208A90193EE
:10A9C0002800130000F0BAFA08A80BF02DFEFA20B8
:10A9D00080000FF0BFF8A0680CF082FA15A80DF007
:10A9E000AEF812A80DF0ABF80FA80DF0A8F80CA85F
:10A9F0000DF0A5F807A80BF017FE06A80BF014FE43
:10AA000009A80DF09CF825B0F0BC08BC02B01847AE
:10AA1000F0B2020014B3020059B30200E0FCFFFFE1
:10AA2000DC050000F7B583601D4B05001F68016061
:10AA30004260002F31D02820FEF736FE040010308F
:10AA40000BF0C5FD174B18202360FEF72DFE0022EA
:10AA50000600154B01920560083200210C3000936E
:10AA60000FF0F4FA08226946301D0FF0D3FA0F4BAD
:10AA700000227361C223A3803B68E260A660226269
:10AA800062625B68210038009847002805D02000EA
:10AA90000BF0A7FC2000FEF727FE2800FEBDC046F5
:10AAA000FC26002005000600C1A60100B96B0200CB
:10AAB000F0B5040085B0637A9C46002B04D12000D9
:10AAC0000CF0A5F805B0F0BDA37A266F0193102312
:10AAD000019AF35600259B1801229A402900F36839
:10AAE00003920293029BAB4231DDB368019A6B4340
:10AAF0009B1872695B00E77AD3181A785878E37963
:10AB0000012F14D15F1E3F1A10003A005B0043432F
:10AB1000606F8218D3189B79634500DD6346627BC2
:10AB20001A4202D00123AB4019430135DAE7022F64
:10AB300005D15F1EBA1A277A013F381AE6E7032FBC
:10AB4000E4D1277A013FBF1A02003800DEE7112363
:10AB5000C943F356606C994023691940039B19431C
:10AB60000FF0D6F8A27B072AACD8637B0C495B00B8
:10AB70006373531CDBB290004158A373022A03D8BD
:10AB800008000EF0DCFF96E7064B2000236300234D
:10AB90006363054BE462236414300EF05EFE91E7BC
:10ABA00070A40200B1AA0100F96B020010B5040004
:10ABB000044B03600EF049FE200005F07FFA2000F0
:10ABC00010BDC046E8A8020010B504000E4B0833C3
:10ABD0000360FEF767FE200074300BF025FD2000B7
:10ABE00060300BF021FD200058300BF044FC2000B9
:10ABF00050300BF040FC2000044B14306361FFF731
:10AC0000D5FF200010BDC04690A402001CA9020080
:10AC1000F8B500250400324B858008330360857148
:10AC2000143016000F0005F033FA20002D4BE562BA
:10AC3000636125645030FEF7AFFE20005830FEF708
:10AC4000ABFE20006030FEF7D5FE20000423F25E4C
:10AC500033682667590009B274300BF003FD33687E
:10AC6000226FE37173680126237210236581A78028
:10AC70002561D35691685918994204DD30009840F7
:10AC800001330543F8E711230120D356D168591841
:10AC9000994206DD02009A4026690133324322615F
:10ACA000F6E71420FEF700FD226900212A43012364
:10ACB000060005F011FEFF23220063720133A38119
:10ACC000002348326664A37320001370A366FEF766
:10ACD000CBFD0123A27920001343A371F8BDC04628
:10ACE00090A402001CA90200F0B5437A85B00400CC
:10ACF000002B04D120000BF08AFF05B0F0BD01222B
:10AD0000837A11009C461023066F0025F3560392A8
:10AD10006344994002912900F3680193019BAB427F
:10AD20002CDDB36872696B4363445B00E77AD31828
:10AD30001A785878E379012F10D15F1E3F1A10005E
:10AD40003A005B004343606F8218D3189B79002B55
:10AD500002D0039BAB4019430135DFE7022F05D139
:10AD60005F1EBA1A277A013F381AEAE7032FE8D1A3
:10AD7000277A013FBF1A02003800E2E71123C943D6
:10AD8000F356606C994023691940029B19430EF0F9
:10AD9000BFFF667AB31EDBB2FC2B14D8FEF712FDA0
:10ADA0000B4B0500236300230A4863630A4BFF2112
:10ADB000E4622364704305F0F7FF2900414320005B
:10ADC00014300EF04AFD637A012B00D995E791E724
:10ADD0000F6C0200B6030000F96B02001FB50123DF
:10ADE00081881A0068460BF0FCFB012303491A0016
:10ADF00068460BF0F6FB05B000BDC046FE03000040
:10AE00001FB5030048331A780400002A0DD0002231
:10AE10001A70012381881A0068460BF0E2FB0123B7
:10AE200004491A0068460BF0DCFB200074300BF07C
:10AE300010FC1FBDFF03000010B548300378002B45
:10AE400006D00378012B03D0012102480BF03FFA12
:10AE500010BDC046FF03000010B50121040006200C
:10AE60000BF035FA064B984208D148342378002B72
:10AE700004D02378012B01D020BFF7E710BDC046D6
:10AE800016FCFFFF70B50600141E19DB05004835DF
:10AE90002B78002B02D02B78012B13D1002330000C
:10AEA0001A007430FEF768FE002C07D033004A33D6
:10AEB0001C80002407234C3634802B70200070BD8A
:10AEC000014CFBE7014CF9E717FCFFFF12FCFFFF09
:10AED000F8B517000A68050052880B00012A09D14D
:10AEE000002118000BF066FB002201002800FFF78C
:10AEF000C9FFF8BD002F19DD060048363278002A58
:10AF000002D03278012A13D12A00002428005C32B2
:10AF10001900148058300BF018FB2B004A331F80A7
:10AF200003234C352C8020003370E2E70148E0E732
:10AF30000148DEE717FCFFFF12FCFFFF73B5079C1B
:10AF40000500002C1CDB060048363078002802D0B3
:10AF50003078012816D106981BB2C0B200902800A4
:10AF600012B274300BF085FB002C07D02B004A3353
:10AF70001C80002407234C352C803370200076BDC4
:10AF8000014CFBE7014CF9E717FCFFFF12FCFFFF48
:10AF9000F0B587B00D9C06000F0002920393002CC1
:10AFA00020DBFFF749FF330048331D78EDB2002D59
:10AFB0001AD1390005A80BF044FB0C9B01940093B7
:10AFC000029A039B05A93000FFF7B8FF05A80BF014
:10AFD0002BFB002C03D03000FFF73EFF2C0020009D
:10AFE00007B0F0BD014CFAE7014CF8E717FCFFFF92
:10AFF00011FCFFFFF8B50400171E1DDD06004836E2
:10B000003378002B02D03378012B17D12200E3795B
:10B010005632013B137023000025200054331D805D
:10B0200050300BF092FA23004A331F80022328008D
:10B030004C3425803370F8BD0148FCE70148FAE73D
:10B0400017FCFFFF12FCFFFFF7B505000F00161EEF
:10B0500018DDFFF7F1FE2B0048331C78E4B2002C1A
:10B0600012D1390001A80BF068FA320001A92800BA
:10B07000FFF7C0FF01A80BF0FEF92800FFF7ECFE78
:10B080002000FEBD0148FCE70148FAE717FCFFFF7E
:10B0900011FCFFFFFF2902D84172002070470148D0
:10B0A000FCE7C04617FCFFFFF0B51F0085B00AABF8
:10B0B0001B780400039300933B000D0016000EF074
:10B0C000F2FB002833D0237D082B2DD823680022E3
:10B0D0001900FC318A62A021C9005A501549052087
:10B0E0005A500138C046C046C046C046C046C04659
:10B0F000C046C046C046C046C046C046F1D12368DF
:10B1000001325A50A0210432C9005A5005F0D0F83B
:10B11000039B3200009329003B0020000EF0C3FB8C
:10B12000237D01332375CCE7034805B0F0BD2075BE
:10B13000FBE7C046FC0F00000EFCFFFFF0B51F0050
:10B1400085B00AAB1B780400039300933B000D000D
:10B1500016000EF090FB002833D0237D082B2DD84D
:10B16000236800221900FC318A62A021C9005A50CC
:10B17000154905205A500138C046C046C046C04651
:10B18000C046C046C046C046C046C046C046C0468F
:10B19000F1D1236801325A50A0210432C9005A501B
:10B1A00005F086F8039B3200009329003B00200045
:10B1B0000EF061FB237D01332375CCE7034805B016
:10B1C000F0BD2075FBE7C046FC0F00000EFCFFFF42
:10B1D000F8B50D1E30D000260227C468002C28D0F8
:10B1E000AA88A38853403B4204D13A4204D1AB8899
:10B1F0003B4219D0646AF1E7A968A0680CF069FCC9
:10B200000028F4D02B88002B02D022889A42F1D15A
:10B210006B88002B02D062889A42EBD1A288074B40
:10B2200001361343A380E5E7A368AA689342E1D1FE
:10B23000E8E72000002E00DC0148F8BD0080FFFF99
:10B2400017FCFFFFF0B5060085B00D1E59D0012791
:10B25000C468002C22D00221AA8800230A4202D00E
:10B26000A3885B083B40226829688A4210D1A06805
:10B27000A968002B0AD00CF02CFC002808D0A38869
:10B280001AB2002A06DB204805B0F0BD8842F6D08D
:10B29000646ADEE75B045B0CA380F4E7F0682A884D
:10B2A000002807D1F5600123184968460BF099F989
:10B2B0000020E9E7010003001C88944206D25C6A82
:10B2C0001900002C0DD02300F6E723001C889442BF
:10B2D00007D15F886C88A74203D25C6A1900002CF2
:10B2E000F3D1814209D10B889A4204D305D1488811
:10B2F0006B88984201D96962D4E74B6A6B624D62F0
:10B30000D1E70348C0E7C04616FCFFFFFD0300007D
:10B3100017FCFFFF064B10B51A00040008322C334F
:10B32000026043600430FDF7F3FF200010BDC0460B
:10B33000A8A4020008B4024B9C46043808BC60472D
:10B3400015B3010008B4024B9C46043808BC6047A2
:10B35000217002000C4A002311002C32083110B574
:10B36000038183724260C360036143614383016070
:10B3700004000430FDF7BEFF044B1A68002A00D118
:10B380001C60200010BDC046A8A40200FC260020BE
:10B39000F7B50E000125C4680192002C36D0238831
:10B3A00032889A4201D0002B23D1638872889A4256
:10B3B00001D0002B1DD1FDF711FF0123002806D07D
:10B3C000C022A3881340C03B5A425341DBB2019ACA
:10B3D000934219D1A7883BB2002B15DB1022310014
:10B3E000A0180EF017FE40231F4204D020000BF0DF
:10B3F00020FE646AD1E7FDF7F1FE0028F6D02100B7
:10B400000348FEF79BF8F4E70025F2E72800FEBDAD
:10B410003370020008B4024B9C46043808BC6047F5
:10B42000BB710200F0B587B001930EAB1B8806001C
:10B4300003930D9B0D000093019B02920C9F002B28
:10B440003DD0002F02D1009BDB0738D52820FEF726
:10B450002BF9040010300BF0BAF86B461B892580DD
:10B4600063801820FEF720F90500009B0822059351
:10B47000019B002103600C3004970EF0E7FD0822C9
:10B4800004A9281D0EF0C6FD0E4B02226B6100239D
:10B490000399E3602362636233680A43A560A28074
:10B4A0005B68210030009847002806D020000AF091
:10B4B00098FF2000FEF718F9034807B0F0BD0348D5
:10B4C000FBE7C046F571020016FCFFFF17FCFFFF0B
:10B4D000F0B50400160000258380164A164B8571CE
:10B4E0000260218146810573186889B08C46A842A4
:10B4F0001DD0124A05950492C02202926A4604ABFE
:10B5000082CB82C223002A006146FFF78BFFC02254
:10B51000094B0A49186802926A46069106AB0795DC
:10B5200082CB82C223002A003100FFF77BFF20007C
:10B5300009B0F0BDECA40200FC2600201F7302003D
:10B5400030B5002403730123034D847105608180AD
:10B5500082734373846030BD04A5020070B504009B
:10B5600000250C4B0E000833858085710360210097
:10B5700018300BF08CFF2000210020300BF0B2FFC0
:10B58000054BA680E5802572E56025616561200098
:10B590001C6070BD14A502000827002010B50C0027
:10B5A0000AF023FE002806D1642C06D8A123044A01
:10B5B000DB00D45010BD0348FCE70348FAE7C0465F
:10B5C0000010004016FCFFFF17FCFFFF8379DB072C
:10B5D00002D5C160002070470048FCE716FCFFFF61
:10B5E0008379DB0701D5C06870470148FCE7C04696
:10B5F00016FCFFFF70B545690400002D22D0037AC8
:10B60000032B21D8FFF7ECFFA8622C20FEF74CF8A3
:10B610002C22002105000EF019FD002263695A62F8
:10B620002369934208D1636923610020237A65610D
:10B630000133237270BD13005A6A002AFBD162697C
:10B640005A62F2E70148F5E70148F3E717FCFFFF0C
:10B6500013FCFFFF144B70B55A68144C002A03D03A
:10B6600000225A600132A2601A69002A17D0002114
:10B6700019618023DB000E4DE3582868012B0FD1A0
:10B68000A923DB00E1584942FFF7A0FF2868FFF734
:10B69000B1FF2B685A69074BE2500123A36070BDCC
:10B6A000FFF794FFF9E7C046FC100040001000408F
:10B6B000082700200405000070B505000C000AF002
:10B6C00094FD002804D1034A034BEC71D45070BDA3
:10B6D0000248FCE7001000402405000016FCFFFFB4
:10B6E000F8B5837905000020DB076AD40AF07DFDF8
:10B6F000002867D16E69002E08D12C30FDF7D4FFE9
:10B7000004002C2231000EF0A1FC6C616B69002B4F
:10B710005AD000222D4B01215A608022D20511609F
:10B720005A68002AFCD00622294B2A4C9A562A4BEA
:10B730000721E2502800FFF731FFA2230026DB009B
:10B74000E650264A264B2800E250E979FFF7B4FF7D
:10B7500001220821234B2448E6500433E250234BB6
:10B76000234FE1500433E050022322482350224863
:10B770002750224F043827501827214827506F6937
:10B7800020482750C120800021501F498538FF38AC
:10B790000B500B608021890060580E3303436350C7
:10B7A0001A4B5E6062605A68002AFCD000260127AE
:10B7B0001E612800A760FDF79DFD3000AB791F4397
:10B7C000AF71F8BD1248FCE71248FAE7FC000040F0
:10B7D0006FB30200001000400C0500007469627530
:10B7E0001C0500002C0500002000040214050000C8
:10B7F000FFFF0000340500003C050000211001009F
:10B80000540500000405000000E100E0FC100040C9
:10B8100016FCFFFF13FCFFFF03000069002809D09E
:10B820000221054AD167426A1A611A7A013A1A72EC
:10B83000024B19607047C04604E100E000E100E0FF
:10B8400070B504000D000AF0D0FC00283AD1002D9C
:10B850003AD02B78232B37D802221C4B1C49DA67AD
:10B860001C4B013A58610A615A69002AFCD0002039
:10B87000194A8D5058600130086058680028FCD083
:10B88000012088600020186118690028FCD06069D8
:10B89000885000225A6101320A615A69002AFCD09C
:10B8A00000225A6001324A605A68002AFCD0002007
:10B8B000186101238B60C0210222084B49005A50B5
:10B8C0001A6070BD0648FCE70648FAE704E100E0AC
:10B8D00000100040FC1000400405000000E100E002
:10B8E00016FCFFFF17FCFFFF37B54C680500002C66
:10B8F00004D10C490AF04CFF28003EBD636A01A840
:10B900004B602278211D033AA36A0AF06DFF2000E4
:10B91000FDF7EAFE01A928000AF03AFF01A80AF0A3
:10B9200030FFE9E70427002030B505008DB000297D
:10B9300012D0232A10D801ACD31C0020237001237D
:10B94000A07002A86370E3700EF064FB2100286809
:10B95000FFF776FF0DB030BD0048FBE717FCFFFF97
:10B9600010B5002903DB024B19600DF0ECFF10BD90
:10B970000C27002070B504001E0004AB1D7804F0F5
:10B98000CFFB20000E4B40302360FEF705F823006C
:10B9900001364C33013522001E701D730023E12156
:10B9A0004E32A3646365138053809381D381013B3E
:10B9B000200063644902FFF7D3FF200070BDC0463A
:10B9C00048A30200F7B580277F053D697C690822FE
:10B9D000113C6C430600210068460EF01BFB104B27
:10B9E000009A9A4219D0009300230193796930009C
:10B9F000133969430BF08BFD019A009930000BF06D
:10BA00009EFD210030000BF082FD7969AB081339EF
:10BA10006943220030000BF084FD0198FEBDC04652
:10BA2000FECA0000F0B50D00A9B00D920021302231
:10BA3000060010A80B930EF009FB28000EF04EFB39
:10BA4000431C0C93102B00D9B5E00B9B202B00D985
:10BA5000B1E0290030000BF09FFD071E50D12900F6
:10BA60000C9A10A80EF0D6FA0D990B9A14A80EF0A5
:10BA7000D1FA80235B051A695F690C92113F7A4302
:10BA800030005D690B92FFF79DFF3022002104001A
:10BA90001CA80EF0DBFA290000270C9B1339594330
:10BAA00030000BF034FD0D9730257D430B9B0833A0
:10BAB000ED18A74242DA290030221CA80EF0AAFA9B
:10BAC00010A91CA80EF0F8FA002827D13C49300034
:10BAD00022000E910F940BF032FD6A46099513ABCC
:10BAE00023CB23C223CB23C223CB23C23000129B00
:10BAF0001099119A0BF031FD01230D930137D3E713
:10BB000010300B9A0D990EF076FA04003800FDF70C
:10BB1000EBFD002CA3D1200029B0F0BD6A460995A9
:10BB20001FAB23CB23C223CB23C223CB23C23000A2
:10BB30001C991D9A1E9B0BF010FDDFE7E543302397
:10BB4000ED1725405D430B9B08355D190D9B002BC0
:10BB50001DD10C9B3021981E05F09CF8A0422CD0E2
:10BB600017490134300022000E910F940BF0E7FCCE
:10BB70006A46099513AB23CB23C223CB23C223CB25
:10BB800023C230001099119A129B0BF0E6FC0B991E
:10BB900030000BF0BCFC80235B0559690C230C9A28
:10BBA000133963434A430233110030000B9A0BF000
:10BBB000B8FC0024AFE7034CADE7034CABE7C0464D
:10BBC000FECA000017FCFFFF13FCFFFF70B5040066
:10BBD000A280FA22002308000C499200083121605B
:10BBE000A3716061E260A360638209490BF0D4FC39
:10BBF000051E09D0010020001031022212300EF083
:10BC000009FA2800FDF770FD200070BD2CA5020088
:10BC100067B3020030B50225837987B004002B4258
:10BC200004D1FDF767FBA3791D43A57120000BF03C
:10BC3000FDFC00281CD06B46DD1C28000BF0EDFC41
:10BC40002B78002B17D001A80BF0E5FC0321019AFB
:10BC5000D3170B409B189B102382FDF7EDFDE36883
:10BC6000A18818180123A0601A0002A80AF0B9FCE4
:10BC7000002007B030BD0122064B1A60064A516809
:10BC80000029FCD000215160044A1268019201226F
:10BC90005A60DBE700C00040FCC0004008C500401F
:10BCA000022802D10122014B1A707047F8290020A6
:10BCB00070B5064C05002378002B04D1044801F030
:10BCC0003BFB01232370280070BDC046F9290020EA
:10BCD000A1BC010070B50C000AF087FA002810D052
:10BCE0000023144DA40A2B7020000BF0B3FC002895
:10BCF00003D00A200DF02EFFF6E72B78002BFCD0A6
:10BD000070BD02210C4B0D4A99508021C9000800DA
:10BD10005D58002DFCD0A121C9005C5019580029A4
:10BD2000FCD0002199508021C9005A58002AFCD02B
:10BD3000E6E7C046F829002000E0014004050000C5
:10BD4000F8B50C0015001E000AF04FFA002811D0BB
:10BD50000023174F3B703200290020000BF078FCC5
:10BD6000002803D00A200DF0F5FEF4E73B78002B05
:10BD7000FCD0F8BD01210F480F4B8446195080219B
:10BD8000C9005A58002AFCD080270022FF009642A2
:10BD900007DD910068586050D9590029FCD0013264
:10BDA000F5E7002261465A50DA59002AFCD0E0E754
:10BDB000F82900200405000000E0014010B504004F
:10BDC000054B083303601C300AF055FB2000183087
:10BDD0000AF051FB200010BD44A50200FF23F0B57E
:10BDE0002C4D8DB02B700023040069460088009311
:10BDF00003F026FA002802D16B469B782B70264E62
:10BE00003368DB68002B07D1002320881A00190053
:10BE10000BF024FC0DB0F0BD2B78032BF4D81F4998
:10BE200001A8FDF74DFD336801A9DE6804A80AF0FA
:10BE300084FB04A930000BF0E2FB0027060004A8F5
:10BE40000AF019FBBE421ED031002022103104A896
:10BE50000EF0E0F83000FDF747FC297804ABC9008C
:10BE60005918082202A80EF0D5F8208801230822CC
:10BE700002A90BF0F3FB0137002804D12088084AFF
:10BE80000C210BF0E9FB01A80AF0F5FA002FBBD05A
:10BE9000C0E7C046F02100201C27002077B3020035
:10BEA000FFFF0000F0B5837991B004005B071BD55C
:10BEB000FDF7C2FC00232269801A9941994203D1FF
:10BEC000F423FF3398420FD9A068002808D0364BDE
:10BED0001D880CF061FC036815221B6A2900984735
:10BEE0000422A3799343A371A3799B0759D52F4DBE
:10BEF0002B68DB68002B50D02D4B1B78032B4CD8C4
:10BF0000294B2C491B8804A80193FDF7D9FC2B6809
:10BF100004A9DE6808A80AF010FB08A930000BF09D
:10BF20006EFB070008A80AF0A6FA02AB9E1D0823C4
:10BF30003200338006A9073B01980BF091FB002FDC
:10BF400008D039002022103108A80EF063F838001C
:10BF5000FDF7CAFB164B32881B7806A9DE0008AB3A
:10BF60009E1930000EF047F8002813D0082206A9C9
:10BF700030000EF04FF82B6804A9DD6805A80AF020
:10BF8000DCFA202308AA05A928000BF03EFB05A82F
:10BF90000AF071FA04A80AF06EFA0222A379934318
:10BFA000A37111B0F0BDC046A02900201C270020BD
:10BFB000F021002077B30200F7B5089E050015298F
:10BFC00022D8012007008F40244C27421CD0E97F53
:10BFD000CC181F2C41DC69183418A14210D800215C
:10BFE000C8B2834204D9545C701884700131F7E7F9
:10BFF00032789A183270EA7F9B18EB7700202CE099
:10C000000878C8540139E8E73478013CE4B2A34227
:10C0100008D10023D9B28C42F0D9D05CF1188870D5
:10C020000133F7E7EF7F0120FF183F1B1F2F14DCC0
:10C030000227A01C7F423618381B0190E87F2F187A
:10C04000BE4204D23078019FF0550136F6E7041B5A
:10C05000023CEC7728000BF04DFBFEBDFC002000FD
:10C06000F0B585B001930AAB1E880BAB1B78451C5D
:10C0700002930EAB1B78040003930B781700037038
:10C080004B8A10224382013128000DF0C3FF6B461A
:10C090009B88268363836B461B7B002623776B4636
:10C0A00001221B7A6761E683EB77A31CDA770C9B8E
:10C0B0000C256362230020000D9A28331A705E70ED
:10C0C0009E702A0031002C300DF0C0FF2000074B7D
:10C0D000E663A3632A00310040300DF0B7FF200073
:10C0E000034B2665E36405B0F0BDC04677760200D9
:10C0F0006976020070B50D000CF04EFB0400036879
:10C10000002D09D15B699847FA20800068430749F0
:10C1100004F0C0FDE08070BD9B6898478542F3D273
:10C12000236820009B6898470500EDE77102000036
:10C13000F0B507001600A1B002C704006B4918A8AB
:10C140001D000BF01EFB331E03D030000DF0C6FFA8
:10C1500083B20122049200220392029202320192DF
:10C160000093320018A93800FFF77AFF23006049D6
:10C17000583318A807930BF004FB2B1E03D028009C
:10C180000DF0ACFF83B201220492002203920292CE
:10C190000232019200932A0018A90798FFF760FF66
:10C1A00023005449AC3318A808930BF0EAFA269BF5
:10C1B000002B03D018000DF091FF83B201220492EE
:10C1C000002203920292023201920093269A18A949
:10C1D0000898FFF745FF631CFF33474918A80993E8
:10C1E0000BF0CFFA279B002B03D018000DF076FF41
:10C1F00083B2012204920022601C03920292023256
:10C2000001920093279A18A9FF30FFF729FF230016
:10C210005533FF33394918A809930BF0B2FA289B1C
:10C22000002B03D018000DF059FF83B201220492B5
:10C23000002203920292023201920093289A18A9D6
:10C240000998FFF70DFF2300A933FF332C4918A8E5
:10C250000A930BF096FA299B002B03D018000DF0DF
:10C260003DFF83B201220492002218AD0392029294
:10C27000023201920093299A29000A98FFF7F0FEF2
:10C28000204B1B780B93002B2DD1079B12971393F8
:10C29000089B0DAF1493631CFF331593099B1A4938
:10C2A00016930A9B380017930BF06BFA1D21492057
:10C2B0003B7810222B707B8A12AE6B8206ABC918BA
:10C2C000C0180DF0A7FE06232B756B469B8D2068CA
:10C2D000AB83AE610CF064FA036829001B689847D1
:10C2E0000122084B1A70200021B0F0BD292A00005D
:10C2F000242A0000252A0000272A0000262A000000
:10C30000282A0000FA2900200A18000070B500252C
:10C3100004000A4B8580083385710360C1601830C2
:10C32000FDF73AFB20001C30FDF736FB044BA560FF
:10C330001C60012365612000A37170BD44A502004B
:10C340001C270020FA2130B585B005000123022208
:10C35000890068460AF045F9074C2068002809D092
:10C360000BF048FA2988054B22681980022391793D
:10C370000B43937105B030BD1C270020A02900207D
:10C3800010B50C0007290DD880680CF005FA064B93
:10C39000195703685B6C9847431E9841034B404212
:10C3A000184010BD0248FCE76FB3020016FCFFFF07
:10C3B00017FCFFFFF0B5A44C0D00A5440400079343
:10C3C0009AAB1B78A14909A804930692FDF778FA65
:10C3D000200029001C300AF0B8F8C020800000F0CE
:10C3E000A1FF0820FDF760F90600002100F088FE9B
:10C3F00015ADA66000210C220EA80DF027FE2B0023
:10C400000EAA83CA83C3924B2900EB60002330003D
:10C410002B610CF0AAF9A0680CF0BEF908220021EB
:10C42000059016A80DF012FE1420FDF73DF9290025
:10C430000200884B1593C8C9C8C2874B059EC360CC
:10C440000023A43603613368002B00D0F5E0306090
:10C45000A0680CF0A5F908220021060016A80DF02E
:10C46000F5FD1420FDF720F97C4B1593030086CDD4
:10C4700086C37B4BC36000230361336B002B00D06A
:10C48000DDE03063A0680CF087F908220021050088
:10C4900016A80DF0DBFD1420FDF706F9714B15AE63
:10C4A0001593030086CE86C36F4B9835C360002377
:10C4B00003612B68002B00D0C3E02860012504AB8A
:10C4C0001B7C04AA2B4308A9280013740BF0CAF89C
:10C4D000A0680CF069F9036864495B6A9847A06832
:10C4E0000CF062F9036862499B699847A0680CF0F8
:10C4F0005BF9002302680093166804992A00B0478C
:10C50000049B002B0AD020000BF07DF9032805DDE9
:10C51000A0680CF049F90368DB6898470EA80BF097
:10C52000E0F82F2004ABC0180BF0DBF8362004AB8A
:10C53000C0180BF0D6F83D20042504ABC0180BF052
:10C54000D0F80EAB0A93A06804AB5D770CF02CF921
:10C5500003680AA91B699847A0680CF01DF90368D5
:10C560000AA95B6D9847A0680CF016F903680021D2
:10C57000DB6D9847A0680CF00FF9036802219B6DF2
:10C58000984700212000FFF7FBFE1820FDF78CF8EC
:10C59000A16800F005FA374B374A1B68A16803937E
:10C5A000364B15A81B6800260293354B0CAF1B6851
:10C5B0000193069B1B685B190093324B12681B6842
:10C5C000FFF7B6FD3020FDF76FF8079AA16800F07D
:10C5D000A7FAA0680CF0E0F8036839009B6A984756
:10C5E000294BBE80A0680C930CF0D6F80368390084
:10C5F000DB6A98472900A0680BF0CFF8099A092157
:10C600009378A06852190BF0DBF8A0680CF0C4F81E
:10C61000C8210671A068FFF76DFD04AB1B7FB34214
:10C6200004D0A0680CF0B8F80BF0A1F809A809F044
:10C6300022FF95239B009D44F0BD036107E7036142
:10C640001FE7036139E7C046ACFDFFFF6AB4020093
:10C650008576020045C3010093760200DDBD01002E
:10C66000A1760200CF760200AF7602008DC60100EF
:10C67000C1C6010018270020142700200820002030
:10C68000102700200C2000200800100013B50622FF
:10C690006846FDF757F9094B1C68002C0AD069461B
:10C6A00001A809F04AFF200001A90BF0CDF801A86C
:10C6B00009F0E1FE684609F0DEFE13BD1C270020EC
:10C6C000002373B501AE0C0031000500019302F0A8
:10C6D000B7FD002802D1B278064B1A70064B1868D5
:10C6E000002806D061426141044BC9B21D800BF0A5
:10C6F000B3F873BDF02100201C270020A0290020E2
:10C70000F0B5040097B0039107A89C490592FDF786
:10C71000D7F89B4908A8FDF7D3F822000FAD2800F1
:10C720001C3207A909F030FF08AA290009A809F05E
:10C730002BFF280009F09FFE92490AA8FDF7C0F8D8
:10C74000A0680CF029F803680DAE5B6998472800D3
:10C750000AF0C7FF332004ABC0180AF0C2FF3A202A
:10C7600004ABC0180AF0BDFF412004ABC0180AF0AA
:10C77000B8FF8023DB00B380A0680D950CF00CF8A7
:10C78000036831005B6D9847A0680CF005F80368FA
:10C7900000219B6D9847A0680BF0FEFF0700002565
:10C7A00006000A371F22002138000DF04FFCFD77EC
:10C7B00030000AF0D3FF0621A0680AF0EEFF099AC4
:10C7C00009219378A06804320AF0FAFFA0680BF000
:10C7D000E3FFC8210571A068FFF78CFCA0680BF08F
:10C7E000DBFFFF272E000581A0680BF0D5FF0AF0C4
:10C7F000BEFF0398FEF704FB0AA90CA809F09DFEF2
:10C8000078220CA90398FEF71FFC0CA809F033FE50
:10C81000039920000BF033F82000FCF76BFD049522
:10C82000012563691D402DD057490BA8FDF754F928
:10C830000BA90CA809F005FF00220CA91300019216
:10C8400000920398FEF7A4FB0CA809F0EDFE049BF0
:10C85000002B42D1043F282F41DD0025FE2F00DCB4
:10C86000049D05980AF01FF9002806D0012362698B
:10C870009A43130004221343636100260BA809F0B6
:10C88000D3FE049504226369134233D0FF21039839
:10C89000C826FEF7FFFB0025B600A36902229B5EB7
:10C8A000AB4222DD200029B2183009F083FE0023BC
:10C8B000010003981A007430FDF75EF93000FCF7B0
:10C8C000B1FD03980AF00CFBC820FCF7ABFD022277
:10C8D0006369134209D10135DFE70437BBE70398E9
:10C8E0000AF0FEFA002FBCDDBAE7FA208000FCF760
:10C8F00099FD0026022365691D421CD006331D40A8
:10C9000024D022490BA8FDF7E7F80BA90CA809F0E1
:10C9100098FE00220CA90192009213000398FEF7E2
:10C9200037FB0CA809F080FE1948FCF77BFD0BA82B
:10C9300009F07AFE174E6420FCF774FD164B0136A1
:10C940009E4200DC6CE709F062FC69E713490BA822
:10C95000FDF7C2F80BA90CA809F073FE2B002A0002
:10C960000CA9019500950398FEF712FB0CA809F09D
:10C970005BFE0BA809F058FEDDE7C04683B302005A
:10C9800093B3020095B30200A3B30200E8B3020020
:10C99000983A00008C0A00008B0A000025B40200BF
:10C9A0000022594BF0B50833060003600F00100059
:10C9B000A9B0B1600BAB991801324870102AFAD1B6
:10C9C0000F3A524C1A700E32105D991A0874013ADF
:10C9D000FAD2997B5A7B09020A4331000C31039148
:10C9E00025211B7813AD2B7002ABC918452302A873
:10C9F0001B186A82180010220DF00CFB039B6421A7
:10CA00006B610123002402AA2B7752181993093372
:10CA100013701DAB1C706D2302AA9B181C706E2333
:10CA200021009B181EA80C22EC836C621C700DF078
:10CA30000DFB374B0C22210023A8AB63EC630DF0F8
:10CA400005FB344B02AAEB6446239B180322DA77DA
:10CA500022002C650595347306AD2B1901345A70EC
:10CA6000102CFAD101232C482B700E33195CEA1AD2
:10CA70001174013BFAD211212520AA7B6B7B120293
:10CA80000BAC13432A78638202ABC9182270C0181A
:10CA900010220DF0BFFA0123237505ABA36100231B
:10CAA0003800A3830BF07CFE036821001B689847C5
:10CAB00013ABDB8BB068B3820BF072FE002203680D
:10CAC0000092B18A039ADC680123A047B0680BF09A
:10CAD00067FE07001420FCF7E7FD00220123040095
:10CAE0000261069240C00832290007930DF092FAC5
:10CAF0000A4BE360BB69002B03D13000BC6129B055
:10CB0000F0BD2361F9E7C0465CA5020097B40200BE
:10CB10007776020069760200A7B40200DF7802008F
:10CB2000F0B500260400734BDDB00833036081606C
:10CB3000C2608680867132006F4947A80AF06FFF95
:10CB4000230014330125042708931223009704952A
:10CB50000193089A330047A9039602961DA8FFF790
:10CB60007FFA3200654947A80AF059FF08202200E1
:10CB70000097330015AF10320495019047A9039632
:10CB8000029632A8FFF76CFA32005D4938000AF0CD
:10CB900046FF2300082004221C3309933900330088
:10CBA0000495019000920396099A029647A8FFF710
:10CBB00057FA3200534938000AF031FF5420FCF78D
:10CBC00073FD050020000123122104221830079074
:10CBD000049301910092390002003300280003966B
:10CBE0000296FFF73DFA2800474BA5620822EC6247
:10CBF0000AA930300A930B960DF00CFA434B04222D
:10CC0000AB63012329352B7009992661E6610798EA
:10CC10000DF000FA0422079908980DF0FBF966213F
:10CC2000032304AA8918CB77BA2104AA8918CB77E1
:10CC3000872104AA49008918A26ACB77911CA6858E
:10CC4000CB771DAB0C9332AB0D930F9247AB3200F9
:10CC50002F4910A80E930AF0E2FE3021452004ABC4
:10CC60005B181B7812313B7004AB5B181B881139C1
:10CC70007B8204ABC918C01810220DF0CBF9042236
:10CC80000CADA0683A75BD61BE830BF089FD0368E9
:10CC900039001B689847822204AB9B181B885432CA
:10CCA000238404AB9B181B885432A38404AB9B18C9
:10CCB0001B88A06863840BF073FD07001420FCF749
:10CCC000F3FC0500134B066108221093119610A97E
:10CCD00010C00DF09FF9104BEB60BB69B34206D159
:10CCE000BD612000FCF706FB20005DB0F0BD2B61AC
:10CCF000F6E7C04668A50200D7B40200B7B4020048
:10CD0000C7B40200E7B40200F17902005D790200C5
:10CD1000F7B4020085CD010087790200F0B5040068
:10CD20000E00150085B01F000CAB1B88103001935E
:10CD300009F04DFC268065801820FCF7B5FC02AE9A
:10CD4000050033000AAA03CA03C32F60280008277E
:10CD500000213A000C300DF079F93A003100281D1D
:10CD60000DF058F9064B02226B6120000023019957
:10CD7000A5600A43E360A2802362636205B0F0BD50
:10CD8000B1790200F0B50B898DB00593CB68060030
:10CD900004934B88828C9A420ED1049C049B059A82
:10CDA0009B181B1B032B3BDD62882188012308A8ED
:10CDB00009F017FC0434F1E7428C9A4230D1049C0C
:10CDC000049B059A9B181B1B032B29DD2388282015
:10CDD00006936388F7680793124B0893002309931F
:10CDE000FCF762FCC0236A460500029308AB03CB44
:10CDF00003C233000699079A2800FFF78FFF3B68AC
:10CE000029005B6838009847002807D0002D05D01E
:10CE1000280009F0E6FA2800FCF766FC0434CFE7A6
:10CE20000DB0F0BD6F7A020070B5040090B080685C
:10CE30000AF018FE022101401AD1A38D002B17D051
:10CE40000C4B6A4604931023E568A1850591029373
:10CE500004AB41CB41C20A00230006A8FFF75EFFE6
:10CE60002B6806A99B682800984706A809F0B9FA1C
:10CE700010B070BD6F7A0200002815D000604160CC
:10CE80008260C360046145618661C7614446046293
:10CE90004C464462544684625C46C4626446046301
:10CEA0006E46466374468463002A06D0C46B043C15
:10CEB000043A25681560B442F9D18C6BA6464E6BD6
:10CEC000B546002B06D0CC6B043C043B1D682560A6
:10CED000B442F9D10C6BA446CC6AA3468C6AA24634
:10CEE0004C6AA1460C6AA046CF698E694D690C69EF
:10CEF000CB688A6808684968704700604160826052
:10CF0000C360046145618661C761444604624C4662
:10CF10004462544684625C46C462644604636E465E
:10CF2000466374468463C46B043C043925680D6011
:10CF3000B442F9D1C76986694569046970470060E0
:10CF400041608260C360046145618661C761444697
:10CF500004624C464462544684625C46C462644641
:10CF600004636C4644637446846304697047846B4D
:10CF7000A646446BA546046BA446C46AA346846ACD
:10CF8000A246446AA146046AA046C7698669456903
:10CF90000469C368826800684168704710B5041E60
:10CFA0000CD00DF09BF8431EE3189C4208D2227867
:10CFB0001978013B21705A700134F6E7014810BD21
:10CFC0000020FCE717FCFFFFF0B585B002900C1EB7
:10CFD0002AD00023C217161A56400193019B300035
:10CFE0005D1C63190A215F1E039303F0C3FF4942CE
:10CFF0003031397030000A2103F0D6FE4742060076
:10D00000002F0FD1029B002B04DA2D23019D039AE0
:10D0100002351370002320006355FFF7BFFF38006F
:10D0200005B0F0BD0195D9E7004FF8E717FCFFFF09
:10D0300010B582604A4304004160002A0ADD074BB4
:10D0400090009A4201DD01204042FCF72DFB206058
:10D05000200010BD00230360FAE7C046FEFFFF1F5B
:10D060004A688B6870B58360534304000D004260CA
:10D07000002B12DD0A4A9E003000934201DD0120A0
:10D080004042FCF711FB002320602A68D158C150B0
:10D0900004339E42FAD1200070BD00230360FAE7FA
:10D0A000FEFFFF1F70B5002817D1114D2E68002E0E
:10D0B00011D108300CF041FE066046600D4E0400B0
:10D0C0003368002B02D10BF056FF306023682C60D0
:10D0D0009B00F3586360286870BD01220649074829
:10D0E0000B681340F8D1026043600A60F4E7C04661
:10D0F0002427002030270020202700202827002078
:10D10000002370B504000160436099420AD1064DC6
:10D110002B68002B02D10BF02EFF286023689B00A8
:10D12000EB586360200070BD30270020436810B5C5
:10D130000400002B02D104480CF013FD6068036862
:10D140001B69984710BDC04607B50200436810B57B
:10D150000400002B02D104480CF003FD6068036852
:10D160009B69984710BDC04607B50200436810B5DB
:10D170000400002B02D104480CF0F3FC6068036843
:10D180005B6A984710BDC04607B5020010B50400A1
:10D1900002F028FC034B1B68002B01D020009847AD
:10D1A00010BDC04638270020F0B58BB0050001F057
:10D1B00087FE002000F0ACFE036807001B6998475B
:10D1C0003B6804009B69380098473B6806005B6A2F
:10D1D000380098470300288810380B2862D803F0DD
:10D1E0004FFD063E6161615B616161676179AF8896
:10D1F000200039000BF086FC22006B7B5832019333
:10D200001378A8799C46022361460B43137004AB44
:10D210001F80012304AA9370D07013006A4612790C
:10D22000E91D9A722B000622163305A809930CF00B
:10D23000F1FE29000B2004AB06220E31C0180CF0C1
:10D24000E9FE94346368A360A06800282AD0C3680C
:10D2500004A99847A368002BF4D01B69F3E72000CA
:10D260002F49AF880BF04EFC220002205832137871
:10D27000A9798343137004AB1F809970A03463684D
:10D28000A360A06800280DD0C36804A99847A368CC
:10D29000002BF4D01B69F3E75B69A888A91D002B5C
:10D2A00000D09847290030000BF0BBFF0BB0F0BD59
:10D2B000636E002BF6D0AF79A366A06E0028F1D084
:10D2C000C36839009847A36E002B01D1636EF3E762
:10D2D0001B69F1E7012269460D27AB7BEF571A4026
:10D2E00001925A07920FDB080A720B730622E91D9E
:10D2F00004A80CF08FFE6A46127904ABDA716A4614
:10D30000127A9F711A726A46127B20005A722B00A1
:10D310000F3307938C348030236804A99847C1E702
:10D32000FFFF00000723D72802D9024B1860002313
:10D330001800704734270020014B18607047C04622
:10D34000382700201FB58022A323D205DB00D35845
:10D350000820DB0700D405301C4B48221C4902F092
:10D3600011FE00280AD080B2002807D1BFF34F8FEA
:10D37000184B194ADA60BFF34F8FFEE7002302A86B
:10D38000029301330370154B1B6843600BF014FAD2
:10D39000002802D0072005B000BD68460BF00AFA4D
:10D3A0000028F7D169460BF003FA0028F2D10C48A7
:10D3B00002F018FE80B20028EDD10A4802F01CFEEF
:10D3C00080B20028E7D100F01FF8E4E7BD87020033
:10D3D0003C27002000ED00E00400FA05342700207F
:10D3E000A9D101008DD1010080B2002807D1BFF37F
:10D3F0004F8F034B034ADA60BFF34F8FFEE770474E
:10D4000000ED00E00400FA051FB5002302ACA38084
:10D41000104B01A80293C8235B00E380803BFF3BD5
:10D42000037005220C490BF0D5F980B200280FD10A
:10D43000802080000BF0CAF980B2002808D12000BB
:10D440000BF0C6F980B2002802D10BF0BDF980B212
:10D4500004B010BD280090012AB50200024B0B60F9
:10D46000092313607047C04630B5020010B50400B0
:10D47000002000F04DFD03681B6998470300F3335B
:10D480001C7086235B00C05003000021044AFC335B
:10D490005A61044A99615A62F4300CF0DEF910BD09
:10D4A000C1890200D3890200012110B5044A080095
:10D4B00002F0A6FC0023984200D00B33180010BDE8
:10D4C0006DD40100F8B505000400AC356B68AB60A5
:10D4D000A868002807D0C36821009847AB68002BD4
:10D4E000F4D01B69F3E72600B0363568002D05D06F
:10D4F0002F6928000CF01DFC3D00F7E72200FC21FD
:10D5000035605832137826000B40137023000A361A
:10D510005C331D701F22290030000CF097FDF57759
:10D520002A361F22290030000CF090FDF577606E3E
:10D53000002804D005690CF0FCFB2800F8E7250062
:10D54000983560662868002804D006690CF0F1FB65
:10D550003000F8E72600A43628603568002D05D095
:10D560002F6928000CF0E5FB3D00F7E7200035604F
:10D5700029000C226C300CF069FD2000074BE56798
:10D58000A36729000C2280300CF060FD2300044AC0
:10D590008C33903428001A602560F8BDB3890200EE
:10D5A000A5890200F0B593B0019000200C0000F0B6
:10D5B000AFFC03685B6A984700F082F906AB00286D
:10D5C0000ED000221A7105AA0692082218001A73BA
:10D5D0000AAA9A6000F042FA002803D013B0F0BD06
:10D5E00018711873002727732771019BBA331B78B2
:10D5F000BB4242D907237B431A000199BB32CB18A7
:10D60000BB331B788A180292022B2ED1002506AE5E
:10D61000337BAB4223D9AB000393089BAA009958F4
:10D6200002980BF079FA00281CD0B3689C46AB0036
:10D630001900237B614402939A000868A368D050C4
:10D64000029B01332373337B5A1E954205D00C484D
:10D650001B1860469B001B580B6006AB1A73013702
:10D66000FFB2C2E70135EDB2D1E723792168029814
:10D670009A00013350502371F1E70020AEE7C04615
:10D68000FFFFFF3FF0B50A7804009BB00D000220B9
:10D69000012A08D04B88032A07D1A03B21499BB21D
:10D6A00010008B4207D91BB0F0BD203B1E4A9BB235
:10D6B00003209342F7D81D4BAA8803209A42F2D840
:10D6C0000AAB009312AB02936A4600232600137143
:10D6D0001373B8363378002B1DD104AF1822002104
:10D6E00038000CF0B3FC2B7838003B7033783B7279
:10D6F0006B46FB606B883B82AB887B820BF076F8D5
:10D7000002000320002ACED10123583421781000D2
:10D710000B432370C7E769462000FFF743FF00284B
:10D72000DBD0C0E7603F0000E03F0000FF3F0000AB
:10D73000F0B59DB01E006B4604001A70581C0622FE
:10D74000229D0CF067FC002E2ED0328802AB1A808E
:10D7500072885A80B2889A80F288DA800CAB04AE64
:10D76000049314ABB36027000023B93733713373CC
:10D770003B78002B1ED101223B78022708A91340D9
:10D7800058000B784E60BB430343002D1AD1200094
:10D79000323000789343104003430B70A38D0B810C
:10D7A000E38D4B81238E17E01A4B029396239B0443
:10D7B0000393D3E731002000FFF7F4FE0028DAD00E
:10D7C0001DB0F0BDA8799343104003430B702B8824
:10D7D0000B816B884B81AB8802AA68468B810BF06A
:10D7E0001BF8030000208342EAD00630082BE7D064
:10D7F00006D80130042BE3D0834209D10420DFE7AF
:10D800000520112BDCD0044A9342F7D0102BF5D021
:10D810000B20D5E7320064000232000070B5002012
:10D820000D0000F075FB03685B6A98472B780400D5
:10D83000142B1ED003D8132B0CD0002070BD152B39
:10D840001FD0222BF9D16B6818882369002BF4D0E4
:10D850009847F2E76B68012518889B78646819007F
:10D860005A08DB0629402A405B0F002CE5D0A04770
:10D87000E3E76B6818889978A368002BDDD0984798
:10D88000DBE76868827813091207120F012A03D0B8
:10D89000022A0BD0002106E0013BDBB20021022B63
:10D8A00001D8064AD15C0088E368E6E70421012B31
:10D8B000F9D00131022BF6D0ECE7C04639B50200B1
:10D8C000014B18787047C046FB290020F0B51D00B9
:10D8D0000023304F87B000923A7806000C009A423D
:10D8E00004D102F0B3F8002803D00B23180007B0CE
:10D8F000F0BD002D0ED003A9222003950BF00AF9EC
:10D90000002807D006230828F0D0113843424341AD
:10D910000433EBE7002302AA1000137001F08AF829
:10D920000028E2D101251C4902220B782E40AB438E
:10D930003343072693430193009B2C40334093408D
:10D94000AC409C46019B02AA1C431C239C4363469B
:10D950001C430E239B181880104B0C70039302235A
:10D9600003AC2371093002AB0522C0180CF052FB46
:10D9700021000B4801F0C8F8002807D03300042824
:10D98000B4D0013B0828B1D00533AFE73D700300A8
:10D99000ACE7C046FB290020F12100201DD8010082
:10D9A000FC29002010B5074801F086F900239842B1
:10D9B00006D00733042803D0013B082800D00533E4
:10D9C000180010BDFC290020002373B501930F4BF4
:10D9D00001AD1B780E0029002B7001F031FC041EF4
:10D9E00005D00423052800D00733180076BD310088
:10D9F000280001F0C3F823000028F6D007230428EC
:10DA0000F3D0013B0828F0D00533EEE7FC290020D5
:10DA100073B5114C0E0005000522210068460CF07C
:10DA2000F9FA012E03D0022E10D002230CE00222BC
:10DA30002378B34393436946280023700BF068F8BA
:10DA40000023984200D00B33180076BD01232278C2
:10DA50001343B343EFE7C046F1210020094B10B553
:10DA60001A7801000923002A09D0074801F0BEF8FE
:10DA70000023984203D003330E2800D0033318004C
:10DA800010BDC046FB290020FC290020004870473B
:10DA9000FFFF0000F0B597B00593036807AD1B6862
:10DAA0000491039311002B00060091C991C3002437
:10DAB000D36821000C220CA8EB602C610CF0C6FA94
:10DAC00022000B4B10940F9311AB1C7019190134E9
:10DAD0004A70102CFAD15A820193059B2A000093B8
