:020000021000EC
:1080000000400020250F0200610F0200630F0200F4
:108010000000000000000000000000000000000060
:10802000000000000000000000000000650F0200DA
:108030000000000000000000670F0200690F02004E
:108040006B0F020089BA0100310C02006B0F0200B5
:108050006B0F020000000000250D02006B0F0200F4
:108060006B0F020099070200950C02006B0F0200D3
:108070006B0F02006B0F02006B0F02006B0F020010
:108080006B0F02006B0F02006B0F02006B0F020000
:108090006B0F0200F1010200CD0102006B0F020024
:1080A0006B0F02006B0F02000000000000000000D8
:1080B00000000000000000000000000000000000C0
:1080C00010B5064C2378002B07D1054B002B02D0AE
:1080D000044800E000BF0123237010BD20220020CF
:1080E0000000000040BC0200044B10B5002B03D080
:1080F0000349044800E000BF10BDC0460000000076
:108100002422002040BC0200164B002B00D1144B4F
:108110009D46402292029A1A924600218B460F46B3
:108120001348144A121A12F02EFA0F4B002B00D0EB
:1081300098470E4B002B00D09847002000210400E8
:108140000D000D48002802D00C4800E000BF0DF0E3
:108150005BFA2000290011F0E1FD0DF03FFAC04666
:1081600000000800004000200000000000000000A7
:1081700018220020042B0020000000000000000056
:1081800010B50400034B036040300EF080FB20006C
:1081900010BDC04688A80200F0B58FB0614908A89C
:1081A00003F0BCFD08A906A801F080FD08A80EF0A8
:1081B000F4FC5D4908A801F069FD08A906A80EF0C5
:1081C000DFFB040008A80EF062FB002C19D1574D0C
:1081D000574E2B783478002B18D0002C00D074E048
:1081E000544908A801F052FD08A906A80EF0C8FBE2
:1081F000070008A80EF04BFB002F02D001232C70C3
:10820000337006A80EF043FB0FB0F0BD002C5CD11C
:108210000EF03FF8C825060027006D00464908A863
:1082200001F034FD454C2A0008A9200003F036F87F
:1082300008A80EF02CFB42480EF041FE002820D08A
:1082400040480EF03CFE00281BD020000FF054F8F0
:10825000069B3D4C181D21000DF06CFB12F057F9E8
:108260003A4B2100186000200DF064FB12F04FF92A
:108270000122374B1860374B1A700022364B1A70A8
:10828000BFE70EF006F8002300900193009A019BCF
:10829000921BBB411100002B02D1304B9942BDD93A
:1082A0002F4908A801F0F2FCC82208A952002000BA
:1082B00003F054F808A80EF0EAFAAF20800001F0AD
:1082C00097FA20000FF018F8D7E7069B1C1D0AABA1
:1082D0000893002C22D0200012F09DF92518079059
:1082E0000F2807D9002207A908A808F095FE079BC8
:1082F00008900A932A002100089812F032F8002210
:10830000079B089909931748CA5408A912F09AF8CC
:1083100008A812F00FF8144B0122B0E7134811F02F
:10832000F4FFC04698260020D4B402002E2A002074
:10833000312A00200EB5020016B50200A02300204D
:108340005C2200208422002018B50200B022002008
:10835000AC2200202F2A0020322A00201027000003
:1083600009BB020044220020302A00201AB5020076
:10837000F0B585B01F000AAB1B88060002911500FE
:108380000393002F1CD0282001F074FB6B460400DF
:108390001989039BAAB200933B000EF017FA3368C9
:1083A00021005B683000984700280AD0002C05D0D7
:1083B00020000EF022FA200001F07CFB024800E0D1
:1083C000024805B0F0BDC04616FCFFFF17FCFFFFDA
:1083D00030B51500040087B001A80EF075FA290029
:1083E00002A80EF071FA124903A801F04FFC03AA8B
:1083F00001A904A80EF0D4FA02AA04A905A80EF057
:10840000CFFA03AA05A920000EF0CAFA05A80EF0BB
:108410003EFA04A80EF03BFA03A80EF038FA02A8C0
:108420000EF035FA01A80EF032FA200007B030BD88
:1084300018B50200F0B59DB002AFEF4800F030FE75
:10844000EE4803F067FB1C2001F014FBF86100F01C
:10845000CBFB30221023BA18D3184022BB63002371
:108460000124BA181370E64AFB631370E54A1370CF
:10847000E54A1370E54A1370E54A13701023E54E80
:10848000E54D0093220033001D212800FFF770FF07
:10849000E2480EF014FD002801D0DA4B1C701023C6
:1084A000220000931D2133002800FFF761FF6420A4
:1084B00001F09EF9D54BD34E1D78002D00D1C5E1BA
:1084C00030232025FB18D649581901F0DFFB302353
:1084D000FB185919D3480FF0EAF93023FB18581943
:1084E0000EF0D5F9C64B1C7000233370C44D2B78A9
:1084F000BB61002BC2D0CC4BC04C19682000C9B264
:1085000003F0F4FAC94B2000196803F061FA012363
:1085100000262B70BB4B20241E70BB4BC4491E7021
:10852000BA4B1E70BA4B1E703023FB18181901F09D
:10853000ADFB3023FB1878221919BE4802F09EFFCC
:108540003023FB1818190EF0A2F93023FB18181964
:10855000B94901F09BFB3023FB181919B1480FF002
:10856000A6F93023FB1818190EF091F90024002306
:10857000BB62FC62322001F03BF90DF08AFE002361
:108580001D0038627B62AD480EF099FC041E00D0DD
:10859000E7E10DF07EFE002D4BD038607C603A683C
:1085A0007B68386A796A65246442E517121A8B4140
:1085B000A4185D413C617D61BA60FB607B69002B62
:1085C00000D0D0E195213B6949008B4200D9CAE136
:1085D00030232025FB189A4958190EF03EFA302115
:1085E0007B69944C01937B69791800937B694919E5
:1085F0001A00200002F088FE3023FB1858190EF0F4
:108600001FFA2E2130220823BA18D01811F03FFF8C
:10861000AF20800001F0ECF820000EF06DFE0DF0B0
:1086200038FE0023B862FB620DF033FEFB6A38624D
:108630007B62B86AF96A3A6A7B6A121A8B41110046
:10864000002B04D1FA23DB00994200D87FE0BB6AFB
:10865000FA6A13437BD0302208232025BA18D11898
:10866000501911F040FF3023FB185919F8690DF02B
:10867000A5FE3023FB180400581911F05BFE3F2CB7
:1086800000D1BBE12100F8690DF067FE3023202600
:10869000FB180200F969981900F086FA302330229D
:1086A000FB1899190823BA18D01811F0CBFE302303
:1086B0006D46FB18981911F03DFEFB6BB96B083342
:1086C000DB08DB00EB1A9D4602AC200011F09BFF9B
:1086D00034232100F81801F0D9FA3023FB182100C7
:1086E000981901F0D3FA3023FB1899194D480FF06F
:1086F000DEF83023FB1898190EF0C9F83023FB1868
:108700009819504901F0C2FA3023C822494CFB188D
:1087100099195200200002F0C1FD3023FB1898196E
:108720000EF0B5F8AF20800001F062F820000EF0E6
:10873000E3FD3423F8180EF0AAF8AD46BE69002315
:10874000BA6BFB63002413700023BB62FC6232200F
:1087500001F04EF81023012200931D212D4B2E48CD
:10876000FFF706FE322001F043F8294B1B78002B5F
:1087700000D1FFE6002E00D0F1E030232025FB18C9
:108780003149581911F0AFFE3023FB185919F86917
:108790000DF014FE3023FB180400581911F0CAFD27
:1087A0003F2C04D02100F8690DF0AEFD0400302309
:1087B0002025FB18210058190EF093F83023C82209
:1087C0001C4CFB1852005919200002F067FD3023A1
:1087D000FB1858190EF05BF8AF20800001F008F884
:1087E00020000EF089FD0023174A536012681370B1
:1087F000074A1370BEE6C046B4220020802600203F
:10880000312A0020322A00202E2A00202F2A002080
:10881000302A002099810100842300208422002036
:108820000EB5020098260020B0220020AC220020C5
:108830004CB50200A0230020D4B402005C2200202A
:108840004022002053B50200442200203378002B40
:1088500000D14BE630232026FB189819764901F009
:1088600015FA3023FB1878229919744802F006FE95
:108870003023FB1898190EF00AF8FF2128000DF09C
:108880000CFD6F4E3060642000F0B2FF64212800C0
:108890000DF003FD6B4B0200186034233168F818AB
:1088A000FFF796FD34232026F918043BFB1898198E
:1088B0000EF04FF83023FB18991963480EF0F7FFBC
:1088C0003023FB1898190DF0E2FF642000F090FFB0
:1088D0000DF0DFFC5D4BB862FD621C7010232200BE
:1088E00000931D215A4B5B48FFF742FD322000F0F8
:1088F0007FFF594B1D78002D09D00023534A137078
:10890000564A13703423F8180DF0C1FFEEE50DF050
:10891000C0FC7D6138613A697B69B86AF96A121AEC
:108920008B411100002B02D14D4B9942D6D93023F7
:108930002025FB184B49581901F0A8F93023FB18E2
:10894000782259193D4802F099FD3023FB18581937
:108950000DF09DFF0023414A13703C4AD1E70026E9
:1089600008E6BD690FE60125BA68FB683E4C6D421A
:1089700012196B413A617B617B69002B1FD1C721C2
:108980003B6949008B421AD830232025FB18374910
:1089900058190EF062F830217B69284C01937B69ED
:1089A000791800937B6949191A00200002F0ACFC89
:1089B0003023FB1858190EF043F82D2122E6FB68EE
:1089C000002B05D1C823BA689B009A4200D826E63E
:1089D00030232025FB185819254901F057F9302379
:1089E000C822164CFB1859195200200002F056FC00
:1089F0003023FB1858190DF04AFF09E630232025D3
:108A0000FB1858191B4901F041F93023C8220B4CBF
:108A1000FB1859195200200002F040FC3023FB18CB
:108A200058190DF034FFAF20800000F0E1FE200067
:108A30000EF062FC83E6C04644B50200A02300208D
:108A4000B0220020AC220020982600202E2A0020F0
:108A50009981010084230020312A0020322A00203D
:108A60001027000009BB02006FFEFFFF3C22002020
:108A7000DDB8020055B50200F7B523480025030014
:108A8000224C08330360220045600572204911F032
:108A90005FFB204E300000F043FA22001E493000F8
:108AA00011F056FB1D4E1E49300001F0FBF91D4F21
:108AB00022003900300011F04BFB1B4E1B493000E7
:108AC00001F0F0F922003900300011F041FB0123E0
:108AD000174E1A0000951121300001F08BFD154F43
:108AE00022003900300011F033FB134E00950123B2
:108AF000300002221A2101F07DFD390030002200F1
:108B000011F026FBF7BDC0464422002000200020C3
:108B100039A40200B42200203D8B01004022002035
:108B2000A0B40200416A02003C220020D5B4020039
:108B30005C220020DDA5010084220020EB23194ADD
:108B40009B0010B5C2501C330400C0180DF09FFEEE
:108B5000F1239B00E0180DF09AFE84239B00E0189F
:108B600001F076FD2000C530FF3001F095FA2000BD
:108B70008D30FF3001F032FD20006530FF3001F014
:108B80002DFD2000EC3002F005FA2000D03002F07C
:108B9000DBFD2000643007F05DFC201DFFF7F0FADC
:108BA000200010BD8CAA020070B50C000D49050014
:108BB00016000DF080FBE368A361A169231D9942B3
:108BC00008D00B0028331B78B34205D110312800A0
:108BD00011F0CCFB280070BD200018300DF08CFB8C
:108BE000EBE7C04655B5020070B5A84CA849A544AE
:108BF000040068460DF05FFB41236A46A5491376E1
:108C000007A80DF058FB42220DAB1A70A2490EA81E
:108C10000DF051FB432214AB1A70A04915A80DF0BA
:108C20004AFB44221BAB1A709D491CA80DF043FB64
:108C3000452222AB1A709B4923A80DF03CFB46222B
:108C400029AB1A7098492AA80DF035FB472230ABA2
:108C50001A70964931A80DF02EFB482237AB1A70D6
:108C6000934938A80DF027FB49223EAB1A70914971
:108C70003FA80DF020FBFF234A226B445A758E4912
:108C800046A80DF018FB98234B2269465B00CA5496
:108C90004DA88A490DF00FFBA6234C2269465B00C4
:108CA000CA5454A886490DF006FBB4234D226946E8
:108CB0005B00CA545BA883490DF0FDFAC2234E2223
:108CC00069465B00CA5462A87F490DF0F4FAD023CC
:108CD0004F2269465B00CA5469A87C490DF0EBFA43
:108CE000DE23502269465B00CA5470A878490DF013
:108CF000E2FAEC23512269465B00CA5477A8754911
:108D00000DF0D9FAFA23522269465B00CA547EA8B4
:108D100071490DF0D0FA8423532269469B00CA544E
:108D200085A86E490DF0C7FA8B23542269469B0033
:108D3000CA548CA86A490DF0BEFA9223552269469E
:108D40009B00CA5493A867490DF0B5FA992356229F
:108D500069469B00CA549AA863490DF0ACFAA02357
:108D6000572269469B00CA54A1A860490DF0A3FA96
:108D7000A723582269469B00CA54A8A85C490DF055
:108D80009AFAAE23592269469B00CA54AFA85949A2
:108D90000DF091FAB5235A2269469B00CA54B6A831
:108DA00055490DF088FABC23312269469B00CA540C
:108DB000BDA852490DF07FFAC323322269469B00B9
:108DC000CA54C4A84E490DF076FACA233322694624
:108DD0009B00CA54CBA84B490DF06DFAD123342225
:108DE00069469B00CA54D2A847490DF064FAD823BB
:108DF000362269469B00CA54D9A844490DF05BFA53
:108E0000DF23352269469B00CA54E0A840490DF093
:108E100052FAE623372269469B00CA54E7A83D4927
:108E20000DF049FAED23382269469B00CA54EEA89A
:108E300039490DF040FAF423392269469B00CA549F
:108E4000F5A836490DF037FAFB23302269469B001E
:108E5000CA540023221D1C26E26022612371A360F4
:108E60006361FCAA20000DF000FB7642F5AD6E4474
:108E700028001C3D11F05EFAB542F9D10023200014
:108E8000A361FC239B009D4470BDC04610FCFFFF06
:108E90006DB502009FB5020057B50200A6B50200ED
:108EA000AEB502005CB50200ACB5020093B502009D
:108EB000A7B5020081B502006CB5020061B50200E1
:108EC000B3B50200ADB50200B2B5020066B502004E
:108ED0006BB5020058B50200A0B50200B4B502009F
:108EE00071B502008DB5020076B5020070B50200C2
:108EF00075B50200A5B502007AB5020080B5020082
:108F000086B502008CB5020092B5020098B5020049
:108F10009EB50200A4B50200AAB50200B0B50200D9
:108F20001423F0B5040095B00093192218210430E1
:108F300002F03AFF220027006432B43713211000F8
:108F4000119207F093FA38000EF02CFD2200B8328F
:108F500010921E21002210980EF0D3F92000D0307C
:108F600002F012FC2200EC3212920621494A1298B9
:108F700002F034F820000026012365301A00009624
:108F80001121FF3001F036FB20008D3000960123C7
:108F900002221A21FF3001F02DFB25002000C535EB
:108FA000B530FF351A2302220121FF3002F0AAFC5E
:108FB000109904233A22280001F01EF9842292001D
:108FC000A218139205231D22019300923B002A0050
:108FD0001099139801F032FD96229200129BA0186E
:108FE00013992A0001F004FF99229200A018390079
:108FF0001C2203F005F819239F220F93013B0E93C7
:10900000013B0D93013B0C93013B0B93013B0A93F6
:10901000013B0993013B0893013B0793013B0693F6
:10902000013B0593013B0493013B0393013B0293F6
:10903000013B01939200013BA01800930822013BE1
:1090400007210EF066F9EB239B00E018390003F0CE
:1090500077FBF3239B00E0181D2102F099FCFD2310
:109060009B00E65011982670032110F087FD230025
:109070002200200008499C33A0321C601160566019
:10908000064A80305A610221012207F0FDFE2000CD
:1090900015B0F0BD90A8020017650200016502003E
:1090A0000123F0B506788DB004001E4000D0A4E086
:1090B000FD20800500F0A6FC2300D03318000293A9
:1090C00000F07AFA00F0A0F9282000F0D3FC0500A7
:1090D00010300DF088FC4A4B18202B6000F0CAFCC1
:1090E0000700484B0460082231000C300A930B96AD
:1090F00011F049FA0AA9381D082211F028FA424B4A
:1091000029007B611223AF60EE60AB802E626E623D
:10911000029802F0B1FA002805D028000DF06DFB8E
:10912000280000F0C7FC0123227864201343237039
:1091300000F05EFB002527006537FF3738000DF093
:10914000BEFE002855D020008D30FF300DF0B7FE58
:1091500000284ED00A2D4CD06420013500F048FB89
:109160000A2DE8D129492A4800F022FCEB23FD26EC
:109170009B00E318B6000393A359002B32D100F0F3
:1091800057F8010006A800F081FD0DF048FA0490A0
:109190000DF045FA6B460590198A08A80DF094FB6E
:1091A000059B09A8190C0DF08FFB09AA08A907A8AF
:1091B0000DF0F6FB09A80DF06AFB08A80DF067FB9F
:1091C000012307AA06A900930398029B03F00CFB56
:1091D00007A80DF05CFB06A80DF059FBED239B00E2
:1091E000E358A35121003A00EC31039803F0A2FCAC
:1091F000A1E70649074800F0DBFB0DB0F0BDC04613
:10920000FD0300008965020049650200002000207E
:10921000001C002008000020BFF34F8F024B034AC0
:10922000DA60BFF34F8FFEE700ED00E00400FA05BF
:10923000F0B58DB005AF19221549380011F087F946
:109240000022144B05245A7180225205566E0122C9
:1092500025000194029203930199300007F0B2FFB8
:109260000800029907F028FF019B03996B430193C3
:10927000029B361A6B430293631E2C1B6C433C19F2
:10928000225C1C1ECA54E7D108000DB0F0BDC046D8
:10929000ECB50200332A0020F0B597B01822002167
:1092A000060010A811F06FF9132110A810F0A5FD09
:1092B000032110A810F070FE4C4B1B68002B00D14E
:1092C0000133DBB202934A4A012300210BA807F0C5
:1092D00015FD484B9E4200D9002672B6464B6421CC
:1092E0001D68464B30000793052407F06FFF60436D
:1092F0005030281808900A21300007F067FF0A2133
:1093000008F04AF8614350316918099130000A2188
:1093100008F042F8802361430024503169189B0112
:109320000A910193029B002B5DD0002500272E1F80
:1093300007AB9B190593032C03D1802300249B01C9
:10934000019307AB5B592E4A03936300D318049330
:109350000023190006205843049A16187678B4465C
:109360006246039EB25C10269446049A105C6246E4
:109370000641164202D00120984001430133092BD7
:10938000E8D1C9431F4B059A090119401268039B94
:10939000934225D1312F23DC00210BA810F0CEFE03
:1093A000FA23159A1199DB00106801421BD0013B8A
:1093B000002BF9D1019B01345B000193FA230137A3
:1093C000E4B25B009F42B6D10435102DAED1074BFD
:1093D0001B68002BA6D0029F013FFBB20293A1E7BE
:1093E000019B1943D9E7FFF717FFC046B0260020BD
:1093F000F0FF0000E7030000042000203BB602005D
:1094000005B60200F01F0000F8B50023124C2360DF
:109410000DF0F7F8002808D0042120000DF0EDF839
:10942000002801D00D4B2360F8BD0122A12704259F
:109430000B4B0C491A602268FF0048604E68002EF2
:10944000FCD0DE591202013D3243002DF5D12260DD
:1094500001225A60E8E7C046AC260020ED5EBC0B56
:1094600000D00040FCD000400B4B70B51C68002CB5
:1094700010D0656D00F0C6FBA36C002901D18342BA
:1094800006D820000DF0F0F8044920000DF0DAF8BD
:109490002C00ECE770BDC046B8260020D82600207E
:1094A000F0B593B007932A4B04AC1E680490059165
:1094B0000692002E4AD0274B258867881C68002317
:1094C0000293002C2ED0636D23480393A36C9AB2B1
:1094D000A36C1B0C99B2854214D12048824211D151
:1094E000002B01D0B9420BD1029B002B08D12000E8
:1094F0000DF0BAF81A4920000DF0A4F801230293E8
:10950000039CDEE7002A01D09542F9D1002B01D05F
:10951000B942F5D120000DF0A7F8114920000DF057
:1095200091F8EDE70F4BEB18012B0FD910233A0000
:10953000009329000C4B08A80DF048F9336808A9DE
:109540009B683000984708A80DF057F913B0F0BD9C
:10955000B4260020E4260020FE030000FF030000E4
:10956000D826002002FCFFFFA194010010B572B6BE
:109570000B4B1C68002C08D020000DF075F8002360
:10958000E364084B2000E36310BD62B65C2000F08A
:1095900071FA5C220021040010F0F5FFEFE7C046ED
:1095A000DC26002000400020024B187801231840E0
:1095B0007047C046392A0020F7B50600FFF7F4FFD0
:1095C000051E33D11A4C2660FFF7D0FF194B1A49FC
:1095D00018600DF037F8FFF7C9FF184B1860184BEB
:1095E0004363184B8363206800280ED0C027164EB3
:1095F0002A00330015490097FEF7BAFE00973300A2
:109600002A0013492068FEF7B3FE0C2000F032FA5E
:109610000023838083710F4B03600F4B836000F046
:1096200009FB01230D4A11780B431370F7BDC046A7
:10963000B4260020E8260020D8260020E0260020BE
:10964000FC3F00202F670200A1940100FF030000EF
:10965000FE030000B0A8020069940100392A00202E
:10966000F7B506000D0017000193002802D1002471
:109670002000FEBD0029FAD0FFF778FF041EF6D0C7
:10968000074B019A4363066045608760054B002ADB
:1096900000D0054BA363054920000CF0D3FFE7E79A
:1096A000FC3F0020F966020017670200D826002060
:1096B000024B1868434258417047C046D8260020E4
:1096C000002310B504499C006258002A01D00133E0
:1096D000F9E76050100010BDC0260020002310B52F
:1096E000044A99008C58844201D00133F9E70020E4
:1096F000885010BDC026002010B50024084BA200E1
:10970000D058002802D003685B6898470134062CC3
:10971000F4D1044B1B68002B00D120BF10BDC04604
:10972000C0260020D8260020F8B5FFF73DFF00280E
:109730001BD0294D2C68E36CDA0717D5022633437A
:10974000E3640423254F3868C26C1343C364636B1E
:10975000C3630CF0AFFF3868416C03F0E8FD286884
:10976000C36C334201D003F01CFEF8BD1C4F1D4EEC
:109770003A683168002A1ED129602A688A4208D1D5
:109780001B0706D52C60FFF7B7FF3B68002BFAD00C
:109790002B6029688C42E8D03368994214D1124B6F
:1097A0004B63124B8B6320000CF084FF2968626CC2
:1097B0004B6C20000DE0206DB84203D1606D002895
:1097C00000D002002A60D8E79C42ECD100221000B1
:1097D0004B6C03F06BFDC8E7E8260020BC26002098
:1097E000D8260020E0260020FC3F00202F67020042
:1097F00070B50500FFF7D8FE002803D1280010F04F
:10980000BFFB70BD0C4B1C68E36CDB0706D5FFF794
:10981000ADFE0A4B1860002800D0040000F0F2F9F9
:109820002D18A56420000CF01FFF054920000CF046
:1098300009FFFFF779FFE4E7E8260020BC260020B7
:10984000B8260020F0B51E4B1E4F1C683B6885B043
:1098500006000391002B30D0FFF7A6FE00282CD085
:10986000E36CDB070ED5FFF781FE174B051E186072
:1098700008D00CF0F9FE154928000CF0E3FE2C008E
:10988000FFF752FF039B20001B043343A3640CF03B
:10989000EBFE20000E490CF0D5FE0E4B0024F31811
:1098A000012B07D9C0230093039A0B4B3100386872
:1098B000FEF75EFD200005B0F0BD084CFAE7C0469B
:1098C000E8260020B4260020BC260020D826002050
:1098D000E426002002FCFFFFA194010016FCFFFF1C
:1098E00010B5FFF761FE002809D0054C20680CF088
:1098F000BBFE044920680CF0A5FEFFF715FF10BD64
:10990000E8260020DC260020F7B507000D0000281F
:109910002ED0FFF749FE00282CD00724164E3068C1
:10992000C36C1C4007D0154A290038000CF0B3FE68
:1099300000242000FEBD03F01CFD02213268D36C20
:109940001940019103D003218B43D364F1E7012433
:109950002343D3642800B8473268D36C1900A1436D
:10996000D164019C5B07E4D528000CF0CCFEE0E755
:10997000034CDEE7034CDCE7E82600200767020023
:1099800017FCFFFF16FCFFFF020010B5014B12CBC6
:1099900012C210BDEC260020034B1A68034B1A605C
:1099A0007E225A607047C04604200020EC2600202A
:1099B00070B5104D2B78022B18D0814218D90B1A94
:1099C000072B15D90C00032304431C4010D172B699
:1099D0002A78094BD200D050981841600CF0ADFEA7
:1099E0002B7801332B7062B6200070BD0348FCE772
:1099F0000348FAE73A2A0020F426002013FCFFFF70
:109A000017FCFFFF70B50021041C07F0E7FC0028DD
:109A100028D1FE21201C890507F0EAFC002821D16D
:109A200004300BF015FE05000F48401B08F0C0FC89
:109A3000211C08F05DF907F00FFD03239843040093
:109A400028000BF00FFE20000BF002FE002804D1CE
:109A5000203C002CF7D1054803E00119FFF7A8FFCF
:109A6000002070BD0248FCE70038002013FCFFFF17
:109A700017FCFFFF70B5060000250C4B1B78AB42AE
:109A800009DD0B49EB00C91830000CF05EFE041E26
:109A900009D10135F1E730000BF0DAFD041E02D1E7
:109AA0001420FFF7F9FB200070BDC0463A2A0020C1
:109AB000F426002070B5002813D00D4B0D491C78FA
:109AC00000239C4210DDDA00555885420AD28A18DC
:109AD0005268824206D98023043802681B06134369
:109AE000036070BD0133ECE70BF0BCFDF9E7C04645
:109AF0003A2A0020F426002070B5051E14DD0B4E16
:109B00000B4C3368002B02D0206810F0B4F8FA2117
:109B100020680024074B89008361C4626943356073
:109B200010F0B1F8200070BD0348FCE704270020C6
:109B300034270020E19B010017FCFFFFF8B5114F0F
:109B400006003D68002D0AD13020FFF793FF040086
:109B500006F0B0FC0C4BA5612360E5623C600B4D48
:109B60002B68002B09D11020FFF784FF040010F0B0
:109B70004BF820002C6010F021F83000FFF7BCFFFC
:109B8000F8BDC0463427002028AE02003027002050
:109B9000014B18687047C0460427002070B50D4C73
:109BA0002368002B03D00C4B1B68002B02D106202E
:109BB000FFF7C4FF206810F018F802000749C31728
:109BC0000D684E685219734120680A604B6010F0AE
:109BD00012F870BD30270020342700201822002002
:109BE00010B5FFF7DBFF0024054BA200D05800287A
:109BF00002D003681B68984701340A2CF4D110BDC9
:109C00000827002010B5FFF7C9FFFA22034B920086
:109C100018685968002307F0FFFB10BD18220020C8
:109C200010B5FFF7BBFF024B1868596810BDC0465E
:109C3000182200200B4B10B51B680400002B03D02A
:109C4000094B1B68002B02D10620FFF777FF00238A
:109C5000064A99008858002801D00133F9E78C5052
:109C600010BDC046302700203427002008270020E0
:109C7000002310B5044A99008C58844201D0013366
:109C8000F9E70020885010BD0827002010B5040017
:109C9000002902D00B78002B03D1034B2360200056
:109CA00010BD0CF0FBFDFAE7C0A80200F8B50400F7
:109CB00008000D000CF0ADFF002803D1134B23600A
:109CC0002000F8BD28000CF0A4FF0530FFF7D2FEFD
:109CD00020600CF0A1FF28000CF09BFF2368588047
:109CE000236828001E1D0CF091FF070028000CF0CF
:109CF00090FF39000200300010F029FC280026688F
:109D00000CF087FF002336183371D9E7C0A8020092
:109D1000F8B504000E00150000290AD00B78002BBE
:109D200007D0002A05D0080097B210F074FC8742D3
:109D300003D90B4B23602000F8BD681DFFF79AFE86
:109D400020600CF069FF23682A005F8023683100DF
:109D5000181D10F0FCFB23685D1900232B71EAE746
:109D6000C0A80200014B03607047C046C0A80200B3
:109D700010B50548054C20600CF051FF044A054918
:109D8000200010F0E5F910BDC0A80200382700201F
:109D9000002000208F680200084B73B51C68050086
:109DA000002C0AD00100266808310822684610F00D
:109DB000CEFB0CCD31682000884773BD3C270020C6
:109DC000014B03607047C046C8A8020030B5006868
:109DD0004488A1420CDA8588AA4209DA002907DB07
:109DE000002A05DB5443401800198371002030BD60
:109DF0000048FCE717FCFFFFF0B5070085B00E0038
:109E00001D0000291FDD002B1DD00468638803930B
:109E10008B4200DD0391A3880293934200DD0292FE
:109E2000002306340193019B029A93420EDA290023
:109E30002000039A10F08BFB3B68AD195B88E41897
:109E4000019B0133EEE7024805B0F0BD0020FBE7BF
:109E500017FCFFFFF8B504000D0016001F000029D5
:109E600001DB002A02DA0E4B2360F8BD10004843E4
:109E70000630FFF7FFFD20600CF0CEFE23685D800A
:109E800023689E80002F06D03B003200290020006E
:109E9000FFF7B2FFE9E720000CF0E7FDE5E7C04679
:109EA000C8A80200F0B5060087B00D1E04D1244BEF
:109EB0000360300007B0F0BD00200F000400010077
:109EC00001903B78002B1AD03022524294469C4499
:109ED0006246092A11D90A2B0AD1019B24180133A1
:109EE0000193A14200DA2100002004000137E8E7D5
:109EF0000028FBD001340020F8E70120F6E76A468D
:109F0000928809B212B23000FFF7A4FF33689C1D9B
:109F100003AB1F002A78002ACBD011003039092961
:109F200003D81A7001330135F4E700221A70BB42DE
:109F3000F9D9380010F0EBFA3B0020700134F2E759
:109F4000C8A80200F0B5040089B006A80E0002926D
:109F50001D00FFF719FD236802995A88914235DAEE
:109F60009B889D4232DA1F2E30D9079B01939E4277
:109F70002CDC0523002273430393069B0493039B6D
:109F800004999B18A03BCB5C00210593AE18029B63
:109F9000CF1823685888019087420EDA9888B0421B
:109FA0000BDDDB1910270F41019870431B18059832
:109FB0000740781E87417F429F7101310529E6D114
:109FC0000132052ADBD1002009B0F0BD0048FBE7D3
:109FD00017FCFFFFF7B50468070063880E1E0193A6
:109FE0001EDD994218DA0023063400933B68009A7C
:109FF0009B889A4212DA019BA1199D1B2A0020001E
:10A0000010F0A5FA601931000CF021FD3B685B8867
:10A01000E418009B0133E8E70CF027FD002000E086
:10A020000048FEBD17FCFFFF10B50548054C206039
:10A030000CF0F5FD044A0549200010F089F810BD28
:10A04000C8A802004027002000200020416A02002A
:10A0500010B5054C012120000CF0C9FD034A04494C
:10A06000200010F075F810BD4427002000200020CB
:10A070009B6B02000388074A10B50120934208D069
:10A08000834202D00020DB0703D41E20FFF704F92F
:10A09000002010BDFFFF000010B50400034B083383
:10A0A0000360FFF71BFB200010BDC04610A9020093
:10A0B000FA2270B5438992005343314A3149140062
:10A0C000050038348B421BDC2F498B4218D82F49AE
:10A0D000083C8B4214D82E49083C8B4210D82D499D
:10A0E000083C8B420CD82C49083C8B4208D82B49A1
:10A0F000083C8B4204D82A4914008B4200D908340A
:10A10000284B2A7B1E1D042A03D89E1C022A00D835
:10A110001E00FA212068890006F0CEFF337868819E
:10A120002B7300222A2128000CF09DFD002801D06D
:10A130001D4870BD10222B2128000CF094FD002832
:10A14000F6D101222D2128000CF08DFD0028EFD141
:10A1500001222E2128000CF086FD0028E8D172781B
:10A160000E2128000CF07FFD0028E1D10122237987
:10A170002A211A4328000CF076FD0028D9D0D7E711
:10A18000D0A8020000C4090000710200803801005C
:10A19000204E00001027000088130000C4090000B2
:10A1A000E20400001BB802000EFCFFFF7FB51500A3
:10A1B0000F226A4404001E001170002D16D0002BDF
:10A1C00014DD012301890093006B01F0D1F900280F
:10A1D00002D0074804B070BD0090218933002A00E6
:10A1E000206B01F07BF90028F4D0F2E70148F1E799
:10A1F0000EFCFFFF17FCFFFFF7B5060000250193DB
:10A200001E4B143608330400036085808571C581B8
:10A21000058245820F00009229001822300010F0BC
:10A22000B2F91C2130000FF0E8FD6B469B8802213B
:10A23000A3806B461B88220023811423A571217300
:10A24000A563A58763813E32137827638B43F13181
:10A250000B4013702300957295810135221DD5871F
:10A260000833A21DD5872000DD87FFF721FF0028D6
:10A2700002D1A3791D43A5712000FEBD10A90200E3
:10A2800030B50425837987B004002B4204D1FFF751
:10A2900017FAA3791D43A571A36AA2691B6800255B
:10A2A0001A4208D106236A4601212000FFF77EFFEB
:10A2B000051E03D0114D280007B030BD6B460222A9
:10A2C000042069469A561856237BD2005A432282AC
:10A2D00002220978C00049B2C9005943434363824E
:10A2E000A379E1819343A37120000CF0CAFC012300
:10A2F000A1881A0002A80CF080FBDCE70EFCFFFF2F
:10A30000F8B50400FFF7BCFF0E22A35E794F5B4255
:10A31000BB4251DA23003E331B789B074CD5012505
:10A32000210028003E310B785A0890430200022099
:10A33000AA40834313430B702000FFF7A1FF1022B4
:10A34000A35E5B42BB4248DA23003E331B785B07C7
:10A3500043D50125210028003E310B789A0890430F
:10A3600082000420834313430B7026002000FFF774
:10A3700087FF1222A35E4836BB423EDA23003E33FB
:10A380001B781B0739D5210001223E310B78D808F4
:10A3900082430820D200834313430B703378032B8E
:10A3A0003BD80133DBB23370012B00D08DE02300AA
:10A3B00000224A331A8030E02000FFF761FF0E22AE
:10A3C000A35EC8225B42520000259342B4DD230005
:10A3D0003E331B789B07A2D5AEE72000FFF750FF66
:10A3E0001022A35EC8225B4252009342BDDD2300CF
:10A3F0003E331B785B07ACD5B7E72000FFF740FF83
:10A40000C8231221625E5B009A4204DD23003E33C2
:10A410001B781B07B7D5002DC0D13278002A14D085
:10A420002100270001254A310B883E3701339BB2BA
:10A430000B803878AC46054055D01D2B05D96346B6
:10A440009843002338700B80337020000CF085FC9B
:10A45000294A0723904244DD2000FFF711FF0E2315
:10A46000E25E264E52420323B2423ADBC825200068
:10A47000FFF706FF0E23E25EAD0052420423AA421C
:10A480002FDC2000FFF7FCFE1023E25E0223524285
:10A49000B24226DB2000FFF7F3FE1023E25E012329
:10A4A0005242AA421DDC2000FFF7EAFE1223E25EC0
:10A4B0000523B24215DB2000FFF7E2FE1223E25E25
:10A4C0000623AA420DDC00230BE0042BA5D12200B9
:10A4D0003E321178033B0B43137000234A34238030
:10A4E0000B331800F8BD092BAFD9013A0D8032703B
:10A4F000ABE7C04670FEFFFFFF700200E0FCFFFF0D
:10A5000070B5C369C1681A68451D8AB00400EB7F45
:10A51000114255D0002B58D1EB7F082B0DD90122C9
:10A52000A379134209D11343A371A188130006A88C
:10A530000CF063FAFFF766FB2062EB7F012B23D858
:10A540000123A2791A421FD00025A188A5710222F9
:10A5500002A80CF052FAA31DDE7F012E14D1FFF7E2
:10A5600051FB2B00226A801A994100900191019BB6
:10A57000A188AB4203D1174B009A9A4227D90123F5
:10A58000042206A80CF039FA0322A3791340012B08
:10A5900014D1FFF737FB0023226A801A99419942B0
:10A5A00002D10D4B984209D90223A279A188134305
:10A5B000A3710522012306A80CF01FFA0AB070BD92
:10A5C0000B2BA9D80133EB77A6E7013BFBE7330060
:10A5D0000322D6E7E7030000DB05000010B5040006
:10A5E000034B08330360FFF743FB200010BDC04658
:10A5F00028A90200F0B5070000250E0085B00293DF
:10A600000AAB1B7808370393104B04000833036030
:10A610000192858085712900182238000FF0B3FF60
:10A62000039A310038000FF0EDFB6B466A469B88B9
:10A63000127AA380A31DE671DA77631D25622000DC
:10A64000DD77FFF7F7FA200005B0F0BD28A902007A
:10A6500010B50400034B08330360FFF73FF82000F8
:10A6600010BDC04698A902007FB515000F226A44AC
:10A6700004001E001170002D16D0002B14DD0123E4
:10A6800001890093C06B00F073FF002802D00748D7
:10A6900004B070BD0090218933002A00E06B00F007
:10A6A0001DFF0028F4D0F2E70148F1E70EFCFFFFA0
:10A6B00017FCFFFF002330B585B003AC2170018982
:10A6C0000093050001332200C06B00F051FF002809
:10A6D00002D0094805B030BD2080298900900223AE
:10A6E0002200E86B00F0FAFE0028F2D123786078AF
:10A6F0001B02184300B2EDE70EFCFFFF13B56B46DB
:10A70000DC1D0023220023700133FFF7ADFF00287A
:10A7100001D1207816BD0148FCE7C0460EFCFFFFC2
:10A72000D0B504000CF0F3FBE268A369981A09F0B5
:10A730008DFA06000F002369E069C01A09F086FA55
:10A7400032003B0009F0D0FD0022104B08F08EFCD7
:10A750000F4A104B08F088F909F004FB0021041C93
:10A7600006F032FE002804D0201C0B4906F04EFFF4
:10A77000041C201C09F0A4FA02000B000020074969
:10A7800008F0E6FE09F02CFAD0BDC0460080664015
:10A79000EA2E4454FB2109400000B4430080764077
:10A7A000F0B5050085B0006C0CF074FB061C286C3D
:10A7B0000CF067FB0221071C28000CF0D9FB0221DA
:10A7C000039028000CF0E6FB07F0A8FD0221041C12
:10A7D00028000CF0F1FB07F0A1FD051C301C09F06E
:10A7E00045FD0290301C09F003FD0190381C09F072
:10A7F0003DFD061C381C09F0FBFC071C039807F004
:10A800008DFD391C07F074FA311C071C201C07F061
:10A810006FFA029907F06CFA011C381C06F0F6FE7C
:10A82000311C071C281C07F063FA019907F060FA35
:10A83000011C381C06F0EAFE0299061C281C07F0D1
:10A8400057FA0199051C201C07F052FA011C281C1C
:10A8500007F080FB311C09F04BFD0D4907F048FA69
:10A8600009F02EFA0B4A0C4B08F0FEF809F07AFAC0
:10A870000021041C06F0A8FD002804D0201C044977
:10A8800006F0C4FE041C201C07F028FD05B0F0BD36
:10A890000000B443EA2E4454FB21194070B5002255
:10A8A000102104000CF025FB1B4D00282DD10326A0
:10A8B00008212000FFF722FFA84226D0304226D1EF
:10A8C000FA216389890059435023144AD518D05876
:10A8D000884204D3D518083B18000830F7D1FA2174
:10A8E0002868890006F0E8FBA02260811121200081
:10A8F0000CF0FFFA002808D101222B7910211A430D
:10A9000020000CF0F6FA002800D0034870BD642047
:10A91000FEF76EFFCCE7C0460EFCFFFF40A9020029
:10A920007FB50425837904002B4218D102260CF050
:10A93000EEFAA379A188B3432B43A3710622012326
:10A9400068460CF05AF8A07903003040AB43A3717D
:10A9500043425841034B4042184004B070BD024886
:10A96000FBE7C04614FCFFFF15FCFFFF10B5837921
:10A9700004005A070DD49B0701D4FFF7D1FF236CC5
:10A980002000002B02D0FFF70BFF10BDFFF7C8FE21
:10A99000FBE70148F9E7C04615FCFFFF70B5466CC0
:10A9A00086B001AC050001916260A360002E0CD05E
:10A9B0000B4905A8FFF76AF90C23220005A930000E
:10A9C0000DF02FF805A80BF062FF2B000C3307CC1D
:10A9D00007C30223AA791343AB7106B070BDC0460A
:10A9E00021B80200642330B504000281438185B0A0
:10A9F0008180FFF753FF0222A379606C9343A37118
:10AA0000002813D00C490CF0D3FF051E0ED0010016
:10AA10000C22103101A80FF09AFD20000199029A32
:10AA2000039BFFF7BBFF2800FFF744F80123A2793F
:10AA30001343A37105B030BD21B80200F7B50093F0
:10AA400008AB1B880400019309AB1D8800230F008D
:10AA500016000D4A8380083283710260C36003616F
:10AA600043618361C36103621D2124300CF034FA19
:10AA7000009BE7632664290020006364019AFFF7C6
:10AA8000B1FF2000FEBDC04698A9020082B0F0B51B
:10AA90000400A5B064202B932A920FF071FA0422CF
:10AAA0000C2109A802F0DEFC2422CC491BA80FF0DF
:10AAB0004EFD052206A811000BF0E0FFC84907A8CB
:10AAC000FFF7F0F9A06800F081FBA568C54918A858
:10AAD000FFF7DCF8782218A9280000F0A5FC18A8D8
:10AAE0000BF0D5FE6E256420013D0FF049FA002DD4
:10AAF000F9D1A06800F06AFBA0680CF0FDFB012111
:10AB000060680CF03EF90121070060680CF04CF918
:10AB100006000A200FF034FA0022B34B03929F4242
:10AB200010DB013203923A00C8320BDBC822042149
:10AB300092000391974205DC03220392C82F01DCA7
:10AB4000013A039200279E420CDB33000137C833E1
:10AB500008DBC82303379B009E4203DC013FC82E5D
:10AB600000DC013F06A80BF080FF0026032373439F
:10AB70001BA9CA189078002805D0C95C5278FF2319
:10AB800006A8FFF723F901360C2EEFD16B463AB237
:10AB90000C21595E06A8FF23FFF718F90023A068CF
:10ABA00000931A00743006A90BF06FFF0023049382
:10ABB0000323049A039853431BAA995C814237D11B
:10ABC000D31805935B78BB4232D1059B9E78002E4B
:10ABD0002ED1310020680CF0CBF907F09FFB32003A
:10ABE000031C290009A80DF0A5F9310020680CF01C
:10ABF000D1F907F093FB0122031C290009A80DF0ED
:10AC000099F9310020680CF0D7F907F087FB29008B
:10AC1000031C022209A80DF08DF9FE2303229B05D7
:10AC2000290009A80DF086F90123059AED18937003
:10AC3000049B013304930C2BBAD164200FF0A0F9CC
:10AC40000B2D00DC5BE709A80DF060F90122010083
:10AC50000CA802F007FC002509A80DF057F9A8423E
:10AC60003CDD2900002209A80DF052F90022061C43
:10AC7000290009A80DF04CF9011C301C07F038F828
:10AC80002900061C012209A80DF042F90122071C27
:10AC9000290009A80DF03CF9011C381C07F028F820
:10ACA000311C06F0B3FC2900061C022209A80DF095
:10ACB0002FF902222900071C09A80DF029F9011C0F
:10ACC000381C07F015F8311C06F0A0FC2900031C05
:10ACD00000220CA80DF02EF90135BDE709AA1100DC
:10ACE000012318A80DF040F918A90FA80DF099F943
:10ACF00018A80DF030F90CAA09A912A801230DF02B
:10AD000033F9002312AA0FA915A80DF02DF900227E
:10AD100015A811000DF0FCF80022061C012115A851
:10AD20000DF0F6F80022051C022115A80DF0F0F830
:10AD3000FC21071C8905301C06F0DAFF07F0CEFA6B
:10AD4000FC21060018908905281C06F0D1FF07F0A9
:10AD5000C5FAFC21050019908905381C06F0C8FFCA
:10AD600007F0BCFA2A00030031001A902068FFF7B0
:10AD700015FEA0680CF0C0FA07A908A8A5680BF09A
:10AD80006CFE0022194B009208A9019328001300C1
:10AD900000F0BAFA08A80BF053FEFA2080000FF07A
:10ADA000EFF8A0680CF0A8FA15A80DF0D4F812A8D6
:10ADB0000DF0D1F80FA80DF0CEF80CA80DF0CBF8DF
:10ADC00007A80BF03DFE06A80BF03AFE09A80DF00F
:10ADD000C2F825B0F0BC08BC02B018472CB802007D
:10ADE00050B8020095B80200E0FCFFFFDC0500004F
:10ADF000F7B583601D4B05001F6801604260002F9E
:10AE000031D02820FEF736FE040010300BF0EBFDA9
:10AE1000174B18202360FEF72DFE00220600154B6D
:10AE200001920560083200210C3000930FF0ABFB5B
:10AE300008226946301D0FF08AFB0F4B0022736118
:10AE4000C223A3803B68E260A660226262625B6804
:10AE5000210038009847002805D020000BF0CDFCD9
:10AE60002000FEF727FE2800FEBDC0463C2700203C
:10AE7000050006008DAA0100D16F0200F0B50400A4
:10AE800085B0637A9C46002B04D120000CF0CBF8EF
:10AE900005B0F0BDA37A266F01931023019AF356F3
:10AEA00000259B1801229A402900F368039202931F
:10AEB000029BAB4231DDB368019A6B439B18726908
:10AEC0005B00E77AD3181A785878E379012F14D108
:10AED0005F1E3F1A10003A005B004343606F821808
:10AEE000D3189B79634500DD6346627B1A4202D02A
:10AEF0000123AB4019430135DAE7022F05D15F1E6C
:10AF0000BA1A277A013F381AE6E7032FE4D1277AE5
:10AF1000013FBF1A02003800DEE71123C943F35690
:10AF2000606C994023691940039B19430FF006F99F
:10AF3000A27B072AACD8637B0C495B006373531C6C
:10AF4000DBB290004158A373022A03D808000FF027
:10AF50000CF896E7064B2000236300236363054B40
:10AF6000E462236414300EF08EFE91E7B0A9020073
:10AF70007DAE01001170020010B50400044B0360A7
:10AF80000EF079FE200005F0ABFA200010BDC0469F
:10AF900028AE020010B504000E4B08330360FEF724
:10AFA00067FE200074300BF04BFD200060300BF08A
:10AFB00047FD200058300BF06AFC200050300BF0A9
:10AFC00066FC2000044B14306361FFF7D5FF2000BE
:10AFD00010BDC046D0A902005CAE0200F8B5002545
:10AFE0000400324B858008330360857114301600ED
:10AFF0000F0005F05FFA20002D4BE56263612564C8
:10B000005030FEF7AFFE20005830FEF7ABFE2000B8
:10B010006030FEF7D5FE20000423F25E3368266719
:10B02000590009B274300BF029FD3368226FE371C7
:10B0300073680126237210236581A7802561D3568A
:10B0400091685918994204DD300098400133054356
:10B05000F8E711230120D356D1685918994206DD2B
:10B0600002009A402669013332432261F6E7142038
:10B07000FEF700FD226900212A430123060005F0A6
:10B080003DFEFF23220063720133A3810023483277
:10B090006664A37320001370A366FEF7CBFD012343
:10B0A000A27920001343A371F8BDC046D0A90200C5
:10B0B0005CAE0200F0B5437A85B00400002B04D1E9
:10B0C00020000BF0B0FF05B0F0BD0122837A110023
:10B0D0009C461023066F0025F35603926344994063
:10B0E00002912900F3680193019BAB422CDDB36808
:10B0F00072696B4363445B00E77AD3181A78587817
:10B10000E379012F10D15F1E3F1A10003A005B0057
:10B110004343606F8218D3189B79002B02D0039BA6
:10B12000AB4019430135DFE7022F05D15F1EBA1A84
:10B13000277A013F381AEAE7032FE8D1277A013F3F
:10B14000BF1A02003800E2E71123C943F356606CCE
:10B15000994023691940029B19430EF0EFFF667A6C
:10B16000B31EDBB2FC2B14D8FEF712FD0B4B05000F
:10B17000236300230A4863630A4BFF21E4622364CC
:10B18000704306F023F829004143200014300EF0EC
:10B190007AFD637A012B00D995E791E727700200C9
:10B1A000B6030000117002001FB5012381881A0048
:10B1B00068460BF022FC012303491A0068460BF095
:10B1C0001CFC05B000BDC046FE0300001FB5030017
:10B1D00048331A780400002A0DD000221A70012387
:10B1E00081881A0068460BF008FC012304491A0004
:10B1F00068460BF002FC200074300BF036FC1FBDDB
:10B20000FF03000010B548300378002B06D0037808
:10B21000012B03D0012102480BF065FA10BDC04696
:10B22000FF03000010B50121040006200BF05BFABB
:10B23000064B984208D148342378002B04D0237859
:10B24000012B01D020BFF7E710BDC04616FCFFFF61
:10B2500070B50600141E19DB050048352B78002B4D
:10B2600002D02B78012B13D1002330001A00743048
:10B27000FEF768FE002C07D033004A331C80002400
:10B2800007234C3634802B70200070BD014CFBE747
:10B29000014CF9E717FCFFFF12FCFFFFF8B51700A0
:10B2A0000A68050052880B00012A09D10021180004
:10B2B0000BF08CFB002201002800FFF7C9FFF8BD4E
:10B2C000002F19DD060048363278002A02D0327885
:10B2D000012A13D12A00002428005C3219001480AE
:10B2E00058300BF03EFB2B004A331F8003234C35B4
:10B2F0002C8020003370E2E70148E0E70148DEE7F8
:10B3000017FCFFFF12FCFFFF73B5079C0500002C24
:10B310001CDB060048363078002802D0307801283F
:10B3200016D106981BB2C0B20090280012B2743039
:10B330000BF0ABFB002C07D02B004A331C80002401
:10B3400007234C352C803370200076BD014CFBE781
:10B35000014CF9E717FCFFFF12FCFFFFF7B50500F2
:10B360000E00171E26DDFFF74DFF2B0048331C781B
:10B37000E4B2002C20D133685B88012B09D1210075
:10B3800030000BF023FB220001002800FFF760FFD4
:10B39000FEBD310001A80BF0DCFA3A0001A928003B
:10B3A000FFF77CFF01A80BF072FA2800FFF73AFFC5
:10B3B0002000EDE70148EBE70148E9E717FCFFFF54
:10B3C00011FCFFFFF0B587B00D9C06000F00029244
:10B3D0000393002C20DBFFF715FF330048331D7863
:10B3E000EDB2002D1AD1390005A80BF036FB0C9BED
:10B3F00001940093029A039B05A93000FFF784FF94
:10B4000005A80BF01DFB002C03D03000FFF70AFF4E
:10B410002C00200007B0F0BD014CFAE7014CF8E722
:10B4200017FCFFFF11FCFFFFF8B50400171E1DDD20
:10B43000060048363378002B02D03378012B17D121
:10B440002200E3795632013B1370230000252000CF
:10B4500054331D8050300BF084FA23004A331F8090
:10B46000022328004C3425803370F8BD0148FCE7E6
:10B470000148FAE717FCFFFF12FCFFFFF7B50500D4
:10B480000F00161E18DDFFF7BDFE2B0048331C7899
:10B49000E4B2002C12D1390001A80BF05AFA3200A4
:10B4A00001A92800FFF7C0FF01A80BF0F0F9280060
:10B4B000FFF7B8FE2000FEBD0148FCE70148FAE7AF
:10B4C00017FCFFFF11FCFFFFFF2902D8417200208B
:10B4D00070470148FCE7C04617FCFFFFF0B51F00AE
:10B4E00085B00AAB1B780400039300933B000D006A
:10B4F00016000EF0EEFB002833D0237D082B2DD84C
:10B50000236800221900FC318A62A021C9005A5028
:10B51000154905205A500138C046C046C046C046AD
:10B52000C046C046C046C046C046C046C046C046EB
:10B53000F1D1236801325A50A0210432C9005A5077
:10B5400005F0C8F8039B3200009329003B0020005F
:10B550000EF0BFFB237D01332375CCE7034805B014
:10B56000F0BD2075FBE7C046FC0F00000EFCFFFF9E
:10B57000F0B51F0085B00AAB1B780400039300935D
:10B580003B000D0016000EF08CFB002833D0237D0D
:10B59000082B2DD8236800221900FC318A62A021D3
:10B5A000C9005A50154905205A500138C046C046B6
:10B5B000C046C046C046C046C046C046C046C0465B
:10B5C000C046C046F1D1236801325A50A02104324E
:10B5D000C9005A5005F07EF8039B32000093290001
:10B5E0003B0020000EF05DFB237D01332375CCE78B
:10B5F000034805B0F0BD2075FBE7C046FC0F000016
:10B600000EFCFFFFF8B50D1E30D000260227C468DF
:10B61000002C28D0AA88A38853403B4204D13A4248
:10B6200004D1AB883B4219D0646AF1E7A968A068ED
:10B630000CF05BFC0028F4D02B88002B02D0228871
:10B640009A42F1D16B88002B02D062889A42EBD1EA
:10B65000A288074B01361343A380E5E7A368AA68D5
:10B660009342E1D1E8E72000002E00DC0148F8BD5C
:10B670000080FFFF17FCFFFFF0B5060085B00D1E30
:10B6800059D00127C468002C22D00221AA880023A7
:10B690000A4202D0A3885B083B40226829688A429C
:10B6A00010D1A068A968002B0AD00CF01EFC00285D
:10B6B00008D0A3881AB2002A06DB204805B0F0BDE6
:10B6C0008842F6D0646ADEE75B045B0CA380F4E793
:10B6D000F0682A88002807D1F560012318496846D8
:10B6E0000BF08BF90020E9E7010003001C8894426D
:10B6F00006D25C6A1900002C0DD02300F6E7230067
:10B700001C88944207D15F886C88A74203D25C6A88
:10B710001900002CF3D1814209D10B889A4204D33D
:10B7200005D148886B88984201D96962D4E74B6A91
:10B730006B624D62D1E70348C0E7C04616FCFFFFCD
:10B74000FD03000017FCFFFF064B10B51A000400B4
:10B7500008322C33026043600430FDF7BFFF200045
:10B7600010BDC046E8A9020008B4024B9C4604384C
:10B7700008BC604749B7010008B4024B9C46043836
:10B7800008BC6047397402000C4A002311002C32B7
:10B79000083110B5038183724260C3600361436165
:10B7A0004383016004000430FDF78AFF044B1A68EC
:10B7B000002A00D11C60200010BDC046E8A902008C
:10B7C0003C270020F7B50E000125C4680192002C2B
:10B7D00036D0238832889A4201D0002B23D1638847
:10B7E00072889A4201D0002B1DD1FDF7DDFE0123A6
:10B7F000002806D0C022A3881340C03B5A425341C0
:10B80000DBB2019A934219D1A7883BB2002B15DB1A
:10B8100010223100A0180EF09AFE40231F4204D0DF
:10B8200020000BF012FE646AD1E7FDF7BDFE002890
:10B83000F6D021000348FEF767F8F4E70025F2E7A9
:10B840002800FEBD4B74020008B4024B9C4604382D
:10B8500008BC6047D3750200F0B587B001930EAB0A
:10B860001B88060003930D9B0D000093019B029221
:10B870000C9F002B3DD0002F02D1009BDB0738D559
:10B880002820FEF7F7F8040010300BF0ACF86B46F8
:10B890001B89258063801820FEF7ECF80500009BCB
:10B8A00008220593019B002103600C3004970EF0E1
:10B8B0006AFE082204A9281D0EF049FE0E4B022242
:10B8C0006B6100230399E3602362636233680A4378
:10B8D000A560A2805B68210030009847002806D050
:10B8E00020000AF08AFF2000FEF7E4F8034807B0C2
:10B8F000F0BD0348FBE7C0460D76020016FCFFFFD3
:10B9000017FCFFFFF0B50400160000258380164ADF
:10B91000164B85710260218146810573186889B0D4
:10B920008C46A8421DD0124A05950492C02202926C
:10B930006A4604AB82CB82C223002A006146FFF72D
:10B940008BFFC022094B0A49186802926A46069189
:10B9500006AB079582CB82C223002A003100FFF795
:10B960007BFF200009B0F0BD2CAA02003C2700207C
:10B970003777020030B5002403730123034D84712F
:10B980000560818082734373846030BD44AA0200E5
:10B9900070B5040000250C4B0E00083385808571BE
:10B9A0000360210018300BF07EFF200021002030C2
:10B9B0000BF0A4FF054BA680E5802572E5602561AC
:10B9C000656120001C6070BD54AA02004827002059
:10B9D00010B50C000AF015FE002806D1642C06D81C
:10B9E000A123044ADB00D45010BD0348FCE7034800
:10B9F000FAE7C0460010004016FCFFFF17FCFFFFEF
:10BA00008379DB0702D5C160002070470048FCE75E
:10BA100016FCFFFF8379DB0701D5C068704701483A
:10BA2000FCE7C04616FCFFFF70B545690400002D19
:10BA300022D0037A032B21D8FFF7ECFFA8622C2039
:10BA4000FEF718F82C22002105000EF09CFD0022C4
:10BA500063695A622369934208D1636923610020B4
:10BA6000237A65610133237270BD13005A6A002A7C
:10BA7000FBD162695A62F2E70148F5E70148F3E752
:10BA800017FCFFFF13FCFFFF144B70B55A68144CF2
:10BA9000002A03D000225A600132A2601A69002AEB
:10BAA00017D0002119618023DB000E4DE358286870
:10BAB000012B0FD1A923DB00E1584942FFF7A0FF7A
:10BAC0002868FFF7B1FF2B685A69074BE250012342
:10BAD000A36070BDFFF794FFF9E7C046FC1000407B
:10BAE00000100040482700200405000070B5050044
:10BAF0000C000AF086FD002804D1034A034BEC71C8
:10BB0000D45070BD0248FCE700100040240500003E
:10BB100016FCFFFFF8B5837905000020DB076AD427
:10BB20000AF06FFD002867D16E69002E08D12C3015
:10BB3000FDF7A0FF04002C2231000EF024FD6C6103
:10BB40006B69002B5AD000222D4B01215A608022B4
:10BB5000D20511605A68002AFCD00622294B2A4CD3
:10BB60009A562A4B0721E2502800FFF731FFA22303
:10BB70000026DB00E650264A264B2800E250E979F1
:10BB8000FFF7B4FF01220821234B2448E650043379
:10BB9000E250234B234FE1500433E050022322486C
:10BBA000235022482750224F043827501827214875
:10BBB00027506F6920482750C120800021501F491D
:10BBC0008538FF380B500B608021890060580E3398
:10BBD000034363501A4B5E6062605A68002AFCD0CF
:10BBE000002601271E612800A760FDF769FD3000CF
:10BBF000AB791F43AF71F8BD1248FCE71248FAE772
:10BC0000FC000040ABB80200001000400C05000032
:10BC1000746962751C0500002C05000020000402F8
:10BC200014050000FFFF0000340500003C05000083
:10BC300021100100540500000405000000E100E0AF
:10BC4000FC10004016FCFFFF13FCFFFF030000691F
:10BC5000002809D00221054AD167426A1A611A7A7E
:10BC6000013A1A72024B19607047C04604E100E0C5
:10BC700000E100E070B504000D000AF0C2FC0028ED
:10BC80003AD1002D3AD02B78232B37D802221C4BE7
:10BC90001C49DA671C4B013A58610A615A69002A4B
:10BCA000FCD00020194A8D50586001300860586857
:10BCB0000028FCD001208860002018611869002845
:10BCC000FCD06069885000225A6101320A615A69C9
:10BCD000002AFCD000225A6001324A605A68002AC9
:10BCE000FCD00020186101238B60C0210222084B88
:10BCF00049005A501A6070BD0648FCE70648FAE74A
:10BD000004E100E000100040FC10004004050000C9
:10BD100000E100E016FCFFFF17FCFFFF37B54C68A1
:10BD20000500002C04D10C490AF03EFF28003EBD5E
:10BD3000636A01A84B602278211D033AA36A0AF0C6
:10BD40005FFF2000FDF7B6FE01A928000AF02CFFD6
:10BD500001A80AF022FFE9E74427002030B50500DA
:10BD60008DB0002912D0232A10D801ACD31C00209A
:10BD700023700123A07002A86370E3700EF0E7FB4C
:10BD800021002868FFF776FF0DB030BD0048FBE7C3
:10BD900017FCFFFF10B5002903DB024B19600DF003
:10BDA000E8FF10BD4C27002070B504001E0004AB56
:10BDB0001D7804F0C7FB20000E4B40302360FDF7D8
:10BDC000D1FF230001364C33013522001E701D7354
:10BDD0000023E1214E32A364636513805380938175
:10BDE000D381013B200063644902FFF7D3FF2000A9
:10BDF00070BDC04688A80200F7B580277F053D6961
:10BE00007C690822113C6C430600210068460EF054
:10BE10009EFB104B009A9A4219D000930023019385
:10BE200079693000133969430BF07DFD019A00995F
:10BE300030000BF090FD210030000BF074FD7969AB
:10BE4000AB0813396943220030000BF076FD0198EE
:10BE5000FEBDC046FECA0000F0B50D00A9B00D92AF
:10BE600000213022060010A80B930EF08CFB280056
:10BE70000EF0D1FB431C0C93102B00D9B5E00B9BAB
:10BE8000202B00D9B1E0290030000BF091FD071EF6
:10BE900050D129000C9A10A80EF059FB0D990B9A5D
:10BEA00014A80EF054FB80235B051A695F690C929D
:10BEB000113F7A4330005D690B92FFF79DFF3022FE
:10BEC000002104001CA80EF05EFB290000270C9B3B
:10BED0001339594330000BF026FD0D9730257D4373
:10BEE0000B9B0833ED18A74242DA290030221CA828
:10BEF0000EF02DFB10A91CA80EF07BFB002827D10B
:10BF00003C49300022000E910F940BF024FD6A464C
:10BF1000099513AB23CB23C223CB23C223CB23C24C
:10BF20003000129B1099119A0BF023FD01230D9301
:10BF30000137D3E710300B9A0D990EF0F9FA04008F
:10BF40003800FDF7B7FD002CA3D1200029B0F0BDCB
:10BF50006A4609951FAB23CB23C223CB23C223CB35
:10BF600023C230001C991D9A1E9B0BF002FDDFE7D7
:10BF7000E5433023ED1725405D430B9B08355D19E4
:10BF80000D9B002B1DD10C9B3021981E05F094F8C1
:10BF9000A0422CD017490134300022000E910F949A
:10BFA0000BF0D9FC6A46099513AB23CB23C223CBF4
:10BFB00023C223CB23C230001099119A129B0BF09D
:10BFC000D8FC0B9930000BF0AEFC80235B0559695F
:10BFD0000C230C9A133963434A4302331100300097
:10BFE0000B9A0BF0AAFC0024AFE7034CADE7034C1F
:10BFF000ABE7C046FECA000017FCFFFF13FCFFFFC3
:10C0000070B50400A280FA22002308000C499200B7
:10C0100008312160A3716061E260A3606382094915
:10C020000BF0C6FC051E09D00100200010310222D1
:10C0300012300EF08CFA2800FDF73CFD200070BD98
:10C040006CAA0200A3B8020030B50225837987B03C
:10C0500004002B4204D1FDF733FBA3791D43A571E6
:10C0600020000BF0EFFC00281CD06B46DD1C2800E4
:10C070000BF0DFFC2B78002B17D001A80BF0D7FCBE
:10C080000321019AD3170B409B189B102382FDF7C5
:10C09000B9FDE368A18818180123A0601A0002A85E
:10C0A0000AF0ABFC002007B030BD0122064B1A603D
:10C0B000064A51680029FCD000215160044A1268E8
:10C0C000019201225A60DBE700C00040FCC0004042
:10C0D00008C50040022802D10122014B1A707047A6
:10C0E0003B2A002070B5064C05002378002B04D1B4
:10C0F000044801F03BFB01232370280070BDC046BB
:10C100003C2A0020D5C0010070B50C000AF079FA75
:10C11000002810D00023144DA40A2B7020000BF02F
:10C12000A5FC002803D00A200DF02AFFF6E72B78A3
:10C13000002BFCD070BD02210C4B0D4A9950802180
:10C14000C90008005D58002DFCD0A121C9005C5039
:10C1500019580029FCD0002199508021C9005A5853
:10C16000002AFCD0E6E7C0463B2A002000E0014060
:10C1700004050000F8B50C0015001E000AF041FA95
:10C18000002811D00023174F3B70320029002000F7
:10C190000BF06AFC002803D00A200DF0F1FEF4E752
:10C1A0003B78002BFCD0F8BD01210F480F4B844693
:10C1B00019508021C9005A58002AFCD0802700223B
:10C1C000FF00964207DD910068586050D959002958
:10C1D000FCD00132F5E7002261465A50DA59002AB4
:10C1E000FCD0E0E73B2A00200405000000E001400D
:10C1F00010B50400054B083303601C300AF047FB00
:10C20000200018300AF043FB200010BD84AA020071
:10C21000FF23F0B52C4D8DB02B7000230400694630
:10C220000088009303F068F9002802D16B469B78E0
:10C230002B70264E3368DB68002B07D10023208843
:10C240001A0019000BF016FC0DB0F0BD2B78032B73
:10C25000F4D81F4901A8FDF719FD336801A9DE686C
:10C2600004A80AF076FB04A930000BF0D4FB0027E9
:10C27000060004A80AF00BFBBE421ED031002022AB
:10C28000103104A80EF063F93000FDF713FC297893
:10C2900004ABC9005918082202A80EF058F92088EA
:10C2A0000123082202A90BF0E5FB0137002804D185
:10C2B0002088084A0C210BF0DBFB01A80AF0E7FA02
:10C2C000002FBBD0C0E7C046F02100205C27002033
:10C2D000B3B80200FFFF0000F0B5837991B004000D
:10C2E0005B071BD5FDF78EFC00232269801A99415C
:10C2F000994203D1F423FF3398420FD9A068002854
:10C3000008D0364B1D880CF053FC036815221B6ABD
:10C31000290098470422A3799343A371A3799B072B
:10C3200059D52F4D2B68DB68002B50D02D4B1B7837
:10C33000032B4CD8294B2C491B8804A80193FDF7EB
:10C34000A5FC2B6804A9DE6808A80AF002FB08A96E
:10C3500030000BF060FB070008A80AF098FA02AB67
:10C360009E1D08233200338006A9073B01980BF07D
:10C3700083FB002F08D039002022103108A80EF0CE
:10C38000E6F83800FDF796FB164B32881B7806A9B5
:10C39000DE0008AB9E1930000EF0CAF8002813D05A
:10C3A000082206A930000EF0D2F82B6804A9DD6837
:10C3B00005A80AF0CEFA202308AA05A928000BF048
:10C3C00030FB05A80AF063FA04A80AF060FA02221A
:10C3D000A3799343A37111B0F0BDC046E0290020BA
:10C3E0005C270020F0210020B3B80200F7B5089EBA
:10C3F0000500152922D8012007008F40244C274230
:10C400001CD0E97FCC181F2C41DC69183418A142DC
:10C4100010D80021C8B2834204D9545C70188470CB
:10C420000131F7E732789A183270EA7F9B18EB7780
:10C4300000202CE00878C8540139E8E73478013C42
:10C44000E4B2A34208D10023D9B28C42F0D9D05C27
:10C45000F11888700133F7E7EF7F0120FF183F1BC9
:10C460001F2F14DC0227A01C7F423618381B0190B6
:10C47000E87F2F18BE4204D23078019FF055013674
:10C48000F6E7041B023CEC7728000BF03FFBFEBDF7
:10C49000FC002000F0B585B001930AAB1E880BAB01
:10C4A0001B78451C02930EAB1B78040003930B789A
:10C4B000170003704B8A10224382013128000EF0CE
:10C4C00046F86B469B88268363836B461B7B00265E
:10C4D00023776B4601221B7A6761E683EB77A31C07
:10C4E000DA770C9B0C256362230020000D9A283319
:10C4F0001A705E709E702A0031002C300EF043F8E6
:10C500002000074BE663A3632A00310040300EF0A1
:10C510003AF82000034B2665E36405B0F0BDC04641
:10C520008F7A0200817A020070B50D000CF040FB9A
:10C5300004000368002D09D15B699847FA20800048
:10C540006843074904F0B8FDE08070BD9B689847D8
:10C550008542F3D2236820009B6898470500EDE7E9
:10C5600071020000F0B507001600A1B002C7040078
:10C570006B4918A81D000BF010FB331E03D03000D0
:10C580000EF049F883B20122049200220392029233
:10C59000023201920093320018A93800FFF77AFFA7
:10C5A00023006049583318A807930BF0F6FA2B1EA6
:10C5B00003D028000EF02FF883B20122049200224B
:10C5C000039202920232019200932A0018A907985E
:10C5D000FFF760FF23005449AC3318A808930BF011
:10C5E000DCFA269B002B03D018000EF014F883B25F
:10C5F00001220492002203920292023201920093DD
:10C60000269A18A90898FFF745FF631CFF3347498E
:10C6100018A809930BF0C1FA279B002B03D0180030
:10C620000DF0F9FF83B2012204920022601C0392F4
:10C630000292023201920093279A18A9FF30FFF765
:10C6400029FF23005533FF33394918A809930BF00C
:10C65000A4FA289B002B03D018000DF0DCFF83B256
:10C66000012204920022039202920232019200936C
:10C67000289A18A90998FFF70DFF2300A933FF3363
:10C680002C4918A80A930BF088FA299B002B03D099
:10C6900018000DF0C0FF83B201220492002218ADF1
:10C6A00003920292023201920093299A29000A9879
:10C6B000FFF7F0FE204B1B780B93002B2DD1079B2F
:10C6C00012971393089B0DAF1493631CFF331593BC
:10C6D000099B1A4916930A9B380017930BF05DFAD1
:10C6E0001D2149203B7810222B707B8A12AE6B8271
:10C6F00006ABC918C0180DF02AFF06232B756B4630
:10C700009B8D2068AB83AE610CF056FA036829005C
:10C710001B6898470122084B1A70200021B0F0BD19
:10C72000292A0000242A0000252A0000272A0000C8
:10C73000262A0000282A00003D2A00200A180000AE
:10C7400070B5002504000A4B8580083385710360AD
:10C75000C1601830FDF706FB20001C30FDF702FB1E
:10C76000044BA5601C60012365612000A37170BDAE
:10C7700084AA02005C270020FA2130B585B00500AC
:10C7800001230222890068460AF037F9074C206825
:10C79000002809D00BF03AFA2988054B2268198045
:10C7A000022391790B43937105B030BD5C270020C3
:10C7B000E029002010B50C0007290DD880680CF086
:10C7C000F7F9064B195703685B6C9847431E98416D
:10C7D000034B4042184010BD0248FCE7ABB80200D2
:10C7E00016FCFFFF17FCFFFFF0B5A44C0D00A5449D
:10C7F000040007939AAB1B78A14909A804930692F9
:10C80000FDF744FA200029001C300AF0AAF8C020E5
:10C81000800000F0A1FF0820FDF72CF906000021A0
:10C8200000F088FE15ADA66000210C220EA80DF0C8
:10C83000AAFE2B000EAA83CA83C3924B2900EB6089
:10C84000002330002B610CF09CF9A0680CF0B0F9CB
:10C8500008220021059016A80DF095FE1420FDF782
:10C8600009F929000200884B1593C8C9C8C2874B33
:10C87000059EC3600023A43603613368002B00D0FB
:10C88000F5E03060A0680CF097F90822002106005E
:10C8900016A80DF078FE1420FDF7ECF87C4B1593EC
:10C8A000030086CD86C37B4BC36000230361336BDB
:10C8B000002B00D0DDE03063A0680CF079F908228D
:10C8C0000021050016A80DF05EFE1420FDF7D2F839
:10C8D000714B15AE1593030086CE86C36F4B98350A
:10C8E000C360002303612B68002B00D0C3E02860E5
:10C8F000012504AB1B7C04AA2B4308A92800137450
:10C900000BF0BCF8A0680CF05BF9036864495B6A43
:10C910009847A0680CF054F9036862499B699847EE
:10C92000A0680CF04DF90023026800931668049982
:10C930002A00B047049B002B0AD020000BF06FF9AF
:10C94000032805DDA0680CF03BF90368DB68984715
:10C950000EA80BF0D2F82F2004ABC0180BF0CDF8C6
:10C96000362004ABC0180BF0C8F83D20042504ABFA
:10C97000C0180BF0C2F80EAB0A93A06804AB5D7749
:10C980000CF01EF903680AA91B699847A0680CF00F
:10C990000FF903680AA95B6D9847A0680CF008F9C5
:10C9A00003680021DB6D9847A0680CF001F903686B
:10C9B00002219B6D984700212000FFF7FBFE182005
:10C9C000FDF758F8A16800F005FA374B374A1B68A5
:10C9D000A1680393364B15A81B6800260293354BBC
:10C9E0000CAF1B680193069B1B685B190093324BCD
:10C9F00012681B68FFF7B6FD3020FDF73BF8079A79
:10CA0000A16800F0A7FAA0680CF0D2F8036839001A
:10CA10009B6A9847294BBE80A0680C930CF0C8F81D
:10CA200003683900DB6A98472900A0680BF0C1F859
:10CA3000099A09219378A06852190BF0CDF8A068E3
:10CA40000CF0B6F8C8210671A068FFF76DFD04ABC5
:10CA50001B7FB34204D0A0680CF0AAF80BF093F847
:10CA600009A809F014FF95239B009D44F0BD0361C4
:10CA700007E703611FE7036139E7C046ACFDFFFF2D
:10CA8000A6B902009D7A020079C70100AB7A0200C4
:10CA900011C20100B97A0200E77A0200C77A0200E7
:10CAA000C1CA0100F5CA0100582700205427002000
:10CAB00008200020502700200C2000200800100033
:10CAC00013B506226846FDF723F9094B1C68002CB4
:10CAD0000AD0694601A809F03CFF200001A90BF02B
:10CAE000BFF801A809F0D3FE684609F0D0FE13BDD7
:10CAF0005C270020002373B501AE0C003100050057
:10CB0000019302F0F9FC002802D1B278064B1A70AA
:10CB1000064B1868002806D061426141044BC9B237
:10CB20001D800BF0A5F873BDF02100205C270020CC
:10CB3000E0290020F0B5040097B0039107A89C49B4
:10CB40000592FDF7A3F89B4908A8FDF79FF822007E
:10CB50000FAD28001C3207A909F022FF08AA2900FE
:10CB600009A809F01DFF280009F091FE92490AA8C2
:10CB7000FDF78CF8A0680CF01BF803680DAE5B693C
:10CB8000984728000AF0B9FF332004ABC0180AF018
:10CB9000B4FF3A2004ABC0180AF0AFFF412004AB49
:10CBA000C0180AF0AAFF8023DB00B380A0680D95AF
:10CBB0000BF0FEFF036831005B6D9847A0680BF037
:10CBC000F7FF036800219B6D9847A0680BF0F0FF0A
:10CBD0000700002506000A371F22002138000DF04B
:10CBE000D2FCFD7730000AF0C5FF0621A0680AF0EC
:10CBF000E0FF099A09219378A06804320AF0ECFF5B
:10CC0000A0680BF0D5FFC8210571A068FFF78CFC68
:10CC1000A0680BF0CDFFFF272E000581A0680BF068
:10CC2000C7FF0AF0B0FF0398FEF7D0FA0AA90CA8D4
:10CC300009F08FFE78220CA90398FEF71FFC0CA8C0
:10CC400009F025FE039920000BF025F82000FCF7E1
:10CC500037FD0495012563691D402DD057490BA868
:10CC6000FDF720F90BA90CA809F0F7FE00220CA98A
:10CC70001300019200920398FEF7A4FB0CA809F0A0
:10CC8000DFFE049B002B42D1043F282F41DD00250D
:10CC9000FE2F00DC049D05980AF011F9002806D04B
:10CCA000012362699A43130004221343636100263F
:10CCB0000BA809F0C5FE049504226369134233D022
:10CCC000FF210398C826FEF7FFFB0025B600A369E5
:10CCD00002229B5EAB4222DD200029B2183009F00F
:10CCE00075FE0023010003981A007430FDF72AF93D
:10CCF0003000FCF77DFD03980AF0FEFAC820FCF72F
:10CD000077FD02226369134209D10135DFE7043759
:10CD1000BBE703980AF0F0FA002FBCDDBAE7FA206F
:10CD20008000FCF765FD0026022365691D421CD0CA
:10CD300006331D4024D022490BA8FDF7B3F80BA9F8
:10CD40000CA809F08AFE00220CA90192009213009F
:10CD50000398FEF737FB0CA809F072FE1948FCF7A0
:10CD600047FD0BA809F06CFE174E6420FCF740FD50
:10CD7000164B01369E4200DC6CE709F054FC69E773
:10CD800013490BA8FDF78EF80BA90CA809F065FE56
:10CD90002B002A000CA9019500950398FEF712FBC1
:10CDA0000CA809F04DFE0BA809F04AFEDDE7C046CD
:10CDB000BFB80200CFB80200D1B80200DFB802004D
:10CDC00024B90200983A00008C0A00008B0A000087
:10CDD00061B902000022594BF0B508330600036028
:10CDE0000F001000A9B0B1600BAB99180132487068
:10CDF000102AFAD10F3A524C1A700E32105D991A5D
:10CE00000874013AFAD2997B5A7B09020A4331002D
:10CE10000C31039125211B7813AD2B7002ABC9187F
:10CE2000452302A81B186A82180010220DF08FFB00
:10CE3000039B64216B610123002402AA2B77521803
:10CE40001993093313701DAB1C706D2302AA9B1834
:10CE50001C706E2321009B181EA80C22EC836C62B0
:10CE60001C700DF090FB374B0C22210023A8AB6304
:10CE7000EC630DF088FB344B02AAEB6446239B184D
:10CE80000322DA7722002C650595347306AD2B1941
:10CE900001345A70102CFAD101232C482B700E3318
:10CEA000195CEA1A1174013BFAD211212520AA7BE0
:10CEB0006B7B12020BAC13432A78638202ABC91856
:10CEC0002270C01810220DF042FB0123237505AB20
:10CED000A36100233800A3830BF06EFE03682100DA
:10CEE0001B68984713ABDB8BB068B3820BF064FE12
:10CEF000002203680092B18A039ADC680123A047EC
:10CF0000B0680BF059FE07001420FCF7B3FD0022B7
:10CF1000012304000261069240C0083229000793F1
:10CF20000DF015FB0A4BE360BB69002B03D1300009
:10CF3000BC6129B0F0BD2361F9E7C0469CAA02009C
:10CF4000D3B902008F7A0200817A0200E3B90200AD
:10CF5000F77C0200F0B500260400734BDDB0083307
:10CF600003608160C2608680867132006F4947A885
:10CF70000AF061FF230014330125042708931223CC
:10CF8000009704950193089A330047A903960296E7
:10CF90001DA8FFF77FFA3200654947A80AF04BFF4A
:10CFA000082022000097330015AF1032049501903D
:10CFB00047A90396029632A8FFF76CFA32005D4942
:10CFC00038000AF038FF2300082004221C3309939C
:10CFD000390033000495019000920396099A029655
:10CFE00047A8FFF757FA3200534938000AF023FFE9
:10CFF0005420FCF73FFD05002000012312210422EC
:10D000001830079004930191009239000200330018
:10D01000280003960296FFF73DFA2800474BA562C9
:10D020000822EC620AA930300A930B960DF08FFAB1
:10D03000434B0422AB63012329352B7009992661E8
:10D04000E66107980DF083FA0422079908980DF01D
:10D050007EFA6621032304AA8918CB77BA2104AA91
:10D060008918CB77872104AA49008918A26ACB774F
:10D07000911CA685CB771DAB0C9332AB0D930F9211
:10D0800047AB32002F4910A80E930AF0D4FE30218E
:10D09000452004AB5B181B7812313B7004AB5B1866
:10D0A0001B8811397B8204ABC918C01810220DF0FF
:10D0B0004EFA04220CADA0683A75BD61BE830BF038
:10D0C0007BFD036839001B689847822204AB9B18DC
:10D0D0001B885432238404AB9B181B885432A384CE
:10D0E00004AB9B181B88A06863840BF065FD0700E8
:10D0F0001420FCF7BFFC0500134B066108221093B7
:10D10000119610A910C00DF022FA104BEB60BB690C
:10D11000B34206D1BD612000FCF7D2FA20005DB019
:10D12000F0BD2B61F6E7C046A8AA020013BA0200C0
:10D13000F3B9020003BA020023BA0200097E02001A
:10D14000757D020033BA0200B9D101009F7D020053
:10D15000F0B504000E00150085B01F000CAB1B8855
:10D160001030019309F03FFC268065801820FCF701
:10D1700081FC02AE050033000AAA03CA03C32F6074
:10D180002800082700213A000C300DF0FCF93A0085
:10D190003100281D0DF0DBF9064B02226B612000E7
:10D1A00000230199A5600A43E360A28023626362C1
:10D1B00005B0F0BDC97D0200F0B50B898DB00593B7
:10D1C000CB68060004934B88828C9A420ED1049C53
:10D1D000049B059A9B181B1B032B3BDD628821884F
:10D1E000012308A809F009FC0434F1E7428C9A42B3
:10D1F00030D1049C049B059A9B181B1B032B29DD33
:10D200002388282006936388F7680793124B0893B6
:10D2100000230993FCF72EFCC0236A460500029305
:10D2200008AB03CB03C233000699079A2800FFF727
:10D230008FFF3B6829005B6838009847002807D0BB
:10D24000002D05D0280009F0D8FA2800FCF732FCA0
:10D250000434CFE70DB0F0BD877E020070B5040046
:10D2600090B080680AF00AFE022101401AD1A38D15
:10D27000002B17D00C4B6A4604931023E568A18558
:10D280000591029304AB41CB41C20A00230006A8DA
:10D29000FFF75EFF2B6806A99B682800984706A841
:10D2A00009F0ABFA10B070BD877E0200002815D0DF
:10D2B000006041608260C360046145618661C7614E
:10D2C000444604624C464462544684625C46C462EE
:10D2D000644604636E46466374468463002A06D03F
:10D2E000C46B043C043A25681560B442F9D18C6BD8
:10D2F000A6464E6BB546002B06D0CC6B043C043BD7
:10D300001D682560B442F9D10C6BA446CC6AA346D3
:10D310008C6AA2464C6AA1460C6AA046CF698E6907
:10D320004D690C69CB688A68086849687047006075
:10D3300041608260C360046145618661C7614446A3
:10D3400004624C464462544684625C46C46264464D
:10D3500004636E46466374468463C46B043C0439BC
:10D3600025680D60B442F9D1C769866945690469C9
:10D370007047006041608260C360046145618661FE
:10D38000C761444604624C464462544684625C462B
:10D39000C462644604636C464463744684630469EF
:10D3A0007047846BA646446BA546046BA446C46ACA
:10D3B000A346846AA246446AA146046AA046C76995
:10D3C000866945690469C368826800684168704776
:10D3D00010B5041E0CD00DF01EF9431EE3189C423C
:10D3E00008D222781978013B21705A700134F6E78F
:10D3F000014810BD0020FCE717FCFFFFF0B585B029
:10D4000002900C1E2AD00023C217161A5640019310
:10D41000019B30005D1C63190A215F1E039303F01A
:10D42000BBFF49423031397030000A2103F0CEFE93
:10D4300047420600002F0FD1029B002B04DA2D2358
:10D44000019D039A02351370002320006355FFF7F6
:10D45000BFFF380005B0F0BD0195D9E7004FF8E7F0
:10D4600017FCFFFF10B582604A4304004160002AA8
:10D470000ADD074B90009A4201DD01204042FCF793
:10D48000F9FA2060200010BD00230360FAE7C046CF
:10D49000FEFFFF1F4A688B6870B58360534304002A
:10D4A0000D004260002B12DD0A4A9E0030009342BC
:10D4B00001DD01204042FCF7DDFA002320602A68EC
:10D4C000D158C15004339E42FAD1200070BD0023D0
:10D4D0000360FAE7FEFFFF1F70B5002817D1114D5A
:10D4E0002E68002E11D108300CF03DFE066046601B
:10D4F0000D4E04003368002B02D10BF0F1FF3060B9
:10D5000023682C609B00F3586360286870BD01227B
:10D51000064907480B681340F8D1026043600A606F
:10D52000F4E7C04664270020702700206027002011
:10D5300068270020002370B5040001604360994211
:10D540000AD1064D2B68002B02D10BF0C9FF2860D1
:10D5500023689B00EB586360200070BD702700209B
:10D56000436810B50400002B02D104480CF00FFDF5
:10D57000606803681B69984710BDC04643BA020043
:10D58000436810B50400002B02D104480CF0FFFCE6
:10D59000606803689B69984710BDC04643BA0200A3
:10D5A000436810B50400002B02D104480CF0EFFCD6
:10D5B000606803685B6A984710BDC04643BA0200C2
:10D5C00010B5040002F06AFB034B1B68002B01D06E
:10D5D0002000984710BDC04678270020F0B58BB0DA
:10D5E000050001F0C9FD002000F08AFD0368070076
:10D5F0001B6998473B6804009B69380098473B6863
:10D6000006005B6A380098470300288810380B280A
:10D6100062D803F047FD063E6161615B616161674D
:10D620006179AF88200039000CF0E0F922006B7BB3
:10D63000583201931378A8799C46022361460B4324
:10D64000137004AB1F80012304AA9370D0701300E1
:10D650006A461279E91D9A722B000622163305A834
:10D6600009930CF074FF29000B2004AB06220E3145
:10D67000C0180CF06CFF94346368A360A0680028A5
:10D680002AD0C36804A99847A368002BF4D01B696B
:10D69000F3E720002F49AF880CF0A8F92200022000
:10D6A00058321378A9798343137004AB1F809970A3
:10D6B000A0346368A360A06800280DD0C36804A9E3
:10D6C0009847A368002BF4D01B69F3E75B69A8882F
:10D6D000A91D002B00D09847290030000BF0C4FB97
:10D6E0000BB0F0BD636E002BF6D0AF79A366A06ED1
:10D6F0000028F1D0C36839009847A36E002B01D1F0
:10D70000636EF3E71B69F1E7012269460D27AB7BE6
:10D71000EF571A4001925A07920FDB080A720B73F7
:10D720000622E91D04A80CF012FF6A46127904AB28
:10D73000DA716A46127A9F711A726A46127B200069
:10D740005A722B000F3307938C348030236804A95E
:10D750009847C1E7FFFF00000723D72802D9024BF3
:10D76000186000231800704774270020014B1860D0
:10D770007047C046782700201FB58022A323D2051A
:10D78000DB00D3580820DB0700D405301C4B4822AF
:10D790001C4902F0D7FC00280AD080B2002807D12B
:10D7A000BFF34F8F184B194ADA60BFF34F8FFEE774
:10D7B000002302A8029301330370154B1B684360DA
:10D7C0000BF006FA002802D0072005B000BD68461D
:10D7D0000BF0FCF90028F7D169460BF0F5F90028A9
:10D7E000F2D10C4802F0DEFC80B20028EDD10A48EC
:10D7F00002F0E2FC80B20028E7D101F021F8E4E772
:10D80000D58B02007C27002000ED00E00400FA0523
:10D8100074270020DDD50100C1D5010080B20028A9
:10D8200007D1BFF34F8F034B034ADA60BFF34F8F2B
:10D83000FEE7704700ED00E00400FA0513B5046848
:10D840000093A46813000A000149A04716BDC04612
:10D85000FFFF000037B506AC2578046801950093FA
:10D86000246913000A000149A0473EBDFFFF0000E4
:10D87000F0B587B00D00002469466F4616004C8055
:10D880000DAA0CA90988127839800193A2421BD1F4
:10D8900001004479F83194420DD908310F00083F56
:10D8A0003F88B7421BD130212032920012580132FA
:10D8B000D27F0A4215D16A46310028000BF092F956
:10D8C000002808D1062407E06A46310028000BF042
:10D8D00089F9002800D00324200007B0F0BD0132F0
:10D8E000D9E710210A4051424A41002002ACE360CE
:10D8F0000CABA360174B01322680A270A0809D4222
:10D9000007D100F0FDFB03681B6998470CF071F824
:10D910000500210028000BF069F9002482B2A24220
:10D92000DAD0112A13D00BD8082ACBD06A4631009E
:10D9300028000BF057F905240028CDD0023CCBE796
:10D94000054B9A4203D0054B9A42EFD1BAE7052422
:10D95000C2E7C046FFFF00000330000001340000B2
:10D96000F0B5050099B008002E240C9100F072FD6E
:10D9700006ABE4181290220012A901200BF030F936
:10D98000002802D0032019B0F0BD23880C9A0B9018
:10D9900093830C9B0B9A1B7D934200D8C6E06B7956
:10D9A0001D2B01D90720EEE70C9B9B690D930B9B68
:10D9B0000D9A9B009C586369002B07D1638B002B49
:10D9C00004D1631CDB7F022B00D1AAE0200000F011
:10D9D00041FD23000026283312900E960D960F93DA
:10D9E0000F9B1B78B34221D9626AB3009F5834223F
:10D9F00006AB9B1800221A700023002113AAD2182C
:10DA000001335170102BF8D1462206AB9B184A4ABD
:10DA100013A938001A800BF071F9002803D07B6934
:10DA20000D937B8B0E930136F6B2D9E76979A31C6F
:10DA30001F31C9006918621CDB7FD27F0891210069
:10DA40002A310978002007912100293109780691AF
:10DA50000E9905910D990491217F0391218B0291DB
:10DA6000618B01916169009112A90BF091FD002871
:10DA700000D087E76B7907001A00203292001F332D
:10DA80005451DB005B5BE3836B7901336B712300E3
:10DA900028331B78BB4244D98E239B00EB5C132BAD
:10DAA00000D97FE7626ABB009E580023180013A9C3
:10DAB0000B70CA1801335070102BFAD11E4B300076
:10DAC0004B820BF01BF90D90002827D1300000F09D
:10DAD000C1FC8E2189006A5C738B1E32FF325200BA
