:020000021000EC
:1080000000400020ED0E0200290F02002B0F02009D
:108010000000000000000000000000000000000060
:108020000000000000000000000000002D0F020012
:1080300000000000000000002F0F0200310F0200BE
:10804000330F020051BA0100F90B0200330F020096
:10805000330F020000000000ED0C0200330F02009D
:10806000330F0200610702005D0C0200330F0200B3
:10807000330F0200330F0200330F0200330F0200F0
:10808000330F0200330F0200330F0200330F0200E0
:10809000330F0200B901020095010200330F020004
:1080A000330F0200330F0200000000000000000048
:1080B00000000000000000000000000000000000C0
:1080C00010B5064C2378002B07D1054B002B02D0AE
:1080D000044800E000BF0123237010BD20220020CF
:1080E0000000000068BC0200044B10B5002B03D058
:1080F0000349044800E000BF10BDC0460000000076
:108100002422002068BC0200164B002B00D1144B27
:108110009D46402292029A1A924600218B460F46B3
:108120001348144A121A12F043FA0F4B002B00D0D6
:1081300098470E4B002B00D09847002000210400E8
:108140000D000D48002802D00C4800E000BF0DF0E3
:108150003FFA2000290011F0F6FD0DF023FAC04689
:1081600000000800004000200000000000000000A7
:1081700018220020042B0020000000000000000056
:1081800010B50400034B036040300EF095FB200057
:1081900010BDC046B0A80200F0B58FB0614908A874
:1081A00003F0A0FD08A906A801F064FD08A80EF0E0
:1081B00009FD5D4908A801F04DFD08A906A80EF0CB
:1081C000F4FB040008A80EF077FB002C19D1574DE2
:1081D000574E2B783478002B18D0002C00D074E048
:1081E000544908A801F036FD08A906A80EF0DDFBE9
:1081F000070008A80EF060FB002F02D001232C70AE
:10820000337006A80EF058FB0FB0F0BD002C5CD107
:108210000EF062F8C825060027006D00464908A840
:1082200001F018FD454C2A0008A9200003F01AF8B7
:1082300008A80EF041FB42480EF056FE002820D060
:1082400040480EF051FE00281BD020000FF069F8C6
:10825000069B3D4C181D21000DF050FB12F06CF9EF
:108260003A4B2100186000200DF048FB12F064F931
:108270000122374B1860374B1A700022364B1A70A8
:10828000BFE70EF029F8002300900193009A019BAC
:10829000921BBB411100002B02D1304B9942BDD93A
:1082A0002F4908A801F0D6FCC82208A952002000D6
:1082B00003F038F808A80EF0FFFAAF20800001F0B4
:1082C0007BFA20000FF02DF8D7E7069B1C1D0AABA8
:1082D0000893002C22D0200012F0B2F92518079044
:1082E0000F2807D9002207A908A808F079FE079BE4
:1082F00008900A932A002100089812F047F80022FB
:10830000079B089909931748CA5408A912F0AFF8B7
:1083100008A812F024F8144B0122B0E7134812F019
:1083200009F8C04698260020FCB402002E2A00203E
:10833000312A002036B502003EB50200A0230020FD
:108340005C2200208422002040B50200B0220020E0
:10835000AC2200202F2A0020322A00201027000003
:1083600031BB020044220020302A002042B5020026
:10837000F0B585B01F000AAB1B88060002911500FE
:108380000393002F1CD0282001F058FB6B460400FB
:108390001989039BAAB200933B000EF02CFA3368B4
:1083A00021005B683000984700280AD0002C05D0D7
:1083B00020000EF037FA200001F060FB024800E0D8
:1083C000024805B0F0BDC04616FCFFFF17FCFFFFDA
:1083D000F0B59DB002AFF04800F046FEEF4803F064
:1083E0007DFB1C2001F02AFBF86100F0E1FB01207D
:1083F00001F024FBB8620DF027FF30221023BA18D9
:10840000D3184022BB6300230124BA181370E44A36
:10841000FB631370E34A1370E34A1370E34A13706B
:10842000E34A13701023E34D009322002B001D211B
:10843000E148FFF79DFFE1480EF056FD002801D00E
:10844000D84B1C701023220000931D212B00DA480A
:10845000FFF78EFF642001F0AFF9D44B1D78002D9B
:1084600000D1C6E130232025FB18D549581901F069
:10847000F1FB3023FB185919D2480FF02DFA3023A5
:10848000FB1858190EF018FA0022C54B1C70C54B8A
:108490001A70C34D2B78BB61002BC3D0CA4BBF4CA5
:1084A00019682000C9B203F005FBC84B2000196809
:1084B00003F072FA012300262B70BA4B20241E70A1
:1084C000B94BC3491E70B94B1E70B94B1E70302397
:1084D000FB18181901F0BEFB3023FB18782219197C
:1084E000BC4802F0AFFF3023FB1818190EF0E4F976
:1084F0003023FB181819B84901F0ACFB3023FB18E6
:108500001919B0480FF0E8F93023FB1818190EF0CC
:10851000D3F900240023BB62FC62322001F04CF945
:108520000DF0DAFE00231D0038627B62AB480EF0CE
:10853000DBFC041E00D0F5E10DF0CEFE002D4BD08B
:1085400038607C603A687B68386A796A652464427E
:10855000E517121A8B41A4185D413C617D61BA6038
:10856000FB607B69002B00D0DEE195213B6949006F
:108570008B4200D9D8E130232025FB18984958199F
:108580000EF080FA30217B69924C01937B69791857
:1085900000937B6949191A00200002F099FE3023EC
:1085A000FB1858190EF061FA2E2130220823BA1850
:1085B000D01811F081FFAF20800001F0FDF82000FD
:1085C0000EF0AFFE0DF088FE0023B862FB620DF0E6
:1085D00083FEFB6A38627B62B86AF96A3A6A7B6A30
:1085E000121A8B411100002B04D1FA23DB009942AF
:1085F00000D87FE0BB6AFA6A13437BD0302208239D
:108600002025BA18D118501911F082FF3023FB1819
:108610005919F8690DF0E7FE3023FB1804005819CA
:1086200011F09DFE3F2C00D1C9E12100F8690DF049
:10863000A9FE30232026FB180200F969981900F0E2
:1086400097FA30233022FB1899190823BA18D0184A
:1086500011F00DFF30236D46FB18981911F07FFEC5
:10866000FB6BB96B0833DB08DB00EB1A9D4602ACF1
:10867000200011F0DDFF34232100F81801F0EAFAA0
:108680003023FB182100981901F0E4FA3023FB187D
:1086900099194C480FF020F93023FB1898190EF067
:1086A0000BF93023FB1898194E4901F0D3FA302307
:1086B000C822484CFB1899195200200002F0D2FD44
:1086C0003023FB1898190EF0F7F8AF20800001F066
:1086D00073F820000EF025FE3423F8180EF0ECF8A5
:1086E000AD46BE690023BA6BFB6300241370002300
:1086F000BB62FC62322001F05FF81023012200937C
:108700001D212C4B2C48FFF733FE322001F054F88A
:10871000274B1B78002B00D1FFE6002E00D0FFE096
:1087200030232025FB183049581911F0F1FE302371
:10873000FB185919F8690DF056FE3023FB18040098
:10874000581911F00CFE3F2C04D02100F8690DF0EF
:10875000F0FD040030232025FB18210058190EF0ED
:10876000D5F83023C8221B4CFB18520059192000A1
:1087700002F078FD3023FB1858190EF09DF8AF2059
:10878000800001F019F820000EF0CBFD0023164AFE
:1087900053601268137029E0B42200208026002064
:1087A000312A0020322A00202E2A00202F2A0020E1
:1087B000302A002099810100842300208422002097
:1087C00036B5020098260020B0220020AC220020FE
:1087D00074B50200A0230020FCB402005C2200203B
:1087E000402200207BB5020044220020824A137000
:1087F00093E6824B1B78002B00D14AE630232026DB
:10880000FB1898197E4901F025FA3023FB189919B5
:1088100078227C4802F016FE3023FB1898190EF0DF
:108820004BF80DF059FD01950090FF222900B86A20
:108830000DF00BFD744E3060642000F0BDFF0DF0B4
:108840004BFD0195009064222900B86A0DF0FDFCF3
:108850006E4A0300106034206D4A38180092326866
:10886000B96A0DF0FFFC34232026F918043BFB18ED
:1088700098190EF083F83023FB18991965480FF00A
:108880002BF83023FB1898190EF016F8642000F02E
:1088900093FF0DF021FD604B38617D611C7010234A
:1088A000220000931D215D4B5D48FFF761FD3220E2
:1088B00000F082FF5B4B1D78002D09D00023564A43
:1088C00013704E4A13703423F8180DF0F5FFE0E5ED
:1088D0000DF002FDFD60B860BA68FB68386979691F
:1088E000121A8B411100002B02D14F4B9942D6D95D
:1088F00030232025FB184D49581901F0ABF93023DE
:10890000FB18782259193F4802F09CFD3023FB18D0
:1089100058190DF0D1FF0023384A13703E4AD1E7B1
:108920000026FAE5BD6901E60125BA68FB68404CFE
:108930006D4212196B413A617B617B69002B1FD13B
:10894000C7213B6949008B421AD830232025FB18E8
:10895000384958190EF096F830217B69294C01935B
:108960007B69791800937B6949191A00200002F08D
:10897000AFFC3023FB1858190EF077F82D2114E6C0
:10898000FB68002B05D1C823BA689B009A4200D827
:1089900018E630232025FB185819274901F05AF909
:1089A0003023C822174CFB1859195200200002F03E
:1089B00059FC3023FB1858190DF07EFFFBE53023DE
:1089C0002025FB1858191D4901F044F93023C8220D
:1089D0000C4CFB1859195200200002F043FC3023C4
:1089E000FB1858190DF068FFAF20800000F0E4FE7E
:1089F00020000EF096FC75E6302A0020322A002076
:108A00006CB50200A0230020B0220020AC22002080
:108A100040B50200982600202E2A002099810100EE
:108A200084230020312A00201027000031BB0200DF
:108A30006FFEFFFF3C22002005B902007DB5020059
:108A4000F7B5234800250300224C083303602200B9
:108A500045600572204911F090FB204E300000F077
:108A600043FA22001E49300011F087FB1D4E1E49BB
:108A7000300001F0FBF91D4F22003900300011F0E9
:108A80007CFB1B4E1B49300001F0F0F9220039003D
:108A9000300011F072FB0123174E1A0000951121CE
:108AA000300001F08BFD154F22003900300011F02D
:108AB00064FB134E00950123300002221A2101F0BD
:108AC0007DFD39003000220011F057FBF7BDC04694
:108AD000442200200020002063A40200B4220020D1
:108AE000058B010040220020C8B402006B6A02001E
:108AF0003C220020FDB402005C220020A5A501005C
:108B000084220020EB23194A9B0010B5C2501C336D
:108B10000400C0180DF0D0FEF1239B00E0180DF00A
:108B2000CBFE84239B00E01801F076FD2000C530C9
:108B3000FF3001F095FA20008D30FF3001F032FD5A
:108B400020006530FF3001F02DFD2000EC3002F0F8
:108B500005FA2000D03002F0DBFD2000643007F081
:108B60005DFC201DFFF70CFB200010BDB4AA020025
:108B700070B50C000D49050016000DF0B1FBE3685F
:108B8000A361A169231D994208D00B0028331B78EB
:108B9000B34205D11031280011F0FDFB280070BD53
:108BA000200018300DF0BDFBEBE7C0467DB502009C
:108BB00070B5A84CA849A544040068460DF090FB88
:108BC00041236A46A549137607A80DF089FB422286
:108BD0000DAB1A70A2490EA80DF082FB432214AB14
:108BE0001A70A04915A80DF07BFB44221BAB1A702C
:108BF0009D491CA80DF074FB452222AB1A709B49BD
:108C000023A80DF06DFB462229AB1A7098492AA8BB
:108C10000DF066FB472230AB1A70964931A80DF073
:108C20005FFB482237AB1A70934938A80DF058FB08
:108C300049223EAB1A7091493FA80DF051FBFF232A
:108C40004A226B445A758E4946A80DF049FB982379
:108C50004B2269465B00CA544DA88A490DF040FB7F
:108C6000A6234C2269465B00CA5454A886490DF0DD
:108C700037FBB4234D2269465B00CA545BA8834985
:108C80000DF02EFBC2234E2269465B00CA5462A837
:108C90007F490DF025FBD0234F2269465B00CA5463
:108CA00069A87C490DF01CFBDE23502269465B005D
:108CB000CA5470A878490DF013FBEC235122694681
:108CC0005B00CA5477A875490DF00AFBFA235222BB
:108CD00069465B00CA547EA871490DF001FB8423EC
:108CE000532269469B00CA5485A86E490DF0F8FAD4
:108CF0008B23542269469B00CA548CA86A490DF004
:108D0000EFFA9223552269469B00CA5493A86749FB
:108D10000DF0E6FA9923562269469B00CA549AA898
:108D200063490DF0DDFAA023572269469B00CA541F
:108D3000A1A860490DF0D4FAA723582269469B00E8
:108D4000CA54A8A85C490DF0CBFAAE235922694653
:108D50009B00CA54AFA859490DF0C2FAB5235A2254
:108D600069469B00CA54B6A855490DF0B9FABC2310
:108D7000312269469B00CA54BDA852490DF0B0FA91
:108D8000C323322269469B00CA54C4A84E490DF041
:108D9000A7FACA23332269469B00CA54CBA84B4981
:108DA0000DF09EFAD123342269469B00CA54D2A802
:108DB00047490DF095FAD823362269469B00CA54DC
:108DC000D9A844490DF08CFADF23352269469B006F
:108DD000CA54E0A840490DF083FAE62337226946D9
:108DE0009B00CA54E7A83D490DF07AFAED233822DA
:108DF00069469B00CA54EEA839490DF071FAF42374
:108E0000392269469B00CA54F5A836490DF068FA24
:108E1000FB23302269469B00CA540023221D1C26D6
:108E2000E26022612371A3606361FCAA20000DF05F
:108E300031FB7642F5AD6E4428001C3D11F08FFAEF
:108E4000B542F9D100232000A361FC239B009D447F
:108E500070BDC04610FCFFFF95B50200C7B502000B
:108E60007FB50200CEB50200D6B5020084B502007F
:108E7000D4B50200BBB50200CFB50200A9B502000F
:108E800094B5020089B50200DBB50200D5B5020039
:108E9000DAB502008EB5020093B5020080B502007B
:108EA000C8B50200DCB5020099B50200B5B50200F4
:108EB0009EB5020098B502009DB50200CDB5020036
:108EC000A2B50200A8B50200AEB50200B4B502001A
:108ED000BAB50200C0B50200C6B50200CCB50200AA
:108EE000D2B50200D8B502001423F0B5040095B045
:108EF000009319221821043002F03AFF22002700C3
:108F00006432B43713211000119207F093FA38003D
:108F10000EF05DFD2200B83210921E210022109842
:108F20000EF004FA2000D03002F012FC2200EC32E5
:108F300012920621494A129802F034F820000026C5
:108F4000012365301A0000961121FF3001F036FB35
:108F500020008D300096012302221A21FF3001F0FB
:108F60002DFB25002000C535B530FF351A23022220
:108F70000121FF3002F0AAFC109904233A222800B4
:108F800001F01EF984229200A218139205231D22DB
:108F9000019300923B002A001099139801F032FDD2
:108FA00096229200129BA01813992A0001F004FF48
:108FB00099229200A01839001C2203F005F8192309
:108FC0009F220F93013B0E93013B0D93013B0C93AA
:108FD000013B0B93013B0A93013B0993013B08932F
:108FE000013B0793013B0693013B0593013B04932F
:108FF000013B0393013B0293013B01939200013B30
:10900000A01800930822013B07210EF097F9EB23EB
:109010009B00E018390003F077FBF3239B00E01876
:109020001D2102F099FCFD239B00E650119826704B
:10903000032110F0B8FD23002200200008499C33D2
:10904000A0321C6011605660064A80305A610221CD
:10905000012207F0FDFE200015B0F0BDB8A8020007
:10906000416502002B6502000123F0B506788DB042
:1090700004001E4000D0A4E0FD20800500F0A6FC06
:109080002300D0331800029300F07AFA00F0A0F920
:10909000282000F0D3FC050010300DF0B9FC4A4B3D
:1090A00018202B6000F0CAFC0700484B046008221F
:1090B00031000C300A930B9611F07AFA0AA9381D88
:1090C000082211F059FA424B29007B611223AF604C
:1090D000EE60AB802E626E62029802F0B1FA002858
:1090E00005D028000DF09EFB280000F0C7FC0123EE
:1090F000227864201343237000F05EFB00252700D4
:109100006537FF3738000DF0EFFE002855D02000FE
:109110008D30FF300DF0E8FE00284ED00A2D4CD0E7
:109120006420013500F048FB0A2DE8D129492A487E
:1091300000F022FCEB23FD269B00E318B60003930E
:10914000A359002B32D100F057F8010006A800F017
:1091500081FD0DF079FA04900DF076FA6B460590DA
:10916000198A08A80DF0C5FB059B09A8190C0DF07C
:10917000C0FB09AA08A907A80DF027FC09A80DF053
:109180009BFB08A80DF098FB012307AA06A90093F2
:109190000398029B03F00CFB07A80DF08DFB06A8BB
:1091A0000DF08AFBED239B00E358A35121003A0008
:1091B000EC31039803F0A2FCA1E70649074800F050
:1091C000DBFB0DB0F0BDC046FD030000B36502003F
:1091D0007365020000200020001C00200800002011
:1091E000BFF34F8F024B034ADA60BFF34F8FFEE7A6
:1091F00000ED00E00400FA05F0B58DB005AF1922CE
:109200001549380011F0B8F90022144B05245A71A1
:1092100080225205566E012225000194029203938A
:109220000199300007F0B2FF0800029907F028FF0B
:10923000019B03996B430193029B361A6B43029384
:10924000631E2C1B6C433C19225C1C1ECA54E7D1C4
:1092500008000DB0F0BDC04614B60200332A00204D
:10926000F0B597B018220021060010A811F0A0F95F
:10927000132110A810F0D6FD032110A810F0A1FEB4
:109280004C4B1B68002B00D10133DBB202934A4ADE
:10929000012300210BA807F015FD484B9E4200D981
:1092A000002672B6464B64211D68464B300007937A
:1092B000052407F06FFF60435030281808900A21FA
:1092C000300007F067FF0A2108F04AF86143503187
:1092D0006918099130000A2108F042F8802361439F
:1092E0000024503169189B010A910193029B002BC5
:1092F0005DD0002500272E1F07AB9B190593032C7B
:1093000003D1802300249B01019307AB5B592E4AB4
:1093100003936300D31804930023190006205843D5
:10932000049A16187678B4466246039EB25C1026FC
:109330009446049A105C62460641164202D001200F
:10934000984001430133092BE8D1C9431F4B059ACB
:10935000090119401268039B934225D1312F23DC68
:1093600000210BA810F0FFFEFA23159A1199DB00DB
:10937000106801421BD0013B002BF9D1019B013445
:109380005B000193FA230137E4B25B009F42B6D140
:109390000435102DAED1074B1B68002BA6D0029FC1
:1093A000013FFBB20293A1E7019B1943D9E7FFF705
:1093B00017FFC046B0260020F0FF0000E7030000C2
:1093C0000420002063B602002DB60200F01F00004A
:1093D000F8B50023124C23600DF028F9002808D0BE
:1093E000042120000DF01EF9002801D00D4B236050
:1093F000F8BD0122A12704250B4B0C491A602268F5
:10940000FF0048604E68002EFCD0DE591202013D7C
:109410003243002DF5D1226001225A60E8E7C046B0
:10942000AC260020ED5EBC0B00D00040FCD000401C
:109430000B4B70B51C68002C10D0656D00F0C6FB9E
:10944000A36C002901D1834206D820000DF021F938
:10945000044920000DF00BF92C00ECE770BDC0466C
:10946000B8260020D8260020F0B593B007932A4BE9
:1094700004AC1E68049005910692002E4AD0274B3A
:10948000258867881C6800230293002C2ED0636D0A
:1094900023480393A36C9AB2A36C1B0C99B2854228
:1094A00014D12048824211D1002B01D0B9420BD1F6
:1094B000029B002B08D120000DF0EBF81A49200088
:1094C0000DF0D5F801230293039CDEE7002A01D0BA
:1094D0009542F9D1002B01D0B942F5D120000DF011
:1094E000D8F8114920000DF0C2F8EDE70F4BEB184A
:1094F000012B0FD910233A00009329000C4B08A828
:109500000DF079F9336808A99B683000984708A8DE
:109510000DF088F913B0F0BDB4260020E426002039
:10952000FE030000FF030000D826002002FCFFFF1E
:109530006994010010B572B60B4B1C68002C08D062
:1095400020000DF0A6F80023E364084B2000E3633D
:1095500010BD62B65C2000F071FA5C2200210400AC
:1095600011F026F8EFE7C046DC260020004000207E
:10957000024B1878012318407047C046392A002052
:10958000F7B50600FFF7F4FF051E33D11A4C26602D
:10959000FFF7D0FF194B1A4918600DF068F8FFF774
:1095A000C9FF184B1860184B4363184B836320683E
:1095B00000280ED0C027164E2A0033001549009708
:1095C000FEF7D6FE009733002A0013492068FEF705
:1095D000CFFE0C2000F032FA0023838083710F4B02
:1095E00003600F4B836000F009FB01230D4A1178E3
:1095F0000B431370F7BDC046B4260020E8260020B8
:10960000D8260020E0260020FC3F002059670200F9
:1096100069940100FF030000FE030000D8A80200C7
:1096200031940100392A0020F7B506000D0017001B
:109630000193002802D100242000FEBD0029FAD0A9
:10964000FFF778FF041EF6D0074B019A43630660CC
:1096500045608760054B002A00D0054BA363054990
:1096600020000DF004F8E7E7FC3F0020236702002C
:1096700041670200D8260020024B18684342584137
:109680007047C046D8260020002310B504499C002E
:109690006258002A01D00133F9E76050100010BD74
:1096A000C0260020002310B5044A99008C5884423B
:1096B00001D00133F9E70020885010BDC0260020FA
:1096C00010B50024084BA200D058002802D003682F
:1096D0005B6898470134062CF4D1044B1B68002BBF
:1096E00000D120BF10BDC046C0260020D8260020D3
:1096F000F8B5FFF73DFF00281BD0294D2C68E36C1F
:10970000DA0717D502263343E3640423254F38686C
:10971000C26C1343C364636BC3630CF0E0FF38682F
:10972000416C03F0E8FD2868C36C334201D003F0BC
:109730001CFEF8BD1C4F1D4E3A683168002A1ED130
:1097400029602A688A4208D11B0706D52C60FFF7DA
:10975000B7FF3B68002BFAD02B6029688C42E8D019
:109760003368994214D1124B4B63124B8B63200028
:109770000CF0B5FF2968626C4B6C20000DE0206D89
:10978000B84203D1606D002800D002002A60D8E7FB
:109790009C42ECD1002210004B6C03F06BFDC8E73B
:1097A000E8260020BC260020D8260020E026002045
:1097B000FC3F00205967020070B50500FFF7D8FE96
:1097C000002803D1280010F0F0FB70BD0C4B1C6882
:1097D000E36CDB0706D5FFF7ADFE0A4B18600028E7
:1097E00000D0040000F0F2F92D18A56420000CF060
:1097F00050FF054920000CF03AFFFFF779FFE4E73E
:10980000E8260020BC260020B8260020F0B51E4B1C
:109810001E4F1C683B6885B006000391002B30D0BA
:10982000FFF7A6FE00282CD0E36CDB070ED5FFF770
:1098300081FE174B051E186008D00CF02AFF154951
:1098400028000CF014FF2C00FFF752FF039B2000B0
:109850001B043343A3640CF01CFF20000E490CF0E2
:1098600006FF0E4B0024F318012B07D9C0230093E9
:10987000039A0B4B31003868FEF77AFD200005B0E3
:10988000F0BD084CFAE7C046E8260020B4260020C8
:10989000BC260020D8260020E426002002FCFFFF82
:1098A0006994010016FCFFFF10B5FFF761FE002868
:1098B00009D0054C20680CF0ECFE044920680CF03F
:1098C000D6FEFFF715FF10BDE8260020DC2600209D
:1098D000F7B507000D0000282ED0FFF749FE00283D
:1098E0002CD00724164E3068C36C1C4007D0154A94
:1098F000290038000CF0E4FE00242000FEBD03F037
:109900001CFD02213268D36C1940019103D0032160
:109910008B43D364F1E701242343D3642800B84781
:109920003268D36C1900A143D164019C5B07E4D574
:1099300028000CF0FDFEE0E7034CDEE7034CDCE71B
:10994000E82600203167020017FCFFFF16FCFFFF2E
:10995000020010B5014B12CB12C210BDEC26002044
:10996000034B1A68034B1A607E225A607047C04648
:1099700004200020EC26002070B5104D2B78022B1F
:1099800018D0814218D90B1A072B15D90C000323C4
:1099900004431C4010D172B62A78094BD200D05033
:1099A000981841600CF0DEFE2B7801332B7062B604
:1099B000200070BD0348FCE70348FAE73A2A00207C
:1099C000F426002013FCFFFF17FCFFFF70B50021F9
:1099D000041C07F0E7FC002828D1FE21201C890583
:1099E00007F0EAFC002821D104300BF015FE050039
:1099F0000F48401B08F0C0FC211C08F05DF907F07F
:109A00000FFD03239843040028000BF00FFE2000F5
:109A10000BF002FE002804D1203C002CF7D10548B1
:109A200003E00119FFF7A8FF002070BD0248FCE722
:109A30000038002013FCFFFF17FCFFFF70B5060085
:109A400000250C4B1B78AB4209DD0B49EB00C91814
:109A500030000CF08FFE041E09D10135F1E7300013
:109A60000BF0DAFD041E02D11420FFF7F9FB2000F1
:109A700070BDC0463A2A0020F426002070B50028A8
:109A800013D00D4B0D491C7800239C4210DDDA00E9
:109A9000555885420AD28A185268824206D98023D4
:109AA000043802681B061343036070BD0133ECE702
:109AB0000BF0BCFDF9E7C0463A2A0020F42600204E
:109AC00070B5051E14DD0B4E0B4C3368002B02D015
:109AD000206810F0E5F8FA2120680024074B89007F
:109AE0008361C4626943356010F0E2F8200070BD04
:109AF0000348FCE70427002034270020A99B01002D
:109B000017FCFFFFF8B5114F06003D68002D0AD184
:109B10003020FFF793FF040006F0B0FC0C4BA5616A
:109B20002360E5623C600B4D2B68002B09D11020AF
:109B3000FFF784FF040010F07CF820002C6010F088
:109B400052F83000FFF7BCFFF8BDC04634270020B4
:109B500050AE020030270020014B18687047C04605
:109B60000427002070B50D4C2368002B03D00C4B4C
:109B70001B68002B02D10620FFF7C4FF206810F0FD
:109B800049F802000749C3170D684E68521973411E
:109B900020680A604B6010F043F870BD3027002049
:109BA000342700201822002010B5FFF7DBFF002427
:109BB000054BA200D058002802D003681B689847C4
:109BC00001340A2CF4D110BD0827002010B5FFF78E
:109BD000C9FFFA22034B920018685968002307F066
:109BE000FFFB10BD1822002010B5FFF7BBFF024B92
:109BF0001868596810BDC046182200200B4B10B5DC
:109C00001B680400002B03D0094B1B68002B02D1FA
:109C10000620FFF777FF0023064A9900885800289E
:109C200001D00133F9E78C5010BDC0463027002029
:109C30003427002008270020002310B5044A99008B
:109C40008C58844201D00133F9E70020885010BDC0
:109C50000827002010B50400002902D00B78002B43
:109C600003D1034B2360200010BD0CF02CFEFAE75B
:109C7000E8A80200F8B5040008000D000CF0DEFFB3
:109C8000002803D1134B23602000F8BD28000CF0FE
:109C9000D5FF0530FFF7D2FE20600CF0D2FF280080
:109CA0000CF0CCFF23685880236828001E1D0CF0A0
:109CB000C2FF070028000CF0C1FF3900020030008D
:109CC00010F05AFC280026680CF0B8FF0023361864
:109CD0003371D9E7E8A80200F8B504000E001500BA
:109CE00000290AD00B78002B07D0002A05D00800E5
:109CF00097B210F0A5FC874203D90B4B23602000DC
:109D0000F8BD681DFFF79AFE20600CF09AFF2368EB
:109D10002A005F8023683100181D10F02DFC236895
:109D20005D1900232B71EAE7E8A80200014B0360EC
:109D30007047C046E8A8020010B50548054C2060F1
:109D40000CF082FF044A0549200010F016FA10BDFD
:109D5000E8A802003827002000200020B96802008F
:109D6000084B73B51C680500002C0AD0010026685A
:109D700008310822684610F0FFFB0CCD3168200046
:109D8000884773BD3C270020014B03607047C046E5
:109D9000F0A8020030B500684488A1420CDA85883A
:109DA000AA4209DA002907DB002A05DB54434018E0
:109DB00000198371002030BD0048FCE717FCFFFF4D
:109DC000F0B5070085B00E001D0000291FDD002B37
:109DD0001DD00468638803938B4200DD0391A38840
:109DE0000293934200DD0292002306340193019B0B
:109DF000029A93420EDA29002000039A10F0BCFB6D
:109E00003B68AD195B88E418019B0133EEE702481B
:109E100005B0F0BD0020FBE717FCFFFFF8B504001C
:109E20000D0016001F00002901DB002A02DA0E4B8C
:109E30002360F8BD100048430630FFF7FFFD2060A7
:109E40000CF0FFFE23685D8023689E80002F06D003
:109E50003B00320029002000FFF7B2FFE9E72000B5
:109E60000CF018FEE5E7C046F0A80200F0B50600C9
:109E700087B00D1E04D1244B0360300007B0F0BD45
:109E800000200F000400010001903B78002B1AD045
:109E90003022524294469C446246092A11D90A2B28
:109EA0000AD1019B241801330193A14200DA210059
:109EB000002004000137E8E70028FBD0013400202F
:109EC000F8E70120F6E76A46928809B212B230003C
:109ED000FFF7A4FF33689C1D03AB1F002A78002AFC
:109EE000CBD011003039092903D81A70013301355C
:109EF000F4E700221A70BB42F9D9380010F01CFBBD
:109F00003B0020700134F2E7F0A80200F0B5040035
:109F100089B006A80E0002921D00FFF719FD236804
:109F200002995A88914235DA9B889D4232DA1F2E77
:109F300030D9079B01939E422CDC052300227343FA
:109F40000393069B0493039B04999B18A03BCB5C53
:109F500000210593AE18029BCF1823685888019002
:109F600087420EDA9888B0420BDDDB1910270F41CB
:109F7000019870431B1805980740781E87417F425F
:109F80009F7101310529E6D10132052ADBD100207C
:109F900009B0F0BD0048FBE717FCFFFFF7B5046808
:109FA000070063880E1E01931EDD994218DA002314
:109FB000063400933B68009A9B889A4212DA019B10
:109FC000A1199D1B2A00200010F0D6FA601931005B
:109FD0000CF052FD3B685B88E418009B0133E8E716
:109FE0000CF058FD002000E00048FEBD17FCFFFF0C
:109FF00010B50548054C20600CF026FE044A0549C2
:10A00000200010F0BAF810BDF0A802004027002090
:10A01000002000206B6A020010B5054C01212000D1
:10A020000CF0FAFD034A0449200010F0A6F810BD18
:10A030004427002000200020C56B02000388074A47
:10A0400010B50120934208D0834202D00020DB07E4
:10A0500003D41E20FFF704F9002010BDFFFF00000D
:10A0600010B50400034B08330360FFF71BFB20000F
:10A0700010BDC04638A90200FA2270B5438992008B
:10A080005343314A31491400050038348B421BDCFC
:10A090002F498B4218D82F49083C8B4214D82E499F
:10A0A000083C8B4210D82D49083C8B420CD82C49D7
:10A0B000083C8B4208D82B49083C8B4204D82A49DB
:10A0C00014008B4200D90834284B2A7B1E1D042A19
:10A0D00003D89E1C022A00D81E00FA21206889009D
:10A0E00006F0CEFF337868812B7300222A212800E6
:10A0F0000CF0CEFD002801D01D4870BD10222B2190
:10A1000028000CF0C5FD0028F6D101222D212800E1
:10A110000CF0BEFD0028EFD101222E2128000CF00A
:10A12000B7FD0028E8D172780E2128000CF0B0FDB0
:10A130000028E1D1012223792A211A4328000CF0BA
:10A14000A7FD0028D9D0D7E7F8A8020000C409006D
:10A150000071020080380100204E0000102700002E
:10A1600088130000C4090000E204000043B80200A4
:10A170000EFCFFFF7FB515000F226A4404001E008D
:10A180001170002D16D0002B14DD012301890093DE
:10A19000006B01F0D1F9002802D0074804B070BD6F
:10A1A0000090218933002A00206B01F07BF9002800
:10A1B000F4D0F2E70148F1E70EFCFFFF17FCFFFFC8
:10A1C000F7B50600002501931E4B14360833040032
:10A1D000036085808571C581058245820F000092EC
:10A1E00029001822300010F0E3F91C2130000FF094
:10A1F00019FE6B469B880221A3806B461B882200B8
:10A2000023811423A5712173A563A58763813E3241
:10A21000137827638B43F1310B4013702300957241
:10A2200095810135221DD5870833A21DD5872000D1
:10A23000DD87FFF721FF002802D1A3791D43A57117
:10A240002000FEBD38A9020030B50425837987B00F
:10A2500004002B4204D1FFF717FAA3791D43A5711F
:10A26000A36AA2691B6800251A4208D106236A4620
:10A2700001212000FFF77EFF051E03D0114D2800AD
:10A2800007B030BD6B460222042069469A56185624
:10A29000237BD2005A43228202220978C00049B2AD
:10A2A000C900594343436382A379E1819343A37176
:10A2B00020000CF0FBFC0123A1881A0002A80CF07E
:10A2C000B1FBDCE70EFCFFFFF8B50400FFF7BCFFB5
:10A2D0000E22A35E794F5B42BB4251DA23003E332C
:10A2E0001B789B074CD50125210028003E310B78B7
:10A2F0005A08904302000220AA40834313430B7084
:10A300002000FFF7A1FF1022A35E5B42BB4248DAA8
:10A3100023003E331B785B0743D50125210028002D
:10A320003E310B789A089043820004208343134304
:10A330000B7026002000FFF787FF1222A35E48362D
:10A34000BB423EDA23003E331B781B0739D5210080
:10A3500001223E310B78D80882430820D200834383
:10A3600013430B703378032B3BD80133DBB23370CC
:10A37000012B00D08DE0230000224A331A8030E008
:10A380002000FFF761FF0E22A35EC8225B4252004D
:10A3900000259342B4DD23003E331B789B07A2D5F2
:10A3A000AEE72000FFF750FF1022A35EC8225B42F9
:10A3B00052009342BDDD23003E331B785B07ACD5D2
:10A3C000B7E72000FFF740FFC8231221625E5B0061
:10A3D0009A4204DD23003E331B781B07B7D5002DBE
:10A3E000C0D13278002A14D02100270001254A313B
:10A3F0000B883E3701339BB20B803878AC46054062
:10A4000055D01D2B05D963469843002338700B8027
:10A41000337020000CF0B6FC294A0723904244DD3B
:10A420002000FFF711FF0E23E25E264E5242032367
:10A43000B2423ADBC8252000FFF706FF0E23E25E9A
:10A44000AD0052420423AA422FDC2000FFF7FCFE9D
:10A450001023E25E02235242B24226DB2000FFF7C5
:10A46000F3FE1023E25E01235242AA421DDC2000CB
:10A47000FFF7EAFE1223E25E0523B24215DB20005D
:10A48000FFF7E2FE1223E25E0623AA420DDC002360
:10A490000BE0042BA5D122003E321178033B0B4385
:10A4A000137000234A3423800B331800F8BD092BA6
:10A4B000AFD9013A0D803270ABE7C04670FEFFFFA6
:10A4C000FF700200E0FCFFFF70B5C369C1681A6845
:10A4D000451D8AB00400EB7F114255D0002B58D1A6
:10A4E000EB7F082B0DD90122A379134209D1134325
:10A4F000A371A188130006A80CF094FAFFF766FB7D
:10A500002062EB7F012B23D80123A2791A421FD0AE
:10A510000025A188A571022202A80CF083FAA31DD0
:10A52000DE7F012E14D1FFF751FB2B00226A801A27
:10A53000994100900191019BA188AB4203D1174B37
:10A54000009A9A4227D90123042206A80CF06AFA3D
:10A550000322A3791340012B14D1FFF737FB00230B
:10A56000226A801A9941994202D10D4B984209D929
:10A570000223A279A1881343A3710522012306A80F
:10A580000CF050FA0AB070BD0B2BA9D80133EB7751
:10A59000A6E7013BFBE733000322D6E7E703000011
:10A5A000DB05000010B50400034B08330360FFF720
:10A5B00043FB200010BDC04650A90200F0B50700C3
:10A5C00000250E0085B002930AAB1B780837039371
:10A5D000104B0400083303600192858085712900C7
:10A5E000182238000FF0E4FF039A310038000FF012
:10A5F0001EFC6B466A469B88127AA380A31DE671F7
:10A60000DA77631D25622000DD77FFF7F7FA200077
:10A6100005B0F0BD50A9020010B50400034B08338B
:10A620000360FFF73FF8200010BDC046C0A902003C
:10A630007FB515000F226A4404001E001170002D22
:10A6400016D0002B14DD012301890093C06B00F0AC
:10A6500073FF002802D0074804B070BD0090218924
:10A6600033002A00E06B00F01DFF0028F4D0F2E771
:10A670000148F1E70EFCFFFF17FCFFFF002330B598
:10A6800085B003AC217001890093050001332200DD
:10A69000C06B00F051FF002802D0094805B030BD62
:10A6A00020802989009002232200E86B00F0FAFE46
:10A6B0000028F2D1237860781B02184300B2EDE73E
:10A6C0000EFCFFFF13B56B46DC1D00232200237038
:10A6D0000133FFF7ADFF002801D1207816BD0148F6
:10A6E000FCE7C0460EFCFFFFD0B504000CF024FCD4
:10A6F000E268A369981A09F08DFA06000F00236931
:10A70000E069C01A09F086FA32003B0009F0D0FD7A
:10A710000022104B08F08EFC0F4A104B08F088F90D
:10A7200009F004FB0021041C06F032FE002804D0CE
:10A73000201C0B4906F04EFF041C201C09F0A4FA53
:10A7400002000B000020074908F0E6FE09F02CFA91
:10A75000D0BDC04600806640EA2E4454FB2109402B
:10A760000000B44300807640F0B5050085B0006C71
:10A770000CF0A5FB061C286C0CF098FB0221071CB2
:10A7800028000CF00AFC0221039028000CF017FCB2
:10A7900007F0A8FD0221041C28000CF022FC07F0A1
:10A7A000A1FD051C301C09F045FD0290301C09F08C
:10A7B00003FD0190381C09F03DFD061C381C09F012
:10A7C000FBFC071C039807F08DFD391C07F074FA99
:10A7D000311C071C201C07F06FFA029907F06CFA75
:10A7E000011C381C06F0F6FE311C071C281C07F063
:10A7F00063FA019907F060FA011C381C06F0EAFEC2
:10A800000299061C281C07F057FA0199051C201C08
:10A8100007F052FA011C281C07F080FB311C09F0DC
:10A820004BFD0D4907F048FA09F02EFA0B4A0C4B84
:10A8300008F0FEF809F07AFA0021041C06F0A8FDE1
:10A84000002804D0201C044906F0C4FE041C201C6F
:10A8500007F028FD05B0F0BD0000B443EA2E4454D3
:10A86000FB21194070B50022102104000CF056FBAA
:10A870001B4D00282DD1032608212000FFF722FFC1
:10A88000A84226D0304226D1FA2163898900594353
:10A890005023144AD518D058884204D3D518083B01
:10A8A00018000830F7D1FA212868890006F0E8FB83
:10A8B000A0226081112120000CF030FB002808D17B
:10A8C00001222B7910211A4320000CF027FB0028CD
:10A8D00000D0034870BD6420FEF76EFFCCE7C04691
:10A8E0000EFCFFFF68A902007FB5042583790400F0
:10A8F0002B4218D102260CF01FFBA379A188B34389
:10A900002B43A3710622012368460CF08BF8A07933
:10A9100003003040AB43A37143425841034B4042D4
:10A92000184004B070BD0248FBE7C04614FCFFFFAE
:10A9300015FCFFFF10B5837904005A070DD49B075F
:10A9400001D4FFF7D1FF236C2000002B02D0FFF7CA
:10A950000BFF10BDFFF7C8FEFBE70148F9E7C04653
:10A9600015FCFFFF70B5466C86B001AC0500019187
:10A970006260A360002E0CD00B4905A8FFF76AF9AE
:10A980000C23220005A930000DF060F805A80BF09B
:10A9900093FF2B000C3307CC07C30223AA79134380
:10A9A000AB7106B070BDC04649B80200642330B533
:10A9B00004000281438185B08180FFF753FF0222AA
:10A9C000A379606C9343A371002813D00C490DF058
:10A9D00004F8051E0ED001000C22103101A80FF062
:10A9E000CBFD20000199029A039BFFF7BBFF2800D3
:10A9F000FFF744F80123A2791343A37105B030BDDA
:10AA000049B80200F7B5009308AB1B880400019316
:10AA100009AB1D8800230F0016000D4A8380083201
:10AA200083710260C360036143618361C361036238
:10AA30001D2124300CF065FA009BE7632664290091
:10AA400020006364019AFFF7B1FF2000FEBDC046FD
:10AA5000C0A9020082B0F0B50400A5B064202B9319
:10AA60002A920FF0A2FA04220C2109A802F0DEFCBF
:10AA70002422CC491BA80FF07FFD052206A8110057
:10AA80000CF011F8C84907A8FFF7F0F9A06800F02A
:10AA900081FBA568C54918A8FFF7DCF8782218A93A
:10AAA000280000F0A5FC18A80BF006FF6E25642016
:10AAB000013D0FF07AFA002DF9D1A06800F06AFB91
:10AAC000A0680CF02EFC012160680CF06FF90121E8
:10AAD000070060680CF07DF906000A200FF065FAA7
:10AAE0000022B34B03929F4210DB013203923A00E3
:10AAF000C8320BDBC822042192000391974205DC87
:10AB000003220392C82F01DC013A039200279E42E0
:10AB10000CDB33000137C83308DBC82303379B0045
:10AB20009E4203DC013FC82E00DC013F06A80BF06B
:10AB3000B1FF0026032373431BA9CA18907800288D
:10AB400005D0C95C5278FF2306A8FFF723F9013628
:10AB50000C2EEFD16B463AB20C21595E06A8FF23AA
:10AB6000FFF718F90023A06800931A00743006A9B3
:10AB70000BF0A0FF002304930323049A039853438C
:10AB80001BAA995C814237D1D31805935B78BB42ED
:10AB900032D1059B9E78002E2ED1310020680CF01A
:10ABA000FCF907F09FFB3200031C290009A80DF0F7
:10ABB000D6F9310020680CF002FA07F093FB01226D
:10ABC000031C290009A80DF0CAF9310020680CF017
:10ABD00008FA07F087FB2900031C022209A80DF0E0
:10ABE000BEF9FE2303229B05290009A80DF0B7F941
:10ABF0000123059AED189370049B013304930C2BE9
:10AC0000BAD164200FF0D1F90B2D00DC5BE709A865
:10AC10000DF091F9012201000CA802F007FC0025BB
:10AC200009A80DF088F9A8423CDD2900002209A8F6
:10AC30000DF083F90022061C290009A80DF07DF90A
:10AC4000011C301C07F038F82900061C012209A855
:10AC50000DF073F90122071C290009A80DF06DF908
:10AC6000011C381C07F028F8311C06F0B3FC290041
:10AC7000061C022209A80DF060F902222900071C17
:10AC800009A80DF05AF9011C381C07F015F8311C01
:10AC900006F0A0FC2900031C00220CA80DF05FF9AF
:10ACA0000135BDE709AA1100012318A80DF071F9BB
:10ACB00018A90FA80DF0CAF918A80DF061F90CAA8F
:10ACC00009A912A801230DF064F9002312AA0FA903
:10ACD00015A80DF05EF9002215A811000DF02DF950
:10ACE0000022061C012115A80DF027F90022051CE1
:10ACF000022115A80DF021F9FC21071C8905301C43
:10AD000006F0DAFF07F0CEFAFC210600189089055C
:10AD1000281C06F0D1FF07F0C5FAFC2105001990A8
:10AD20008905381C06F0C8FF07F0BCFA2A000300AA
:10AD300031001A902068FFF715FEA0680CF0F1FAB8
:10AD400007A908A8A5680BF09DFE0022194B0092E8
:10AD500008A901932800130000F0BAFA08A80BF024
:10AD600084FEFA2080000FF020F9A0680CF0D9FAD8
:10AD700015A80DF005F912A80DF002F90FA80DF0B5
:10AD8000FFF80CA80DF0FCF807A80BF06EFE06A863
:10AD90000BF06BFE09A80DF0F3F825B0F0BC08BC71
:10ADA00002B0184754B8020078B80200BDB80200DB
:10ADB000E0FCFFFFDC050000F7B583601D4B0500DC
:10ADC0001F6801604260002F31D02820FEF736FE58
:10ADD000040010300BF01CFE174B18202360FEF708
:10ADE0002DFE00220600154B01920560083200215D
:10ADF0000C3000930FF0DCFB08226946301D0FF089
:10AE0000BBFB0F4B00227361C223A3803B68E2604F
:10AE1000A660226262625B682100380098470028C1
:10AE200005D020000BF0FEFC2000FEF727FE2800D6
:10AE3000FEBDC0463C2700200500060055AA0100C3
:10AE4000FB6F0200F0B5040085B0637A9C46002BCE
:10AE500004D120000CF0FCF805B0F0BDA37A266FF9
:10AE600001931023019AF35600259B1801229A4062
:10AE70002900F36803920293029BAB4231DDB36871
:10AE8000019A6B439B1872695B00E77AD3181A78B2
:10AE90005878E379012F14D15F1E3F1A10003A0051
:10AEA0005B004343606F8218D3189B79634500DDD4
:10AEB0006346627B1A4202D00123AB40194301353D
:10AEC000DAE7022F05D15F1EBA1A277A013F381A36
:10AED000E6E7032FE4D1277A013FBF1A02003800CA
:10AEE000DEE71123C943F356606C9940236919408A
:10AEF000039B19430FF037F9A27B072AACD8637B79
:10AF00000C495B006373531CDBB290004158A37380
:10AF1000022A03D808000FF03DF896E7064B200000
:10AF2000236300236363054BE462236414300EF053
:10AF3000BFFE91E7D8A9020045AE01003B700200B8
:10AF400010B50400044B03600EF0AAFE200005F0CB
:10AF5000ABFA200010BDC04650AE020010B5040090
:10AF60000E4B08330360FEF767FE200074300BF0D1
:10AF70007CFD200060300BF078FD200058300BF095
:10AF80009BFC200050300BF097FC2000044B143049
:10AF90006361FFF7D5FF200010BDC046F8A902008D
:10AFA00084AE0200F8B500250400324B85800833DA
:10AFB00003608571143016000F0005F05FFA200061
:10AFC0002D4BE562636125645030FEF7AFFE200033
:10AFD0005830FEF7ABFE20006030FEF7D5FE2000B3
:10AFE0000423F25E33682667590009B274300BF00F
:10AFF0005AFD3368226FE3717368012623721023B0
:10B000006581A7802561D35691685918994204DD5E
:10B010003000984001330543F8E711230120D3564F
:10B02000D1685918994206DD02009A402669013319
:10B0300032432261F6E71420FEF700FD2269002169
:10B040002A430123060005F03DFEFF232200637220
:10B050000133A381002348326664A3732000137078
:10B06000A366FEF7CBFD0123A27920001343A37151
:10B07000F8BDC046F8A9020084AE0200F0B5437ADC
:10B0800085B00400002B04D120000BF0E1FF05B0D7
:10B09000F0BD0122837A11009C461023066F002523
:10B0A000F35603926344994002912900F368019397
:10B0B000019BAB422CDDB36872696B4363445B0058
:10B0C000E77AD3181A785878E379012F10D15F1EE8
:10B0D0003F1A10003A005B004343606F8218D31898
:10B0E0009B79002B02D0039BAB4019430135DFE76E
:10B0F000022F05D15F1EBA1A277A013F381AEAE7F4
:10B10000032FE8D1277A013FBF1A02003800E2E797
:10B110001123C943F356606C994023691940029B7F
:10B1200019430FF020F8667AB31EDBB2FC2B14D85B
:10B13000FEF712FD0B4B0500236300230A486363EF
:10B140000A4BFF21E4622364704306F023F82900D0
:10B150004143200014300EF0ABFD637A012B00D97F
:10B1600095E791E751700200B60300003B700200C2
:10B170001FB5012381881A0068460BF053FC012398
:10B1800003491A0068460BF04DFC05B000BDC046EF
:10B19000FE0300001FB5030048331A780400002A9C
:10B1A0000DD000221A70012381881A0068460BF026
:10B1B00039FC012304491A0068460BF033FC2000D7
:10B1C00074300BF067FC1FBDFF03000010B5483062
:10B1D0000378002B06D00378012B03D0012102480D
:10B1E0000BF096FA10BDC046FF03000010B5012118
:10B1F000040006200BF08CFA064B984208D1483424
:10B200002378002B04D02378012B01D020BFF7E74F
:10B2100010BDC04616FCFFFF70B50600141E19DBFA
:10B22000050048352B78002B02D02B78012B13D149
:10B23000002330001A007430FEF768FE002C07D09F
:10B2400033004A331C80002407234C3634802B7093
:10B25000200070BD014CFBE7014CF9E717FCFFFF34
:10B2600012FCFFFFF8B517000A68050052880B00B2
:10B27000012A09D1002118000BF0BDFB00220100BA
:10B280002800FFF7C9FFF8BD002F19DD060048367A
:10B290003278002A02D03278012A13D12A00002401
:10B2A00028005C321900148058300BF06FFB2B0023
:10B2B0004A331F8003234C352C8020003370E2E793
:10B2C0000148E0E70148DEE717FCFFFF12FCFFFF43
:10B2D00073B5079C0500002C1CDB0600483630784F
:10B2E000002802D03078012816D106981BB2C0B2CF
:10B2F0000090280012B274300BF0DCFB002C07D059
:10B300002B004A331C80002407234C352C803370DB
:10B31000200076BD014CFBE7014CF9E717FCFFFF6D
:10B3200012FCFFFFF7B505000E00171E26DDFFF724
:10B330004DFF2B0048331C78E4B2002C20D1336839
:10B340005B88012B09D1210030000BF054FB220057
:10B3500001002800FFF760FFFEBD310001A80BF0DF
:10B360000DFB3A0001A92800FFF77CFF01A80BF0B4
:10B37000A3FA2800FFF73AFF2000EDE70148EBE7CA
:10B380000148E9E717FCFFFF11FCFFFFF0B587B0AC
:10B390000D9C06000F0002920393002C20DBFFF7A8
:10B3A00015FF330048331D78EDB2002D1AD1390056
:10B3B00005A80BF067FB0C9B01940093029A039B7A
:10B3C00005A93000FFF784FF05A80BF04EFB002C09
:10B3D00003D03000FFF70AFF2C00200007B0F0BDBB
:10B3E000014CFAE7014CF8E717FCFFFF11FCFFFFE7
:10B3F000F8B50400171E1DDD060048363378002B13
:10B4000002D03378012B17D12200E3795632013B69
:10B41000137023000025200054331D8050300BF0A2
:10B42000B5FA23004A331F80022328004C342580BC
:10B430003370F8BD0148FCE70148FAE717FCFFFF4D
:10B4400012FCFFFFF7B505000F00161E18DDFFF711
:10B45000BDFE2B0048331C78E4B2002C12D1390019
:10B4600001A80BF08BFA320001A92800FFF7C0FFFA
:10B4700001A80BF021FA2800FFF7B8FE2000FEBD5E
:10B480000148FCE70148FAE717FCFFFF11FCFFFF4A
:10B49000FF2902D84172002070470148FCE7C046EE
:10B4A00017FCFFFFF0B51F0085B00AAB1B78040046
:10B4B000039300933B000D0016000EF01FFC0028C4
:10B4C00033D0237D082B2DD8236800221900FC31AE
:10B4D0008A62A021C9005A50154905205A500138E6
:10B4E000C046C046C046C046C046C046C046C0462C
:10B4F000C046C046C046C046F1D1236801325A500A
:10B50000A0210432C9005A5005F0C8F8039B32004C
:10B51000009329003B0020000EF0F0FB237D013357
:10B520002375CCE7034805B0F0BD2075FBE7C046A6
:10B53000FC0F00000EFCFFFFF0B51F0085B00AAB4A
:10B540001B780400039300933B000D0016000EF0DF
:10B55000BDFB002833D0237D082B2DD82368002283
:10B560001900FC318A62A021C9005A5015490520F2
:10B570005A500138C046C046C046C046C046C046C4
:10B58000C046C046C046C046C046C046F1D123684A
:10B5900001325A50A0210432C9005A5005F07EF8F9
:10B5A000039B3200009329003B0020000EF08EFB2D
:10B5B000237D01332375CCE7034805B0F0BD20752A
:10B5C000FBE7C046FC0F00000EFCFFFFF8B50D1EA8
:10B5D00030D000260227C468002C28D0AA88A3886F
:10B5E00053403B4204D13A4204D1AB883B4219D08C
:10B5F000646AF1E7A968A0680CF08CFC0028F4D01C
:10B600002B88002B02D022889A42F1D16B88002B24
:10B6100002D062889A42EBD1A288074B01361343CD
:10B62000A380E5E7A368AA689342E1D1E8E7200098
:10B63000002E00DC0148F8BD0080FFFF17FCFFFF73
:10B64000F0B5060085B00D1E59D00127C468002C46
:10B6500022D00221AA8800230A4202D0A3885B08D4
:10B660003B40226829688A4210D1A068A968002B53
:10B670000AD00CF04FFC002808D0A3881AB2002A88
:10B6800006DB204805B0F0BD8842F6D0646ADEE7EC
:10B690005B045B0CA380F4E7F0682A88002807D1DC
:10B6A000F5600123184968460BF0BCF90020E9E772
:10B6B000010003001C88944206D25C6A1900002C29
:10B6C0000DD02300F6E723001C88944207D15F8841
:10B6D0006C88A74203D25C6A1900002CF3D1814226
:10B6E00009D10B889A4204D305D148886B889842C7
:10B6F00001D96962D4E74B6A6B624D62D1E70348B6
:10B70000C0E7C04616FCFFFFFD03000017FCFFFF6B
:10B71000064B10B51A00040008322C330260436057
:10B720000430FDF7BFFF200010BDC04610AA020084
:10B7300008B4024B9C46043808BC604711B70100AE
:10B7400008B4024B9C46043808BC6047637402008E
:10B750000C4A002311002C32083110B5038183728A
:10B760004260C360036143614383016004000430AD
:10B77000FDF78AFF044B1A68002A00D11C602000E4
:10B7800010BDC04610AA02003C270020F7B50E00ED
:10B790000125C4680192002C36D0238832889A4251
:10B7A00001D0002B23D1638872889A4201D0002BEC
:10B7B0001DD1FDF7DDFE0123002806D0C022A3889D
:10B7C0001340C03B5A425341DBB2019A934219D114
:10B7D000A7883BB2002B15DB10223100A0180EF019
:10B7E000CBFE40231F4204D020000BF043FE646ACE
:10B7F000D1E7FDF7BDFE0028F6D021000348FEF793
:10B8000067F8F4E70025F2E72800FEBD7574020032
:10B8100008B4024B9C46043808BC6047FD75020022
:10B82000F0B587B001930EAB1B88060003930D9B08
:10B830000D000093019B02920C9F002B3DD0002F26
:10B8400002D1009BDB0738D52820FEF7F7F804006B
:10B8500010300BF0DDF86B461B89258063801820C3
:10B86000FEF7ECF80500009B08220593019B0021E0
:10B8700003600C3004970EF09BFE082204A9281DDB
:10B880000EF07AFE0E4B02226B6100230399E360F7
:10B890002362636233680A43A560A2805B6821006B
:10B8A00030009847002806D020000AF0BBFF200097
:10B8B000FEF7E4F8034807B0F0BD0348FBE7C046D5
:10B8C0003776020016FCFFFF17FCFFFFF0B50400FF
:10B8D000160000258380164A164B8571026021816F
:10B8E00046810573186889B08C46A8421DD0124A5B
:10B8F00005950492C02202926A4604AB82CB82C2B2
:10B9000023002A006146FFF78BFFC022094B0A493A
:10B91000186802926A46069106AB079582CB82C2EE
:10B9200023002A003100FFF77BFF200009B0F0BDA3
:10B9300054AA02003C2700206177020030B50024A1
:10B9400003730123034D8471056081808273437307
:10B95000846030BD6CAA020070B5040000250C4B59
:10B960000E000833858085710360210018300BF0CC
:10B97000AFFF2000210020300BF0D5FF054BA68043
:10B98000E5802572E5602561656120001C6070BD61
:10B990007CAA02004827002010B50C000AF046FEE1
:10B9A000002806D1642C06D8A123044ADB00D45019
:10B9B00010BD0348FCE70348FAE7C046001000400A
:10B9C00016FCFFFF17FCFFFF8379DB0702D5C16080
:10B9D000002070470048FCE716FCFFFF8379DB0777
:10B9E00001D5C06870470148FCE7C04616FCFFFF60
:10B9F00070B545690400002D22D0037A032B21D8AD
:10BA0000FFF7ECFFA8622C20FEF718F82C2200218B
:10BA100005000EF0CDFD002263695A62236993424E
:10BA200008D1636923610020237A656101332372A1
:10BA300070BD13005A6A002AFBD162695A62F2E7AC
:10BA40000148F5E70148F3E717FCFFFF13FCFFFF90
:10BA5000144B70B55A68144C002A03D000225A6067
:10BA60000132A2601A69002A17D0002119618023CF
:10BA7000DB000E4DE3582868012B0FD1A923DB0012
:10BA8000E1584942FFF7A0FF2868FFF7B1FF2B6894
:10BA90005A69074BE2500123A36070BDFFF794FF82
:10BAA000F9E7C046FC100040001000404827002085
:10BAB0000405000070B505000C000AF0B7FD002871
:10BAC00004D1034A034BEC71D45070BD0248FCE72B
:10BAD000001000402405000016FCFFFFF8B5837934
:10BAE00005000020DB076AD40AF0A0FD002867D11A
:10BAF0006E69002E08D12C30FDF7A0FF04002C2227
:10BB000031000EF055FD6C616B69002B5AD000229C
:10BB10002D4B01215A608022D20511605A68002AFB
:10BB2000FCD00622294B2A4C9A562A4B0721E25078
:10BB30002800FFF731FFA2230026DB00E650264A4B
:10BB4000264B2800E250E979FFF7B4FF01220821D3
:10BB5000234B2448E6500433E250234B234FE1505B
:10BB60000433E05002232248235022482750224F1A
:10BB7000043827501827214827506F69204827503C
:10BB8000C120800021501F498538FF380B500B60C1
:10BB90008021890060580E33034363501A4B5E6066
:10BBA00062605A68002AFCD0002601271E61280026
:10BBB000A760FDF769FD3000AB791F43AF71F8BD99
:10BBC0001248FCE71248FAE7FC000040D3B8020034
:10BBD000001000400C050000746962751C0500002F
:10BBE0002C0500002000040214050000FFFF0000E7
:10BBF000340500003C050000211001005405000040
:10BC00000405000000E100E0FC10004016FCFFFF0E
:10BC100013FCFFFF03000069002809D00221054A38
:10BC2000D167426A1A611A7A013A1A72024B196094
:10BC30007047C04604E100E000E100E070B5040098
:10BC40000D000AF0F3FC00283AD1002D3AD02B78F1
:10BC5000232B37D802221C4B1C49DA671C4B013AB4
:10BC600058610A615A69002AFCD00020194A8D5097
:10BC700058600130086058680028FCD001208860B6
:10BC80000020186118690028FCD0606988500022E3
:10BC90005A6101320A615A69002AFCD000225A60B6
:10BCA00001324A605A68002AFCD000201861012342
:10BCB0008B60C0210222084B49005A501A6070BDA7
:10BCC0000648FCE70648FAE704E100E000100040FF
:10BCD000FC1000400405000000E100E016FCFFFF3E
:10BCE00017FCFFFF37B54C680500002C04D10C4948
:10BCF0000AF06FFF28003EBD636A01A84B602278FE
:10BD0000211D033AA36A0AF090FF2000FDF7B6FE5A
:10BD100001A928000AF05DFF01A80AF053FFE9E736
:10BD20004427002030B505008DB0002912D0232A09
:10BD300010D801ACD31C002023700123A07002A8EE
:10BD40006370E3700EF018FC21002868FFF776FF9F
:10BD50000DB030BD0048FBE717FCFFFF10B5002910
:10BD600003DB024B19600EF019F810BD4C270020C0
:10BD700070B504001E0004AB1D7804F0C7FB200062
:10BD80000E4B40302360FDF7D1FF230001364C33CA
:10BD9000013522001E701D730023E1214E32A36481
:10BDA0006365138053809381D381013B20006364DA
:10BDB0004902FFF7D3FF200070BDC046B0A80200C3
:10BDC000F7B580277F053D697C690822113C6C43EB
:10BDD0000600210068460EF0CFFB104B009A9A42F5
:10BDE00019D0009300230193796930001339694316
:10BDF0000BF0AEFD019A009930000BF0C1FD21005F
:10BE000030000BF0A5FD7969AB08133969432200B6
:10BE100030000BF0A7FD0198FEBDC046FECA000031
:10BE2000F0B50D00A9B00D9200213022060010A837
:10BE30000B930EF0BDFB28000EF002FC431C0C938C
:10BE4000102B00D9B5E00B9B202B00D9B1E02900C5
:10BE500030000BF0C2FD071E50D129000C9A10A82B
:10BE60000EF08AFB0D990B9A14A80EF085FB802327
:10BE70005B051A695F690C92113F7A4330005D6976
:10BE80000B92FFF79DFF3022002104001CA80EF04A
:10BE90008FFB290000270C9B1339594330000BF00E
:10BEA00057FD0D9730257D430B9B0833ED18A742B6
:10BEB00042DA290030221CA80EF05EFB10A91CA853
:10BEC0000EF0ACFB002827D13C49300022000E9137
:10BED0000F940BF055FD6A46099513AB23CB23C293
:10BEE00023CB23C223CB23C23000129B1099119A7B
:10BEF0000BF054FD01230D930137D3E710300B9A5B
:10BF00000D990EF02AFB04003800FDF7B7FD002C58
:10BF1000A3D1200029B0F0BD6A4609951FAB23CB01
:10BF200023C223CB23C223CB23C230001C991D9AEA
:10BF30001E9B0BF033FDDFE7E5433023ED17254073
:10BF40005D430B9B08355D190D9B002B1DD10C9B90
:10BF50003021981E05F094F8A0422CD017490134E6
:10BF6000300022000E910F940BF00AFD6A460995ED
:10BF700013AB23CB23C223CB23C223CB23C230005A
:10BF80001099119A129B0BF009FD0B9930000BF0E0
:10BF9000DFFC80235B0559690C230C9A133963433A
:10BFA0004A430233110030000B9A0BF0DBFC0024F3
:10BFB000AFE7034CADE7034CABE7C046FECA000059
:10BFC00017FCFFFF13FCFFFF70B50400A280FA22EC
:10BFD000002308000C49920008312160A3716061C0
:10BFE000E260A360638209490BF0F7FC051E09D0EB
:10BFF000010020001031022212300EF0BDFA28009C
:10C00000FDF73CFD200070BD94AA0200CBB80200F1
:10C0100030B50225837987B004002B4204D1FDF7A7
:10C0200033FBA3791D43A57120000BF020FD0028F0
:10C030001CD06B46DD1C28000BF010FD2B78002B6C
:10C0400017D001A80BF008FD0321019AD3170B406C
:10C050009B189B102382FDF7B9FDE368A18818188F
:10C060000123A0601A0002A80AF0DCFC002007B03F
:10C0700030BD0122064B1A60064A51680029FCD0E7
:10C0800000215160044A1268019201225A60DBE7E4
:10C0900000C00040FCC0004008C50040022802D19A
:10C0A0000122014B1A7070473B2A002070B5064CE4
:10C0B00005002378002B04D1044801F03BFB012349
:10C0C0002370280070BDC0463C2A00209DC001009E
:10C0D00070B50C000AF0AAFA002810D00023144D05
:10C0E000A40A2B7020000BF0D6FC002803D00A20F5
:10C0F0000DF05BFFF6E72B78002BFCD070BD022122
:10C100000C4B0D4A99508021C90008005D58002D44
:10C11000FCD0A121C9005C5019580029FCD0002195
:10C1200099508021C9005A58002AFCD0E6E7C04641
:10C130003B2A002000E0014004050000F8B50C0097
:10C1400015001E000AF072FA002811D00023174FC4
:10C150003B703200290020000BF09BFC002803D02C
:10C160000A200DF022FFF4E73B78002BFCD0F8BD4D
:10C1700001210F480F4B844619508021C9005A589D
:10C18000002AFCD080270022FF00964207DD9100A4
:10C1900068586050D9590029FCD00132F5E70022D7
:10C1A00061465A50DA59002AFCD0E0E73B2A0020C9
:10C1B0000405000000E0014010B50400054B083301
:10C1C00003601C300AF078FB200018300AF074FB82
:10C1D000200010BDACAA0200FF23F0B52C4D8DB09D
:10C1E0002B700023040069460088009303F068F96F
:10C1F000002802D16B469B782B70264E3368DB6893
:10C20000002B07D1002320881A0019000BF047FCEF
:10C210000DB0F0BD2B78032BF4D81F4901A8FDF712
:10C2200019FD336801A9DE6804A80AF0A7FB04A978
:10C2300030000BF005FC0027060004A80AF03CFBC8
:10C24000BE421ED031002022103104A80EF094F915
:10C250003000FDF713FC297804ABC90059180822F7
:10C2600002A80EF089F920880123082202A90BF008
:10C2700016FC0137002804D12088084A0C210BF055
:10C280000CFC01A80AF018FB002FBBD0C0E7C04689
:10C29000F02100205C270020DBB80200FFFF000037
:10C2A000F0B5837991B004005B071BD5FDF78EFCD8
:10C2B00000232269801A9941994203D1F423FF3364
:10C2C00098420FD9A068002808D0364B1D880CF082
:10C2D00084FC036815221B6A290098470422A3796D
:10C2E0009343A371A3799B0759D52F4D2B68DB6826
:10C2F000002B50D02D4B1B78032B4CD8294B2C49AD
:10C300001B8804A80193FDF7A5FC2B6804A9DE682F
:10C3100008A80AF033FB08A930000BF091FB0700D6
:10C3200008A80AF0C9FA02AB9E1D08233200338028
:10C3300006A9073B01980BF0B4FB002F08D0390089
:10C340002022103108A80EF017F93800FDF796FBEF
:10C35000164B32881B7806A9DE0008AB9E19300008
:10C360000EF0FBF8002813D0082206A930000EF0CA
:10C3700003F92B6804A9DD6805A80AF0FFFA202359
:10C3800008AA05A928000BF061FB05A80AF094FA99
:10C3900004A80AF091FA0222A3799343A37111B081
:10C3A000F0BDC046E02900205C270020F0210020DD
:10C3B000DBB80200F7B5089E0500152922D8012038
:10C3C00007008F40244C27421CD0E97FCC181F2C3B
:10C3D00041DC69183418A14210D80021C8B2834248
:10C3E00004D9545C701884700131F7E732789A18D8
:10C3F0003270EA7F9B18EB7700202CE00878C85455
:10C400000139E8E73478013CE4B2A34208D10023C3
:10C41000D9B28C42F0D9D05CF11888700133F7E7BB
:10C42000EF7F0120FF183F1B1F2F14DC0227A01CE9
:10C430007F423618381B0190E87F2F18BE4204D285
:10C440003078019FF0550136F6E7041B023CEC778B
:10C4500028000BF070FBFEBDFC002000F0B585B09D
:10C4600001930AAB1E880BAB1B78451C02930EABE5
:10C470001B78040003930B78170003704B8A10227B
:10C480004382013128000EF077F86B469B882683A3
:10C4900063836B461B7B002623776B4601221B7A46
:10C4A0006761E683EB77A31CDA770C9B0C2563624C
:10C4B000230020000D9A28331A705E709E702A00A7
:10C4C00031002C300EF074F82000074BE663A363B4
:10C4D0002A00310040300EF06BF82000034B266537
:10C4E000E36405B0F0BDC046B97A0200AB7A020041
:10C4F00070B50D000CF071FB04000368002D09D12C
:10C500005B699847FA2080006843074904F0B8FD4A
:10C51000E08070BD9B6898478542F3D22368200075
:10C520009B6898470500EDE771020000F0B5070031
:10C530001600A1B002C704006B4918A81D000BF03B
:10C5400041FB331E03D030000EF07AF883B2012293
:10C55000049200220392029202320192009332006E
:10C5600018A93800FFF77AFF23006049583318A84C
:10C5700007930BF027FB2B1E03D028000EF060F86A
:10C5800083B20122049200220392029202320192AB
:10C5900000932A0018A90798FFF760FF2300544969
:10C5A000AC3318A808930BF00DFB269B002B03D08F
:10C5B00018000EF045F883B2012204920022039283
:10C5C0000292023201920093269A18A90898FFF766
:10C5D00045FF631CFF33474918A809930BF0F2FA93
:10C5E000279B002B03D018000EF02AF883B20122FB
:10C5F00004920022601C0392029202320192009384
:10C60000279A18A9FF30FFF729FF23005533FF337E
:10C61000394918A809930BF0D5FA289B002B03D0B1
:10C6200018000EF00DF883B201220492002203924A
:10C630000292023201920093289A18A90998FFF7F2
:10C640000DFF2300A933FF332C4918A80A930BF0E0
:10C65000B9FA299B002B03D018000DF0F1FF83B22B
:10C6600001220492002218AD03920292023201923A
:10C670000093299A29000A98FFF7F0FE204B1B78B7
:10C680000B93002B2DD1079B12971393089B0DAF93
:10C690001493631CFF331593099B1A4916930A9B45
:10C6A000380017930BF08EFA1D2149203B78102299
:10C6B0002B707B8A12AE6B8206ABC918C0180DF0C6
:10C6C0005BFF06232B756B469B8D2068AB83AE61A9
:10C6D0000CF087FA036829001B6898470122084B71
:10C6E0001A70200021B0F0BD292A0000242A000081
:10C6F000252A0000272A0000262A0000282A0000F8
:10C700003D2A00200A18000070B5002504000A4BDD
:10C710008580083385710360C1601830FDF706FB22
:10C7200020001C30FDF702FB044BA5601C600123B8
:10C7300065612000A37170BDACAA02005C270020D7
:10C74000FA2130B585B00500012302228900684630
:10C750000AF068F9074C2068002809D00BF06BFA42
:10C760002988054B22681980022391790B43937124
:10C7700005B030BD5C270020E029002010B50C007A
:10C7800007290DD880680CF028FA064B1957036862
:10C790005B6C9847431E9841034B4042184010BDC4
:10C7A0000248FCE7D3B8020016FCFFFF17FCFFFFAE
:10C7B000F0B5A44C0D00A544040007939AAB1B7878
:10C7C000A14909A804930692FDF744FA2000290024
:10C7D0001C300AF0DBF8C020800000F0A1FF082028
:10C7E000FDF72CF90600002100F088FE15ADA660CB
:10C7F00000210C220EA80DF0DBFE2B000EAA83CA2E
:10C8000083C3924B2900EB60002330002B610CF0B6
:10C81000CDF9A0680CF0E1F908220021059016A8D6
:10C820000DF0C6FE1420FDF709F929000200884B1F
:10C830001593C8C9C8C2874B059EC3600023A436A0
:10C8400003613368002B00D0F5E03060A0680CF085
:10C85000C8F908220021060016A80DF0A9FE142030
:10C86000FDF7ECF87C4B1593030086CD86C37B4B1C
:10C87000C36000230361336B002B00D0DDE0306325
:10C88000A0680CF0AAF908220021050016A80DF0F6
:10C890008FFE1420FDF7D2F8714B15AE15930300EF
:10C8A00086CE86C36F4B9835C360002303612B6827
:10C8B000002B00D0C3E02860012504AB1B7C04AA38
:10C8C0002B4308A9280013740BF0EDF8A0680CF0B6
:10C8D0008CF9036864495B6A9847A0680CF085F995
:10C8E000036862499B699847A0680CF07EF90023B1
:10C8F00002680093166804992A00B047049B002B35
:10C900000AD020000BF0A0F9032805DDA0680CF088
:10C910006CF90368DB6898470EA80BF003F92F2029
:10C9200004ABC0180BF0FEF8362004ABC0180BF0B7
:10C93000F9F83D20042504ABC0180BF0F3F80EAB5A
:10C940000A93A06804AB5D770CF04FF903680AA95D
:10C950001B699847A0680CF040F903680AA95B6D51
:10C960009847A0680CF039F903680021DB6D9847FF
:10C97000A0680CF032F9036802219B6D98470021F2
:10C980002000FFF7FBFE1820FDF758F8A16800F023
:10C9900005FA374B374A1B68A1680393364B15A835
:10C9A0001B6800260293354B0CAF1B680193069B56
:10C9B0001B685B190093324B12681B68FFF7B6FDCA
:10C9C0003020FDF73BF8079AA16800F0A7FAA068AD
:10C9D0000CF003F9036839009B6A9847294BBE8025
:10C9E000A0680C930CF0F9F803683900DB6A9847EB
:10C9F0002900A0680BF0F2F8099A09219378A06841
:10CA000052190BF0FEF8A0680CF0E7F8C821067187
:10CA1000A068FFF76DFD04AB1B7FB34204D0A06894
:10CA20000CF0DBF80BF0C4F809A809F045FF9523DA
:10CA30009B009D44F0BD036107E703611FE70361AD
:10CA400039E7C046ACFDFFFFCEB90200C77A02004D
:10CA500041C70100D57A0200D9C10100E37A020082
:10CA6000117B0200F17A020089CA0100BDCA0100EF
:10CA7000582700205427002008200020502700209D
:10CA80000C2000200800100013B506226846FDF7B0
:10CA900023F9094B1C68002C0AD0694601A809F04B
:10CAA0006DFF200001A90BF0F0F801A809F004FFC8
:10CAB000684609F001FF13BD5C270020002373B511
:10CAC00001AE0C0031000500019302F0F9FC0028D2
:10CAD00002D1B278064B1A70064B1868002806D0AF
:10CAE00061426141044BC9B21D800BF0D6F873BDA1
:10CAF000F02100205C270020E0290020F0B5040090
:10CB000097B0039107A89C490592FDF7A3F89B49AC
:10CB100008A8FDF79FF822000FAD28001C3207A9D6
:10CB200009F053FF08AA290009A809F04EFF2800C0
:10CB300009F0C2FE92490AA8FDF78CF8A0680CF033
:10CB40004CF803680DAE5B69984728000AF0EAFFCD
:10CB5000332004ABC0180AF0E5FF3A2004ABC0183C
:10CB60000AF0E0FF412004ABC0180AF0DBFF80238D
:10CB7000DB00B380A0680D950CF02FF8036831003E
:10CB80005B6D9847A0680CF028F8036800219B6D46
:10CB90009847A0680CF021F80700002506000A3726
:10CBA0001F22002138000DF003FDFD7730000AF050
:10CBB000F6FF0621A0680BF011F8099A0921937875
:10CBC000A06804320BF01DF8A0680CF006F8C8212C
:10CBD0000571A068FFF78CFCA0680BF0FEFFFF2733
:10CBE0002E000581A0680BF0F8FF0AF0E1FF039822
:10CBF000FEF7D0FA0AA90CA809F0C0FE78220CA909
:10CC00000398FEF71FFC0CA809F056FE03992000BC
:10CC10000BF056F82000FCF737FD049501256369F9
:10CC20001D402DD057490BA8FDF720F90BA90CA8E2
:10CC300009F028FF00220CA913000192009203982A
:10CC4000FEF7A4FB0CA809F010FF049B002B42D1B7
:10CC5000043F282F41DD0025FE2F00DC049D0598B0
:10CC60000AF042F9002806D0012362699A431300B2
:10CC700004221343636100260BA809F0F6FE049515
:10CC800004226369134233D0FF210398C826FEF7BC
:10CC9000FFFB0025B600A36902229B5EAB4222DDAA
:10CCA000200029B2183009F0A6FE002301000398E5
:10CCB0001A007430FDF72AF93000FCF77DFD039867
:10CCC0000AF02FFBC820FCF777FD022263691342AC
:10CCD00009D10135DFE70437BBE703980AF021FBF0
:10CCE000002FBCDDBAE7FA208000FCF765FD0026C6
:10CCF000022365691D421CD006331D4024D0224901
:10CD00000BA8FDF7B3F80BA90CA809F0BBFE002295
:10CD10000CA90192009213000398FEF737FB0CA8B0
:10CD200009F0A3FE1948FCF747FD0BA809F09DFE8A
:10CD3000174E6420FCF740FD164B01369E4200DC86
:10CD40006CE709F085FC69E713490BA8FDF78EF83D
:10CD50000BA90CA809F096FE2B002A000CA901953E
:10CD600000950398FEF712FB0CA809F07EFE0BA8B5
:10CD700009F07BFEDDE7C046E7B80200F7B8020025
:10CD8000F9B8020007B902004CB90200983A000055
:10CD90008C0A00008B0A000089B902000022594B5E
:10CDA000F0B50833060003600F001000A9B0B160B1
:10CDB0000BAB991801324870102AFAD10F3A524C35
:10CDC0001A700E32105D991A0874013AFAD2997BE2
:10CDD0005A7B09020A4331000C31039125211B784B
:10CDE00013AD2B7002ABC918452302A81B186A8229
:10CDF000180010220DF0C0FB039B64216B6101231E
:10CE0000002402AA2B7752181993093313701DAB13
:10CE10001C706D2302AA9B181C706E2321009B18A6
:10CE20001EA80C22EC836C621C700DF0C1FB374B0A
:10CE30000C22210023A8AB63EC630DF0B9FB344B4B
:10CE400002AAEB6446239B180322DA7722002C65A2
:10CE50000595347306AD2B1901345A70102CFAD194
:10CE600001232C482B700E33195CEA1A1174013B14
:10CE7000FAD211212520AA7B6B7B12020BAC134343
:10CE80002A78638202ABC9182270C01810220DF0F4
:10CE900073FB0123237505ABA36100233800A38333
:10CEA0000BF09FFE036821001B68984713ABDB8BD8
:10CEB000B068B3820BF095FE002203680092B18A3D
:10CEC000039ADC680123A047B0680BF08AFE0700D4
:10CED0001420FCF7B3FD0022012304000261069236
:10CEE00040C00832290007930DF046FB0A4BE3606F
:10CEF000BB69002B03D13000BC6129B0F0BD2361B8
:10CF0000F9E7C046C4AA0200FBB90200B97A0200E0
:10CF1000AB7A02000BBA0200217D0200F0B50026B8
:10CF20000400734BDDB0083303608160C26086800B
:10CF3000867132006F4947A80AF092FF230014332C
:10CF40000125042708931223009704950193089A5A
:10CF5000330047A9039602961DA8FFF77FFA320017
:10CF6000654947A80AF07CFF08202200009733009B
:10CF700015AF10320495019047A90396029632A886
:10CF8000FFF76CFA32005D4938000AF069FF2300B0
:10CF9000082004221C3309933900330004950190C2
:10CFA00000920396099A029647A8FFF757FA3200B3
:10CFB000534938000AF054FF5420FCF73FFD0500A8
:10CFC00020000123122104221830079004930191BC
:10CFD0000092390002003300280003960296FFF702
:10CFE0003DFA2800474BA5620822EC620AA93030BE
:10CFF0000A930B960DF0C0FA434B0422AB63012356
:10D0000029352B7009992661E66107980DF0B4FA6D
:10D010000422079908980DF0AFFA6621032304AAA9
:10D020008918CB77BA2104AA8918CB77872104AA5B
:10D0300049008918A26ACB77911CA685CB771DABD6
:10D040000C9332AB0D930F9247AB32002F4910A8CF
:10D050000E930AF005FF3021452004AB5B181B78C6
:10D0600012313B7004AB5B181B8811397B8204AB17
:10D07000C918C01810220DF07FFA04220CADA06868
:10D080003A75BD61BE830BF0ACFD036839001B68C7
:10D090009847822204AB9B181B885432238404AB2C
:10D0A0009B181B885432A38404AB9B181B88A06870
:10D0B00063840BF096FD07001420FCF7BFFC05000D
:10D0C000134B066108221093119610A910C00DF0A1
:10D0D00053FA104BEB60BB69B34206D1BD6120002F
:10D0E000FCF7D2FA20005DB0F0BD2B61F6E7C04638
:10D0F000D0AA02003BBA02001BBA02002BBA0200FF
:10D100004BBA0200337E02009F7D02005BBA020030
:10D1100081D10100C97D0200F0B504000E001500A8
:10D1200085B01F000CAB1B881030019309F070FC18
:10D13000268065801820FCF781FC02AE05003300D4
:10D140000AAA03CA03C32F602800082700213A0057
:10D150000C300DF02DFA3A003100281D0DF00CFABC
:10D16000064B02226B61200000230199A5600A434F
:10D17000E360A2802362636205B0F0BDF37D02002C
:10D18000F0B50B898DB00593CB68060004934B88EE
:10D19000828C9A420ED1049C049B059A9B181B1BFF
:10D1A000032B3BDD62882188012308A809F03AFCA3
:10D1B0000434F1E7428C9A4230D1049C049B059AD6
:10D1C0009B181B1B032B29DD2388282006936388CB
:10D1D000F7680793124B089300230993FCF72EFC82
:10D1E000C0236A460500029308AB03CB03C2330099
:10D1F0000699079A2800FFF78FFF3B6829005B68B4
:10D2000038009847002807D0002D05D0280009F0E5
:10D2100009FB2800FCF732FC0434CFE70DB0F0BD69
:10D22000B17E020070B5040090B080680AF03BFE49
:10D23000022101401AD1A38D002B17D00C4B6A4656
:10D2400004931023E568A1850591029304AB41CBBB
:10D2500041C20A00230006A8FFF75EFF2B6806A95B
:10D260009B682800984706A809F0DCFA10B070BD4A
:10D27000B17E0200002815D0006041608260C3606A
:10D28000046145618661C761444604624C4644625C
:10D29000544684625C46C462644604636E464663D8
:10D2A00074468463002A06D0C46B043C043A2568A3
:10D2B0001560B442F9D18C6BA6464E6BB546002B77
:10D2C00006D0CC6B043C043B1D682560B442F9D108
:10D2D0000C6BA446CC6AA3468C6AA2464C6AA14653
:10D2E0000C6AA046CF698E694D690C69CB688A6863
:10D2F000086849687047006041608260C3600461EB
:10D3000045618661C761444604624C4644625446A6
:10D3100084625C46C462644604636E464663744637
:10D320008463C46B043C043925680D60B442F9D1B0
:10D33000C769866945690469704700604160826019
:10D34000C360046145618661C761444604624C461E
:10D350004462544684625C46C462644604636C461C
:10D3600044637446846304697047846BA646446BC7
:10D37000A546046BA446C46AA346846AA246446ACE
:10D38000A146046AA046C769866945690469C368FD
:10D39000826800684168704710B5041E0CD00DF01B
:10D3A0004FF9431EE3189C4208D222781978013BBA
:10D3B00021705A700134F6E7014810BD0020FCE7E7
:10D3C00017FCFFFFF0B585B002900C1E2AD0002399
:10D3D000C217161A56400193019B30005D1C631959
:10D3E0000A215F1E039303F0BBFF494230313970BD
:10D3F00030000A2103F0CEFE47420600002F0FD175
:10D40000029B002B04DA2D23019D039A0235137031
:10D41000002320006355FFF7BFFF380005B0F0BDC3
:10D420000195D9E7004FF8E717FCFFFF10B58260C0
:10D430004A4304004160002A0ADD074B90009A42EB
:10D4400001DD01204042FCF7F9FA2060200010BD08
:10D4500000230360FAE7C046FEFFFF1F4A688B689F
:10D4600070B58360534304000D004260002B12DD51
:10D470000A4A9E003000934201DD01204042FCF741
:10D48000DDFA002320602A68D158C15004339E423F
:10D49000FAD1200070BD00230360FAE7FEFFFF1FF2
:10D4A00070B5002817D1114D2E68002E11D108300B
:10D4B0000CF06EFE066046600D4E04003368002BD3
:10D4C00002D10CF022F8306023682C609B00F358E6
:10D4D0006360286870BD0122064907480B68134045
:10D4E000F8D1026043600A60F4E7C0466427002078
:10D4F000702700206027002068270020002370B5D7
:10D5000004000160436099420AD1064D2B68002B4C
:10D5100002D10BF0FAFF286023689B00EB58636090
:10D52000200070BD70270020436810B50400002B58
:10D5300002D104480CF040FD606803681B699847FD
:10D5400010BDC0466BBA0200436810B50400002B42
:10D5500002D104480CF030FD606803689B6998476D
:10D5600010BDC0466BBA0200436810B50400002B22
:10D5700002D104480CF020FD606803685B6A98479C
:10D5800010BDC0466BBA020010B5040002F06AFB81
:10D59000034B1B68002B01D02000984710BDC046EC
:10D5A00078270020F0B58BB0050001F0C9FD002000
:10D5B00000F08AFD036807001B6998473B68040078
:10D5C0009B69380098473B6806005B6A38009847BB
:10D5D0000300288810380B2862D803F047FD063E68
:10D5E0006161615B616161676179AF8820003900C9
:10D5F0000CF011FA22006B7B583201931378A87952
:10D600009C46022361460B43137004AB1F80012329
:10D6100004AA9370D07013006A461279E91D9A72B9
:10D620002B000622163305A809930CF0A5FF29004C
:10D630000B2004AB06220E31C0180CF09DFF943471
:10D640006368A360A06800282AD0C36804A998472B
:10D65000A368002BF4D01B69F3E720002F49AF88A3
:10D660000CF0D9F92200022058321378A9798343AB
:10D67000137004AB1F809970A0346368A360A06826
:10D6800000280DD0C36804A99847A368002BF4D0E4
:10D690001B69F3E75B69A888A91D002B00D0984798
:10D6A000290030000BF0F5FB0BB0F0BD636E002BD2
:10D6B000F6D0AF79A366A06E0028F1D0C368390018
:10D6C0009847A36E002B01D1636EF3E71B69F1E766
:10D6D000012269460D27AB7BEF571A4001925A078A
:10D6E000920FDB080A720B730622E91D04A80CF0E6
:10D6F00043FF6A46127904ABDA716A46127A9F7167
:10D700001A726A46127B20005A722B000F3307935D
:10D710008C348030236804A99847C1E7FFFF0000DC
:10D720000723D72802D9024B18600023180070473E
:10D7300074270020014B18607047C04678270020EE
:10D740001FB58022A323D205DB00D3580820DB07B6
:10D7500000D405301C4B48221C4902F0D7FC00289D
:10D760000AD080B2002807D1BFF34F8F184B194A57
:10D77000DA60BFF34F8FFEE7002302A80293013364
:10D780000370154B1B6843600BF037FA002802D07A
:10D79000072005B000BD68460BF02DFA0028F7D130
:10D7A00069460BF026FA0028F2D10C4802F0DEFCA4
:10D7B00080B20028EDD10A4802F0E2FC80B20028D5
:10D7C000E7D101F021F8E4E7FF8B02007C2700207D
:10D7D00000ED00E00400FA0574270020A5D5010043
:10D7E00089D5010080B2002807D1BFF34F8F034BCA
:10D7F000034ADA60BFF34F8FFEE7704700ED00E0A9
:10D800000400FA0513B504680093A46813000A0025
:10D810000149A04716BDC046FFFF000037B506AC62
:10D820002578046801950093246913000A000149D2
:10D83000A0473EBDFFFF0000F0B587B00D000024FB
:10D8400069466F4616004C800DAA0CA9098812780B
:10D8500039800193A2421BD101004479F8319442EE
:10D860000DD908310F00083F3F88B7421BD1302146
:10D870002032920012580132D27F0A4215D16A46F4
:10D88000310028000BF0C3F9002808D1062407E076
:10D890006A46310028000BF0BAF9002800D00324B2
:10D8A000200007B0F0BD0132D9E710210A405142F3
:10D8B0004A41002002ACE3600CABA360174B01327D
:10D8C0002680A270A0809D4207D100F0FDFB036876
:10D8D0001B6998470CF0A2F80500210028000BF006
:10D8E0009AF9002482B2A242DAD0112A13D00BD8BE
:10D8F000082ACBD06A46310028000BF088F90524AD
:10D900000028CDD0023CCBE7054B9A4203D0054B13
:10D910009A42EFD1BAE70524C2E7C046FFFF0000F4
:10D920000330000001340000F0B5050099B0080094
:10D930002E240C9100F072FD06ABE4181290220028
:10D9400012A901200BF061F9002802D0032019B0C0
:10D95000F0BD23880C9A0B9093830C9B0B9A1B7D34
:10D96000934200D8C6E06B791D2B01D90720EEE762
:10D970000C9B9B690D930B9B0D9A9B009C586369B4
:10D98000002B07D1638B002B04D1631CDB7F022BA0
:10D9900000D1AAE0200000F041FD2300002628333A
:10D9A00012900E960D960F930F9B1B78B34221D9C0
:10D9B000626AB3009F58342206AB9B1800221A708B
:10D9C0000023002113AAD21801335170102BF8D173
:10D9D000462206AB9B184A4A13A938001A800BF05E
:10D9E000A2F9002803D07B690D937B8B0E9301363F
:10D9F000F6B2D9E76979A31C1F31C9006918621C06
:10DA0000DB7FD27F089121002A310978002007911D
:10DA100021002931097806910E9905910D990491FB
:10DA2000217F0391218B0291618B019161690091AA
:10DA300012A90BF0C2FD002800D087E76B79070020
:10DA40001A00203292001F335451DB005B5BE383EA
:10DA50006B7901336B71230028331B78BB4244D9A7
:10DA60008E239B00EB5C132B00D97FE7626ABB001F
:10DA70009E580023180013A90B70CA180133507068
:10DA8000102BFAD11E4B30004B820BF04CF90D904D
:10DA9000002827D1300000F0C1FC8E2189006A5C8B
:10DAA000738B1E32FF325200AA180292327F1290FC
:10DAB0000192328B12A9009272690D9800F0FEFC5F
:10DAC000002800D042E78E2189006A5C531CDBB23B
:10DAD0006B541D337A32FF3392005B005651EB18C2
