:020000021000EC
:1080000000400020390F0200750F0200770F0200B8
:108010000000000000000000000000000000000060
:10802000000000000000000000000000790F0200C6
:1080300000000000000000007B0F02007D0F020026
:108040007F0F02003DBA0100E50B02007F0F020026
:108050007F0F020000000000390D02007F0F0200B8
:108060007F0F02004D070200A90C02007F0F0200E3
:108070007F0F02007F0F02007F0F02007F0F0200C0
:108080007F0F02007F0F02007F0F02007F0F0200B0
:108090007F0F0200A5010200810102007F0F020094
:1080A0007F0F02007F0F02000000000000000000B0
:1080B00000000000000000000000000000000000C0
:1080C00010B5064C2378002B07D1054B002B02D0AE
:1080D000044800E000BF0123237010BD20220020CF
:1080E000000000008CBC0200044B10B5002B03D034
:1080F0000349044800E000BF10BDC0460000000076
:10810000242200208CBC0200164B002B00D1144B03
:108110009D46402292029A1A924600218B460F46B3
:108120001348144A121A12F052FA0F4B002B00D0C7
:1081300098470E4B002B00D09847002000210400E8
:108140000D000D48002802D00C4800E000BF0DF0E3
:1081500065FA2000290011F005FE0DF049FAC0462D
:1081600000000800004000200000000000000000A7
:1081700018220020D02A002000000000000000008B
:108180000122024B84B01A7004B07047FF2900200E
:1081900010B50400034B036040300EF0A6FB200036
:1081A00010BDC046D0A8020070B5204D86B0290091
:1081B00005A803F08DFD05A904A801F0DDFC05A8C4
:1081C0000EF009FD04A905A80EF0F1FBC82205A9CF
:1081D0005200174803F028F805A80EF086FB049B10
:1081E000144E1C1D310020000DF0AEFB12F0B3F94F
:1081F000114B3100186020000DF0A6FB12F0ABF916
:108200000E4B0F49186005A801F0A6FC05A928002F
:108210000FF064FB05A80EF068FB0122094B04A8CF
:108220001A700EF062FB06B070BDC04668260020D2
:108230007023002056B50200802200207C220020FE
:1082400058B50200FE290020F0B585B01F000AAB2A
:108250001B880600029115000393002F1CD02820D4
:1082600001F06EFB6B4604001989039BAAB20093D0
:108270003B000EF0D9FA336821005B683000984764
:1082800000280AD0002C05D020000EF0E4FA2000CF
:1082900001F076FB024800E0024805B0F0BDC046A0
:1082A00016FCFFFF17FCFFFF30B51500040087B078
:1082B00001A80EF037FB290002A80EF033FB12498B
:1082C00003A801F049FC03AA01A904A80EF086FB4B
:1082D00002AA04A905A80EF081FB03AA05A92000A3
:1082E0000EF07CFB05A80EF000FB04A80EF0FDFAD2
:1082F00003A80EF0FAFA02A80EF0F7FA01A80EF0A1
:10830000F4FA200007B030BD56B50200F0B51024D5
:10831000A3B002AF644800F023FE644B01221D218C
:1083200000946348FFF790FF624803F0CDFB1C20E8
:1083300001F006FB786200F0B7FB322001F0BEF9D5
:108340004822BA18131958223B650023BA18137033
:10835000594A7B651370594ABC611370564B1E789D
:10836000002E00D0BEE0BB69032200930221544BD3
:108370004F48FFF769FF642001F0A0F94F4C2378C4
:10838000002B6AD048232025FB1858194D4901F0CD
:10839000E3FB4823FB18782259194B4802F0AAFF47
:1083A0004823FB1858190EF0A0FAFF2130000DF0F9
:1083B0007FFF464D6421286030000DF079FF444B6B
:1083C000020018604C232968F818FFF76DFF4C2352
:1083D0002025F918043BFB1858190EF0E8FA482339
:1083E000FB1859193B480FF079FA4823FB18581924
:1083F0000EF07BFA642001F061F926700DF054FF55
:108400007E6438642C4B1C78002C22D10DF04CFF7C
:10841000FC63B863BA6BFB6B386C796C121A8B41D6
:108420001100002B02D12C4B9942EBD94823202478
:10843000FB182A49181901F08FFB4823FB1819195A
:108440007822214802F080FF4823FB1818190EF00B
:108450004CFA4C23F8180EF048FA174B1B78002BF7
:108460001ED01A4B134C19682000C9B203F018FB38
:10847000174B2000196803F085FA48232024FB18C5
:108480001749181901F068FB4823FB1819197822BD
:108490000D4802F059FF4823FB1818190EF025FA71
:1084A000642001F00BF959E784220020A981010022
:1084B0005423002050260020FE290020FF29002000
:1084C0008181010060B5020070230020802200201D
:1084D0007C220020682600201027000068B50200DA
:1084E0006EB5020000230024BB63FC633B647C6424
:1084F0000DF0DAFE00231D0038637B63DF480EF0C9
:10850000FCFC041E00D06CE10DF0CEFE002D4BD023
:10851000B860FC60BA68FB68386B796B65246442AC
:10852000E517121A8B41A4185D41BC61FD613A61E7
:108530007B61FB69002B00D055E19521BB694900A7
:108540008B4200D94FE148232025FB18CC4958190C
:108550000EF0A1FA4821FB69CA4C0193FB69791816
:108560000093FB6949191A00200002F033FE4823EA
:10857000FB1858190EF082FA2E2148220823BA1847
:10858000D01811F0A2FFAF20800001F097F8200072
:108590000EF0D0FE0DF088FE002338647B640DF0F1
:1085A00083FE7B6C38637B63386C796C3A6B7B6BD6
:1085B000121A8B411100002B04D1FA23DB009942DF
:1085C00000D881E03B6C7A6C13437DD048220823AD
:1085D0002025BA18D118501911F0A3FF4823FB1811
:1085E0005919786A0DF0FBFE4823FB18040058194E
:1085F00011F0C4FE3F2C00D152E12100786A0DF049
:10860000BDFE48232024FB180200796A181900F0E7
:108610002BFA48234822FB1819190823BA18D01836
:1086200011F02EFF48236D46FB18181911F0A6FE15
:108630007B6D396D0833DB08DB00EB1A9D4602AC1D
:10864000200012F004F84C232100F81801F084FAFD
:10865000482321002024FB18181901F07DFA482333
:10866000FB18191988480FF039F94823FB18181915
:108670000EF03BF94823FB181819844901F06CFAF5
:1086800048212023C8227F4C7918C91852002000A5
:1086900002F06AFD48222023BA18D0180EF025F9FE
:1086A000AF20800001F00AF820000EF043FE4C23BA
:1086B000F8180EF01AF9AD4600233A6D7B650024D8
:1086C000137000233B647C640DF0EEFD00231C005E
:1086D000B862FB626E4803F0FFF8012800D1FCE0AD
:1086E0000DF0E2FD002C29D0002338607B60B86AD1
:1086F000F96A3A687B68121A8B4165204042C117BB
:1087000014001D000019694102000B1E00D0E6E0B4
:10871000952149008A4200D9E1E0FC39482208331A
:10872000BA18D01811F0D1FE0DF0BEFD0023B863C9
:10873000FB630DF0B9FDFB6BB862FB62B86BF96BC4
:10874000BA6AFB6A121A8B411100002B04D1FA237A
:10875000DB00994200D8CBE6BB6BFA6B134300D128
:10876000C6E6482208232025BA18D118501911F05E
:10877000D8FE4823FB185919786A0DF030FE4823BB
:10878000FB180400581911F0F9FD3F2C04D021000A
:10879000786A0DF0CAFD040048232025FB1821004B
:1087A00058190EF0CCF84823C822364CFB1852005A
:1087B0005919200002F0D8FC4823FB1858190EF074
:1087C00094F8AF20800000F079FF20000EF0B2FD99
:1087D00000233A6D7B65002413700023BB63FC63A8
:1087E00086E635008AE601253A697B69294C6D42A7
:1087F000A4185D41BC61FD61FB69002B1FD1C7213D
:10880000BB6949008B421AD848232025FB1822490E
:1088100058190EF040F94821FB691A4C0193FB6985
:1088200079180093FB6949191A00200002F0D2FC64
:108830004823FB1858190EF021F92D219DE67B697C
:10884000002B05D1C8233A699B009A4200D8A1E6C3
:1088500048232025FB185819104901F07DF94823B9
:10886000C822084CFB1859195200200002F07CFC69
:108870004823FB1858190EF038F884E654220020DB
:1088800040220020702300206826002075B50200D9
:10889000442200206FFEFFFF3C220020FFB80200B0
:1088A00048232025FB185819264901F055F948237B
:1088B000C822254CFB1859195200200002F054FC24
:1088C0004823FB1858190EF010F8AF20800000F074
:1088D000F5FE20000EF02EFDEEE63400FAE6012152
:1088E0001A4849420019694102000B1E06D1C721EE
:1088F00049008A4202D86239FF390FE7002D04D1BE
:10890000C8239B009C4200D80EE748232025FB1873
:1089100058190F4901F020F94823C8220A4CFB18C6
:1089200059195200200002F01FFC4823FB18581967
:108930000DF0DBFFAF20800000F0C0FE20000EF045
:10894000F9FCF1E677B50200702300206FFEFFFF0F
:10895000FFB8020073B51D4D280000F041FA1C4C11
:108960001C492200280011F01DFC1B4D1B4928004A
:1089700001F0FEF91A4E22003100280011F012FC1D
:10898000184D1949280001F0F3F9310022002800A0
:1089900011F008FC0023154D009301331A0011213A
:1089A000280001F08DFD22001149280011F0FAFB8A
:1089B000104D0F2328000222082102F041FF280059
:1089C00022000D4911F0EEFB73BDC0468422002049
:1089D00000200020FD89010040220020E8B40200B0
:1089E0007D6A02003C2200201DB5020054220020B6
:1089F000A9A401004422002095620200EB23194A39
:108A00009B0010B5C2501C330400C0180DF06DFF60
:108A1000F1239B00E0180DF068FF84239B00E01811
:108A200001F07CFD2000C530FF3001F09BFA2000F2
:108A30008D30FF3001F038FD20006530FF3001F04F
:108A400033FD2000EC3002F00BFA2000D03002F0B1
:108A5000E1FD2000643007F0D7FC201DFFF798FBF4
:108A6000200010BDD4AA020070B50C000D4905000D
:108A700016000DF031FCE368A361A169231D994242
:108A800008D00B0028331B78B34205D110312800E1
:108A900011F090FC280070BD200018300DF03DFC56
:108AA000EBE7C04677B5020070B5A84CA849A544CD
:108AB000040068460DF010FC41236A46A549137670
:108AC00007A80DF009FC42220DAB1A70A2490EA8AE
:108AD0000DF002FC432214AB1A70A04915A80DF04A
:108AE000FBFB44221BAB1A709D491CA80DF0F4FB44
:108AF000452222AB1A709B4923A80DF0EDFB4622BC
:108B000029AB1A7098492AA80DF0E6FB472230AB32
:108B10001A70964931A80DF0DFFB482237AB1A7066
:108B2000934938A80DF0D8FB49223EAB1A70914901
:108B30003FA80DF0D1FBFF234A226B445A758E49A2
:108B400046A80DF0C9FB98234B2269465B00CA5426
:108B50004DA88A490DF0C0FBA6234C2269465B0054
:108B6000CA5454A886490DF0B7FBB4234D22694678
:108B70005B00CA545BA883490DF0AEFBC2234E22B2
:108B800069465B00CA5462A87F490DF0A5FBD0235B
:108B90004F2269465B00CA5469A87C490DF09CFBD2
:108BA000DE23502269465B00CA5470A878490DF054
:108BB00093FBEC23512269465B00CA5477A87549A0
:108BC0000DF08AFBFA23522269465B00CA547EA844
:108BD00071490DF081FB8423532269469B00CA54DE
:108BE00085A86E490DF078FB8B23542269469B00C3
:108BF000CA548CA86A490DF06FFB9223552269462E
:108C00009B00CA5493A867490DF066FB992356222E
:108C100069469B00CA549AA863490DF05DFBA023E6
:108C2000572269469B00CA54A1A860490DF054FB25
:108C3000A723582269469B00CA54A8A85C490DF096
:108C40004BFBAE23592269469B00CA54AFA8594931
:108C50000DF042FBB5235A2269469B00CA54B6A8C0
:108C600055490DF039FBBC23312269469B00CA549B
:108C7000BDA852490DF030FBC323322269469B0048
:108C8000CA54C4A84E490DF027FBCA2333226946B3
:108C90009B00CA54CBA84B490DF01EFBD1233422B4
:108CA00069469B00CA54D2A847490DF015FBD8234A
:108CB000362269469B00CA54D9A844490DF00CFBE2
:108CC000DF23352269469B00CA54E0A840490DF0D5
:108CD00003FBE623372269469B00CA54E7A83D49B7
:108CE0000DF0FAFAED23382269469B00CA54EEA82B
:108CF00039490DF0F1FAF423392269469B00CA5430
:108D0000F5A836490DF0E8FAFB23302269469B00AE
:108D1000CA540023221D1C26E26022612371A36035
:108D20006361FCAA20000DF0B1FB7642F5AD6E4404
:108D300028001C3D11F022FBB542F9D10023200090
:108D4000A361FC239B009D4470BDC04610FCFFFF47
:108D50008FB50200C1B5020079B50200C8B50200A6
:108D6000D0B502007EB50200CEB50200B5B5020056
:108D7000C9B50200A3B502008EB5020083B502009A
:108D8000D5B50200CFB50200D4B5020088B5020007
:108D90008DB502007AB50200C2B50200D6B5020058
:108DA00093B50200AFB5020098B5020092B502007B
:108DB00097B50200C7B502009CB50200A2B502003B
:108DC000A8B50200AEB50200B4B50200BAB5020003
:108DD000C0B50200C6B50200CCB50200D2B5020093
:108DE0001423F0B5040095B0009319221821043023
:108DF00002F0B4FF220027006432B43713211000C0
:108E0000119207F00DFB38000EF0E3FD2200B8329E
:108E100010921E21002210980EF091FA2000D030FE
:108E200002F018FC2200EC3212920621494A1298F4
:108E300002F03AF820000026012365301A0000965F
:108E40001121FF3001F03CFB20008D300096012302
:108E500002221A21FF3001F033FB25002000C53526
:108E6000B530FF351A2302220121FF3002F0B0FC99
:108E7000109904233A22280001F024F98422920058
:108E8000A218139205231D22019300923B002A0091
:108E90001099139801F038FD96229200129BA018A9
:108EA00013992A0001F00AFF99229200A0183900B4
:108EB0001C2203F07FF819239F220F93013B0E938E
:108EC000013B0D93013B0C93013B0B93013B0A9338
:108ED000013B0993013B0893013B0793013B069338
:108EE000013B0593013B0493013B0393013B029338
:108EF000013B01939200013BA01800930822013B23
:108F000007210EF024FAEB239B00E018390003F050
:108F1000F1FBF3239B00E0181D2102F013FDFD235C
:108F20009B00E65011982670032110F04BFE2300A1
:108F30002200200008499C33A0321C60116056605A
:108F4000064A80305A610221012207F0A7FF200063
:108F500015B0F0BDD8A802003965020023650200F3
:108F60000123F0B5067889B004001E4000D0ADE0C2
:108F7000FD20800500F0ACFC2300D03318000293E4
:108F800000F080FA00F0A6F9282000F0D9FC0500D6
:108F900010300DF046FD4E4B18202B6000F0D0FC39
:108FA00007004C4B0460082231000C3006930796F2
:108FB00011F00DFB06A9381D082211F0ECFA464B02
:108FC00029007B611223AF60EE60AB802E626E627F
:108FD000029802F0B7FA002805D028000DF03BFCFB
:108FE000280000F0CDFC0123227864201343237075
:108FF00000F064FB002523006533FF331800039362
:109000000DF07BFF00283CD020008D30FF300DF0AC
:1090100074FF002835D00A2D33D06420013500F0CC
:109020004DFB0A2DE7D12D492D4800F027FCFD27E7
:10903000EB23BF009B00E618E359002B1AD100F088
:109040005DF8010004A800F087FD05A80DF0E6FA20
:10905000012305AA04A900933000029B03F09EFBA4
:1090600005A80DF042FC04A80DF03FFCED239B0089
:10907000E358E3512100039AEC31300003F034FD52
:10908000B9E7FD2515491648AD0000F0F7FB665914
:10909000002E1BD100F032F8010004A800F05CFDA6
:1090A00005A80DF0BBFAEB239B00E01805AA029B74
:1090B00004A9009603F072FB05A80DF016FC04A8A5
:1090C0000DF013FCED239B00E358635109B0F0BD94
:1090D000FD030000AB6502006B650200002000206C
:1090E000001C0020BFF34F8F024B034ADA60BFF32E
:1090F0004F8FFEE700ED00E00400FA05F0B58DB0FB
:1091000005AF19221549380011F045FA0022144B19
:1091100005245A7180225205566E012225000194C1
:10912000029203930199300008F056F80800029962
:1091300007F0CCFF019B03996B430193029B361A06
:109140006B430293631E2C1B6C433C19225C1C1E58
:10915000CA54E7D108000DB0F0BDC0460EB60200FB
:10916000002A0020F0B597B018220021060010A8B0
:1091700011F02DFA132110A810F063FE032110A89E
:1091800010F02EFF4C4B1B68002B00D10133DBB2DB
:1091900002934A4A012300210BA807F0B9FD484B6E
:1091A0009E4200D9002672B6464B64211D68464B8C
:1091B00030000793052408F013F860435030281856
:1091C00008900A21300008F00BF80A2108F0EEF8A8
:1091D000614350316918099130000A2108F0E6F81E
:1091E000802361430024503169189B010A91019347
:1091F000029B002B5DD0002500272E1F07AB9B197B
:109200000593032C03D1802300249B01019307AB1A
:109210005B592E4A03936300D3180493002319006B
:1092200006205843049A16187678B4466246039E80
:10923000B25C10269446049A105C624606411642BF
:1092400002D00120984001430133092BE8D1C943E2
:109250001F4B059A090119401268039B934225D1BF
:10926000312F23DC00210BA810F092FFFA23159A6E
:109270001199DB00106801421BD0013B002BF9D192
:10928000019B01345B000193FA230137E4B25B00D8
:109290009F42B6D10435102DAED1074B1B68002B71
:1092A000A6D0029F013FFBB20293A1E7019B1943A5
:1092B000D9E7FFF717FFC04680260020F0FF000027
:1092C000E7030000042000205DB6020027B602007C
:1092D000F01F0000F8B50023124C23600DF0BFF919
:1092E000002808D0042120000DF0B5F9002801D095
:1092F0000D4B2360F8BD0122A12704250B4B0C491F
:109300001A602268FF0048604E68002EFCD0DE59CB
:109310001202013D3243002DF5D1226001225A6034
:10932000E8E7C0467C260020ED5EBC0B00D0004084
:10933000FCD000400B4B70B51C68002C10D0656D44
:1093400000F0C6FBA36C002901D1834206D820009F
:109350000DF0B8F9044920000DF0A2F92C00ECE75B
:1093600070BDC04688260020A8260020F0B593B026
:1093700007932A4B04AC1E68049005910692002EB8
:109380004AD0274B258867881C6800230293002C4D
:109390002ED0636D23480393A36C9AB2A36C1B0C6D
:1093A00099B2854214D12048824211D1002B01D0BC
:1093B000B9420BD1029B002B08D120000DF082F99D
:1093C0001A4920000DF06CF901230293039CDEE79B
:1093D000002A01D09542F9D1002B01D0B942F5D134
:1093E00020000DF06FF9114920000DF059F9EDE75B
:1093F0000F4BEB18012B0FD910233A0000932900D3
:109400000C4B08A80DF010FA336808A99B683000CF
:10941000984708A80DF01FFA13B0F0BD842600206D
:10942000B4260020FE030000FF030000A826002051
:1094300002FCFFFF6D93010010B572B60B4B1C6868
:10944000002C08D020000DF03DF90023E364084B08
:109450002000E36310BD62B65C2000F071FA5C226C
:109460000021040011F0B3F8EFE7C046AC2600205D
:1094700000400020024B1878012318407047C04676
:10948000062A0020F7B50600FFF7F4FF051E33D1CA
:109490001A4C2660FFF7D0FF194B1A4918600DF0DF
:1094A000FFF8FFF7C9FF184B1860184B4363184BC0
:1094B0008363206800280ED0C027164E2A00330090
:1094C00015490097FEF7C0FE009733002A001349A4
:1094D0002068FEF7B9FE0C2000F032FA00238380EA
:1094E00083710F4B03600F4B836000F009FB012376
:1094F0000D4A11780B431370F7BDC0468426002037
:10950000B8260020A8260020B0260020FC3F00201E
:109510008B6702006D930100FF030000FE03000053
:10952000F8A8020035930100062A0020F7B50600CE
:109530000D0017000193002802D100242000FEBD79
:109540000029FAD0FFF778FF041EF6D0074B019AE6
:109550004363066045608760054B002A00D0054BD9
:10956000A363054920000DF09BF8E7E7FC3F0020CE
:109570005567020073670200A8260020024B186896
:10958000434258417047C046A8260020002310B52A
:1095900004499C006258002A01D00133F9E7605069
:1095A000100010BD90260020002310B5044A990039
:1095B0008C58844201D00133F9E70020885010BD57
:1095C0009026002010B50024084BA200D058002897
:1095D00002D003685B6898470134062CF4D1044B31
:1095E0001B68002B00D120BF10BDC0469026002074
:1095F000A8260020F8B5FFF73DFF00281BD0294D15
:109600002C68E36CDA0717D502263343E36404239E
:10961000254F3868C26C1343C364636BC3630DF09A
:1096200077F83868416C03F05CFE2868C36C3342FD
:1096300001D003F090FEF8BD1C4F1D4E3A68316812
:10964000002A1ED129602A688A4208D11B0706D544
:109650002C60FFF7B7FF3B68002BFAD02B6029681E
:109660008C42E8D03368994214D1124B4B63124BB1
:109670008B6320000DF04CF82968626C4B6C200065
:109680000DE0206DB84203D1606D002800D00200CB
:109690002A60D8E79C42ECD1002210004B6C03F00A
:1096A000DFFDC8E7B82600208C260020A826002071
:1096B000B0260020FC3F00208B67020070B505003B
:1096C000FFF7D8FE002803D1280010F07DFC70BD04
:1096D0000C4B1C68E36CDB0706D5FFF7ADFE0A4BAD
:1096E0001860002800D0040000F0F2F92D18A564DD
:1096F00020000CF0E7FF054920000CF0D1FFFFF738
:1097000079FFE4E7B82600208C2600208826002078
:10971000F0B51E4B1E4F1C683B6885B006000391D8
:10972000002B30D0FFF7A6FE00282CD0E36CDB071F
:109730000ED5FFF781FE174B051E186008D00CF000
:10974000C1FF154928000CF0ABFF2C00FFF752FFBA
:10975000039B20001B043343A3640CF0B3FF2000E1
:109760000E490CF09DFF0E4B0024F318012B07D976
:10977000C0230093039A0B4B31003868FEF764FD59
:10978000200005B0F0BD084CFAE7C046B82600201E
:10979000842600208C260020A8260020B426002045
:1097A00002FCFFFF6D93010016FCFFFF10B5FFF7F1
:1097B00061FE002809D0054C20680CF083FF0449A5
:1097C00020680CF06DFFFFF715FF10BDB8260020D4
:1097D000AC260020F7B507000D0000282ED0FFF7BB
:1097E00049FE00282CD00724164E3068C36C1C405C
:1097F00007D0154A290038000CF07BFF0024200018
:10980000FEBD03F090FD02213268D36C1940019136
:1098100003D003218B43D364F1E701242343D364B2
:109820002800B8473268D36C1900A143D164019C69
:109830005B07E4D528000CF094FFE0E7034CDEE77B
:10984000034CDCE7B82600206367020017FCFFFF2B
:1098500016FCFFFF020010B5014B12CB12C210BD67
:10986000BC260020034B1A68034B1A607E225A6004
:109870007047C04604200020BC26002070B5104D63
:109880002B78022B18D0814218D90B1A072B15D927
:109890000C00032304431C4010D172B62A78094BF4
:1098A000D200D050981841600CF075FF2B7801332E
:1098B0002B7062B6200070BD0348FCE70348FAE74E
:1098C000072A0020C426002013FCFFFF17FCFFFF1F
:1098D00070B50021041C07F08BFD002828D1FE2163
:1098E000201C890507F08EFD002821D104300BF0E3
:1098F000B9FE05000F48401B08F064FD211C08F06C
:1099000001FA07F0B3FD03239843040028000BF08D
:10991000B3FE20000BF0A6FE002804D1203C002C52
:10992000F7D1054803E00119FFF7A8FF002070BD3B
:109930000248FCE70038002013FCFFFF17FCFFFF84
:1099400070B5060000250C4B1B78AB4209DD0B49B6
:10995000EB00C91830000CF026FF041E09D10135B8
:10996000F1E730000BF07EFE041E02D11420FFF759
:10997000F9FB200070BDC046072A0020C426002045
:1099800070B5002813D00D4B0D491C7800239C4264
:1099900010DDDA00555885420AD28A185268824290
:1099A00006D98023043802681B061343036070BD88
:1099B0000133ECE70BF060FEF9E7C046072A002010
:1099C000C426002070B5051E14DD0B4E0B4C336809
:1099D000002B02D0206810F072F9FA2120680024D0
:1099E000074B89008361C4626943356010F06FF9E9
:1099F000200070BD0348FCE7D42600200427002087
:109A0000AD9A010017FCFFFFF8B5114F06003D6845
:109A1000002D0AD13020FFF793FF040006F024FD4B
:109A20000C4BA5612360E5623C600B4D2B68002B5D
:109A300009D11020FFF784FF040010F009F920007D
:109A40002C6010F0DFF83000FFF7BCFFF8BDC04617
:109A50000427002070AE020000270020014B186888
:109A60007047C046D426002070B50D4C2368002BEB
:109A700003D00C4B1B68002B02D10620FFF7C4FF5C
:109A8000206810F0D6F802000749C3170D684E6829
:109A90005219734120680A604B6010F0D0F870BD15
:109AA00000270020042700201822002010B5FFF70F
:109AB000DBFF0024054BA200D058002802D0036829
:109AC0001B68984701340A2CF4D110BDD826002019
:109AD00010B5FFF7C9FFFA22034B920018685968C6
:109AE000002307F0A3FC10BD1822002010B5FFF7DB
:109AF000BBFF024B1868596810BDC04618220020F1
:109B00000B4B10B51B680400002B03D0094B1B68DE
:109B1000002B02D10620FFF777FF0023064A9900A9
:109B20008858002801D00133F9E78C5010BDC04699
:109B30000027002004270020D8260020002310B58D
:109B4000044A99008C58844201D00133F9E700207F
:109B5000885010BDD826002010B50400002902D07E
:109B60000B78002B03D1034B2360200010BD0CF0B9
:109B7000C3FEFAE708A90200F8B5040008000D00CA
:109B80000DF065F8002803D1134B23602000F8BDC9
:109B900028000DF05CF80530FFF7D2FE20600DF0D4
:109BA00059F828000DF053F82368588023682800DE
:109BB0001E1D0DF049F8070028000DF048F8390087
:109BC0000200300010F0E7FC280026680DF03FF896
:109BD000002336183371D9E708A90200F8B504004C
:109BE0000E00150000290AD00B78002B07D0002AA0
:109BF00005D0080097B210F032FD874203D90B4B15
:109C000023602000F8BD681DFFF79AFE20600DF06C
:109C100021F823682A005F8023683100181D10F0A6
:109C2000BAFC23685D1900232B71EAE708A902003A
:109C3000014B03607047C04608A9020010B50548F3
:109C4000054C20600DF009F8044A0549200010F089
:109C5000A9FA10BD08A90200082700200020002052
:109C6000EB680200084B73B51C680500002C0AD095
:109C70000100266808310822684610F08CFC0CCDE3
:109C800031682000884773BD0C270020014B03601A
:109C90007047C04610A9020030B500684488A14250
:109CA0000CDA8588AA4209DA002907DB002A05DBDD
:109CB0005443401800198371002030BD0048FCE770
:109CC00017FCFFFFF0B5070085B00E001D0000294E
:109CD0001FDD002B1DD00468638803938B4200DDD9
:109CE0000391A3880293934200DD0292002306347D
:109CF0000193019B029A93420EDA29002000039AF5
:109D000010F049FC3B68AD195B88E418019B0133F6
:109D1000EEE7024805B0F0BD0020FBE717FCFFFFAF
:109D2000F8B504000D0016001F00002901DB002A11
:109D300002DA0E4B2360F8BD100048430630FFF7EF
:109D4000FFFD20600CF086FF23685D8023689E8005
:109D5000002F06D03B00320029002000FFF7B2FFA1
:109D6000E9E720000CF09FFEE5E7C04610A90200DD
:109D7000F0B5060087B00D1E04D1244B03603000FF
:109D800007B0F0BD00200F000400010001903B78F7
:109D9000002B1AD03022524294469C446246092A33
:109DA00011D90A2B0AD1019B241801330193A14236
:109DB00000DA2100002004000137E8E70028FBD08A
:109DC00001340020F8E70120F6E76A46928809B2DC
:109DD00012B23000FFF7A4FF33689C1D03AB1F00D5
:109DE0002A78002ACBD011003039092903D81A70FB
:109DF00001330135F4E700221A70BB42F9D938006B
:109E000010F0A9FB3B0020700134F2E710A902001A
:109E1000F0B5040089B006A80E0002921D00FFF7FD
:109E200019FD236802995A88914235DA9B889D4230
:109E300032DA1F2E30D9079B01939E422CDC05237A
:109E4000002273430393069B0493039B04999B187E
:109E5000A03BCB5C00210593AE18029BCF18236872
:109E60005888019087420EDA9888B0420BDDDB19E2
:109E700010270F41019870431B1805980740781E62
:109E800087417F429F7101310529E6D10132052AC0
:109E9000DBD1002009B0F0BD0048FBE717FCFFFF55
:109EA000F7B50468070063880E1E01931EDD994212
:109EB00018DA0023063400933B68009A9B889A4284
:109EC00012DA019BA1199D1B2A00200010F063FBF0
:109ED000601931000CF0D9FD3B685B88E418009BE9
:109EE0000133E8E70CF0DFFD002000E00048FEBD94
:109EF00017FCFFFF10B50548054C20600CF0ADFEC7
:109F0000044A0549200010F04DF910BD10A90200C7
:109F100010270020002000207D6A020010B5054CAB
:109F2000012120000CF081FE034A0449200010F0BA
:109F300039F910BD1427002000200020D76B020043
:109F40000388074A10B50120934208D0834202D00B
:109F50000020DB0703D41E20FFF704F9002010BD0A
:109F6000FFFF000010B50400034B08330360FFF748
:109F70001BFB200010BDC04658A90200FA2270B594
:109F8000438992005343314A314914000500383463
:109F90008B421BDC2F498B4218D82F49083C8B423F
:109FA00014D82E49083C8B4210D82D49083C8B42CE
:109FB0000CD82C49083C8B4208D82B49083C8B42D2
:109FC00004D82A4914008B4200D90834284B2A7B34
:109FD0001E1D042A03D89E1C022A00D81E00FA2146
:109FE0002068890007F072F8337868812B730022AB
:109FF0002A2128000CF055FE002801D01D4870BD14
:10A0000010222B2128000CF04CFE0028F6D1012252
:10A010002D2128000CF045FE0028EFD101222E2131
:10A0200028000CF03EFE0028E8D172780E212800AE
:10A030000CF037FE0028E1D1012223792A211A43AE
:10A0400028000CF02EFE0028D9D0D7E718A902006E
:10A0500000C409000071020080380100204E000099
:10A060001027000088130000C4090000E20400006B
:10A070003DB802000EFCFFFF7FB515000F226A44B9
:10A0800004001E001170002D16D0002B14DD0123DA
:10A0900001890093006B01F0D1F9002802D0074834
:10A0A00004B070BD0090218933002A00206B01F0BC
:10A0B0007BF90028F4D0F2E70148F1E70EFCFFFF3E
:10A0C00017FCFFFFF7B50600002501931E4B143661
:10A0D00008330400036085808571C581058245824F
:10A0E0000F00009229001822300010F070FA1C2195
:10A0F00030000FF0A6FE6B469B880221A3806B46C2
:10A100001B88220023811423A5712173A563A587D1
:10A1100063813E32137827638B43F1310B40137018
:10A120002300957295810135221DD5870833A21D24
:10A13000D5872000DD87FFF721FF002802D1A37912
:10A140001D43A5712000FEBD58A9020030B50425AD
:10A15000837987B004002B4204D1FFF717FAA37963
:10A160001D43A571A36AA2691B6800251A4208D184
:10A1700006236A4601212000FFF77EFF051E03D05B
:10A18000114D280007B030BD6B46022204206946FD
:10A190009A561856237BD2005A432282022209780B
:10A1A000C00049B2C900594343436382A379E181A6
:10A1B0009343A37120000CF082FD0123A1881A00B3
:10A1C00002A80CF038FCDCE70EFCFFFFF8B5040039
:10A1D000FFF7BCFF0E22A35E794F5B42BB4251DA10
:10A1E00023003E331B789B074CD501252100280016
:10A1F0003E310B785A08904302000220AA40834364
:10A2000013430B702000FFF7A1FF1022A35E5B42F7
:10A21000BB4248DA23003E331B785B0743D5012558
:10A22000210028003E310B789A08904382000420D8
:10A23000834313430B7026002000FFF787FF122291
:10A24000A35E4836BB423EDA23003E331B781B0731
:10A2500039D5210001223E310B78D80882430820ED
:10A26000D200834313430B703378032B3BD8013365
:10A27000DBB23370012B00D08DE0230000224A3383
:10A280001A8030E02000FFF761FF0E22A35EC82293
:10A290005B42520000259342B4DD23003E331B781D
:10A2A0009B07A2D5AEE72000FFF750FF1022A35E68
:10A2B000C8225B4252009342BDDD23003E331B782F
:10A2C0005B07ACD5B7E72000FFF740FFC82312219A
:10A2D000625E5B009A4204DD23003E331B781B075D
:10A2E000B7D5002DC0D13278002A14D02100270024
:10A2F00001254A310B883E3701339BB20B803878F9
:10A30000AC46054055D01D2B05D963469843002324
:10A3100038700B80337020000CF03DFD294A072374
:10A32000904244DD2000FFF711FF0E23E25E264E2F
:10A3300052420323B2423ADBC8252000FFF706FF52
:10A340000E23E25EAD0052420423AA422FDC20001D
:10A35000FFF7FCFE1023E25E02235242B24226DBEC
:10A360002000FFF7F3FE1023E25E01235242AA42CF
:10A370001DDC2000FFF7EAFE1223E25E0523B24255
:10A3800015DB2000FFF7E2FE1223E25E0623AA425D
:10A390000DDC00230BE0042BA5D122003E32117806
:10A3A000033B0B43137000234A3423800B33180004
:10A3B000F8BD092BAFD9013A0D803270ABE7C0462A
:10A3C00070FEFFFFFF700200E0FCFFFF70B5C36985
:10A3D000C1681A68451D8AB00400EB7F114255D050
:10A3E000002B58D1EB7F082B0DD90122A379134202
:10A3F00009D11343A371A188130006A80CF01BFB1D
:10A40000FFF766FB2062EB7F012B23D80123A279A3
:10A410001A421FD00025A188A571022202A80CF0C3
:10A420000AFBA31DDE7F012E14D1FFF751FB2B0089
:10A43000226A801A994100900191019BA188AB4248
:10A4400003D1174B009A9A4227D90123042206A868
:10A450000CF0F1FA0322A3791340012B14D1FFF77A
:10A4600037FB0023226A801A9941994202D10D4B91
:10A47000984209D90223A279A1881343A371052226
:10A48000012306A80CF0D7FA0AB070BD0B2BA9D88F
:10A490000133EB77A6E7013BFBE733000322D6E766
:10A4A000E7030000DB05000010B50400034B083390
:10A4B0000360FFF743FB200010BDC04670A90200F7
:10A4C000F0B5070000250E0085B002930AAB1B789B
:10A4D00008370393104B0400083303600192858012
:10A4E000857129001822380010F071F8039A3100A4
:10A4F00038000FF0ABFC6B466A469B88127AA3804B
:10A50000A31DE671DA77631D25622000DD77FFF772
:10A51000F7FA200005B0F0BD70A9020010B50400E4
:10A52000034B08330360FFF73FF8200010BDC0461F
:10A53000E0A902007FB515000F226A4404001E0046
:10A540001170002D16D0002B14DD0123018900931A
:10A55000C06B00F073FF002802D0074804B070BD44
:10A560000090218933002A00E06B00F01DFF0028D5
:10A57000F4D0F2E70148F1E70EFCFFFF17FCFFFF04
:10A58000002330B585B003AC21700189009305002C
:10A5900001332200C06B00F051FF002802D00948AF
:10A5A00005B030BD20802989009002232200E86B8D
:10A5B00000F0FAFE0028F2D1237860781B021843DD
:10A5C00000B2EDE70EFCFFFF13B56B46DC1D002368
:10A5D000220023700133FFF7ADFF002801D120785E
:10A5E00016BD0148FCE7C0460EFCFFFFD0B50400D5
:10A5F0000CF0ABFCE268A369981A09F031FB060085
:10A600000F002369E069C01A09F02AFB32003B0001
:10A6100009F074FE0022104B08F032FD0F4A104B77
:10A6200008F02CFA09F0A8FB0021041C06F0D6FE65
:10A63000002804D0201C0B4906F0F2FF041C201C4B
:10A6400009F048FB02000B000020074908F08AFFD0
:10A6500009F0D0FAD0BDC04600806640EA2E4454CE
:10A66000FB2109400000B44300807640F0B50500AE
:10A6700085B0006C0CF02CFC061C286C0CF01FFC48
:10A680000221071C28000CF091FC022103902800F5
:10A690000CF09EFC07F04CFE0221041C28000CF07C
:10A6A000A9FC07F045FE051C301C09F0E9FD0290ED
:10A6B000301C09F0A7FD0190381C09F0E1FD061CD3
:10A6C000381C09F09FFD071C039807F031FE391C68
:10A6D00007F018FB311C071C201C07F013FB029924
:10A6E00007F010FB011C381C06F09AFF311C071CF8
:10A6F000281C07F007FB019907F004FB011C381C1C
:10A7000006F08EFF0299061C281C07F0FBFA01993F
:10A71000051C201C07F0F6FA011C281C07F024FC7D
:10A72000311C09F0EFFD0D4907F0ECFA09F0D2FAFF
:10A730000B4A0C4B08F0A2F909F01EFB0021041C87
:10A7400006F04CFE002804D0201C044906F068FFE7
:10A75000041C201C07F0CCFD05B0F0BD0000B44384
:10A76000EA2E4454FB21194070B500221021040048
:10A770000CF0DDFB1B4D00282DD103260821200005
:10A78000FFF722FFA84226D0304226D1FA21638962
:10A79000890059435023144AD518D058884204D30D
:10A7A000D518083B18000830F7D1FA21286889002D
:10A7B00006F08CFCA0226081112120000CF0B7FB78
:10A7C000002808D101222B7910211A4320000CF017
:10A7D000AEFB002800D0034870BD6420FEF76EFF7A
:10A7E000CCE7C0460EFCFFFF88A902007FB5042518
:10A7F000837904002B4218D102260CF0A6FBA37922
:10A80000A188B3432B43A3710622012368460CF0B1
:10A8100012F9A07903003040AB43A3714342584181
:10A82000034B4042184004B070BD0248FBE7C046ED
:10A8300014FCFFFF15FCFFFF10B5837904005A07D5
:10A840000DD49B0701D4FFF7D1FF236C2000002B10
:10A8500002D0FFF70BFF10BDFFF7C8FEFBE7014872
:10A86000F9E7C04615FCFFFF70B5466C86B001AC39
:10A87000050001916260A360002E0CD00B4905A871
:10A88000FFF76AF90C23220005A930000DF0E0F86B
:10A8900005A80CF02AF82B000C3307CC07C30223C1
:10A8A000AA791343AB7106B070BDC04643B802002D
:10A8B000642330B504000281438185B08180FFF7B5
:10A8C00053FF0222A379606C9343A371002813D035
:10A8D0000C490DF084F8051E0ED001000C22103139
:10A8E00001A80FF058FE20000199029A039BFFF780
:10A8F000BBFF2800FFF744F80123A2791343A3719B
:10A9000005B030BD43B80200F7B5009308AB1B8813
:10A910000400019309AB1D8800230F0016000D4AA7
:10A920008380083283710260C36003614361836185
:10A93000C36103621D2124300CF0ECFA009BE76335
:10A940002664290020006364019AFFF7B1FF20000C
:10A95000FEBDC046E0A9020082B0F0B50400A5B07B
:10A9600064202B932A920FF02FFB04220C2109A8BC
:10A9700002F052FD2422CC491BA80FF00CFE052248
:10A9800006A811000CF098F8C84907A8FFF7F0F9DD
:10A99000A06800F081FBA568C54918A8FFF7DCF89E
:10A9A000782218A9280000F0A5FC18A80BF09DFF3C
:10A9B0006E256420013D0FF007FB002DF9D1A06842
:10A9C00000F06AFBA0680CF0B5FC012160680CF097
:10A9D000F6F90121070060680CF004FA06000A206D
:10A9E0000FF0F2FA0022B34B03929F4210DB0132C8
:10A9F00003923A00C8320BDBC82204219200039173
:10AA0000974205DC03220392C82F01DC013A03922E
:10AA100000279E420CDB33000137C83308DBC82314
:10AA200003379B009E4203DC013FC82E00DC013F40
:10AA300006A80CF038F80026032373431BA9CA1894
:10AA40009078002805D0C95C5278FF2306A8FFF74C
:10AA500023F901360C2EEFD16B463AB20C21595E28
:10AA600006A8FF23FFF718F90023A06800931A0037
:10AA7000743006A90CF027F8002304930323049AEA
:10AA8000039853431BAA995C814237D1D31805938D
:10AA90005B78BB4232D1059B9E78002E2ED13100CF
:10AAA00020680CF083FA07F043FC3200031C2900F5
:10AAB00009A80DF056FA310020680CF089FA07F069
:10AAC00037FC0122031C290009A80DF04AFA3100C5
:10AAD00020680CF08FFA07F02BFC2900031C0222DF
:10AAE00009A80DF03EFAFE2303229B05290009A8C0
:10AAF0000DF037FA0123059AED189370049B01338A
:10AB000004930C2BBAD164200FF05EFA0B2D00DCFD
:10AB10005BE709A80DF011FA012201000CA802F070
:10AB20007BFC002509A80DF008FAA8423CDD2900AD
:10AB3000002209A80DF003FA0022061C290009A82A
:10AB40000DF0FDF9011C301C07F0DCF82900061C93
:10AB5000012209A80DF0F3F90122071C290009A818
:10AB60000DF0EDF9011C381C07F0CCF8311C06F093
:10AB700057FD2900061C022209A80DF0E0F9022267
:10AB80002900071C09A80DF0DAF9011C381C07F090
:10AB9000B9F8311C06F044FD2900031C00220CA862
:10ABA0000DF0DFF90135BDE709AA1100012318A84E
:10ABB0000DF0F1F918A90FA80DF04AFA18A80DF038
:10ABC000E1F90CAA09A912A801230DF0E4F9002368
:10ABD00012AA0FA915A80DF0DEF9002215A8110080
:10ABE0000DF0ADF90022061C012115A80DF0A7F902
:10ABF0000022051C022115A80DF0A1F9FC21071C5B
:10AC00008905301C07F07EF807F072FBFC21060076
:10AC100018908905281C07F075F807F069FBFC21DE
:10AC2000050019908905381C07F06CF807F060FBE7
:10AC30002A00030031001A902068FFF715FEA06873
:10AC40000CF078FB07A908A8A5680BF024FF0022E8
:10AC5000194B009208A901932800130000F0BAFADA
:10AC600008A80BF00BFFFA2080000FF0ADF9A068E8
:10AC70000CF060FB15A80DF085F912A80DF082F913
:10AC80000FA80DF07FF90CA80DF07CF907A80BF0C8
:10AC9000F5FE06A80BF0F2FE09A80DF073F925B039
:10ACA000F0BC08BC02B018474EB8020072B80200EF
:10ACB000B7B80200E0FCFFFFDC050000F7B58360D9
:10ACC0001D4B05001F6801604260002F31D0282015
:10ACD000FEF736FE040010300BF0A3FE174B1820D1
:10ACE0002360FEF72DFE00220600154B0192056041
:10ACF000083200210C3000930FF069FC08226946ED
:10AD0000301D0FF048FC0F4B00227361C223A3805B
:10AD10003B68E260A660226262625B6821003800E4
:10AD20009847002805D020000BF095FD2000FEF785
:10AD300027FE2800FEBDC0460C27002005000600A7
:10AD400059A901000D700200F0B5040085B0637AC6
:10AD50009C46002B04D120000CF083F905B0F0BD17
:10AD6000A37A266F01931023019AF35600259B18AE
:10AD700001229A402900F36803920293029BAB429E
:10AD800031DDB368019A6B439B1872695B00E77A07
:10AD9000D3181A785878E379012F14D15F1E3F1A1F
:10ADA00010003A005B004343606F8218D3189B7910
:10ADB000634500DD6346627B1A4202D00123AB404B
:10ADC00019430135DAE7022F05D15F1EBA1A277A37
:10ADD000013F381AE6E7032FE4D1277A013FBF1A73
:10ADE00002003800DEE71123C943F356606C994036
:10ADF00023691940039B19430FF0CAF9A27B072A64
:10AE0000ACD8637B0C495B006373531CDBB29000CE
:10AE10004158A373022A03D808000FF0CAF896E736
:10AE2000064B2000236300236363054BE462236425
:10AE300014300EF04CFF91E7F8A9020049AD010073
:10AE40004D70020010B50400044B03600EF037FF94
:10AE5000200005F01FFB200010BDC04670AE0200B0
:10AE600010B504000E4B08330360FEF767FE2000A8
:10AE700074300BF003FE200060300BF0FFFD20006B
:10AE800058300BF032FD200050300BF02EFD20002A
:10AE9000044B14306361FFF7D5FF200010BDC0469E
:10AEA00018AA0200A4AE0200F8B500250400324B37
:10AEB0008580083303608571143016000F0005F09B
:10AEC000D3FA20002D4BE562636125645030FEF714
:10AED000AFFE20005830FEF7ABFE20006030FEF7DA
:10AEE000D5FE20000423F25E33682667590009B2BC
:10AEF00074300BF0E1FD3368226FE3717368012653
:10AF0000237210236581A7802561D3569168591853
:10AF1000994204DD3000984001330543F8E71123DE
:10AF20000120D356D1685918994206DD02009A4093
:10AF30002669013332432261F6E71420FEF700FD53
:10AF4000226900212A430123060005F0E1FEFF23C8
:10AF5000220063720133A381002348326664A37325
:10AF600020001370A366FEF7CBFD0123A279200019
:10AF70001343A371F8BDC04618AA0200A4AE020094
:10AF8000F0B5437A85B00400002B04D120000CF00A
:10AF900068F805B0F0BD0122837A11009C461023A9
:10AFA000066F0025F35603926344994002912900ED
:10AFB000F3680193019BAB422CDDB36872696B436C
:10AFC00063445B00E77AD3181A785878E379012F45
:10AFD00010D15F1E3F1A10003A005B004343606FC0
:10AFE0008218D3189B79002B02D0039BAB401943E6
:10AFF0000135DFE7022F05D15F1EBA1A277A013F1C
:10B00000381AEAE7032FE8D1277A013FBF1A020076
:10B010003800E2E71123C943F356606C9940236975
:10B020001940029B19430FF0B3F8667AB31EDBB2E6
:10B03000FC2B14D8FEF712FD0B4B050023630023F5
:10B040000A4863630A4BFF21E4622364704306F0FD
:10B05000C7F829004143200014300EF038FE637A0F
:10B06000012B00D995E791E763700200B603000059
:10B070004D7002001FB5012381881A0068460BF04D
:10B08000DAFC012303491A0068460BF0D4FC05B032
:10B0900000BDC046FE0300001FB5030048331A7808
:10B0A0000400002A0DD000221A70012381881A00A2
:10B0B00068460BF0C0FC012304491A0068460BF0F7
:10B0C000BAFC200074300BF0EEFC1FBDFF03000043
:10B0D00010B548300378002B06D00378012B03D03D
:10B0E000012102480BF02DFB10BDC046FF030000FC
:10B0F00010B50121040006200BF023FB064B9842FB
:10B1000008D148342378002B04D02378012B01D0B8
:10B1100020BFF7E710BDC04616FCFFFF70B5060064
:10B12000141E19DB050048352B78002B02D02B7834
:10B13000012B13D1002330001A007430FEF768FE93
:10B14000002C07D033004A331C80002407234C36E0
:10B1500034802B70200070BD014CFBE7014CF9E7F7
:10B1600017FCFFFF12FCFFFFF8B517000A68050087
:10B1700052880B00012A09D1002118000BF044FC71
:10B18000002201002800FFF7C9FFF8BD002F19DDDC
:10B19000060048363278002A02D03278012A13D1CC
:10B1A0002A00002428005C321900148058300BF06B
:10B1B00006FC2B004A331F8003234C352C802000D3
:10B1C0003370E2E70148E0E70148DEE717FCFFFFE4
:10B1D00012FCFFFF73B5079C0500002C1CDB06006A
:10B1E00048363078002802D03078012816D10698E9
:10B1F0001BB2C0B20090280012B274300BF063FC96
:10B20000002C07D02B004A331C80002407234C3528
:10B210002C803370200076BD014CFBE7014CF9E730
:10B2200017FCFFFF12FCFFFFF7B505000E00171E0D
:10B2300026DDFFF74DFF2B0048331C78E4B2002CCD
:10B2400020D133685B88012B09D1210030000BF03D
:10B25000DBFB220001002800FFF760FFFEBD31008C
:10B2600001A80BF0A4FB3A0001A92800FFF77CFF1E
:10B2700001A80BF03AFB2800FFF73AFF2000EDE7AA
:10B280000148EBE70148E9E717FCFFFF11FCFFFF6E
:10B29000F0B587B00D9C06000F0002920393002CBE
:10B2A00020DBFFF715FF330048331D78EDB2002D8A
:10B2B0001AD1390005A80BF0EEFB0C9B019400930A
:10B2C000029A039B05A93000FFF784FF05A80BF045
:10B2D000D5FB002C03D03000FFF70AFF2C00200024
:10B2E00007B0F0BD014CFAE7014CF8E717FCFFFF8F
:10B2F00011FCFFFFF8B50400171E1DDD06004836DF
:10B300003378002B02D03378012B17D12200E37958
:10B310005632013B137023000025200054331D805A
:10B3200050300BF04CFB23004A331F8002232800CF
:10B330004C3425803370F8BD0148FCE70148FAE73A
:10B3400017FCFFFF12FCFFFFF7B505000F00161EEC
:10B3500018DDFFF7BDFE2B0048331C78E4B2002C4B
:10B3600012D1390001A80BF022FB320001A92800FC
:10B37000FFF7C0FF01A80BF0B8FA2800FFF7B8FEEE
:10B380002000FEBD0148FCE70148FAE717FCFFFF7B
:10B3900011FCFFFFFF2902D84172002070470148CD
:10B3A000FCE7C04617FCFFFFF0B51F0085B00AABF5
:10B3B0001B780400039300933B000D0016000EF071
:10B3C000ACFC002833D0237D082B2DD82368002225
:10B3D0001900FC318A62A021C9005A501549052084
:10B3E0005A500138C046C046C046C046C046C04656
:10B3F000C046C046C046C046C046C046F1D12368DC
:10B4000001325A50A0210432C9005A5005F03CF9CB
:10B41000039B3200009329003B0020000EF07DFCCE
:10B42000237D01332375CCE7034805B0F0BD2075BB
:10B43000FBE7C046FC0F00000EFCFFFFF0B51F004D
:10B4400085B00AAB1B780400039300933B000D000A
:10B4500016000EF04AFC002833D0237D082B2DD88F
:10B46000236800221900FC318A62A021C9005A50C9
:10B47000154905205A500138C046C046C046C0464E
:10B48000C046C046C046C046C046C046C046C0468C
:10B49000F1D1236801325A50A0210432C9005A5018
:10B4A00005F0F2F8039B3200009329003B002000D6
:10B4B0000EF01BFC237D01332375CCE7034805B058
:10B4C000F0BD2075FBE7C046FC0F00000EFCFFFF3F
:10B4D000F8B50D1E30D000260227C468002C28D0F5
:10B4E000AA88A38853403B4204D13A4204D1AB8896
:10B4F0003B4219D0646AF1E7A968A0680CF00CFD22
:10B500000028F4D02B88002B02D022889A42F1D157
:10B510006B88002B02D062889A42EBD1A288074B3D
:10B5200001361343A380E5E7A368AA689342E1D1FB
:10B53000E8E72000002E00DC0148F8BD0080FFFF96
:10B5400017FCFFFFF0B5060085B00D1E59D001278E
:10B55000C468002C22D00221AA8800230A4202D00B
:10B56000A3885B083B40226829688A4210D1A06802
:10B57000A968002B0AD00CF0CFFC002808D0A388C3
:10B580001AB2002A06DB204805B0F0BD8842F6D08A
:10B59000646ADEE75B045B0CA380F4E7F0682A884A
:10B5A000002807D1F5600123184968460BF043FADB
:10B5B0000020E9E7010003001C88944206D25C6A7F
:10B5C0001900002C0DD02300F6E723001C889442BC
:10B5D00007D15F886C88A74203D25C6A1900002CEF
:10B5E000F3D1814209D10B889A4204D305D148880E
:10B5F0006B88984201D96962D4E74B6A6B624D62ED
:10B60000D1E70348C0E7C04616FCFFFFFD0300007A
:10B6100017FCFFFF064B10B51A00040008322C334C
:10B62000026043600430FDF7BFFF200010BDC0463C
:10B6300030AA020008B4024B9C46043808BC60479C
:10B6400015B6010008B4024B9C46043808BC60479C
:10B65000757402000C4A002311002C32083110B519
:10B66000038183724260C36003614361438301606D
:10B6700004000430FDF78AFF044B1A68002A00D149
:10B680001C60200010BDC04630AA02000C2700201C
:10B69000F7B50E000125C4680192002C36D023882E
:10B6A00032889A4201D0002B23D1638872889A4253
:10B6B00001D0002B1DD1FDF7DDFE0123002806D0AF
:10B6C000C022A3881340C03B5A425341DBB2019AC7
:10B6D000934219D1A7883BB2002B15DB1022310011
:10B6E000A0180EF058FF40231F4204D020000BF09A
:10B6F000CAFE646AD1E7FDF7BDFE0028F6D021003E
:10B700000348FEF767F8F4E70025F2E72800FEBDDE
:10B710008774020008B4024B9C46043808BC60479A
:10B720000F760200F0B587B001930EAB1B880600C0
:10B7300003930D9B0D000093019B02920C9F002B25
:10B740003DD0002F02D1009BDB0738D52820FEF723
:10B75000F7F8040010300BF064F96B461B89258064
:10B7600063801820FEF7ECF80500009B0822059383
:10B77000019B002103600C3004970EF028FF082283
:10B7800004A9281D0EF007FF0E4B02226B61002357
:10B790000399E3602362636233680A43A560A28071
:10B7A0005B68210030009847002806D020000BF08D
:10B7B00052F82000FEF7E4F8034807B0F0BD034854
:10B7C000FBE7C0464976020016FCFFFF17FCFFFFAF
:10B7D000F0B50400160000258380164A164B8571CB
:10B7E0000260218146810573186889B08C46A842A1
:10B7F0001DD0124A05950492C02202926A4604ABFB
:10B8000082CB82C223002A006146FFF78BFFC02251
:10B81000094B0A49186802926A46069106AB0795D9
:10B8200082CB82C223002A003100FFF77BFF200079
:10B8300009B0F0BD74AA02000C2700207377020043
:10B8400030B5002403730123034D847105608180AA
:10B8500082734373846030BD8CAA020070B5837913
:10B860000400DB0702D58068FEF78AF8A3799B07FE
:10B8700002D5A068FEF784F8A3795B0707D5A0235B
:10B880000021144ADB00D150A068FEF779F8A379B3
:10B890001B0708D5A568002D05D028000DF088F9F4
:10B8A0002800FEF76DF8A379DB0605D5A06800280F
:10B8B00002D00368DB6898476023A2791A4205D05A
:10B8C000A068002802D003685B6898470023A36043
:10B8D000A37170BD00700040F7B50126037B040022
:10B8E00033422AD0612385791D4017D1FFF7B6FF77
:10B8F0001820FEF725F80E230700E35618220093C0
:10B90000637B290001930EF062FE019A00993800D2
:10B910000EF09CFAA379A7603343A3716023A27948
:10B92000A0681A4202D00EF046F9FEBD4369406895
:10B930001B681840431E9841F7E70148F5E7C046E9
:10B9400016FCFFFF70B5040000250C4B0E000833F9
:10B95000858085710360210018300BF0BBFF20004B
:10B96000210020300BF0E1FF054BA680E580257219
:10B97000E5602561656120001C6070BD9CAA020025
:10B980001827002010B50C000AF069FE002806D127
:10B99000642C06D8A123044ADB00D45010BD034810
:10B9A000FCE70348FAE7C0460010004016FCFFFF22
:10B9B00017FCFFFF8379DB0702D5C16000207047C9
:10B9C0000048FCE716FCFFFF8379DB0701D5C06860
:10B9D00070470148FCE7C04616FCFFFF70B545699B
:10B9E0000400002D22D0037A032B21D8FFF7ECFFAF
:10B9F000A8622C20FDF7A4FF2C22002105000EF0E8
:10BA0000E6FD002263695A622369934208D16369A3
:10BA100023610020237A65610133237270BD130016
:10BA20005A6A002AFBD162695A62F2E70148F5E7D7
:10BA30000148F3E717FCFFFF13FCFFFF144B70B541
:10BA40005A68144C002A03D000225A600132A260C6
:10BA50001A69002A17D0002119618023DB000E4DDE
:10BA6000E3582868012B0FD1A923DB00E158494294
:10BA7000FFF7A0FF2868FFF7B1FF2B685A69074B53
:10BA8000E2500123A36070BDFFF794FFF9E7C046C1
:10BA9000FC100040001000401827002004050000A2
:10BAA00070B505000C000AF0DAFD002804D1034A45
:10BAB000034BEC71D45070BD0248FCE7001000400D
:10BAC0002405000016FCFFFFF8B58379050000206F
:10BAD000DB076AD40AF0C3FD002867D16E69002E27
:10BAE00008D12C30FDF72CFF04002C2231000EF081
:10BAF0006EFD6C616B69002B5AD000222D4B012129
:10BB00005A608022D20511605A68002AFCD00622B1
:10BB1000294B2A4C9A562A4B0721E2502800FFF75E
:10BB200031FFA2230026DB00E650264A264B2800E0
:10BB3000E250E979FFF7B4FF01220821234B2448A2
:10BB4000E6500433E250234B234FE1500433E050DE
:10BB500002232248235022482750224F04382750DE
:10BB60001827214827506F6920482750C12080009E
:10BB700021501F498538FF380B500B608021890008
:10BB800060580E33034363501A4B5E6062605A681C
:10BB9000002AFCD0002601271E612800A760FDF7BF
:10BBA000F5FC3000AB791F43AF71F8BD1248FCE7DC
:10BBB0001248FAE7FC000040CDB802000010004037
:10BBC0000C050000746962751C0500002C0500005E
:10BBD0002000040214050000FFFF000034050000EF
:10BBE0003C05000021100100540500000405000080
:10BBF00000E100E0FC10004016FCFFFF13FCFFFF1B
:10BC000003000069002809D00221054AD167426A71
:10BC10001A611A7A013A1A72024B19607047C046CB
:10BC200004E100E000E100E070B504000D000AF05E
:10BC300016FD00283AD1002D3AD02B78232B37D887
:10BC400002221C4B1C49DA671C4B013A58610A61FD
:10BC50005A69002AFCD00020194A8D5058600130E2
:10BC6000086058680028FCD0012088600020186116
:10BC700018690028FCD06069885000225A6101329E
:10BC80000A615A69002AFCD000225A6001324A60D7
:10BC90005A68002AFCD00020186101238B60C02163
:10BCA0000222084B49005A501A6070BD0648FCE752
:10BCB0000648FAE704E100E000100040FC100040F4
:10BCC0000405000000E100E016FCFFFF17FCFFFF89
:10BCD00037B54C680500002C04D10C490AF082FFEE
:10BCE00028003EBD636A01A84B602278211D033AFB
:10BCF000A36A0AF0A3FF2000FDF742FE01A9280075
:10BD00000AF070FF01A80AF066FFE9E71427002097
:10BD100030B505008DB0002912D0232A10D801AC0F
:10BD2000D31C002023700123A07002A86370E3706D
:10BD30000EF031FC21002868FFF776FF0DB030BD12
:10BD40000048FBE717FCFFFF10B5002903DB024B9F
:10BD500019600EF032F810BD1C27002070B50400E9
:10BD60001E0004AB1D7804F0C7FB20000E4B4030D2
:10BD70002360FDF75DFF230001364C3301352200BF
:10BD80001E701D730023E1214E32A364636513808E
:10BD900053809381D381013B200063644902FFF704
:10BDA000D3FF200070BDC046D0A80200F7B58027A1
:10BDB0007F053D697C690822113C6C430600210027
:10BDC00068460EF0E8FB104B009A9A4219D0009397
:10BDD0000023019379693000133969430BF0BAFDF0
:10BDE000019A009930000BF0CDFD210030000BF0DE
:10BDF000B1FD7969AB0813396943220030000BF0BB
:10BE0000B3FD0198FEBDC046FECA0000F0B50D00AE
:10BE1000A9B00D9200213022060010A80B930EF05D
:10BE2000D6FB28000EF01BFC431C0C93102B00D9F2
:10BE3000B5E00B9B202B00D9B1E0290030000BF0BE
:10BE4000CEFD071E50D129000C9A10A80EF0A3FBBE
:10BE50000D990B9A14A80EF09EFB80235B051A69BE
:10BE60005F690C92113F7A4330005D690B92FFF7D6
:10BE70009DFF3022002104001CA80EF0A8FB290021
:10BE800000270C9B1339594330000BF063FD0D97CD
:10BE900030257D430B9B0833ED18A74242DA290079
:10BEA00030221CA80EF077FB10A91CA80EF0C5FBD1
:10BEB000002827D13C49300022000E910F940BF04E
:10BEC00061FD6A46099513AB23CB23C223CB23C262
:10BED00023CB23C23000129B1099119A0BF060FD06
:10BEE00001230D930137D3E710300B9A0D990EF013
:10BEF00043FB04003800FDF743FD002CA3D12000D4
:10BF000029B0F0BD6A4609951FAB23CB23C223CBD2
:10BF100023C223CB23C230001C991D9A1E9B0BF019
:10BF20003FFDDFE7E5433023ED1725405D430B9BE5
:10BF300008355D190D9B002B1DD10C9B3021981EDF
:10BF400005F0C4F8A0422CD017490134300022007B
:10BF50000E910F940BF016FD6A46099513AB23CB97
:10BF600023C223CB23C223CB23C230001099119AC2
:10BF7000129B0BF015FD0B9930000BF0EBFC8023AE
:10BF80005B0559690C230C9A133963434A43023306
:10BF9000110030000B9A0BF0E7FC0024AFE7034CD4
:10BFA000ADE7034CABE7C046FECA000017FCFFFF3D
:10BFB00013FCFFFF70B50400A280FA2200230800E2
:10BFC0000C49920008312160A3716061E260A360B6
:10BFD000638209490BF003FD051E09D00100200012
:10BFE0001031022212300EF0D6FA2800FDF7C8FCFC
:10BFF000200070BDB4AA0200C5B8020030B5022509
:10C00000837987B004002B4204D1FDF7BFFAA379EE
:10C010001D43A57120000BF02CFD00281CD06B46A1
:10C02000DD1C28000BF01CFD2B78002B17D001A87D
:10C030000BF014FD0321019AD3170B409B189B10A2
:10C040002382FDF745FDE368A18818180123A0604D
:10C050001A0002A80AF0EFFC002007B030BD012250
:10C06000064B1A60064A51680029FCD00021516035
:10C07000044A1268019201225A60DBE700C00040C6
:10C08000FCC0004008C50040022802D10122014B3B
:10C090001A707047082A002070B5064C05002378F6
:10C0A000002B04D1044801F03BFB0123237028003E
:10C0B00070BDC046092A002089C0010070B50C007F
:10C0C0000AF0CDFA002810D00023144DA40A2B70DA
:10C0D00020000BF0E2FC002803D00A200DF074FFD2
:10C0E000F6E72B78002BFCD070BD02210C4B0D4ADB
:10C0F00099508021C90008005D58002DFCD0A12175
:10C10000C9005C5019580029FCD0002199508021A9
:10C11000C9005A58002AFCD0E6E7C046082A002089
:10C1200000E0014004050000F8B50C0015001E00F9
:10C130000AF095FA002811D00023174F3B70320007
:10C14000290020000BF0A7FC002803D00A200DF0E6
:10C150003BFFF4E73B78002BFCD0F8BD01210F48F2
:10C160000F4B844619508021C9005A58002AFCD030
:10C1700080270022FF00964207DD9100685860503A
:10C18000D9590029FCD00132F5E7002261465A5006
:10C19000DA59002AFCD0E0E7082A00200405000054
:10C1A00000E0014010B50400054B083303601C306B
:10C1B0000AF09BFB200018300AF097FB200010BD0E
:10C1C000CCAA0200FF23F0B52C4D8DB02B700023BC
:10C1D000040069460088009303F068F9002802D142
:10C1E0006B469B782B70264E3368DB68002B07D19B
:10C1F000002320881A0019000BF053FC0DB0F0BD8D
:10C200002B78032BF4D81F4901A8FDF7A5FC336850
:10C2100001A9DE6804A80AF0CAFB04A930000BF0EB
:10C2200011FC0027060004A80AF05FFBBE421ED0E6
:10C2300031002022103104A80EF0ADF93000FDF7D6
:10C240009FFB297804ABC9005918082202A80EF0F8
:10C25000A2F920880123082202A90BF022FC013751
:10C26000002804D12088084A0C210BF018FC01A8F2
:10C270000AF03BFB002FBBD0C0E7C046F0210020F6
:10C280002C270020D5B80200FFFF0000F0B583790D
:10C2900091B004005B071BD5FDF71AFC002322694F
:10C2A000801A9941994203D1F423FF3398420FD960
:10C2B000A068002808D0364B1D880CF096FC036857
:10C2C00015221B6A290098470422A3799343A3717E
:10C2D000A3799B0759D52F4D2B68DB68002B50D0D5
:10C2E0002D4B1B78032B4CD8294B2C491B8804A8B9
:10C2F0000193FDF731FC2B6804A9DE6808A80AF059
:10C3000056FB08A930000BF09DFB070008A80AF0B7
:10C31000ECFA02AB9E1D08233200338006A9073BCE
:10C3200001980BF0C0FB002F08D0390020221031FB
:10C3300008A80EF030F93800FDF722FB164B3288C2
:10C340001B7806A9DE0008AB9E1930000EF014F928
:10C35000002813D0082206A930000EF01CF92B6823
:10C3600004A9DD6805A80AF022FB202308AA05A974
:10C3700028000BF06DFB05A80AF0B7FA04A80AF034
:10C38000B4FA0222A3799343A37111B0F0BDC04661
:10C39000B02900202C270020F0210020D5B8020071
:10C3A000F7B5089E0500152922D8012007008F4007
:10C3B000244C27421CD0E97FCC181F2C41DC691883
:10C3C0003418A14210D80021C8B2834204D9545C69
:10C3D000701884700131F7E732789A183270EA7F6A
:10C3E0009B18EB7700202CE00878C8540139E8E767
:10C3F0003478013CE4B2A34208D10023D9B28C4284
:10C40000F0D9D05CF11888700133F7E7EF7F012095
:10C41000FF183F1B1F2F14DC0227A01C7F42361879
:10C42000381B0190E87F2F18BE4204D23078019F5C
:10C43000F0550136F6E7041B023CEC7728000BF0C0
:10C440007CFBFEBDFC002000F0B585B001930AAB7B
:10C450001E880BAB1B78451C02930EAB1B780400A7
:10C4600003930B78170003704B8A1022438201312B
:10C4700028000EF090F86B469B88268363836B46FA
:10C480001B7B002623776B4601221B7A6761E683BC
:10C49000EB77A31CDA770C9B0C256362230020004A
:10C4A0000D9A28331A705E709E702A0031002C306D
:10C4B0000EF08DF82000074BE663A3632A003100DD
:10C4C00040300EF084F82000034B2665E36405B08D
:10C4D000F0BDC046BD7A0200AF7A020070B50D0013
:10C4E0000CF083FB04000368002D09D15B699847B9
:10C4F000FA2080006843074904F0E8FDE08070BD41
:10C500009B6898478542F3D2236820009B68984730
:10C510000500EDE771020000F0B507001600A1B0BC
:10C5200002C704006B4918A81D000BF04DFB331E19
:10C5300003D030000EF093F883B20122049200225F
:10C5400003920292023201920093320018A938003D
:10C55000FFF77AFF23006049583318A807930BF0C0
:10C5600033FB2B1E03D028000EF079F883B2012292
:10C5700004920022039202920232019200932A0056
:10C5800018A90798FFF760FF23005449AC3318A897
:10C5900008930BF019FB269B002B03D018000EF01C
:10C5A0005EF883B2012204920022039202920232C8
:10C5B00001920093269A18A90898FFF745FF631C7B
:10C5C000FF33474918A809930BF0FEFA279B002B6D
:10C5D00003D018000EF043F883B201220492002227
:10C5E000601C03920292023201920093279A18A9CA
:10C5F000FF30FFF729FF23005533FF33394918A8CF
:10C6000009930BF0E1FA289B002B03D018000EF0E1
:10C6100026F883B20122049200220392029202328F
:10C6200001920093289A18A90998FFF70DFF23009B
:10C63000A933FF332C4918A80A930BF0C5FA299B9C
:10C64000002B03D018000EF00AF883B201220492E6
:10C65000002218AD03920292023201920093299AAD
:10C6600029000A98FFF7F0FE204B1B780B93002B54
:10C670002DD1079B12971393089B0DAF1493631C46
:10C68000FF331593099B1A4916930A9B3800179399
:10C690000BF09AFA1D2149203B7810222B707B8ADF
:10C6A00012AE6B8206ABC918C0180DF074FF0623DA
:10C6B0002B756B469B8D2068AB83AE610CF099FAAD
:10C6C000036829001B6898470122084B1A70200054
:10C6D00021B0F0BD292A0000242A0000252A0000EC
:10C6E000272A0000262A0000282A00000A2A002003
:10C6F0000A18000070B5002504000A4B8580083335
:10C7000085710360C1601830FDF792FA20001C307B
:10C71000FDF78EFA044BA5601C60012365612000C3
:10C72000A37170BDCCAA02002C270020FA2130B5DD
:10C7300085B0050001230222890068460AF07BF9D2
:10C74000074C2068002809D00BF077FA2988054BA0
:10C7500022681980022391790B43937105B030BD93
:10C760002C270020B029002010B50C0007290DD877
:10C7700080680CF03AFA064B195703685B6C9847CF
:10C78000431E9841034B4042184010BD0248FCE74D
:10C79000CDB8020016FCFFFF17FCFFFFF0B5A44C5C
:10C7A0000D00A544040007939AAB1B78A14909A882
:10C7B00004930692FDF7D0F9200029001C300AF0FE
:10C7C000FEF8C020800000F0A1FF0820FDF7B8F8B7
:10C7D0000600002100F088FE15ADA66000210C22A5
:10C7E0000EA80DF0F4FE2B000EAA83CA83C3924B51
:10C7F0002900EB60002330002B610CF0DFF9A0680A
:10C800000CF0F3F908220021059016A80DF0DFFEC8
:10C810001420FDF795F829000200884B1593C8C92C
:10C82000C8C2874B059EC3600023A43603613368EA
:10C83000002B00D0F5E03060A0680CF0DAF9082297
:10C840000021060016A80DF0C2FE1420FDF778F8AE
:10C850007C4B1593030086CD86C37B4BC3600023BE
:10C860000361336B002B00D0DDE03063A0680CF077
:10C87000BCF908220021050016A80DF0A8FE14201E
:10C88000FDF75EF8714B15AE1593030086CE86C397
:10C890006F4B9835C360002303612B68002B00D0D9
:10C8A000C3E02860012504AB1B7C04AA2B4308A924
:10C8B000280013740BF0F9F8A0680CF09EF90368D7
:10C8C00064495B6A9847A0680CF097F9036862496D
:10C8D0009B699847A0680CF090F9002302680093C8
:10C8E000166804992A00B047049B002B0AD0200048
:10C8F0000BF0ACF9032805DDA0680CF07EF90368A5
:10C90000DB6898470EA80BF00FF92F2004ABC01876
:10C910000BF00AF9362004ABC0180BF005F93D20E6
:10C92000042504ABC0180BF0FFF80EAB0A93A06807
:10C9300004AB5D770CF061F903680AA91B6998479D
:10C94000A0680CF052F903680AA95B6D9847A068CB
:10C950000CF04BF903680021DB6D9847A0680CF0E0
:10C9600044F9036802219B6D984700212000FFF7DE
:10C97000FBFE1820FCF7E4FFA16800F005FA374B36
:10C98000374A1B68A1680393364B15A81B6800261D
:10C990000293354B0CAF1B680193069B1B685B1918
:10C9A0000093324B12681B68FFF7B6FD3020FCF78E
:10C9B000C7FF079AA16800F0A7FAA0680CF015F964
:10C9C000036839009B6A9847294BBE80A0680C9386
:10C9D0000CF00BF903683900DB6A98472900A0685E
:10C9E0000BF0FEF8099A09219378A06852190BF010
:10C9F0000AF9A0680CF0F9F8C8210671A068FFF7E1
:10CA00006DFD04AB1B7FB34204D0A0680CF0EDF8C1
:10CA10000BF0D0F809A809F068FF95239B009D440E
:10CA2000F0BD036107E703611FE7036139E7C04613
:10CA3000ACFDFFFFC8B90200CB7A02002DC7010090
:10CA4000D97A0200C5C10100E77A0200157B020015
:10CA5000F57A020075CA0100A9CA01002827002042
:10CA60002427002008200020202700200C20002060
:10CA70000800100013B506226846FDF7AFF8094B11
:10CA80001C68002C0AD0694601A809F090FF20001C
:10CA900001A90BF0FCF801A809F027FF684609F08E
:10CAA00024FF13BD2C270020002373B501AE0C001A
:10CAB00031000500019302F0F9FC002802D1B278A0
:10CAC000064B1A70064B1868002806D06142614177
:10CAD000044BC9B21D800BF0E2F873BDF0210020B9
:10CAE0002C270020B0290020F0B5040097B0039156
:10CAF00007A89C490592FDF72FF89B4908A8FDF768
:10CB00002BF822000FAD28001C3207A909F066FFA0
:10CB100008AA290009A809F061FF280009F0E5FE2C
:10CB200092490AA8FDF718F8A0680CF05EF80368AF
:10CB30000DAE5B69984728000AF0F6FF332004AB7E
:10CB4000C0180AF0F1FF3A2004ABC0180AF0ECFF5D
:10CB5000412004ABC0180AF0E7FF8023DB00B3805C
:10CB6000A0680D950CF041F8036831005B6D9847A3
:10CB7000A0680CF03AF8036800219B6D9847A06804
:10CB80000CF033F80700002506000A371F220021A9
:10CB900038000DF01CFDFD7730000BF002F8062187
:10CBA000A0680BF01DF8099A09219378A068043257
:10CBB0000BF029F8A0680CF018F8C8210571A068DE
:10CBC000FFF78CFCA0680CF010F8FF272E00058101
:10CBD000A0680CF00AF80AF0EDFF0398FEF75CFA83
:10CBE0000AA90CA809F0E3FE78220CA90398FEF725
:10CBF000ABFB0CA809F079FE039920000BF062F85A
:10CC00002000FCF7C3FC0495012563691D402DD06D
:10CC100057490BA8FDF7ACF80BA90CA809F03BFF8E
:10CC200000220CA91300019200920398FEF730FB3A
:10CC30000CA809F023FF049B002B42D1043F282FAE
:10CC400041DD0025FE2F00DC049D05980AF055F912
:10CC5000002806D0012362699A431300042213437B
:10CC6000636100260BA809F009FF0495042263699B
:10CC7000134233D0FF210398C826FEF78BFB002513
:10CC8000B600A36902229B5EAB4222DD200029B2DE
:10CC9000183009F0B9FE0023010003981A0074301F
:10CCA000FDF7B6F83000FCF709FD03980AF042FBE7
:10CCB000C820FCF703FD02226369134209D1013544
:10CCC000DFE70437BBE703980AF034FB002FBCDD35
:10CCD000BAE7FA208000FCF7F1FC00260223656920
:10CCE0001D421CD006331D4024D022490BA8FDF75D
:10CCF0003FF80BA90CA809F0CEFE00220CA9019266
:10CD0000009213000398FEF7C3FA0CA809F0B6FED0
:10CD10001948FCF7D3FC0BA809F0B0FE174E6420AD
:10CD2000FCF7CCFC164B01369E4200DC6CE709F0A8
:10CD3000A8FC69E713490BA8FDF71AF80BA90CA882
:10CD400009F0A9FE2B002A000CA901950095039873
:10CD5000FEF79EFA0CA809F091FE0BA809F08EFED2
:10CD6000DDE7C046E1B80200F1B80200F3B8020006
:10CD700001B9020046B90200983A00008C0A00008E
:10CD80008B0A000083B902000022594BF0B508332A
:10CD9000060003600F001000A9B0B1600BAB99183A
:10CDA00001324870102AFAD10F3A524C1A700E32E2
:10CDB000105D991A0874013AFAD2997B5A7B0902DC
:10CDC0000A4331000C31039125211B7813AD2B70E0
:10CDD00002ABC918452302A81B186A82180010224A
:10CDE0000DF0D9FB039B64216B610123002402AA8F
:10CDF0002B7752181993093313701DAB1C706D23D8
:10CE000002AA9B181C706E2321009B181EA80C22DE
:10CE1000EC836C621C700DF0DAFB374B0C222100A6
:10CE200023A8AB63EC630DF0D2FB344B02AAEB6496
:10CE300046239B180322DA7722002C65059534736C
:10CE400006AD2B1901345A70102CFAD101232C484D
:10CE50002B700E33195CEA1A1174013BFAD21121BE
:10CE60002520AA7B6B7B12020BAC13432A786382CA
:10CE700002ABC9182270C01810220DF08CFB0123E0
:10CE8000237505ABA36100233800A3830BF0B1FE2B
:10CE9000036821001B68984713ABDB8BB068B38233
:10CEA0000BF0A7FE002203680092B18A039ADC68A7
:10CEB0000123A047B0680BF09CFE07001420FCF78C
:10CEC0003FFD0022012304000261069240C00832A7
:10CED000290007930DF05FFB0A4BE360BB69002B51
:10CEE00003D13000BC6129B0F0BD2361F9E7C04631
:10CEF000E4AA0200F5B90200BD7A0200AF7A02008E
:10CF000005BA0200257D0200F0B500260400734B2F
:10CF1000DDB0083303608160C260868086713200B4
:10CF20006F4947A80AF09EFF230014330125042708
:10CF300008931223009704950193089A330047A998
:10CF4000039602961DA8FFF77FFA3200654947A8AD
:10CF50000AF088FF082022000097330015AF103236
:10CF60000495019047A90396029632A8FFF76CFA40
:10CF700032005D4938000AF075FF230008200422C2
:10CF80001C330993390033000495019000920396F5
:10CF9000099A029647A8FFF757FA3200534938001A
:10CFA0000AF060FF5420FCF7CBFC050020000123B1
:10CFB0001221042218300790049301910092390045
:10CFC00002003300280003960296FFF73DFA28007E
:10CFD000474BA5620822EC620AA930300A930B96EF
:10CFE0000DF0D9FA434B0422AB63012329352B7092
:10CFF00009992661E66107980DF0CDFA0422079998
:10D0000008980DF0C8FA6621032304AA8918CB7783
:10D01000BA2104AA8918CB77872104AA4900891864
:10D02000A26ACB77911CA685CB771DAB0C9332AB54
:10D030000D930F9247AB32002F4910A80E930AF0C0
:10D0400011FF3021452004AB5B181B7812313B7077
:10D0500004AB5B181B8811397B8204ABC918C0185C
:10D0600010220DF098FA04220CADA0683A75BD614B
:10D07000BE830BF0BEFD036839001B68984782220F
:10D0800004AB9B181B885432238404AB9B181B8869
:10D090005432A38404AB9B181B88A06863840BF0F4
:10D0A000A8FD07001420FCF74BFC0500134B06619C
:10D0B00008221093119610A910C00DF06CFA104BB5
:10D0C000EB60BB69B34206D1BD612000FCF75EFA9C
:10D0D00020005DB0F0BD2B61F6E7C046F0AA02006B
:10D0E00035BA020015BA020025BA020045BA02009C
:10D0F000377E0200A37D020055BA02006DD1010007
:10D10000CD7D0200F0B504000E00150085B01F00B3
:10D110000CAB1B881030019309F083FC26806580DE
:10D120001820FCF70DFC02AE050033000AAA03CA62
:10D1300003C32F602800082700213A000C300DF0AF
:10D1400046FA3A003100281D0DF025FA064B02225E
:10D150006B61200000230199A5600A43E360A2806F
:10D160002362636205B0F0BDF77D0200F0B50B8964
:10D170008DB00593CB68060004934B88828C9A424D
:10D180000ED1049C049B059A9B181B1B032B3BDDB3
:10D1900062882188012308A809F04DFC0434F1E7D6
:10D1A000428C9A4230D1049C049B059A9B181B1B0D
:10D1B000032B29DD2388282006936388F7680793CB
:10D1C000124B089300230993FCF7BAFBC0236A466D
:10D1D0000500029308AB03CB03C233000699079AFC
:10D1E0002800FFF78FFF3B6829005B6838009847ED
:10D1F000002807D0002D05D0280009F02CFB2800BE
:10D20000FCF7BEFB0434CFE70DB0F0BDB57E0200E5
:10D2100070B5040090B080680AF047FE022101401A
:10D220001AD1A38D002B17D00C4B6A460493102300
:10D23000E568A1850591029304AB41CB41C20A0088
:10D24000230006A8FFF75EFF2B6806A99B6828004D
:10D25000984706A809F0FFFA10B070BDB57E02002D
:10D26000002815D0006041608260C36004614561A0
:10D270008661C761444604624C46446254468462F7
:10D280005C46C462644604636E46466374468463C7
:10D29000002A06D0C46B043C043A25681560B442E9
:10D2A000F9D18C6BA6464E6BB546002B06D0CC6BE5
:10D2B000043C043B1D682560B442F9D10C6BA446C4
:10D2C000CC6AA3468C6AA2464C6AA1460C6AA04668
:10D2D000CF698E694D690C69CB688A6808684968AE
:10D2E0007047006041608260C3600461456186618F
:10D2F000C761444604624C464462544684625C46BC
:10D30000C462644604636E46466374468463C46BB9
:10D31000043C043925680D60B442F9D1C7698669B7
:10D32000456904697047006041608260C3600461C0
:10D3300045618661C761444604624C464462544676
:10D3400084625C46C462644604636C46446374460B
:10D35000846304697047846BA646446BA546046BDE
:10D36000A446C46AA346846AA246446AA146046AE3
:10D37000A046C769866945690469C3688268006810
:10D380004168704710B5041E0CD00DF068F9431EBB
:10D39000E3189C4208D222781978013B21705A7018
:10D3A0000134F6E7014810BD0020FCE717FCFFFF41
:10D3B000F0B585B002900C1E2AD00023C217161AB1
:10D3C00056400193019B30005D1C63190A215F1ECA
:10D3D000039303F0EBFF49423031397030000A21EA
:10D3E00003F0FEFE47420600002F0FD1029B002BE8
:10D3F00004DA2D23019D039A0235137000232000C7
:10D400006355FFF7BFFF380005B0F0BD0195D9E7C0
:10D41000004FF8E717FCFFFF10B582604A43040095
:10D420004160002A0ADD074B90009A4201DD01208D
:10D430004042FCF785FA2060200010BD0023036005
:10D44000FAE7C046FEFFFF1F4A688B6870B583602D
:10D45000534304000D004260002B12DD0A4A9E0077
:10D460003000934201DD01204042FCF769FA0023BD
:10D4700020602A68D158C15004339E42FAD120005E
:10D4800070BD00230360FAE7FEFFFF1F70B50028A0
:10D4900017D1114D2E68002E11D108300CF08DFEE1
:10D4A000066046600D4E04003368002B02D10CF07C
:10D4B00034F8306023682C609B00F3586360286860
:10D4C00070BD0122064907480B681340F8D102607D
:10D4D00043600A60F4E7C04634270020402700205C
:10D4E0003027002038270020002370B50400016099
:10D4F000436099420AD1064D2B68002B02D10CF0F3
:10D500000CF8286023689B00EB586360200070BD16
:10D5100040270020436810B50400002B02D10448C6
:10D520000CF059FD606803681B69984710BDC04640
:10D5300065BA0200436810B50400002B02D104480C
:10D540000CF049FD606803689B69984710BDC046B0
:10D5500065BA0200436810B50400002B02D10448EC
:10D560000CF039FD606803685B6A984710BDC046DF
:10D5700065BA020010B5040002F06AFB034B1B6899
:10D58000002B01D02000984710BDC046482700203E
:10D59000F0B58BB0050001F0C9FD002000F08AFD58
:10D5A000036807001B6998473B6804009B693800C3
:10D5B00098473B6806005B6A380098470300288854
:10D5C00010380B2862D803F077FD063E6161615B7D
:10D5D000616161676179AF88200039000CF023FA3E
:10D5E00022006B7B583201931378A8799C46022362
:10D5F00061460B43137004AB1F80012304AA937090
:10D60000D07013006A461279E91D9A722B00062227
:10D61000163305A809930CF0BEFF29000B2004ABBC
:10D6200006220E31C0180CF0B6FF94346368A36074
:10D63000A06800282AD0C36804A99847A368002BD3
:10D64000F4D01B69F3E720002F49AF880CF0EBF909
:10D650002200022058321378A9798343137004AB57
:10D660001F809970A0346368A360A06800280DD063
:10D67000C36804A99847A368002BF4D01B69F3E79B
:10D680005B69A888A91D002B00D0984729003000AD
:10D690000BF007FC0BB0F0BD636E002BF6D0AF793A
:10D6A000A366A06E0028F1D0C36839009847A36E26
:10D6B000002B01D1636EF3E71B69F1E70122694694
:10D6C0000D27AB7BEF571A4001925A07920FDB08E8
:10D6D0000A720B730622E91D04A80CF05CFF6A466F
:10D6E000127904ABDA716A46127A9F711A726A462D
:10D6F000127B20005A722B000F3307938C3480303A
:10D70000236804A99847C1E7FFFF00000723D72833
:10D7100002D9024B186000231800704744270020EC
:10D72000014B18607047C046482700201FB5802273
:10D73000A323D205DB00D3580820DB0700D4053033
:10D740001C4B48221C4902F0D7FC00280AD080B2AA
:10D75000002807D1BFF34F8F184B194ADA60BFF387
:10D760004F8FFEE7002302A8029301330370154B8D
:10D770001B6843600BF049FA002802D0072005B06F
:10D7800000BD68460BF03FFA0028F7D169460BF060
:10D7900038FA0028F2D10C4802F0DEFC80B20028F2
:10D7A000EDD10A4802F0E2FC80B20028E7D101F096
:10D7B00021F8E4E70F8C02004C27002000ED00E088
:10D7C0000400FA054427002091D5010075D5010019
:10D7D00080B2002807D1BFF34F8F034B034ADA60B2
:10D7E000BFF34F8FFEE7704700ED00E00400FA053D
:10D7F00013B504680093A46813000A000149A04708
:10D8000016BDC046FFFF000037B506AC257804689A
:10D8100001950093246913000A000149A0473EBD09
:10D82000FFFF0000F0B587B00D00002469466F4689
:10D8300016004C800DAA0CA9098812783980019332
:10D84000A2421BD101004479F83194420DD908312C
:10D850000F00083F3F88B7421BD130212032920091
:10D8600012580132D27F0A4215D16A46310028008F
:10D870000BF0D5F9002808D1062407E06A463100EC
:10D8800028000BF0CCF9002800D00324200007B0BA
:10D89000F0BD0132D9E710210A4051424A4100202F
:10D8A00002ACE3600CABA360174B01322680A27080
:10D8B000A0809D4207D100F0FDFB03681B699847DB
:10D8C0000CF0B4F80500210028000BF0ACF900249E
:10D8D00082B2A242DAD0112A13D00BD8082ACBD0B8
:10D8E0006A46310028000BF09AF905240028CDD0B3
:10D8F000023CCBE7054B9A4203D0054B9A42EFD14D
:10D90000BAE70524C2E7C046FFFF0000033000006D
:10D9100001340000F0B5050099B008002E240C91E8
:10D9200000F072FD06ABE4181290220012A901204B
:10D930000BF073F9002802D0032019B0F0BD238842
:10D940000C9A0B9093830C9B0B9A1B7D934200D8EF
:10D95000C6E06B791D2B01D90720EEE70C9B9B6974
:10D960000D930B9B0D9A9B009C586369002B07D16C
:10D97000638B002B04D1631CDB7F022B00D1AAE058
:10D98000200000F041FD23000026283312900E965F
:10D990000D960F930F9B1B78B34221D9626AB30097
:10D9A0009F58342206AB9B1800221A7000230021D6
:10D9B00013AAD21801335170102BF8D1462206ABAE
:10D9C0009B184A4A13A938001A800BF0B4F90028B2
:10D9D00003D07B690D937B8B0E930136F6B2D9E7AA
:10D9E0006979A31C1F31C9006918621CDB7FD27FD3
:10D9F000089121002A31097800200791210029315E
:10DA0000097806910E9905910D990491217F039152
:10DA1000218B0291618B01916169009112A90BF038
:10DA2000D4FD002800D087E76B7907001A00203268
:10DA300092001F335451DB005B5BE3836B7901334E
:10DA40006B71230028331B78BB4244D98E239B0083
:10DA5000EB5C132B00D97FE7626ABB009E58002362
:10DA6000180013A90B70CA1801335070102BFAD18B
:10DA70001E4B30004B820BF05EF90D90002827D131
:10DA8000300000F0C1FC8E2189006A5C738B1E326D
:10DA9000FF325200AA180292327F12900192328B0A
:10DAA00012A9009272690D9800F0FEFC002800D0C7
:10DAB00042E78E2189006A5C531CDBB26B541D3334
:10DAC0007A32FF3392005B005651EB185B88F38388
:10DAD0000137FFB2B5E70B980130C3B20B9332E7C1
