:020000021000EC
:10800000004000200D0F0200490F02004B0F02003C
:108010000000000000000000000000000000000060
:108020000000000000000000000000004D0F0200F2
:1080300000000000000000004F0F0200510F02007E
:10804000530F020011BA0100B90B0200530F0200D6
:10805000530F0200000000000D0D0200530F02003C
:10806000530F0200210702007D0C0200530F020093
:10807000530F0200530F0200530F0200530F020070
:10808000530F0200530F0200530F0200530F020060
:10809000530F02007901020055010200530F020044
:1080A000530F0200530F0200000000000000000008
:1080B00000000000000000000000000000000000C0
:1080C00010B5064C2378002B07D1054B002B02D0AE
:1080D000044800E000BF0123237010BD20220020CF
:1080E0000000000044BC0200044B10B5002B03D07C
:1080F0000349044800E000BF10BDC0460000000076
:108100002422002044BC0200164B002B00D1144B4B
:108110009D46402292029A1A924600218B460F46B3
:108120001348144A121A12F02FFA0F4B002B00D0EA
:1081300098470E4B002B00D09847002000210400E8
:108140000D000D48002802D00C4800E000BF0DF0E3
:108150004FFA2000290011F0E2FD0DF033FAC0467D
:1081600000000800004000200000000000000000A7
:1081700018220020D02A002000000000000000008B
:108180000122024B84B01A7004B07047FF2900200E
:1081900010B50400034B036040300EF073FB200069
:1081A00010BDC04688A8020010B586B0104905A8C9
:1081B00003F078FD05A904A801F0FCFC05A80EF069
:1081C000E7FC0C4905A801F0E5FC05A904A80EF0A0
:1081D000D2FB040005A80EF055FB002C02D00122B2
:1081E000054B1A7004A80EF04DFB06B010BDC0463A
:1081F0006826002010B50200FE29002070B5194D38
:1082000086B0290005A803F04DFD05A904A801F0DA
:10821000D1FC05A80EF0BCFC049B134E1C1D3100C4
:1082200020000DF07BFB12F073F9104B3100186049
:1082300020000DF073FB12F06BF90D4B0D49186027
:1082400005A801F0A7FC05A928000FF024FB05A84C
:108250000EF018FB0122084B04A81A700EF012FB56
:1082600006B070BD682600200EB5020080220020F6
:108270007C22002010B50200FE290020F0B585B058
:108280001F000AAB1B880600029115000393002F04
:108290001CD0282001F072FB6B4604001989039B57
:1082A000AAB200933B000EF08CFA336821005B68A1
:1082B0003000984700280AD0002C05D020000EF08E
:1082C00097FA200001F07AFB024800E0024805B06E
:1082D000F0BDC04616FCFFFF17FCFFFF30B51500D0
:1082E000040087B001A80EF0EAFA290002A80EF0F7
:1082F000E6FA124903A801F04DFC03AA01A904A85B
:108300000EF049FB02AA04A905A80EF044FB03AA3B
:1083100005A920000EF03FFB05A80EF0B3FA04A853
:108320000EF0B0FA03A80EF0ADFA02A80EF0AAFA09
:1083300001A80EF0A7FA200007B030BD0EB502006C
:10834000F0B5A3B002AF694800F02EFE684803F014
:10835000A5FB1C2001F012FB786200F0C9FB322063
:1083600001F0CAF948221023BA18D31858223B65E5
:1083700000231024BA1813705E4A7B6513705E4A9E
:1083800013705C4B1E78002E00D0CFE05B4D5C4B31
:108390000322022100942800FFF770FF594B0122AD
:1083A0001D2100942800FFF769FF642001F0A4F963
:1083B000514B1B78002B72D048232025FB185819ED
:1083C000514901F0E7FB4823FB18782259194F481F
:1083D00002F0A4FF4823FB1858190EF053FAFF21AE
:1083E00030000DF04FFF4A4D6421286030000DF041
:1083F00049FF484B020018604C232968F818FFF722
:108400006DFF4C232025F918043BFB1858190EF07A
:108410009BFA4823FB1859193F480FF03CFA4823B0
:10842000FB1858190EF02EFA642001F065F9324B52
:108430001E700DF023FF7E643864384B00940122D7
:108440001D212E48FFF71AFF2A4B1D78002D22D13F
:108450000DF014FFFD63B863BA6BFB6B386C796C7D
:10846000121A8B411100002B02D12D4B9942E4D9F5
:1084700048232025FB182B49581901F08BFB482372
:10848000FB1859197822214802F048FF4823FB18AD
:1084900058190EF0F7F94C23F8180EF0F3F9154BB4
:1084A0001B78002B1ED01A4B114D19682800C9B239
:1084B00003F0E0FA174B2800196803F04DFA48233F
:1084C0002025FB181849581901F064FB4823FB18B4
:1084D000591978220D4802F021FF4823FB1858193A
:1084E0000EF0D0F9642001F007F94AE78422002059
:1084F00050260020FE290020FF29002054230020C0
:1085000081810100FD81010018B502007023002067
:10851000802200207C22002068260020A981010002
:108520001027000020B5020026B502000023002419
:10853000BB63FC633B647C640DF0A0FE00231D0064
:1085400038637B63DF480EF0B5FC041E00D06CE19D
:108550000DF094FE002D4BD0B860FC60BA68FB684B
:10856000386B796B65246442E517121A8B41A418A5
:108570005D41BC61FD613A617B61FB69002B00D00C
:1085800055E19521BB6949008B4200D94FE1482351
:108590002025FB18CC4958190EF05AFA4821FB69DE
:1085A000CA4C0193FB6979180093FB6949191A00B9
:1085B000200002F02DFE4823FB1858190EF03BFA5C
:1085C0002E2148220823BA18D01811F05BFFAF20E3
:1085D000800001F091F820000EF089FE0DF04EFEB3
:1085E000002338647B640DF049FE7B6C38637B6349
:1085F000386C796C3A6B7B6B121A8B411100002B33
:1086000004D1FA23DB00994200D881E03B6C7A6CFC
:1086100013437DD0482208232025BA18D1185019B9
:1086200011F05CFF4823FB185919786A0DF0C1FE60
:108630004823FB180400581911F07DFE3F2C00D18F
:1086400052E12100786A0DF083FE48232024FB18B4
:108650000200796A181900F02BFA48234822FB1807
:1086600019190823BA18D01811F0E7FE48236D46EF
:10867000FB18181911F05FFE7B6D396D0833DB08AC
:10868000DB00EB1A9D4602AC200011F0BDFF4C232D
:108690002100F81801F07EFA482321002024FB185D
:1086A000181901F077FA4823FB18191988480FF0B8
:1086B000F2F84823FB1818190EF0E4F84823FB18C9
:1086C0001819844901F066FA48212023C8227F4CFA
:1086D0007918C9185200200002F064FD48222023B6
:1086E000BA18D0180EF0CEF8AF20800001F004F8D0
:1086F00020000EF0FCFD4C23F8180EF0C3F8AD4638
:1087000000233A6D7B650024137000233B647C6476
:108710000DF0B4FD00231C00B862FB626E4803F04C
:10872000C5F8012800D1FCE00DF0A8FD002C29D0EF
:10873000002338607B60B86AF96A3A687B68121A6D
:108740008B4165204042C11714001D00001969418A
:1087500002000B1E00D0E6E0952149008A4200D9B4
:10876000E1E0FC3948220833BA18D01811F08AFE2B
:108770000DF084FD0023B863FB630DF07FFDFB6B00
:10878000B862FB62B86BF96BBA6AFB6A121A8B416A
:108790001100002B04D1FA23DB00994200D8CBE66C
:1087A000BB6BFA6B134300D1C6E648220823202591
:1087B000BA18D118501911F091FE4823FB18591915
:1087C000786A0DF0F6FD4823FB180400581911F0E3
:1087D000B2FD3F2C04D02100786A0DF090FD04001A
:1087E00048232025FB18210058190EF075F848235E
:1087F000C822364CFB1852005919200002F0D2FC56
:108800004823FB1858190EF03DF8AF20800000F007
:1088100073FF20000EF06BFD00233A6D7B65002492
:1088200013700023BB63FC6386E635008AE60125EE
:108830003A697B69294C6D42A4185D41BC61FD61B8
:10884000FB69002B1FD1C721BB6949008B421AD895
:1088500048232025FB18224958190EF0F9F8482121
:10886000FB691A4C0193FB6979180093FB6949195C
:108870001A00200002F0CCFC4823FB1858190EF017
:10888000DAF82D219DE67B69002B05D1C8233A69D2
:108890009B009A4200D8A1E648232025FB185819CE
:1088A000104901F077F94823C822084CFB185919E0
:1088B0005200200002F076FC4823FB1858190DF0F6
:1088C000E1FF84E654220020402200207023002093
:1088D000682600202DB50200442200206FFEFFFF15
:1088E0003C220020B7B8020048232025FB18581965
:1088F000264901F04FF94823C822254CFB18591985
:108900005200200002F04EFC4823FB1858190DF0CD
:10891000B9FFAF20800000F0EFFE20000EF0E7FC72
:10892000EEE63400FAE601211A484942001969418D
:1089300002000B1E06D1C72149008A4202D86239C3
:10894000FF390FE7002D04D1C8239B009C4200D8BB
:108950000EE748232025FB1858190F4901F01AF992
:108960004823C8220A4CFB1859195200200002F073
:1089700019FC4823FB1858190DF084FFAF20800024
:1089800000F0BAFE20000EF0B2FCF1E62FB50200B6
:10899000702300206FFEFFFFB7B8020073B51D4DB6
:1089A000280000F041FA1C4C1C492200280011F05C
:1089B000D6FB1B4D1B49280001F0F8F91A4E220086
:1089C0003100280011F0CBFB184D1949280001F0A7
:1089D000EDF931002200280011F0C1FB0023154DF4
:1089E000009301331A001121280001F087FD2200B5
:1089F0001149280011F0B3FB104D0F23280002226B
:108A0000082102F007FF280022000D4911F0A7FB02
:108A100073BDC0468422002000200020458A01004A
:108A200040220020A0B40200376A02003C2200204D
:108A3000D5B4020054220020E5A401004422002005
:108A400069620200EB23194A9B0010B5C2501C3327
:108A50000400C0180DF016FFF1239B00E0180DF084
:108A600011FF84239B00E01801F076FD2000C53043
:108A7000FF3001F095FA20008D30FF3001F032FD1B
:108A800020006530FF3001F02DFD2000EC3002F0B9
:108A900005FA2000D03002F0A7FD2000643007F076
:108AA0009DFC201DFFF774FB200010BD8CAA020066
:108AB00070B50C000D49050016000DF0F7FBE368DA
:108AC000A361A169231D994208D00B0028331B78AC
:108AD000B34205D11031280011F049FC280070BDC7
:108AE000200018300DF003FCEBE7C0462FB5020064
:108AF00070B5A84CA849A544040068460DF0D6FB03
:108B000041236A46A549137607A80DF0CFFB422200
:108B10000DAB1A70A2490EA80DF0C8FB432214AB8E
:108B20001A70A04915A80DF0C1FB44221BAB1A70A6
:108B30009D491CA80DF0BAFB452222AB1A709B4937
:108B400023A80DF0B3FB462229AB1A7098492AA836
:108B50000DF0ACFB472230AB1A70964931A80DF0EE
:108B6000A5FB482237AB1A70934938A80DF09EFB3D
:108B700049223EAB1A7091493FA80DF097FBFF23A5
:108B80004A226B445A758E4946A80DF08FFB9823F4
:108B90004B2269465B00CA544DA88A490DF086FBFA
:108BA000A6234C2269465B00CA5454A886490DF09E
:108BB0007DFBB4234D2269465B00CA545BA8834900
:108BC0000DF074FBC2234E2269465B00CA5462A8B2
:108BD0007F490DF06BFBD0234F2269465B00CA54DE
:108BE00069A87C490DF062FBDE23502269465B00D8
:108BF000CA5470A878490DF059FBEC2351226946FC
:108C00005B00CA5477A875490DF050FBFA23522235
:108C100069465B00CA547EA871490DF047FB842366
:108C2000532269469B00CA5485A86E490DF03EFB4D
:108C30008B23542269469B00CA548CA86A490DF0C4
:108C400035FB9223552269469B00CA5493A8674975
:108C50000DF02CFB9923562269469B00CA549AA812
:108C600063490DF023FBA023572269469B00CA5499
:108C7000A1A860490DF01AFBA723582269469B0062
:108C8000CA54A8A85C490DF011FBAE2359226946CD
:108C90009B00CA54AFA859490DF008FBB5235A22CE
:108CA00069469B00CA54B6A855490DF0FFFABC238B
:108CB000312269469B00CA54BDA852490DF0F6FA0C
:108CC000C323322269469B00CA54C4A84E490DF002
:108CD000EDFACA23332269469B00CA54CBA84B49FC
:108CE0000DF0E4FAD123342269469B00CA54D2A87D
:108CF00047490DF0DBFAD823362269469B00CA5457
:108D0000D9A844490DF0D2FADF23352269469B00E9
:108D1000CA54E0A840490DF0C9FAE6233722694653
:108D20009B00CA54E7A83D490DF0C0FAED23382254
:108D300069469B00CA54EEA839490DF0B7FAF423EE
:108D4000392269469B00CA54F5A836490DF0AEFA9F
:108D5000FB23302269469B00CA540023221D1C2697
:108D6000E26022612371A3606361FCAA20000DF020
:108D700077FB7642F5AD6E4428001C3D11F0DBFA1E
:108D8000B542F9D100232000A361FC239B009D4440
:108D900070BDC04610FCFFFF47B5020079B5020068
:108DA00031B5020080B5020088B5020036B5020078
:108DB00086B502006DB5020081B502005BB5020008
:108DC00046B502003BB502008DB5020087B5020032
:108DD0008CB5020040B5020045B5020032B5020074
:108DE0007AB502008EB502004BB5020067B50200ED
:108DF00050B502004AB502004FB502007FB502002F
:108E000054B502005AB5020060B5020066B5020012
:108E10006CB5020072B5020078B502007EB50200A2
:108E200084B502008AB502001423F0B5040095B0A1
:108E3000009319221821043002F07AFF2200270043
:108E40006432B43713211000119207F0D3FA3800BE
:108E50000EF09CFD2200B83210921E2100221098C4
:108E60000EF04AFA2000D03002F0DEFB2200EC3295
:108E700012920621494A129802F034F82000002686
:108E8000012365301A0000961121FF3001F036FBF6
:108E900020008D300096012302221A21FF3001F0BC
:108EA0002DFB25002000C535B530FF351A230222E1
:108EB0000121FF3002F076FC109904233A222800A9
:108EC00001F01EF984229200A218139205231D229C
:108ED000019300923B002A001099139801F032FD93
:108EE00096229200129BA01813992A0001F004FF09
:108EF00099229200A01839001C2203F045F819238A
:108F00009F220F93013B0E93013B0D93013B0C936A
:108F1000013B0B93013B0A93013B0993013B0893EF
:108F2000013B0793013B0693013B0593013B0493EF
:108F3000013B0393013B0293013B01939200013BF0
:108F4000A01800930822013B07210EF0DDF9EB2366
:108F50009B00E018390003F0B7FBF3239B00E018F7
:108F60001D2102F0D9FCFD239B00E65011982670CC
:108F7000032110F004FE23002200200008499C3346
:108F8000A0321C6011605660064A80305A6102218E
:108F9000012207F06DFF200015B0F0BD90A802007F
:108FA0000D650200F76402000123F0B506788DB06C
:108FB00004001E4000D0A4E0FD20800500F0A6FCC7
:108FC0002300D0331800029300F07AFA00F0A0F9E1
:108FD000282000F0D3FC050010300DF0FFFC4A4BB8
:108FE00018202B6000F0CAFC0700484B04600822E0
:108FF00031000C300A930B9611F0C6FA0AA9381DFD
:10900000082211F0A5FA424B29007B611223AF60C0
:10901000EE60AB802E626E62029802F07DFA00284C
:1090200005D028000DF0E4FB280000F0C7FC012368
:10903000227864201343237000F05EFB0025270094
:109040006537FF3738000DF035FF002855D0200078
:109050008D30FF300DF02EFF00284ED00A2D4CD061
:109060006420013500F048FB0A2DE8D129492A483F
:1090700000F022FCEB23FD269B00E318B6000393CF
:10908000A359002B32D100F057F8010006A800F0D8
:1090900081FD0DF0BFFA04900DF0BCFA6B4605900F
:1090A000198A08A80DF00BFC059B09A8190C0DF0F6
:1090B00006FC09AA08A907A80DF06DFC09A80DF087
:1090C000E1FB08A80DF0DEFB012307AA06A9009327
:1090D0000398029B03F04CFB07A80DF0D3FB06A8F6
:1090E0000DF0D0FBED239B00E358A35121003A0083
:1090F000EC31039803F0E2FCA1E70649074800F0D1
:10910000DBFB0DB0F0BDC046FD0300007F65020033
:109110003F65020000200020001C00200800002005
:10912000BFF34F8F024B034ADA60BFF34F8FFEE766
:1091300000ED00E00400FA05F0B58DB005AF19228E
:109140001549380011F004FA0022144B05245A7115
:1091500080225205566E012225000194029203934B
:109160000199300008F022F80800029907F098FFF2
:10917000019B03996B430193029B361A6B43029345
:10918000631E2C1B6C433C19225C1C1ECA54E7D185
:1091900008000DB0F0BDC046C6B50200002A002090
:1091A000F0B597B018220021060010A811F0ECF9D4
:1091B000132110A810F022FE032110A810F0EDFEDC
:1091C0004C4B1B68002B00D10133DBB202934A4A9F
:1091D000012300210BA807F085FD484B9E4200D9D2
:1091E000002672B6464B64211D68464B300007933B
:1091F000052407F0DFFF60435030281808900A214B
:10920000300007F0D7FF0A2108F0BAF86143503167
:109210006918099130000A2108F0B2F880236143EF
:109220000024503169189B010A910193029B002B85
:109230005DD0002500272E1F07AB9B190593032C3B
:1092400003D1802300249B01019307AB5B592E4A75
:1092500003936300D3180493002319000620584396
:10926000049A16187678B4466246039EB25C1026BD
:109270009446049A105C62460641164202D00120D0
:10928000984001430133092BE8D1C9431F4B059A8C
:10929000090119401268039B934225D1312F23DC29
:1092A00000210BA810F051FFFA23159A1199DB0049
:1092B000106801421BD0013B002BF9D1019B013406
:1092C0005B000193FA230137E4B25B009F42B6D101
:1092D0000435102DAED1074B1B68002BA6D0029F82
:1092E000013FFBB20293A1E7019B1943D9E7FFF7C6
:1092F00017FFC04680260020F0FF0000E7030000B3
:109300000420002015B60200DFB50200F01F0000A7
:10931000F8B50023124C23600DF06EF9002808D038
:10932000042120000DF064F9002801D00D4B2360CA
:10933000F8BD0122A12704250B4B0C491A602268B5
:10934000FF0048604E68002EFCD0DE591202013D3D
:109350003243002DF5D1226001225A60E8E7C04671
:109360007C260020ED5EBC0B00D00040FCD000400D
:109370000B4B70B51C68002C10D0656D00F0C6FB5F
:10938000A36C002901D1834206D820000DF067F9B3
:10939000044920000DF051F92C00ECE770BDC046E7
:1093A00088260020A8260020F0B593B007932A4B0A
:1093B00004AC1E68049005910692002E4AD0274BFB
:1093C000258867881C6800230293002C2ED0636DCB
:1093D00023480393A36C9AB2A36C1B0C99B28542E9
:1093E00014D12048824211D1002B01D0B9420BD1B7
:1093F000029B002B08D120000DF031F91A49200002
:109400000DF01BF901230293039CDEE7002A01D033
:109410009542F9D1002B01D0B942F5D120000DF0D1
:109420001EF9114920000DF008F9EDE70F4BEB187C
:10943000012B0FD910233A00009329000C4B08A8E8
:109440000DF0BFF9336808A99B683000984708A859
:109450000DF0CEF913B0F0BD84260020B426002014
:10946000FE030000FF030000A826002002FCFFFF0F
:10947000A993010010B572B60B4B1C68002C08D0E4
:1094800020000DF0ECF80023E364084B2000E363B8
:1094900010BD62B65C2000F071FA5C22002104006D
:1094A00011F072F8EFE7C046AC2600200040002023
:1094B000024B1878012318407047C046062A002046
:1094C000F7B50600FFF7F4FF051E33D11A4C2660EE
:1094D000FFF7D0FF194B1A4918600DF0AEF8FFF7EF
:1094E000C9FF184B1860184B4363184B83632068FF
:1094F00000280ED0C027164E2A00330015490097C9
:10950000FEF7BCFE009733002A0013492068FEF7DF
:10951000B5FE0C2000F032FA0023838083710F4BDC
:1095200003600F4B836000F009FB01230D4A1178A3
:109530000B431370F7BDC04684260020B8260020D8
:10954000A8260020B0260020FC3F0020256702004E
:10955000A9930100FF030000FE030000B0A8020071
:1095600071930100062A0020F7B506000D001700D0
:109570000193002802D100242000FEBD0029FAD06A
:10958000FFF778FF041EF6D0074B019A436306608D
:1095900045608760054B002A00D0054BA363054951
:1095A00020000DF04AF8E7E7FC3F0020EF660200DC
:1095B0000D670200A8260020024B1868434258415C
:1095C0007047C046A8260020002310B504499C001F
:1095D0006258002A01D00133F9E76050100010BD35
:1095E00090260020002310B5044A99008C5884422C
:1095F00001D00133F9E70020885010BD90260020EB
:1096000010B50024084BA200D058002802D00368EF
:109610005B6898470134062CF4D1044B1B68002B7F
:1096200000D120BF10BDC04690260020A8260020F3
:10963000F8B5FFF73DFF00281BD0294D2C68E36CDF
:10964000DA0717D502263343E3640423254F38682D
:10965000C26C1343C364636BC3630DF026F83868B0
:10966000416C03F028FE2868C36C334201D003F03C
:109670005CFEF8BD1C4F1D4E3A683168002A1ED1B1
:1096800029602A688A4208D11B0706D52C60FFF79B
:10969000B7FF3B68002BFAD02B6029688C42E8D0DA
:1096A0003368994214D1124B4B63124B8B632000E9
:1096B0000CF0FBFF2968626C4B6C20000DE0206D04
:1096C000B84203D1606D002800D002002A60D8E7BC
:1096D0009C42ECD1002210004B6C03F0ABFDC8E7BC
:1096E000B82600208C260020A8260020B0260020C6
:1096F000FC3F00202567020070B50500FFF7D8FE8B
:10970000002803D1280010F03CFC70BD0C4B1C68F5
:10971000E36CDB0706D5FFF7ADFE0A4B18600028A7
:1097200000D0040000F0F2F92D18A56420000CF020
:1097300096FF054920000CF080FFFFF779FFE4E772
:10974000B82600208C26002088260020F0B51E4B6D
:109750001E4F1C683B6885B006000391002B30D07B
:10976000FFF7A6FE00282CD0E36CDB070ED5FFF731
:1097700081FE174B051E186008D00CF070FF1549CC
:1097800028000CF05AFF2C00FFF752FF039B20002B
:109790001B043343A3640CF062FF20000E490CF05D
:1097A0004CFF0E4B0024F318012B07D9C023009364
:1097B000039A0B4B31003868FEF760FD200005B0BE
:1097C000F0BD084CFAE7C046B826002084260020E9
:1097D0008C260020A8260020B426002002FCFFFFD3
:1097E000A993010016FCFFFF10B5FFF761FE0028EA
:1097F00009D0054C20680CF032FF044920680CF0B9
:109800001CFFFFF715FF10BDB8260020AC26002076
:10981000F7B507000D0000282ED0FFF749FE0028FD
:109820002CD00724164E3068C36C1C4007D0154A54
:10983000290038000CF02AFF00242000FEBD03F0B0
:109840005CFD02213268D36C1940019103D00321E1
:109850008B43D364F1E701242343D3642800B84742
:109860003268D36C1900A143D164019C5B07E4D535
:1098700028000CF043FFE0E7034CDEE7034CDCE795
:10988000B8260020FD66020017FCFFFF16FCFFFF54
:10989000020010B5014B12CB12C210BDBC26002035
:1098A000034B1A68034B1A607E225A607047C04609
:1098B00004200020BC26002070B5104D2B78022B10
:1098C00018D0814218D90B1A072B15D90C00032385
:1098D00004431C4010D172B62A78094BD200D050F4
:1098E000981841600CF024FF2B7801332B7062B67E
:1098F000200070BD0348FCE70348FAE7072A002070
:10990000C426002013FCFFFF17FCFFFF70B50021E9
:10991000041C07F057FD002828D1FE21201C8905D2
:1099200007F05AFD002821D104300BF085FE050018
:109930000F48401B08F030FD211C08F0CDF907F05E
:109940007FFD03239843040028000BF07FFE2000D6
:109950000BF072FE002804D1203C002CF7D1054802
:1099600003E00119FFF7A8FF002070BD0248FCE7E3
:109970000038002013FCFFFF17FCFFFF70B5060046
:1099800000250C4B1B78AB4209DD0B49EB00C918D5
:1099900030000CF0D5FE041E09D10135F1E730008E
:1099A0000BF04AFE041E02D11420FFF7F9FB200041
:1099B00070BDC046072A0020C426002070B50028CC
:1099C00013D00D4B0D491C7800239C4210DDDA00AA
:1099D000555885420AD28A185268824206D9802395
:1099E000043802681B061343036070BD0133ECE7C3
:1099F0000BF02CFEF9E7C046072A0020C426002001
:109A000070B5051E14DD0B4E0B4C3368002B02D0D5
:109A1000206810F031F9FA2120680024074B8900F2
:109A20008361C4626943356010F02EF9200070BD77
:109A30000348FCE7D426002004270020E99A01000F
:109A400017FCFFFFF8B5114F06003D68002D0AD145
:109A50003020FFF793FF040006F0F0FC0C4BA561EB
:109A60002360E5623C600B4D2B68002B09D1102070
:109A7000FFF784FF040010F0C8F820002C6010F0FD
:109A80009EF83000FFF7BCFFF8BDC0460427002059
:109A900028AE020000270020014B18687047C0461E
:109AA000D426002070B50D4C2368002B03D00C4B3E
:109AB0001B68002B02D10620FFF7C4FF206810F0BE
:109AC00095F802000749C3170D684E685219734193
:109AD00020680A604B6010F08FF870BD00270020EE
:109AE000042700201822002010B5FFF7DBFF002418
:109AF000054BA200D058002802D003681B68984785
:109B000001340A2CF4D110BDD826002010B5FFF77F
:109B1000C9FFFA22034B920018685968002307F026
:109B20006FFC10BD1822002010B5FFF7BBFF024BE1
:109B30001868596810BDC046182200200B4B10B59C
:109B40001B680400002B03D0094B1B68002B02D1BB
:109B50000620FFF777FF0023064A9900885800285F
:109B600001D00133F9E78C5010BDC046002700201A
:109B700004270020D8260020002310B5044A9900AD
:109B80008C58844201D00133F9E70020885010BD81
:109B9000D826002010B50400002902D00B78002B35
:109BA00003D1034B2360200010BD0CF072FEFAE7D6
:109BB000C0A80200F8B5040008000D000DF024F85C
:109BC000002803D1134B23602000F8BD28000DF0BE
:109BD0001BF80530FFF7D2FE20600DF018F82800C2
:109BE0000DF012F823685880236828001E1D0DF020
:109BF00008F8070028000DF007F8390002003000CF
:109C000010F0A6FC280026680CF0FEFF0023361892
:109C10003371D9E7C0A80200F8B504000E001500A2
:109C200000290AD00B78002B07D0002A05D00800A5
:109C300097B210F0F1FC874203D90B4B2360200050
:109C4000F8BD681DFFF79AFE20600CF0E0FF236866
:109C50002A005F8023683100181D10F079FC23680A
:109C60005D1900232B71EAE7C0A80200014B0360D5
:109C70007047C046C0A8020010B50548054C2060DA
:109C80000CF0C8FF044A0549200010F068FA10BD26
:109C9000C0A80200082700200020002085680200DC
:109CA000084B73B51C680500002C0AD0010026681B
:109CB00008310822684610F04BFC0CCD31682000BA
:109CC000884773BD0C270020014B03607047C046D6
:109CD000C8A8020030B500684488A1420CDA858823
:109CE000AA4209DA002907DB002A05DB54434018A1
:109CF00000198371002030BD0048FCE717FCFFFF0E
:109D0000F0B5070085B00E001D0000291FDD002BF7
:109D10001DD00468638803938B4200DD0391A38800
:109D20000293934200DD0292002306340193019BCB
:109D3000029A93420EDA29002000039A10F008FCE0
:109D40003B68AD195B88E418019B0133EEE70248DC
:109D500005B0F0BD0020FBE717FCFFFFF8B50400DD
:109D60000D0016001F00002901DB002A02DA0E4B4D
:109D70002360F8BD100048430630FFF7FFFD206068
:109D80000CF045FF23685D8023689E80002F06D07D
:109D90003B00320029002000FFF7B2FFE9E7200076
:109DA0000CF05EFEE5E7C046C8A80200F0B506006C
:109DB00087B00D1E04D1244B0360300007B0F0BD06
:109DC00000200F000400010001903B78002B1AD006
:109DD0003022524294469C446246092A11D90A2BE9
:109DE0000AD1019B241801330193A14200DA21001A
:109DF000002004000137E8E70028FBD001340020F0
:109E0000F8E70120F6E76A46928809B212B23000FC
:109E1000FFF7A4FF33689C1D03AB1F002A78002ABC
:109E2000CBD011003039092903D81A70013301351C
:109E3000F4E700221A70BB42F9D9380010F068FB31
:109E40003B0020700134F2E7C8A80200F0B504001E
:109E500089B006A80E0002921D00FFF719FD2368C5
:109E600002995A88914235DA9B889D4232DA1F2E38
:109E700030D9079B01939E422CDC052300227343BB
:109E80000393069B0493039B04999B18A03BCB5C14
:109E900000210593AE18029BCF18236858880190C3
:109EA00087420EDA9888B0420BDDDB1910270F418C
:109EB000019870431B1805980740781E87417F4220
:109EC0009F7101310529E6D10132052ADBD100203D
:109ED00009B0F0BD0048FBE717FCFFFFF7B50468C9
:109EE000070063880E1E01931EDD994218DA0023D5
:109EF000063400933B68009A9B889A4212DA019BD1
:109F0000A1199D1B2A00200010F022FB60193100CE
:109F10000CF098FD3B685B88E418009B0133E8E790
:109F20000CF09EFD002000E00048FEBD17FCFFFF86
:109F300010B50548054C20600CF06CFE044A05493C
:109F4000200010F00CF910BDC8A802001027002056
:109F500000200020376A020010B5054C01212000C6
:109F60000CF040FE034A0449200010F0F8F810BD40
:109F70001427002000200020916B02000388074A6C
:109F800010B50120934208D0834202D00020DB07A5
:109F900003D41E20FFF704F9002010BDFFFF0000CE
:109FA00010B50400034B08330360FFF71BFB2000D0
:109FB00010BDC04610A90200FA2270B54389920074
:109FC0005343314A31491400050038348B421BDCBD
:109FD0002F498B4218D82F49083C8B4214D82E4960
:109FE000083C8B4210D82D49083C8B420CD82C4998
:109FF000083C8B4208D82B49083C8B4204D82A499C
:10A0000014008B4200D90834284B2A7B1E1D042AD9
:10A0100003D89E1C022A00D81E00FA21206889005D
:10A0200007F03EF8337868812B7300222A2128003C
:10A030000CF014FE002801D01D4870BD10222B2109
:10A0400028000CF00BFE0028F6D101222D2128005B
:10A050000CF004FE0028EFD101222E2128000CF084
:10A06000FDFD0028E8D172780E2128000CF0F6FDE5
:10A070000028E1D1012223792A211A4328000CF07B
:10A08000EDFD0028D9D0D7E7D0A8020000C4090010
:10A090000071020080380100204E000010270000EF
:10A0A00088130000C4090000E2040000F5B70200B4
:10A0B0000EFCFFFF7FB515000F226A4404001E004E
:10A0C0001170002D16D0002B14DD0123018900939F
:10A0D000006B01F09DF9002802D0074804B070BD64
:10A0E0000090218933002A00206B01F047F90028F5
:10A0F000F4D0F2E70148F1E70EFCFFFF17FCFFFF89
:10A10000F7B50600002501931E4B143608330400F2
:10A11000036085808571C581058245820F000092AC
:10A1200029001822300010F02FFA1C2130000FF007
:10A1300065FE6B469B880221A3806B461B8822002C
:10A1400023811423A5712173A563A58763813E3202
:10A15000137827638B43F1310B4013702300957202
:10A1600095810135221DD5870833A21DD587200092
:10A17000DD87FFF721FF002802D1A3791D43A571D8
:10A180002000FEBD10A9020030B50425837987B0F8
:10A1900004002B4204D1FFF717FAA3791D43A571E0
:10A1A000A36AA2691B6800251A4208D106236A46E1
:10A1B00001212000FFF77EFF051E03D0114D28006E
:10A1C00007B030BD6B460222042069469A561856E5
:10A1D000237BD2005A43228202220978C00049B26E
:10A1E000C900594343436382A379E1819343A37137
:10A1F00020000CF041FD0123A1881A0002A80CF0F8
:10A20000F7FBDCE70EFCFFFFF8B50400FFF7BCFF2F
:10A210000E22A35E794F5B42BB4251DA23003E33EC
:10A220001B789B074CD50125210028003E310B7877
:10A230005A08904302000220AA40834313430B7044
:10A240002000FFF7A1FF1022A35E5B42BB4248DA69
:10A2500023003E331B785B0743D5012521002800EE
:10A260003E310B789A0890438200042083431343C5
:10A270000B7026002000FFF787FF1222A35E4836EE
:10A28000BB423EDA23003E331B781B0739D5210041
:10A2900001223E310B78D80882430820D200834344
:10A2A00013430B703378032B3BD80133DBB233708D
:10A2B000012B00D08DE0230000224A331A8030E0C9
:10A2C0002000FFF761FF0E22A35EC8225B4252000E
:10A2D00000259342B4DD23003E331B789B07A2D5B3
:10A2E000AEE72000FFF750FF1022A35EC8225B42BA
:10A2F00052009342BDDD23003E331B785B07ACD593
:10A30000B7E72000FFF740FFC8231221625E5B0021
:10A310009A4204DD23003E331B781B07B7D5002D7E
:10A32000C0D13278002A14D02100270001254A31FB
:10A330000B883E3701339BB20B803878AC46054022
:10A3400055D01D2B05D963469843002338700B80E8
:10A35000337020000CF0FCFC294A0723904244DDB6
:10A360002000FFF711FF0E23E25E264E5242032328
:10A37000B2423ADBC8252000FFF706FF0E23E25E5B
:10A38000AD0052420423AA422FDC2000FFF7FCFE5E
:10A390001023E25E02235242B24226DB2000FFF786
:10A3A000F3FE1023E25E01235242AA421DDC20008C
:10A3B000FFF7EAFE1223E25E0523B24215DB20001E
:10A3C000FFF7E2FE1223E25E0623AA420DDC002321
:10A3D0000BE0042BA5D122003E321178033B0B4346
:10A3E000137000234A3423800B331800F8BD092B67
:10A3F000AFD9013A0D803270ABE7C04670FEFFFF67
:10A40000FF700200E0FCFFFF70B5C369C1681A6805
:10A41000451D8AB00400EB7F114255D0002B58D166
:10A42000EB7F082B0DD90122A379134209D11343E5
:10A43000A371A188130006A80CF0DAFAFFF766FBF7
:10A440002062EB7F012B23D80123A2791A421FD06F
:10A450000025A188A571022202A80CF0C9FAA31D4B
:10A46000DE7F012E14D1FFF751FB2B00226A801AE8
:10A47000994100900191019BA188AB4203D1174BF8
:10A48000009A9A4227D90123042206A80CF0B0FAB8
:10A490000322A3791340012B14D1FFF737FB0023CC
:10A4A000226A801A9941994202D10D4B984209D9EA
:10A4B0000223A279A1881343A3710522012306A8D0
:10A4C0000CF096FA0AB070BD0B2BA9D80133EB77CC
:10A4D000A6E7013BFBE733000322D6E7E7030000D2
:10A4E000DB05000010B50400034B08330360FFF7E1
:10A4F00043FB200010BDC04628A90200F0B50700AC
:10A5000000250E0085B002930AAB1B780837039331
:10A51000104B040008330360019285808571290087
:10A520001822380010F030F8039A310038000FF08C
:10A530006AFC6B466A469B88127AA380A31DE6716B
:10A54000DA77631D25622000DD77FFF7F7FA200038
:10A5500005B0F0BD28A9020010B50400034B083374
:10A560000360FFF73FF8200010BDC04698A9020025
:10A570007FB515000F226A4404001E001170002DE3
:10A5800016D0002B14DD012301890093C06B00F06D
:10A590003FFF002802D0074804B070BD0090218919
:10A5A00033002A00E06B00F0E9FE0028F4D0F2E767
:10A5B0000148F1E70EFCFFFF17FCFFFF002330B559
:10A5C00085B003AC2170018900930500013322009E
:10A5D000C06B00F01DFF002802D0094805B030BD57
:10A5E00020802989009002232200E86B00F0C6FE3B
:10A5F0000028F2D1237860781B02184300B2EDE7FF
:10A600000EFCFFFF13B56B46DC1D002322002370F8
:10A610000133FFF7ADFF002801D1207816BD0148B6
:10A62000FCE7C0460EFCFFFFD0B504000CF06AFC4E
:10A63000E268A369981A09F0FDFA06000F00236981
:10A64000E069C01A09F0F6FA32003B0009F040FE5A
:10A650000022104B08F0FEFC0F4A104B08F0F8F9EE
:10A6600009F074FB0021041C06F0A2FE002804D0AF
:10A67000201C0B4906F0BEFF041C201C09F014FB33
:10A6800002000B000020074908F056FF09F09CFA71
:10A69000D0BDC04600806640EA2E4454FB210940EC
:10A6A0000000B44300807640F0B5050085B0006C32
:10A6B0000CF0EBFB061C286C0CF0DEFB0221071CE7
:10A6C00028000CF050FC0221039028000CF05DFCE7
:10A6D00007F018FE0221041C28000CF068FC07F0AB
:10A6E00011FE051C301C09F0B5FD0290301C09F06C
:10A6F00073FD0190381C09F0ADFD061C381C09F0F3
:10A700006BFD071C039807F0FDFD391C07F0E4FA08
:10A71000311C071C201C07F0DFFA029907F0DCFA55
:10A72000011C381C06F066FF311C071C281C07F0B2
:10A73000D3FA019907F0D0FA011C381C06F05AFF31
:10A740000299061C281C07F0C7FA0199051C201C59
:10A7500007F0C2FA011C281C07F0F0FB311C09F0BD
:10A76000BBFD0D4907F0B8FA09F09EFA0B4A0C4BF5
:10A7700008F06EF909F0EAFA0021041C06F018FE50
:10A78000002804D0201C044906F034FF041C201CBF
:10A7900007F098FD05B0F0BD0000B443EA2E445424
:10A7A000FB21194070B50022102104000CF09CFB25
:10A7B0001B4D00282DD1032608212000FFF722FF82
:10A7C000A84226D0304226D1FA2163898900594314
:10A7D0005023144AD518D058884204D3D518083BC2
:10A7E00018000830F7D1FA212868890006F058FCD3
:10A7F000A0226081112120000CF076FB002808D1F6
:10A8000001222B7910211A4320000CF06DFB002847
:10A8100000D0034870BD6420FEF76EFFCCE7C04651
:10A820000EFCFFFF40A902007FB5042583790400D8
:10A830002B4218D102260CF065FBA379A188B34303
:10A840002B43A3710622012368460CF0D1F8A079AE
:10A8500003003040AB43A37143425841034B404295
:10A86000184004B070BD0248FBE7C04614FCFFFF6F
:10A8700015FCFFFF10B5837904005A070DD49B0720
:10A8800001D4FFF7D1FF236C2000002B02D0FFF78B
:10A890000BFF10BDFFF7C8FEFBE70148F9E7C04614
:10A8A00015FCFFFF70B5466C86B001AC0500019148
:10A8B0006260A360002E0CD00B4905A8FFF76AF96F
:10A8C0000C23220005A930000DF09FF805A80BF01D
:10A8D000D9FF2B000C3307CC07C30223AA791343FB
:10A8E000AB7106B070BDC046FBB70200642330B543
:10A8F00004000281438185B08180FFF753FF02226B
:10A90000A379606C9343A371002813D00C490DF018
:10A9100043F8051E0ED001000C22103101A80FF0E3
:10A9200017FE20000199029A039BFFF7BBFF280046
:10A93000FFF744F80123A2791343A37105B030BD9A
:10A94000FBB70200F7B5009308AB1B880400019326
:10A9500009AB1D8800230F0016000D4A83800832C2
:10A9600083710260C360036143618361C3610362F9
:10A970001D2124300CF0ABFA009BE763266429000C
:10A9800020006364019AFFF7B1FF2000FEBDC046BE
:10A9900098A9020082B0F0B50400A5B064202B9302
:10A9A0002A920FF0EEFA04220C2109A802F01EFDF3
:10A9B0002422CC491BA80FF0CBFD052206A81100CC
:10A9C0000CF057F8C84907A8FFF7F0F9A06800F0A5
:10A9D00081FBA568C54918A8FFF7DCF8782218A9FB
:10A9E000280000F071FC18A80BF04CFF6E256420C5
:10A9F000013D0FF0C6FA002DF9D1A06800F06AFB06
:10AA0000A0680CF074FC012160680CF0B5F901211C
:10AA1000070060680CF0C3F906000A200FF0B1FAD5
:10AA20000022B34B03929F4210DB013203923A00A3
:10AA3000C8320BDBC822042192000391974205DC47
:10AA400003220392C82F01DC013A039200279E42A1
:10AA50000CDB33000137C83308DBC82303379B0006
:10AA60009E4203DC013FC82E00DC013F06A80BF02C
:10AA7000F7FF0026032373431BA9CA189078002808
:10AA800005D0C95C5278FF2306A8FFF723F90136E9
:10AA90000C2EEFD16B463AB20C21595E06A8FF236B
:10AAA000FFF718F90023A06800931A00743006A974
:10AAB0000BF0E6FF002304930323049A0398534307
:10AAC0001BAA995C814237D1D31805935B78BB42AE
:10AAD00032D1059B9E78002E2ED1310020680CF0DB
:10AAE00042FA07F00FFC3200031C290009A80DF000
:10AAF00015FA310020680CF048FA07F003FC012237
:10AB0000031C290009A80DF009FA310020680CF097
:10AB10004EFA07F0F7FB2900031C022209A80DF0EA
:10AB2000FDF9FE2303229B05290009A80DF0F6F983
:10AB30000123059AED189370049B013304930C2BA9
:10AB4000BAD164200FF01DFA0B2D00DC5BE709A8D9
:10AB50000DF0D0F9012201000CA802F047FC0025FD
:10AB600009A80DF0C7F9A8423CDD2900002209A878
:10AB70000DF0C2F90022061C290009A80DF0BCF94D
:10AB8000011C301C07F0A8F82900061C012209A8A6
:10AB90000DF0B2F90122071C290009A80DF0ACF94B
:10ABA000011C381C07F098F8311C06F023FD290021
:10ABB000061C022209A80DF09FF902222900071C99
:10ABC00009A80DF099F9011C381C07F085F8311C13
:10ABD00006F010FD2900031C00220CA80DF09EF9C0
:10ABE0000135BDE709AA1100012318A80DF0B0F93D
:10ABF00018A90FA80DF009FA18A80DF0A0F90CAAD1
:10AC000009A912A801230DF0A3F9002312AA0FA984
:10AC100015A80DF09DF9002215A811000DF06CF992
:10AC20000022061C012115A80DF066F90022051C62
:10AC3000022115A80DF060F9FC21071C8905301CC4
:10AC400007F04AF807F03EFBFC2106001890890542
:10AC5000281C07F041F807F035FBFC21050019908E
:10AC60008905381C07F038F807F02CFB2A00030090
:10AC700031001A902068FFF715FEA0680CF037FB32
:10AC800007A908A8A5680BF0E3FE0022194B009263
:10AC900008A901932800130000F0BAFA08A80BF0E5
:10ACA000CAFEFA2080000FF06CF9A0680CF01FFBC0
:10ACB00015A80DF044F912A80DF041F90FA80DF0F8
:10ACC0003EF90CA80DF03BF907A80BF0B4FE06A85E
:10ACD0000BF0B1FE09A80DF032F925B0F0BC08BCAC
:10ACE00002B0184706B802002AB802006FB8020086
:10ACF000E0FCFFFFDC050000F7B583601D4B05009D
:10AD00001F6801604260002F31D02820FEF736FE18
:10AD1000040010300BF062FE174B18202360FEF782
:10AD20002DFE00220600154B01920560083200211D
:10AD30000C3000930FF028FC08226946301D0FF0FC
:10AD400007FC0F4B00227361C223A3803B68E260C3
:10AD5000A660226262625B68210038009847002882
:10AD600005D020000BF044FD2000FEF727FE280050
:10AD7000FEBDC0460C2700200500060095A9010075
:10AD8000C76F0200F0B5040085B0637A9C46002BC3
:10AD900004D120000CF042F905B0F0BDA37A266F73
:10ADA00001931023019AF35600259B1801229A4023
:10ADB0002900F36803920293029BAB4231DDB36832
:10ADC000019A6B439B1872695B00E77AD3181A7873
:10ADD0005878E379012F14D15F1E3F1A10003A0012
:10ADE0005B004343606F8218D3189B79634500DD95
:10ADF0006346627B1A4202D00123AB4019430135FE
:10AE0000DAE7022F05D15F1EBA1A277A013F381AF6
:10AE1000E6E7032FE4D1277A013FBF1A020038008A
:10AE2000DEE71123C943F356606C9940236919404A
:10AE3000039B19430FF089F9A27B072AACD8637BE7
:10AE40000C495B006373531CDBB290004158A37341
:10AE5000022A03D808000FF089F896E7064B200075
:10AE6000236300236363054BE462236414300EF014
:10AE70000BFF91E7B0A9020085AD01000770020049
:10AE800010B50400044B03600EF0F6FE200005F040
:10AE9000EBFA200010BDC04628AE020010B5040039
:10AEA0000E4B08330360FEF767FE200074300BF092
:10AEB000C2FD200060300BF0BEFD200058300BF0CA
:10AEC000E1FC200050300BF0DDFC2000044B14307E
:10AED0006361FFF7D5FF200010BDC046D0A9020076
:10AEE0005CAE0200F8B500250400324B85800833C3
:10AEF00003608571143016000F0005F09FFA2000E2
:10AF00002D4BE562636125645030FEF7AFFE2000F3
:10AF10005830FEF7ABFE20006030FEF7D5FE200073
:10AF20000423F25E33682667590009B274300BF0CF
:10AF3000A0FD3368226FE37173680126237210232A
:10AF40006581A7802561D35691685918994204DD1F
:10AF50003000984001330543F8E711230120D35610
:10AF6000D1685918994206DD02009A4026690133DA
:10AF700032432261F6E71420FEF700FD226900212A
:10AF80002A430123060005F0ADFEFF232200637271
:10AF90000133A381002348326664A3732000137039
:10AFA000A366FEF7CBFD0123A27920001343A37112
:10AFB000F8BDC046D0A902005CAE0200F0B5437AED
:10AFC00085B00400002B04D120000CF027F805B058
:10AFD000F0BD0122837A11009C461023066F0025E4
:10AFE000F35603926344994002912900F368019358
:10AFF000019BAB422CDDB36872696B4363445B0019
:10B00000E77AD3181A785878E379012F10D15F1EA8
:10B010003F1A10003A005B004343606F8218D31858
:10B020009B79002B02D0039BAB4019430135DFE72E
:10B03000022F05D15F1EBA1A277A013F381AEAE7B4
:10B04000032FE8D1277A013FBF1A02003800E2E758
:10B050001123C943F356606C994023691940029B40
:10B0600019430FF072F8667AB31EDBB2FC2B14D8CA
:10B07000FEF712FD0B4B0500236300230A486363B0
:10B080000A4BFF21E4622364704306F093F8290021
:10B090004143200014300EF0F7FD637A012B00D9F4
:10B0A00095E791E71D700200B603000007700200EB
:10B0B0001FB5012381881A0068460BF099FC012313
:10B0C00003491A0068460BF093FC05B000BDC0466A
:10B0D000FE0300001FB5030048331A780400002A5D
:10B0E0000DD000221A70012381881A0068460BF0E7
:10B0F0007FFC012304491A0068460BF079FC20000C
:10B1000074300BF0ADFC1FBDFF03000010B54830DC
:10B110000378002B06D00378012B03D001210248CD
:10B120000BF0DCFA10BDC046FF03000010B5012192
:10B13000040006200BF0D2FA064B984208D148349E
:10B140002378002B04D02378012B01D020BFF7E710
:10B1500010BDC04616FCFFFF70B50600141E19DBBB
:10B16000050048352B78002B02D02B78012B13D10A
:10B17000002330001A007430FEF768FE002C07D060
:10B1800033004A331C80002407234C3634802B7054
:10B19000200070BD014CFBE7014CF9E717FCFFFFF5
:10B1A00012FCFFFFF8B517000A68050052880B0073
:10B1B000012A09D1002118000BF003FC0022010034
:10B1C0002800FFF7C9FFF8BD002F19DD060048363B
:10B1D0003278002A02D03278012A13D12A000024C2
:10B1E00028005C321900148058300BF0B5FB2B009E
:10B1F0004A331F8003234C352C8020003370E2E754
:10B200000148E0E70148DEE717FCFFFF12FCFFFF03
:10B2100073B5079C0500002C1CDB0600483630780F
:10B22000002802D03078012816D106981BB2C0B28F
:10B230000090280012B274300BF022FC002C07D0D2
:10B240002B004A331C80002407234C352C8033709C
:10B25000200076BD014CFBE7014CF9E717FCFFFF2E
:10B2600012FCFFFFF0B587B00D9C06000F000292A4
:10B270000393002C20DBFFF749FF330048331D7890
:10B28000EDB2002D1AD1390005A80BF0E1FB0C9BA3
:10B2900001940093029A039B05A93000FFF7B8FFC1
:10B2A00005A80BF0C8FB002C03D03000FFF73EFFD1
:10B2B0002C00200007B0F0BD014CFAE7014CF8E784
:10B2C00017FCFFFF11FCFFFFF8B50400171E1DDD82
:10B2D000060048363378002B02D03378012B17D183
:10B2E0002200E3795632013B137023000025200031
:10B2F00054331D8050300BF02FFB23004A331F8046
:10B30000022328004C3425803370F8BD0148FCE747
:10B310000148FAE717FCFFFF12FCFFFFF7B5050035
:10B320000F00161E18DDFFF7F1FE2B0048331C78C6
:10B33000E4B2002C12D1390001A80BF005FB320059
:10B3400001A92800FFF7C0FF01A80BF09BFA280015
:10B35000FFF7ECFE2000FEBD0148FCE70148FAE7DC
:10B3600017FCFFFF11FCFFFFFF2902D841720020EC
:10B3700070470148FCE7C04617FCFFFFF0B51F000F
:10B3800085B00AAB1B780400039300933B000D00CB
:10B3900016000EF09FFC002833D0237D082B2DD8FB
:10B3A000236800221900FC318A62A021C9005A508A
:10B3B000154905205A500138C046C046C046C0460F
:10B3C000C046C046C046C046C046C046C046C0464D
:10B3D000F1D1236801325A50A0210432C9005A50D9
:10B3E00005F03CF9039B3200009329003B0020004C
:10B3F0000EF070FC237D01332375CCE7034805B0C4
:10B40000F0BD2075FBE7C046FC0F00000EFCFFFFFF
:10B41000F0B51F0085B00AAB1B78040003930093BE
:10B420003B000D0016000EF03DFC002833D0237DBC
:10B43000082B2DD8236800221900FC318A62A02134
:10B44000C9005A50154905205A500138C046C04617
:10B45000C046C046C046C046C046C046C046C046BC
:10B46000C046C046F1D1236801325A50A0210432AF
:10B47000C9005A5005F0F2F8039B320000932900EE
:10B480003B0020000EF00EFC237D01332375CCE73A
:10B49000034805B0F0BD2075FBE7C046FC0F000077
:10B4A0000EFCFFFFF8B50D1E30D000260227C46841
:10B4B000002C28D0AA88A38853403B4204D13A42AA
:10B4C00004D1AB883B4219D0646AF1E7A968A0684F
:10B4D0000CF0FFFC0028F4D02B88002B02D022882F
:10B4E0009A42F1D16B88002B02D062889A42EBD14C
:10B4F000A288074B01361343A380E5E7A368AA6837
:10B500009342E1D1E8E72000002E00DC0148F8BDBD
:10B510000080FFFF17FCFFFFF0B5060085B00D1E91
:10B5200059D00127C468002C22D00221AA88002308
:10B530000A4202D0A3885B083B40226829688A42FD
:10B5400010D1A068A968002B0AD00CF0C2FC00281A
:10B5500008D0A3881AB2002A06DB204805B0F0BD47
:10B560008842F6D0646ADEE75B045B0CA380F4E7F4
:10B57000F0682A88002807D1F56001231849684639
:10B580000BF036FA0020E9E7010003001C88944222
:10B5900006D25C6A1900002C0DD02300F6E72300C8
:10B5A0001C88944207D15F886C88A74203D25C6AEA
:10B5B0001900002CF3D1814209D10B889A4204D39F
:10B5C00005D148886B88984201D96962D4E74B6AF3
:10B5D0006B624D62D1E70348C0E7C04616FCFFFF2F
:10B5E000FD03000017FCFFFF064B10B51A00040016
:10B5F00008322C33026043600430FDF7F3FF200073
:10B6000010BDC046E8A9020008B4024B9C460438AD
:10B6100008BC6047E9B5010008B4024B9C460438F9
:10B6200008BC60472F7402000C4A002311002C3222
:10B63000083110B5038183724260C36003614361C6
:10B640004383016004000430FDF7BEFF044B1A6819
:10B65000002A00D11C60200010BDC046E8A90200ED
:10B660000C270020F7B50E000125C4680192002CBC
:10B6700036D0238832889A4201D0002B23D16388A8
:10B6800072889A4201D0002B1DD1FDF711FF0123D2
:10B69000002806D0C022A3881340C03B5A42534121
:10B6A000DBB2019A934219D1A7883BB2002B15DB7C
:10B6B00010223100A0180EF04BFF40231F4204D08F
:10B6C00020000BF0BDFE646AD1E7FDF7F1FE002813
:10B6D000F6D021000348FEF79BF8F4E70025F2E7D7
:10B6E0002800FEBD4174020008B4024B9C46043899
:10B6F00008BC6047C9750200F0B587B001930EAB76
:10B700001B88060003930D9B0D000093019B029282
:10B710000C9F002B3DD0002F02D1009BDB0738D5BA
:10B720002820FEF72BF9040010300BF057F96B4678
:10B730001B89258063801820FEF720F90500009BF7
:10B7400008220593019B002103600C3004970EF042
:10B750001BFF082204A9281D0EF0FAFE0E4B022240
:10B760006B6100230399E3602362636233680A43D9
:10B77000A560A2805B68210030009847002806D0B1
:10B7800020000BF035F82000FEF718F9034807B049
:10B79000F0BD0348FBE7C0460376020016FCFFFF3E
:10B7A00017FCFFFFF0B50400160000258380164A41
:10B7B000164B85710260218146810573186889B036
:10B7C0008C46A8421DD0124A05950492C0220292CE
:10B7D0006A4604AB82CB82C223002A006146FFF78F
:10B7E0008BFFC022094B0A49186802926A460691EB
:10B7F00006AB079582CB82C223002A003100FFF7F7
:10B800007BFF200009B0F0BD2CAA02000C2700200D
:10B810002D77020030B5002403730123034D84719A
:10B820000560818082734373846030BD44AA020046
:10B8300070B583790400DB0702D58068FEF7BEF897
:10B84000A3799B0702D5A068FEF7B8F8A3795B0738
:10B8500007D5A0230021144ADB00D150A068FEF7D1
:10B86000ADF8A3791B0708D5A568002D05D02800E1
:10B870000DF07BF92800FEF7A1F8A379DB0605D5CA
:10B88000A068002802D00368DB6898476023A2798B
:10B890001A4205D0A068002802D003685B68984768
:10B8A0000023A360A37170BD00700040F7B50126AE
:10B8B000037B040033422AD0612385791D4017D1D0
:10B8C000FFF7B6FF1820FEF759F80E230700E356DE
:10B8D00018220093637B290001930EF055FE019A14
:10B8E000009938000EF08FFAA379A7603343A37153
:10B8F0006023A279A0681A4202D00EF039F9FEBD89
:10B90000436940681B681840431E9841F7E70148A7
:10B91000F5E7C04616FCFFFF70B5040000250C4B90
:10B920000E000833858085710360210018300BF00C
:10B93000AEFF2000210020300BF0D4FF054BA68085
:10B94000E5802572E5602561656120001C6070BDA1
:10B9500054AA02001827002010B50C000AF04CFE73
:10B96000002806D1642C06D8A123044ADB00D45059
:10B9700010BD0348FCE70348FAE7C046001000404A
:10B9800016FCFFFF17FCFFFF8379DB0702D5C160C0
:10B99000002070470048FCE716FCFFFF8379DB07B7
:10B9A00001D5C06870470148FCE7C04616FCFFFFA0
:10B9B00070B545690400002D22D0037A032B21D8ED
:10B9C000FFF7ECFFA8622C20FDF7D8FF2C22002106
:10B9D00005000EF0D9FD002263695A622369934283
:10B9E00008D1636923610020237A656101332372E2
:10B9F00070BD13005A6A002AFBD162695A62F2E7ED
:10BA00000148F5E70148F3E717FCFFFF13FCFFFFD0
:10BA1000144B70B55A68144C002A03D000225A60A7
:10BA20000132A2601A69002A17D00021196180230F
:10BA3000DB000E4DE3582868012B0FD1A923DB0052
:10BA4000E1584942FFF7A0FF2868FFF7B1FF2B68D4
:10BA50005A69074BE2500123A36070BDFFF794FFC2
:10BA6000F9E7C046FC1000400010004018270020F5
:10BA70000405000070B505000C000AF0BDFD0028AB
:10BA800004D1034A034BEC71D45070BD0248FCE76B
:10BA9000001000402405000016FCFFFFF8B5837974
:10BAA00005000020DB076AD40AF0A6FD002867D154
:10BAB0006E69002E08D12C30FDF760FF04002C22A7
:10BAC00031000EF061FD6C616B69002B5AD00022D1
:10BAD0002D4B01215A608022D20511605A68002A3C
:10BAE000FCD00622294B2A4C9A562A4B0721E250B9
:10BAF0002800FFF731FFA2230026DB00E650264A8C
:10BB0000264B2800E250E979FFF7B4FF0122082113
:10BB1000234B2448E6500433E250234B234FE1509B
:10BB20000433E05002232248235022482750224F5A
:10BB3000043827501827214827506F69204827507C
:10BB4000C120800021501F498538FF380B500B6001
:10BB50008021890060580E33034363501A4B5E60A6
:10BB600062605A68002AFCD0002601271E61280066
:10BB7000A760FDF729FD3000AB791F43AF71F8BD19
:10BB80001248FCE71248FAE7FC00004085B80200C2
:10BB9000001000400C050000746962751C0500006F
:10BBA0002C0500002000040214050000FFFF000027
:10BBB000340500003C050000211001005405000080
:10BBC0000405000000E100E0FC10004016FCFFFF4F
:10BBD00013FCFFFF03000069002809D00221054A79
:10BBE000D167426A1A611A7A013A1A72024B1960D5
:10BBF0007047C04604E100E000E100E070B50400D9
:10BC00000D000AF0F9FC00283AD1002D3AD02B782B
:10BC1000232B37D802221C4B1C49DA671C4B013AF4
:10BC200058610A615A69002AFCD00020194A8D50D7
:10BC300058600130086058680028FCD001208860F6
:10BC40000020186118690028FCD060698850002223
:10BC50005A6101320A615A69002AFCD000225A60F6
:10BC600001324A605A68002AFCD000201861012382
:10BC70008B60C0210222084B49005A501A6070BDE7
:10BC80000648FCE70648FAE704E100E0001000403F
:10BC9000FC1000400405000000E100E016FCFFFF7E
:10BCA00017FCFFFF37B54C680500002C04D10C4988
:10BCB0000AF075FF28003EBD636A01A84B60227838
:10BCC000211D033AA36A0AF096FF2000FDF776FED5
:10BCD00001A928000AF063FF01A80AF059FFE9E76B
:10BCE0001427002030B505008DB0002912D0232A7A
:10BCF00010D801ACD31C002023700123A07002A82F
:10BD00006370E3700EF024FC21002868FFF776FFD3
:10BD10000DB030BD0048FBE717FCFFFF10B5002950
:10BD200003DB024B19600EF025F810BD1C27002024
:10BD300070B504001E0004AB1D7804F0C7FB2000A2
:10BD40000E4B40302360FDF791FF230001364C334A
:10BD5000013522001E701D730023E1214E32A364C1
:10BD60006365138053809381D381013B200063641A
:10BD70004902FFF7D3FF200070BDC04688A802002B
:10BD8000F7B580277F053D697C690822113C6C432B
:10BD90000600210068460EF0DBFB104B009A9A4229
:10BDA00019D0009300230193796930001339694356
:10BDB0000BF0ADFD019A009930000BF0C0FD2100A1
:10BDC00030000BF0A4FD7969AB08133969432200F8
:10BDD00030000BF0A6FD0198FEBDC046FECA000073
:10BDE000F0B50D00A9B00D9200213022060010A878
:10BDF0000B930EF0C9FB28000EF00EFC431C0C93B5
:10BE0000102B00D9B5E00B9B202B00D9B1E0290005
:10BE100030000BF0C1FD071E50D129000C9A10A86C
:10BE20000EF096FB0D990B9A14A80EF091FB80234F
:10BE30005B051A695F690C92113F7A4330005D69B6
:10BE40000B92FFF79DFF3022002104001CA80EF08A
:10BE50009BFB290000270C9B1339594330000BF042
:10BE600056FD0D9730257D430B9B0833ED18A742F7
:10BE700042DA290030221CA80EF06AFB10A91CA887
:10BE80000EF0B8FB002827D13C49300022000E916B
:10BE90000F940BF054FD6A46099513AB23CB23C2D4
:10BEA00023CB23C223CB23C23000129B1099119ABB
:10BEB0000BF053FD01230D930137D3E710300B9A9C
:10BEC0000D990EF036FB04003800FDF777FD002CCD
:10BED000A3D1200029B0F0BD6A4609951FAB23CB42
:10BEE00023C223CB23C223CB23C230001C991D9A2B
:10BEF0001E9B0BF032FDDFE7E5433023ED172540B5
:10BF00005D430B9B08355D190D9B002B1DD10C9BD0
:10BF10003021981E05F0C4F8A0422CD017490134F6
:10BF2000300022000E910F940BF009FD6A4609952E
:10BF300013AB23CB23C223CB23C223CB23C230009A
:10BF40001099119A129B0BF008FD0B9930000BF021
:10BF5000DEFC80235B0559690C230C9A133963437B
:10BF60004A430233110030000B9A0BF0DAFC002434
:10BF7000AFE7034CADE7034CABE7C046FECA000099
:10BF800017FCFFFF13FCFFFF70B50400A280FA222C
:10BF9000002308000C49920008312160A371606100
:10BFA000E260A360638209490BF0F6FC051E09D02C
:10BFB000010020001031022212300EF0C9FA2800D0
:10BFC000FDF7FCFC200070BD6CAA02007DB80200E9
:10BFD00030B50225837987B004002B4204D1FDF7E8
:10BFE000F3FAA3791D43A57120000BF01FFD002873
:10BFF0001CD06B46DD1C28000BF00FFD2B78002BAE
:10C0000017D001A80BF007FD0321019AD3170B40AD
:10C010009B189B102382FDF779FDE368A18818180F
:10C020000123A0601A0002A80AF0E2FC002007B079
:10C0300030BD0122064B1A60064A51680029FCD027
:10C0400000215160044A1268019201225A60DBE724
:10C0500000C00040FCC0004008C50040022802D1DA
:10C060000122014B1A707047082A002070B5064C57
:10C0700005002378002B04D1044801F03BFB012389
:10C080002370280070BDC046092A00205DC0010051
:10C0900070B50C000AF0B0FA002810D00023144D3F
:10C0A000A40A2B7020000BF0D5FC002803D00A2036
:10C0B0000DF067FFF6E72B78002BFCD070BD022156
:10C0C0000C4B0D4A99508021C90008005D58002D85
:10C0D000FCD0A121C9005C5019580029FCD00021D6
:10C0E00099508021C9005A58002AFCD0E6E7C04682
:10C0F000082A002000E0014004050000F8B50C000B
:10C1000015001E000AF078FA002811D00023174FFE
:10C110003B703200290020000BF09AFC002803D06D
:10C120000A200DF02EFFF4E73B78002BFCD0F8BD81
:10C1300001210F480F4B844619508021C9005A58DD
:10C14000002AFCD080270022FF00964207DD9100E4
:10C1500068586050D9590029FCD00132F5E7002217
:10C1600061465A50DA59002AFCD0E0E7082A00203C
:10C170000405000000E0014010B50400054B083341
:10C1800003601C300AF07EFB200018300AF07AFBB6
:10C19000200010BD84AA0200FF23F0B52C4D8DB005
:10C1A0002B700023040069460088009303F068F9AF
:10C1B000002802D16B469B782B70264E3368DB68D3
:10C1C000002B07D1002320881A0019000BF046FC31
:10C1D0000DB0F0BD2B78032BF4D81F4901A8FDF753
:10C1E000D9FC336801A9DE6804A80AF0ADFB04A9F4
:10C1F00030000BF004FC0027060004A80AF042FB04
:10C20000BE421ED031002022103104A80EF0A0F949
:10C210003000FDF7D3FB297804ABC9005918082278
:10C2200002A80EF095F920880123082202A90BF03C
:10C2300015FC0137002804D12088084A0C210BF096
:10C240000BFC01A80AF01EFB002FBBD0C0E7C046C4
:10C25000F02100202C2700208DB80200FFFF0000F5
:10C26000F0B5837991B004005B071BD5FDF74EFC58
:10C2700000232269801A9941994203D1F423FF33A4
:10C2800098420FD9A068002808D0364B1D880CF0C2
:10C2900089FC036815221B6A290098470422A379A8
:10C2A0009343A371A3799B0759D52F4D2B68DB6866
:10C2B000002B50D02D4B1B78032B4CD8294B2C49ED
:10C2C0001B8804A80193FDF765FC2B6804A9DE68B0
:10C2D00008A80AF039FB08A930000BF090FB070012
:10C2E00008A80AF0CFFA02AB9E1D08233200338063
:10C2F00006A9073B01980BF0B3FB002F08D03900CB
:10C300002022103108A80EF023F93800FDF756FB63
:10C31000164B32881B7806A9DE0008AB9E19300048
:10C320000EF007F9002813D0082206A930000EF0FD
:10C330000FF92B6804A9DD6805A80AF005FB202386
:10C3400008AA05A928000BF060FB05A80AF09AFAD4
:10C3500004A80AF097FA0222A3799343A37111B0BB
:10C36000F0BDC046B02900202C270020F02100207D
:10C370008DB80200F7B5089E0500152922D80120C6
:10C3800007008F40244C27421CD0E97FCC181F2C7B
:10C3900041DC69183418A14210D80021C8B2834288
:10C3A00004D9545C701884700131F7E732789A1818
:10C3B0003270EA7F9B18EB7700202CE00878C85495
:10C3C0000139E8E73478013CE4B2A34208D1002304
:10C3D000D9B28C42F0D9D05CF11888700133F7E7FC
:10C3E000EF7F0120FF183F1B1F2F14DC0227A01C2A
:10C3F0007F423618381B0190E87F2F18BE4204D2C6
:10C400003078019FF0550136F6E7041B023CEC77CB
:10C4100028000BF06FFBFEBDFC002000F0B585B0DE
:10C4200001930AAB1E880BAB1B78451C02930EAB25
:10C430001B78040003930B78170003704B8A1022BB
:10C440004382013128000EF083F86B469B882683D7
:10C4500063836B461B7B002623776B4601221B7A86
:10C460006761E683EB77A31CDA770C9B0C2563628C
:10C47000230020000D9A28331A705E709E702A00E7
:10C4800031002C300EF080F82000074BE663A363E8
:10C490002A00310040300EF077F82000034B26656B
:10C4A000E36405B0F0BDC046777A0200697A020005
:10C4B00070B50D000CF076FB04000368002D09D167
:10C4C0005B699847FA2080006843074904F0E8FD5B
:10C4D000E08070BD9B6898478542F3D223682000B6
:10C4E0009B6898470500EDE771020000F0B5070072
:10C4F0001600A1B002C704006B4918A81D000BF07C
:10C5000040FB331E03D030000EF086F883B20122C8
:10C5100004920022039202920232019200933200AE
:10C5200018A93800FFF77AFF23006049583318A88C
:10C5300007930BF026FB2B1E03D028000EF06CF89F
:10C5400083B20122049200220392029202320192EB
:10C5500000932A0018A90798FFF760FF23005449A9
:10C56000AC3318A808930BF00CFB269B002B03D0D0
:10C5700018000EF051F883B20122049200220392B7
:10C580000292023201920093269A18A90898FFF7A6
:10C5900045FF631CFF33474918A809930BF0F1FAD4
:10C5A000279B002B03D018000EF036F883B201222F
:10C5B00004920022601C03920292023201920093C4
:10C5C000279A18A9FF30FFF729FF23005533FF33BF
:10C5D000394918A809930BF0D4FA289B002B03D0F3
:10C5E00018000EF019F883B201220492002203927F
:10C5F0000292023201920093289A18A90998FFF733
:10C600000DFF2300A933FF332C4918A80A930BF020
:10C61000B8FA299B002B03D018000DF0FDFF83B260
:10C6200001220492002218AD03920292023201927A
:10C630000093299A29000A98FFF7F0FE204B1B78F7
:10C640000B93002B2DD1079B12971393089B0DAFD3
:10C650001493631CFF331593099B1A4916930A9B85
:10C66000380017930BF08DFA1D2149203B781022DA
:10C670002B707B8A12AE6B8206ABC918C0180DF006
:10C6800067FF06232B756B469B8D2068AB83AE61DD
:10C690000CF08CFA036829001B6898470122084BAC
:10C6A0001A70200021B0F0BD292A0000242A0000C1
:10C6B000252A0000272A0000262A0000282A000038
:10C6C0000A2A00200A18000070B5002504000A4B51
:10C6D0008580083385710360C1601830FDF7C6FAA4
:10C6E00020001C30FDF7C2FA044BA5601C6001233A
:10C6F00065612000A37170BD84AA02002C27002070
:10C70000FA2130B585B00500012302228900684670
:10C710000AF06EF9074C2068002809D00BF06AFA7D
:10C720002988054B22681980022391790B43937164
:10C7300005B030BD2C270020B029002010B50C001A
:10C7400007290DD880680CF02DFA064B195703689D
:10C750005B6C9847431E9841034B4042184010BD04
:10C760000248FCE785B8020016FCFFFF17FCFFFF3C
:10C77000F0B5A44C0D00A544040007939AAB1B78B8
:10C78000A14909A804930692FDF704FA20002900A4
:10C790001C300AF0E1F8C020800000F0A1FF082062
:10C7A000FDF7ECF80600002100F088FE15ADA6604C
:10C7B00000210C220EA80DF0E7FE2B000EAA83CA62
:10C7C00083C3924B2900EB60002330002B610CF0F7
:10C7D000D2F9A0680CF0E6F908220021059016A80D
:10C7E0000DF0D2FE1420FDF7C9F829000200884B95
:10C7F0001593C8C9C8C2874B059EC3600023A436E1
:10C8000003613368002B00D0F5E03060A0680CF0C5
:10C81000CDF908220021060016A80DF0B5FE14205F
:10C82000FDF7ACF87C4B1593030086CD86C37B4B9C
:10C83000C36000230361336B002B00D0DDE0306365
:10C84000A0680CF0AFF908220021050016A80DF031
:10C850009BFE1420FDF792F8714B15AE1593030063
:10C8600086CE86C36F4B9835C360002303612B6867
:10C87000002B00D0C3E02860012504AB1B7C04AA78
:10C880002B4308A9280013740BF0ECF8A0680CF0F7
:10C8900091F9036864495B6A9847A0680CF08AF9CB
:10C8A000036862499B699847A0680CF083F90023EC
:10C8B00002680093166804992A00B047049B002B75
:10C8C0000AD020000BF09FF9032805DDA0680CF0CA
:10C8D00071F90368DB6898470EA80BF002F92F2066
:10C8E00004ABC0180BF0FDF8362004ABC0180BF0F9
:10C8F000F8F83D20042504ABC0180BF0F2F80EAB9D
:10C900000A93A06804AB5D770CF054F903680AA998
:10C910001B699847A0680CF045F903680AA95B6D8C
:10C920009847A0680CF03EF903680021DB6D98473A
:10C93000A0680CF037F9036802219B6D984700212D
:10C940002000FFF7FBFE1820FDF718F8A16800F0A3
:10C9500005FA374B374A1B68A1680393364B15A875
:10C960001B6800260293354B0CAF1B680193069B96
:10C970001B685B190093324B12681B68FFF7B6FD0A
:10C980003020FCF7FBFF079AA16800F0A7FAA06827
:10C990000CF008F9036839009B6A9847294BBE8060
:10C9A000A0680C930CF0FEF803683900DB6A984726
:10C9B0002900A0680BF0F1F8099A09219378A06882
:10C9C00052190BF0FDF8A0680CF0ECF8C8210671C4
:10C9D000A068FFF76DFD04AB1B7FB34204D0A068D5
:10C9E0000CF0E0F80BF0C3F809A809F04BFF952311
:10C9F0009B009D44F0BD036107E703611FE70361EE
:10CA000039E7C046ACFDFFFF80B90200857A02001D
:10CA100001C70100937A020099C10100A17A0200C6
:10CA2000CF7A0200AF7A020049CA01007DCA010034
:10CA3000282700202427002008200020202700206D
:10CA40000C2000200800100013B506226846FDF7F0
:10CA5000E3F8094B1C68002C0AD0694601A809F0CC
:10CA600073FF200001A90BF0EFF801A809F00AFFFD
:10CA7000684609F007FF13BD2C270020002373B57B
:10CA800001AE0C0031000500019302F0F9FC002812
:10CA900002D1B278064B1A70064B1868002806D0EF
:10CAA00061426141044BC9B21D800BF0D5F873BDE2
:10CAB000F02100202C270020B0290020F0B5040030
:10CAC00097B0039107A89C490592FDF763F89B492D
:10CAD00008A8FDF75FF822000FAD28001C3207A957
:10CAE00009F059FF08AA290009A809F054FF2800F5
:10CAF00009F0C8FE92490AA8FDF74CF8A0680CF0AE
:10CB000051F803680DAE5B69984728000AF0E9FF09
:10CB1000332004ABC0180AF0E4FF3A2004ABC0187D
:10CB20000AF0DFFF412004ABC0180AF0DAFF8023CF
:10CB3000DB00B380A0680D950CF034F80368310079
:10CB40005B6D9847A0680CF02DF8036800219B6D81
:10CB50009847A0680CF026F80700002506000A3761
:10CB60001F22002138000DF00FFDFD7730000AF084
:10CB7000F5FF0621A0680BF010F8099A09219378B7
:10CB8000A06804320BF01CF8A0680CF00BF8C82168
:10CB90000571A068FFF78CFCA0680CF003F8FF2774
:10CBA0002E000581A0680BF0FDFF0AF0E0FF03985E
:10CBB000FEF790FA0AA90CA809F0C6FE78220CA983
:10CBC0000398FEF7ABFB0CA809F05CFE039920006C
:10CBD0000BF055F82000FCF7F7FC0495012563697C
:10CBE0001D402DD057490BA8FDF7E0F80BA90CA864
:10CBF00009F02EFF00220CA9130001920092039865
:10CC0000FEF730FB0CA809F016FF049B002B42D165
:10CC1000043F282F41DD0025FE2F00DC049D0598F0
:10CC20000AF048F9002806D0012362699A431300EC
:10CC300004221343636100260BA809F0FCFE04954F
:10CC400004226369134233D0FF210398C826FEF7FC
:10CC50008BFB0025B600A36902229B5EAB4222DD5E
:10CC6000200029B2183009F0ACFE0023010003981F
:10CC70001A007430FDF7EAF83000FCF73DFD039828
:10CC80000AF035FBC820FCF737FD02226369134226
:10CC900009D10135DFE70437BBE703980AF027FB2A
:10CCA000002FBCDDBAE7FA208000FCF725FD002646
:10CCB000022365691D421CD006331D4024D0224941
:10CCC0000BA8FDF773F80BA90CA809F0C1FE002210
:10CCD0000CA90192009213000398FEF7C3FA0CA866
:10CCE00009F0A9FE1948FCF707FD0BA809F0A3FEFF
:10CCF000174E6420FCF700FD164B01369E4200DC07
:10CD00006CE709F08BFC69E713490BA8FDF74EF8B7
:10CD10000BA90CA809F09CFE2B002A000CA9019578
:10CD200000950398FEF79EFA0CA809F084FE0BA864
:10CD300009F081FEDDE7C04699B80200A9B80200FB
:10CD4000ABB80200B9B80200FEB80200983A000081
:10CD50008C0A00008B0A00003BB902000022594BEC
:10CD6000F0B50833060003600F001000A9B0B160F1
:10CD70000BAB991801324870102AFAD10F3A524C75
:10CD80001A700E32105D991A0874013AFAD2997B22
:10CD90005A7B09020A4331000C31039125211B788B
:10CDA00013AD2B7002ABC918452302A81B186A8269
:10CDB000180010220DF0CCFB039B64216B61012352
:10CDC000002402AA2B7752181993093313701DAB54
:10CDD0001C706D2302AA9B181C706E2321009B18E7
:10CDE0001EA80C22EC836C621C700DF0CDFB374B3F
:10CDF0000C22210023A8AB63EC630DF0C5FB344B80
:10CE000002AAEB6446239B180322DA7722002C65E2
:10CE10000595347306AD2B1901345A70102CFAD1D4
:10CE200001232C482B700E33195CEA1A1174013B54
:10CE3000FAD211212520AA7B6B7B12020BAC134383
:10CE40002A78638202ABC9182270C01810220DF034
:10CE50007FFB0123237505ABA36100233800A38367
:10CE60000BF0A4FE036821001B68984713ABDB8B13
:10CE7000B068B3820BF09AFE002203680092B18A78
:10CE8000039ADC680123A047B0680BF08FFE07000F
:10CE90001420FCF773FD00220123040002610692B6
:10CEA00040C00832290007930DF052FB0A4BE360A3
:10CEB000BB69002B03D13000BC6129B0F0BD2361F8
:10CEC000F9E7C0469CAA0200ADB90200777A0200D9
:10CED000697A0200BDB90200DF7C0200F0B50026CD
:10CEE0000400734BDDB0083303608160C26086804C
:10CEF000867132006F4947A80AF091FF230014336E
:10CF00000125042708931223009704950193089A9A
:10CF1000330047A9039602961DA8FFF77FFA320057
:10CF2000654947A80AF07BFF0820220000973300DC
:10CF300015AF10320495019047A90396029632A8C6
:10CF4000FFF76CFA32005D4938000AF068FF2300F1
:10CF5000082004221C330993390033000495019002
:10CF600000920396099A029647A8FFF757FA3200F3
:10CF7000534938000AF053FF5420FCF7FFFC05002A
:10CF800020000123122104221830079004930191FC
:10CF90000092390002003300280003960296FFF742
:10CFA0003DFA2800474BA5620822EC620AA93030FE
:10CFB0000A930B960DF0CCFA434B0422AB6301238A
:10CFC00029352B7009992661E66107980DF0C0FAA2
:10CFD0000422079908980DF0BBFA6621032304AADE
:10CFE0008918CB77BA2104AA8918CB77872104AA9C
:10CFF00049008918A26ACB77911CA685CB771DAB17
:10D000000C9332AB0D930F9247AB32002F4910A80F
:10D010000E930AF004FF3021452004AB5B181B7807
:10D0200012313B7004AB5B181B8811397B8204AB57
:10D03000C918C01810220DF08BFA04220CADA0689C
:10D040003A75BD61BE830BF0B1FD036839001B6802
:10D050009847822204AB9B181B885432238404AB6C
:10D060009B181B885432A38404AB9B181B88A068B0
:10D0700063840BF09BFD07001420FCF77FFC050088
:10D08000134B066108221093119610A910C00DF0E1
:10D090005FFA104BEB60BB69B34206D1BD61200063
:10D0A000FCF792FA20005DB0F0BD2B61F6E7C046B8
:10D0B000A8AA0200EDB90200CDB90200DDB9020054
:10D0C000FDB90200F17D02005D7D02000DBA020093
:10D0D00041D10100877D0200F0B504000E0015006B
:10D0E00085B01F000CAB1B881030019309F076FC53
:10D0F000268065801820FCF741FC02AE0500330055
:10D100000AAA03CA03C32F602800082700213A0097
:10D110000C300DF039FA3A003100281D0DF018FAE4
:10D12000064B02226B61200000230199A5600A438F
:10D13000E360A2802362636205B0F0BDB17D0200AE
:10D14000F0B50B898DB00593CB68060004934B882E
:10D15000828C9A420ED1049C049B059A9B181B1B3F
:10D16000032B3BDD62882188012308A809F040FCDD
:10D170000434F1E7428C9A4230D1049C049B059A16
:10D180009B181B1B032B29DD23882820069363880B
:10D19000F7680793124B089300230993FCF7EEFB03
:10D1A000C0236A460500029308AB03CB03C23300D9
:10D1B0000699079A2800FFF78FFF3B6829005B68F4
:10D1C00038009847002807D0002D05D0280009F026
:10D1D0000FFB2800FCF7F2FB0434CFE70DB0F0BDE5
:10D1E0006F7E020070B5040090B080680AF03AFECD
:10D1F000022101401AD1A38D002B17D00C4B6A4697
:10D2000004931023E568A1850591029304AB41CBFB
:10D2100041C20A00230006A8FFF75EFF2B6806A99B
:10D220009B682800984706A809F0E2FA10B070BD84
:10D230006F7E0200002815D0006041608260C360EC
:10D24000046145618661C761444604624C4644629C
:10D25000544684625C46C462644604636E46466318
:10D2600074468463002A06D0C46B043C043A2568E3
:10D270001560B442F9D18C6BA6464E6BB546002BB7
:10D2800006D0CC6B043C043B1D682560B442F9D148
:10D290000C6BA446CC6AA3468C6AA2464C6AA14693
:10D2A0000C6AA046CF698E694D690C69CB688A68A3
:10D2B000086849687047006041608260C36004612B
:10D2C00045618661C761444604624C4644625446E7
:10D2D00084625C46C462644604636E464663744678
:10D2E0008463C46B043C043925680D60B442F9D1F1
:10D2F000C76986694569046970470060416082605A
:10D30000C360046145618661C761444604624C465E
:10D310004462544684625C46C462644604636C465C
:10D3200044637446846304697047846BA646446B07
:10D33000A546046BA446C46AA346846AA246446A0E
:10D34000A146046AA046C769866945690469C3683D
:10D35000826800684168704710B5041E0CD00DF05B
:10D360005BF9431EE3189C4208D222781978013BEE
:10D3700021705A700134F6E7014810BD0020FCE727
:10D3800017FCFFFFF0B585B002900C1E2AD00023D9
:10D39000C217161A56400193019B30005D1C631999
:10D3A0000A215F1E039303F0EBFF494230313970CD
:10D3B00030000A2103F0FEFE47420600002F0FD185
:10D3C000029B002B04DA2D23019D039A0235137072
:10D3D000002320006355FFF7BFFF380005B0F0BD04
:10D3E0000195D9E7004FF8E717FCFFFF10B5826001
:10D3F0004A4304004160002A0ADD074B90009A422C
:10D4000001DD01204042FCF7B9FA2060200010BD88
:10D4100000230360FAE7C046FEFFFF1F4A688B68DF
:10D4200070B58360534304000D004260002B12DD91
:10D430000A4A9E003000934201DD01204042FCF781
:10D440009DFA002320602A68D158C15004339E42BF
:10D45000FAD1200070BD00230360FAE7FEFFFF1F32
:10D4600070B5002817D1114D2E68002E11D108304B
:10D470000CF080FE066046600D4E04003368002B01
:10D4800002D10CF027F8306023682C609B00F35821
:10D490006360286870BD0122064907480B68134085
:10D4A000F8D1026043600A60F4E7C04634270020E8
:10D4B000402700203027002038270020002370B5A7
:10D4C00004000160436099420AD1064D2B68002B8D
:10D4D00002D10BF0FFFF286023689B00EB586360CC
:10D4E000200070BD40270020436810B50400002BC9
:10D4F00002D104480CF04CFD606803681B69984732
:10D5000010BDC0461DBA0200436810B50400002BD0
:10D5100002D104480CF03CFD606803689B699847A1
:10D5200010BDC0461DBA0200436810B50400002BB0
:10D5300002D104480CF02CFD606803685B6A9847D0
:10D5400010BDC0461DBA020010B5040002F06AFB0F
:10D55000034B1B68002B01D02000984710BDC0462C
:10D5600048270020F0B58BB0050001F0C9FD002070
:10D5700000F08AFD036807001B6998473B680400B8
:10D580009B69380098473B6806005B6A38009847FB
:10D590000300288810380B2862D803F077FD063E78
:10D5A0006161615B616161676179AF882000390009
:10D5B0000CF016FA22006B7B583201931378A8798D
:10D5C0009C46022361460B43137004AB1F8001236A
:10D5D00004AA9370D07013006A461279E91D9A72FA
:10D5E0002B000622163305A809930CF0B1FF290081
:10D5F0000B2004AB06220E31C0180CF0A9FF9434A6
:10D600006368A360A06800282AD0C36804A998476B
:10D61000A368002BF4D01B69F3E720002F49AF88E3
:10D620000CF0DEF92200022058321378A9798343E6
:10D63000137004AB1F809970A0346368A360A06866
:10D6400000280DD0C36804A99847A368002BF4D024
:10D650001B69F3E75B69A888A91D002B00D09847D8
:10D66000290030000BF0FAFB0BB0F0BD636E002B0D
:10D67000F6D0AF79A366A06E0028F1D0C368390058
:10D680009847A36E002B01D1636EF3E71B69F1E7A6
:10D69000012269460D27AB7BEF571A4001925A07CA
:10D6A000920FDB080A720B730622E91D04A80CF026
:10D6B0004FFF6A46127904ABDA716A46127A9F719B
:10D6C0001A726A46127B20005A722B000F3307939E
:10D6D0008C348030236804A99847C1E7FFFF00001D
:10D6E0000723D72802D9024B18600023180070477F
:10D6F00044270020014B18607047C046482700208F
:10D700001FB58022A323D205DB00D3580820DB07F6
:10D7100000D405301C4B48221C4902F0D7FC0028DD
:10D720000AD080B2002807D1BFF34F8F184B194A97
:10D73000DA60BFF34F8FFEE7002302A802930133A4
:10D740000370154B1B6843600BF03CFA002802D0B5
:10D75000072005B000BD68460BF032FA0028F7D16B
:10D7600069460BF02BFA0028F2D10C4802F0DEFCDF
:10D7700080B20028EDD10A4802F0E2FC80B2002815
:10D78000E7D101F021F8E4E7C98B02004C27002023
:10D7900000ED00E00400FA054427002065D50100F3
:10D7A00049D5010080B2002807D1BFF34F8F034B4A
:10D7B000034ADA60BFF34F8FFEE7704700ED00E0E9
:10D7C0000400FA0513B504680093A46813000A0066
:10D7D0000149A04716BDC046FFFF000037B506ACA3
:10D7E0002578046801950093246913000A00014913
:10D7F000A0473EBDFFFF0000F0B587B00D0000243C
:10D8000069466F4616004C800DAA0CA9098812784B
:10D8100039800193A2421BD101004479F83194422E
:10D820000DD908310F00083F3F88B7421BD1302186
:10D830002032920012580132D27F0A4215D16A4634
:10D84000310028000BF0C8F9002808D1062407E0B1
:10D850006A46310028000BF0BFF9002800D00324ED
:10D86000200007B0F0BD0132D9E710210A40514233
:10D870004A41002002ACE3600CABA360174B0132BD
:10D880002680A270A0809D4207D100F0FDFB0368B6
:10D890001B6998470CF0A7F80500210028000BF041
:10D8A0009FF9002482B2A242DAD0112A13D00BD8F9
:10D8B000082ACBD06A46310028000BF08DF90524E8
:10D8C0000028CDD0023CCBE7054B9A4203D0054B54
:10D8D0009A42EFD1BAE70524C2E7C046FFFF000035
:10D8E0000330000001340000F0B5050099B00800D5
:10D8F0002E240C9100F072FD06ABE4181290220069
:10D9000012A901200BF066F9002802D0032019B0FB
:10D91000F0BD23880C9A0B9093830C9B0B9A1B7D74
:10D92000934200D8C6E06B791D2B01D90720EEE7A2
:10D930000C9B9B690D930B9B0D9A9B009C586369F4
:10D94000002B07D1638B002B04D1631CDB7F022BE0
:10D9500000D1AAE0200000F041FD2300002628337A
:10D9600012900E960D960F930F9B1B78B34221D900
:10D97000626AB3009F58342206AB9B1800221A70CB
:10D980000023002113AAD21801335170102BF8D1B3
:10D99000462206AB9B184A4A13A938001A800BF09E
:10D9A000A7F9002803D07B690D937B8B0E9301367A
:10D9B000F6B2D9E76979A31C1F31C9006918621C46
:10D9C000DB7FD27F089121002A310978002007915E
:10D9D00021002931097806910E9905910D9904913C
:10D9E000217F0391218B0291618B019161690091EB
:10D9F00012A90BF0C7FD002800D087E76B7907005C
:10DA00001A00203292001F335451DB005B5BE3832A
:10DA10006B7901336B71230028331B78BB4244D9E7
:10DA20008E239B00EB5C132B00D97FE7626ABB005F
:10DA30009E580023180013A90B70CA1801335070A8
:10DA4000102BFAD11E4B30004B820BF051F90D9088
:10DA5000002827D1300000F0C1FC8E2189006A5CCB
:10DA6000738B1E32FF325200AA180292327F12903C
:10DA70000192328B12A9009272690D9800F0FEFC9F
:10DA8000002800D042E78E2189006A5C531CDBB27B
:10DA90006B541D337A32FF3392005B005651EB1802
:10DAA0005B88F3830137FFB2B5E70B980130C3B24F
:10DAB0000B9332E72B79002001332B7127E7C04607
:10DAC0000129000070B50C220D00002104000CF0AB
:10DAD0005BFD00232361024B25602000E36070BDE5
